:100000000C9491050C94B9050C94B9050C94B905A0
:100010000C94B9050C94B9050C94B9050C94B90568
:100020000C94B9050C94B9050C94F00B0C945F0C6E
:100030000C94B9050C94B9050C94B9050C94B90548
:100040000C94B9050C94B9050C94B9050C94B90538
:100050000C94B9050C94B9050C94B9050C94A60B35
:100060000C94B9050C94B9050C94B9050C94B90518
:100070000C94B9050C94B9050C94B9050C94B90508
:100080000C94B9050C94B9050C94B9050C94B905F8
:100090000C94B9050C94B9050C94B9050C94B905E8
:1000A0000C94B9050C94B9050C94B90504083649AB
:1000B000493604080161190704083E49493004081B
:1000C0004F494931040818167F1004082241493667
:1000D0000408625149460408427F400004083E413A
:1000E000413E00000000003E5B4F5B3E3E6B4F6BAD
:1000F0003E1C3E7C3E1C183C7E3C181C577D571C09
:100100001C5E7F5E1C00183C1800FFE7C3E7FF0081
:1001100018241800FFE7DBE7FF30483A060E2629CF
:10012000792926407F050507407F05253F5A3CE792
:100130003C5A7F3E1C1C08081C1C3E7F14227F2258
:10014000145F5F005F5F06097F017F006689956A23
:10015000606060606094A2FFA29408047E040810AE
:10016000207E201008082A1C08081C2A08081E10D7
:100170001010100C1E0C1E0C30383E3830060E3E8F
:100180000E06000000000000005F000000070007EE
:1001900000147F147F14242A7F2A12231308646218
:1001A00036495620500008070300001C2241000079
:1001B00041221C002A1C7F1C2A08083E08080080D7
:1001C000703000080808080800006060002010086F
:1001D00004023E5149453E00427F40007249494970
:1001E000462141494D331814127F102745454539A2
:1001F0003C4A4949314121110907364949493646A6
:100200004949291E00001400000040340000000885
:100210001422411414141414004122140802015928
:1002200009063E415D594E7C1211127C7F494949B5
:10023000363E414141227F4141413E7F494949414A
:100240007F090909013E414151737F0808087F0079
:10025000417F41002040413F017F081422417F40FF
:100260004040407F021C027F7F0408107F3E4141D6
:10027000413E7F090909063E4151215E7F09192946
:1002800046264949493203017F01033F4040403F30
:100290001F2040201F3F4038403F63140814630371
:1002A000047804036159494D43007F4141410204F0
:1002B000081020004141417F0402010204404040F7
:1002C0004040000307080020545478407F284444ED
:1002D000383844444428384444287F385454541807
:1002E00000087E090218A4A49C787F080404780002
:1002F000447D40002040403D007F102844000041E4
:100300007F40007C047804787C08040478384444F6
:100310004438FC1824241818242418FC7C080404ED
:1003200008485454542404043F44243C4040207C56
:100330001C2040201C3C4030403C44281028444CA9
:100340009090907C4464544C440008364100000076
:10035000770000004136080002010204023C262317
:10036000263C1EA1A161123A4040207A38545455CF
:10037000592155557941215454784121555478409B
:1003800020545579400C1E52721239555555593921
:100390005454545939555454580000457C41000276
:1003A000457D420001457C40F0292429F0F02825B4
:1003B00028F07C545545002054547C547C0A097F15
:1003C0004932494949323248484832324A4848302D
:1003D0003A4141217A3A42402078009DA0A07D39DF
:1003E000444444393D4040403D3C24FF2424487E61
:1003F0004943662B2FFC2F2BFF0929F620C0887E4E
:10040000090320545479410000447D413048484A52
:1004100032384040227A007A0A0A727D0D19317D05
:100420002629292F28262929292630484D402038D9
:100430000808080808080808382F10C8ACBA2F1098
:100440002834FA00007B000008142A142222142AFF
:1004500014089500220095AA005500AAAA55AA558D
:10046000AA000000FF00101010FF00141414FF0079
:100470001010FF00FF1010F010F0141414FC001402
:1004800014F700FF0000FF00FF1414F404FC141420
:1004900017101F10101F101F1414141F001010101D
:1004A000F0000000001F101010101F10101010F0AE
:1004B00010000000FF101010101010101010FF108E
:1004C000000000FF140000FF00FF00001F101700D5
:1004D00000FC04F414141710171414F404F40000AE
:1004E000FF00F714141414141414F700F714141460
:1004F000171410101F101F141414F4141010F010FF
:10050000F000001F101F0000001F14000000FC146A
:100510000000F010F01010FF10FF141414FF14105E
:1005200010101F00000000F010FFFFFFFFFFF0F0B1
:10053000F0F0F0FFFFFF0000000000FFFF0F0F0FC3
:100540000F0F38444438447C2A2A3E147E020206A7
:1005500006027E027E0263554941633844443C04EE
:10056000407E201E2006027E020299A5E7A5991C66
:100570002A492A1C4C7201724C304A4D4D30304889
:10058000784830BC625A463D3E494949007E0101E7
:10059000017E2A2A2A2A2A44445F444440514A447C
:1005A0004040444A51400000FF0103E080FF00004A
:1005B00008086B6B083612362436060F090F060042
:1005C0000018180000001010003040FF0101001F4B
:1005D00001011E00191D1712003C3C3C3C000000AC
:1005E0000000080B000202020000090400000102E2
:1005F0000200000524001001052401010104240269
:1006000006052406000107058103100040090401C6
:1006100000020A00000007050202400000070583EF
:10062000024000000403090412010002EF0201402D
:100630004123368000010102030141726475696E35
:100640006F204C4C430041726475626F7900F0F882
:100650009C8E8783878E9CF8F00000FEFF030303C7
:100660000303070EFCF80000FEFF03030303030768
:100670000EFCF80000FFFF00000000000000FFFF7C
:100680000000FEFF8383838383C7EE7C380000F87D
:10069000FC0E07030303070EFCF800003F7FE0C0D9
:1006A0008080C0E07F3FFFFF01010101010101FFE8
:1006B000FF0000FFFF0C0C0C0C1C3E77E3C1000098
:1006C0007FFFC0C0C0C0C0E0703F1F00001F3F7070
:1006D000E0C0C0C0E0703F1F00007FFFC1C1C1C1CA
:1006E000C1E3773E1C00001F3F70E0C0C0C0E07057
:1006F0003F1F000000000001FFFF01000000D5F0D7
:100700008D14A1C881CFD9F1AF2000040826494932
:100710003E04081B04041B05080F0F0F0F0F0F07E3
:10072000070303074080BE8A8A8280FF0000000022
:100730000000FF000000000000FF000000000000BB
:10074000FF000000000000FF000000000000FF00AC
:100750000000000000FF017D55554501FF0E08FF18
:10076000818181FFFFFF818181FF7E3C180A10009B
:1007700000000000000000303030300000000000B9
:100780000000000000000000000000000000000069
:1007900000000000000000000000000000202038E1
:1007A00038505060600000000000000000000000B1
:1007B0000000000000000000000000000000000039
:1007C0000000003030C8C820209494686850500061
:1007D0000000000000000000000000000000000019
:1007E00000000000000000000020205454AAAA5875
:1007F000582A2AE0E09C9C28280000000000000005
:1008000000010100000101000000000000000018CC
:1008100018A0A004044B4B80800A0A292910108CD0
:100820008C6060000001010000020202020000036F
:10083000030000000000000A10000000000000009B
:1008400000303030300000000000000000000000E8
:100850000000000000000000000000000000000098
:100860000000000000000020203838505060600078
:100870000000000000000000000000000000000078
:10088000000000000000000000000000003030C840
:10089000C8202094946868505000000000000000B8
:1008A0000000000000000000000000000000000048
:1008B00000000020205454AAAA58582A2AE0E09C9C
:1008C0009C28280000000000000000010100000139
:1008D0000100000000000000001818A0A004044B54
:1008E0004B80800A0A292910108C8C60600000015E
:1008F00001000002020202000003030000000000E9
:100900000000400040004000400040004000400027
:1009100040004000400040004000400040004000D7
:1009200040004000400040004000400040004000C7
:1009300040004000400040004000400040004000B7
:1009400040004000400040004000400040004000A7
:100950004000400040004000400040004000400097
:100960004000400040004000400040004000400087
:1009700040004000400040004015161516151615A1
:10098000161516151615161516151615161516150F
:1009900016151615161516151615161516151615FF
:1009A00016121C0F220C28092E0634033A013E01B0
:1009B0003E013E013E023B0339023A023B033A024A
:1009C0003B033B023B013D013C013D013D023B013C
:1009D0003B023B013B013B023B033B033B033A032E
:1009E0003B023B013B023A013C023A013C023B0321
:1009F00039033A033B033A0339023A033A023C0211
:100A00003C013C023A033A023B0339033A023B0100
:100A10003C023C013C023C023C013D013D023C02E7
:100A20003B023B013C013B013C023C033B033A03DC
:100A30003B033B033A033A033B023C033A033A03CA
:100A40003B033B023C013C023B013D023B013C02BB
:100A50003C013C013B013B023A023A0339033903B2
:100A600039033A0339033A033B033B023C023B039D
:100A70003B033B023B013D013D013D013C013D018A
:100A80003D013C023C013C013D013D013C013D0179
:100A90003D023C013C023A013C023B023A023A016F
:100AA0003B013C023B023C013D013D023C013D015A
:100AB0003C023B0339023A023B0339023A013B0153
:100AC0003B013C013C013D023C033A033B033B0339
:100AD0003A023C023C013D013D013C013D013D012A
:100AE0003D023C013D013C023A0339033A033A031B
:100AF0003B023C033A0339023B013D013D0708112B
:100B00007F5E7F3A7F6E7F3A7F5E7F117F08084964
:100B1000496B6B7F7F6B7F223E363E1C1C080800B2
:100B2000C40E11241FBECFEFDAE0DEBFCDBF11E04F
:100B3000A0E0B1E0EAE7F1E302C005900D92A43E27
:100B4000B107D9F729E0A4EEB1E001C01D92A136AA
:100B5000B207E1F715E0C1E9D5E004C02197FE0135
:100B60000E94A118C039D107C9F70E94700F0C94D8
:100B7000BB180C940000EBE1F2E0A0E0B8E00080CC
:100B80000EBC8111012C1197A0FDFDCF0192B9F788
:100B90000DB40895FC0180911A02882311F13FB72A
:100BA000F89482E08093E9002091F200822F90E097
:100BB0001816190614F481E090E0882339F028987B
:100BC00044E6409319024091F1004083222339F01A
:100BD0002091F200211103C02BE62093E8003FBFD3
:100BE00008958FEF9FEF08952FB7F89483E08093D7
:100BF000E9009091E800892F807295FF04C09091E0
:100C0000F20080E4891B2FBF0895809111028111A9
:100C10000DC082E080930D0284E080930E0210925A
:100C2000100210920F0281E0809311028DE092E099
:100C30000895FC010E942D06319728F068517C4FE1
:100C40008F4F9F4FF9CFAB01FC010E942D06641717
:100C500075078E079F07C8F30895A9E0B2E02FB784
:100C6000F8947D918D919C9166B52FBFA89B05C08E
:100C70006F3F18F47F5F8F4F9F4F22E0660F771F03
:100C8000881F991F2A95D1F708954091E601509148
:100C9000E7012091E4013091E50142175307B4F4D4
:100CA0009091E8009570E1F39091E80092FD19C0F1
:100CB0008093F1008091E6019091E70101968F7396
:100CC0009927892B19F48EEF8093E8008091E60133
:100CD0009091E70101969093E7018093E60181E00E
:100CE000089580E00895DF92EF92FF920F931F9393
:100CF000CF93DF93D82E8A01EB017B01E40EF51E22
:100D0000CE15DF0559F0D7FE12C0FE0184910E9476
:100D1000450621968111F4CF0FEF1FEFC801DF9137
:100D2000CF911F910F91FF90EF90DF9008958881F0
:100D3000EECF0F931F93CF93DF931F92CDB7DEB704
:100D400082E0898342E450E062EE75E080E80E9430
:100D500073060E940506DC0112960D911C91011587
:100D6000110589F0D801ED91FC910280F381E02D0D
:100D7000BE016F5F7F4FC801099597FD04C0F80160
:100D800000851185ECCF89810F90DF91CF911F9164
:100D90000F910895615030F02091F100FC01208303
:100DA0000196F8CF289884E6809319020895AF92AF
:100DB000BF92CF92DF92EF92FF920F931F93CF9348
:100DC000DF936C017B018B01040F151FEB015E01AA
:100DD000AE18BF08C017D10759F06991D601ED913F
:100DE000FC910190F081E02DC6010995892B79F7DE
:100DF000C501DF91CF911F910F91FF90EF90DF9090
:100E0000CF90BF90AF9008958F929F92AF92BF9274
:100E1000CF92DF92EF92FF920F931F93CF93DF93C6
:100E20006C017B018A0180910B01882309F45AC06F
:100E300080911A02882309F455C08091EA0180FF4D
:100E400005C08091E00082608093E000E801B12C51
:100E50008AEFA82E93E0892E2AE3922E209711F490
:100E6000BB20C9F10E94F405811108C0AA94AA20F0
:100E7000C9F181E090E00E941906F0CF8C171D06A1
:100E800011F00CF08C2F9FB7F8948092E90020911C
:100E9000E80025FD02C09FBFE1CF282F30E0C21B34
:100EA000D30BF701815020F041914093F100FACF2C
:100EB000E20EF31EBB2021F09092E800B12CEBCFA4
:100EC0008091E80085FDE7CF9092E800BB24B394C1
:100ED000209709F3F3CF5D9884E68093E90110161B
:100EE00011063CF081E090E0F6019383828310E0EC
:100EF00000E0C801DF91CF911F910F91FF90EF901B
:100F0000DF90CF90BF90AF909F908F900895CF9338
:100F1000DF931F92CDB7DEB76983DC01ED91FC91C1
:100F20000280F381E02D41E050E0BE016F5F7F4F12
:100F300009950F90DF91CF91089583E08093E900A8
:100F40008091F200882319F08AE38093E8000895E5
:100F50000E94F40590E00895CF93DF931F92CDB7E0
:100F6000DEB7FC018485958597FD08C02FEF3FEF24
:100F7000358724870F90DF91CF910895CE01019698
:100F80000E94CA05019719F4898190E0F3CF8FEF91
:100F90009FEFF0CF0F931F93CF93DF931F92CDB7A7
:100FA000DEB78C01FC018485958597FF0BC0CE01CF
:100FB00001960E94CA05019771F4898190E0F801B9
:100FC00095878487F801848595850F90DF91CF916F
:100FD0001F910F9108958FEF9FEFF1CFFC01848552
:100FE000958597FD0BC09FB7F89482E08093E90048
:100FF0008091F2009FBF90E0019608959FB7F8940A
:1010000082E08093E9008091F2009FBF90E0089514
:101010004F925F926F927F928F929F92AF92BF9208
:10102000CF92DF92EF92FF920F931F93CF93DF93B4
:101030004C015901FC2DC02FD0E0CE01880D991D27
:10104000181619060CF06CC020E8821691040CF0FA
:1010500067C09B012E0D311D121613060CF060C0E7
:10106000603471050CF05CC04115510509F458C09D
:10107000E62FE770FE2EDB0177FD179633E0B5957E
:10108000A7953A95E1F73A2F77FF04C0FF2011F0BA
:101090003FEF3A0F662777276819790997FC02C056
:1010A00070E060E0803891050CF44BC090E898192E
:1010B000961BA32F032E000CBB0B1A2F10953F3F3E
:1010C0000CF010E021E08E2D877009F420E0E6940A
:1010D000E694E694E20EAE0DB11D19971CF028E0DF
:1010E000E22EE31AE11A310F20E83203D001112475
:1010F000A80DB91DA60FB71F019F600D711D11240A
:10110000460F571F0F2D0F2C000C110BF33009F455
:101110001CC1C8F4F13009F4D0C0F23009F47CC02D
:10112000DF91CF911F910F91FF90EF90DF90CF90C3
:10113000BF90AF909F908F907F906F905F904F90F7
:101140000895902FB5CFFA3FB1F1232F2E0DFB3F1D
:1011500039F7321729F3BD01655E7D4FD12CC12CC3
:10116000C91608F0A4C0FA01EC0DFD1DE491F0E0F1
:101170004F01002E02C0880C991C0A94E2F737FD3B
:1011800006C0FB018081E82CE0948E218083FF2043
:1011900061F0373054F45B01F0E8AF0EB11CE92C7C
:1011A000E094F50180818E218083FFEFCF1ADF0A62
:1011B0006F5F7F4FD5CF232F2E0D321709F4B0CF9D
:1011C000BD01655E7D4FD12CC12CC91608F069C0E8
:1011D000FA01EC0DFD1DE491F0E04F01002E02C07C
:1011E000880C991C0A94E2F737FD04C0FB0180814A
:1011F00088298083FF2051F0373044F45B01F0E808
:10120000AF0EB11CF501808189298083FFEFCF1AD1
:10121000DF0A6F5F7F4FD9CF6FEF70E00F2C02C0F6
:10122000660F771F0A94E2F760957095772E232F4B
:101230002E0D321709F474CFFD01E55EFD4F6F01ED
:10124000B12CA12CA91638F5FA01EA0DFB1DE49189
:10125000F0E02F01002E02C0440C551C0A94E2F766
:1012600037FD05C0F6018081862384298083FF2015
:1012700059F037304CF44601F0E88F0E911CF40120
:101280008081872185298083FFEFAF1ABF0A8FEF06
:10129000C81AD80AD7CF3F5F4C0F5D1FA058BF4F69
:1012A000C8CF3F5F4C0F5D1FA058BF4F86CF3F5F39
:1012B0004C0F5D1FA058BF4F4CCF6A0D7B1D232FD5
:1012C0002E0D321709F42CCFFD01E55EFD4F6F01A5
:1012D000B12CA12CA91688F5FB01EA0DFB1D849009
:1012E000912C002E02C0880C991C0A94E2F780947D
:1012F0009094FA01EA0DFB1D6490712C002E02C03F
:10130000660C771C0A94E2F737FD05C0F601808170
:10131000882186298083FF2049F037303CF4F6018C
:10132000E058FF4F8081892187298083FFEFAF1A22
:10133000BF0A8FEFC81AD80ACDCF3F5F4C0F5D1F91
:101340006C0F7D1FA058BF4FBCCFC92ED12CFA0106
:10135000E60FF71FA55EBD4F00E810E00C191D0950
:10136000CC19DD09BE01660F771F41E050E06A012C
:101370000F2C01C0CC0C0A94EAF7592F2E2D792E90
:10138000CF93DF93ED01EF96EF9622968590A5908F
:10139000FF2059F08C9C4001AC9C500137302CF45C
:1013A000E880B094EB20E928E99233233AF0EC90FE
:1013B000A094EA20E828ED920C94DF0911965A9542
:1013C00029F72A9551F0572D33951124E60FF11D79
:1013D000A00FB11DC00FD11DD9CFDF91CF91112426
:1013E0009FCECF92EF920F934115510561F0FA0114
:1013F00004913196E4904E5F5F4F22E0C22E30E0C0
:1014000020E00E9408080F91EF90CF900895CF92AE
:10141000EF920F934115510569F1FA01049131964C
:10142000E4904E5F5F4F2223F9F0A1E0B0E03E2D43
:10143000377011F4B0E0A0E0EE2DE695E695E69564
:10144000EA0FFB2FF11D0E9FD0010F9FB00D11244D
:1014500030E0220F331FA29FF001A39FF00DB29F37
:10146000F00D11244E0F5F1F23E0C22E30E020E06C
:101470000E9408080F91EF90CF90089590E00C948F
:1014800019068FB18095807F669B88601C9B846065
:10149000089590E1282F81E061FD84E060FD880FD0
:1014A00062FD8295687F969FD0011124A20FA55EF0
:1014B000BD4F0C90082A40FF08260C9208958F9289
:1014C0009F92AF92BF92CF92DF92EF92FF920F93D3
:1014D0001F93CF93DF936D3089F0C090F301D090CC
:1014E000F4016A30D1F41092F2011092F10188E017
:1014F000C80ED11CD092F401C092F30181E090E0BB
:10150000DF91CF911F910F91FF90EF90DF90CF90DF
:10151000BF90AF909F908F9008950091F10110912E
:10152000F201E5E06E9FE0011124CE51DF4F58013A
:10153000F12CF5E0E12CFF1629F0CE010196FE0119
:10154000E490EC01912C812CF0E8AF16B10458F432
:10155000B601680D791D6034710528F44E2D417077
:10156000C5010E94490AE6948FEF881A980AE8E0BC
:101570008E16910449F7F394FFEFAF1ABF0A86E085
:10158000F812D7CF0A5F1F4F1093F2010093F101B9
:10159000B5CFCF93C82F0E94410A982F9C2381E09A
:1015A0009C1380E0CF91089580E00C94BB058F924E
:1015B0009F92AF92BF92CF92DF92EF92FF920F93E2
:1015C000CF93DF935B01EC014C01840E911C6B0106
:1015D000C20ED11CC815D905ECF47501B7FE02C0C6
:1015E000F12CE12CC60121E4C216D10414F080E4F0
:1015F00090E0E816F90664F4C038D10528F4402FCD
:10160000B701CE010E94490A8FEFE81AF80AEACF23
:101610002196E0CFDF91CF910F91FF90EF90DF9077
:10162000CF90BF90AF909F908F9008958A3040F5F3
:10163000E82FF0E0E25EF44F0C94A118410B280B68
:10164000440B2B0B2E0B310B340B370B3A0B3D0B92
:1016500086ED90E008958AEC90E0089584EC90E0A7
:1016600008958EEB90E0089588EB90E0089582EB6A
:1016700090E008958CEA90E008958BE097E008955B
:1016800008958CED90E0089580ED90E00895089520
:1016900090E080E00895FB0101900020E9F7319788
:1016A000AF01461B570BDC01ED91FC910280F381E9
:1016B000E02D09948F929F92AF92BF92EF92FF928A
:1016C0000F931F93CF93DF93CDB7DEB7A1970FB6DC
:1016D000F894DEBF0FBECDBF7C01FA01CB0119A289
:1016E000223008F42AE08E010F5D1F4F822E912CCC
:1016F000B12CA12CBF01A50194010E945C18F90135
:10170000CA016A300CF5605DD8016E938D01232B00
:10171000242B252B79F790E080E0109721F0BD0174
:10172000C7010E944B0BA1960FB6F894DEBF0FBE07
:10173000CDBFDF91CF911F910F91FF90EF90BF90A0
:10174000AF909F908F900895695CDECF0F920FB697
:101750008F939F93EF93FF93809104028D5F8D375A
:1017600008F08D5780930402E5E0F2E080818E4F0F
:10177000808391819F4F918382818F4F8283838168
:101780008F4F8383E9E0F2E080818F5F80838181E6
:101790008F4F818382818F4F828383818F4F838399
:1017A0008FB18F6066991C9B88278F3681F480915A
:1017B0000302981B963068F0E0E0F8E087E780834A
:1017C000818388E180936000F0936000FFCF909365
:1017D0000302FF91EF919F918F910FBE0F9018958B
:1017E0001F920F920FB60F9211248F939F938091A7
:1017F000E1009091E100937F9093E10083FF0FC09F
:101800001092E90091E09093EB001092EC0092E3CB
:101810009093ED0010921A0298E09093F00082FFEE
:1018200022C093E09093E9009091F200992319F07F
:101830009AE39093E8009091E901992341F0909107
:10184000E90191509093E901911101C05D9A909145
:101850001902992341F09091190291509093190225
:10186000911101C0289A84FF18C08091E2008E7EF9
:1018700081608093E2008091E1008F7E8093E1009F
:101880008091EA018E7E80618093EA019F918F9121
:101890000F900FBE0F901F90189580FFF7CF80918B
:1018A000E2008E7E80618093E2008091E1008E7E76
:1018B0008093E1008091EA018E7E8160E5CF1F92E6
:1018C0000F920FB60F921124CF92DF92EF92FF92F8
:1018D0000F931F932F933F934F935F936F937F9338
:1018E0008F939F93AF93BF93EF93FF93CF93DF9328
:1018F000CDB7DEB76C97DEBFCDBF1092E900809107
:10190000E80083FF25C068E0CE0145960E94CA0624
:1019100082EF8093E8008D8987FF39C09091E800BD
:1019200090FFFCCF982F907609F034C19E894F89A3
:10193000588D2F89F88C911131C0803861F58091D4
:10194000EB018093F1001092F1008EEF8093E8009C
:101950006C960FB6F894DEBF0FBECDBFDF91CF916E
:10196000FF91EF91BF91AF919F918F917F916F9177
:101970005F914F913F912F911F910F91FF90EF90A9
:10198000DF90CF900F900FBE0F901F9018959EEF95
:101990009093E800C7CF1092F100D5CF913059F461
:1019A0008111D3CF4130510581F68091EB018D7FBC
:1019B0008093EB01CACF933049F48111C6CF4130F7
:1019C000510519F68091EB018260F2CF953041F418
:1019D0008091E80080FFFCCF20682093E300B5CF22
:1019E000963009F0A9C00B8D1C8D22E01092E90001
:1019F0001092E7011092E601F2122EC01092E5015A
:101A00001092E4010E9499061F8299E09983FA825C
:101A100091E09E8390EA98879AEF99872091E6015A
:101A20003091E701275F3F4F3C832B838D831092DA
:101A3000E9001092E7011092E6011093E50100938E
:101A4000E40149E050E0BE016F5F7F4F80E00E94FB
:101A500073060E94990679CF1093E5010093E40183
:101A60000E940506DC0112960D911C9101151105CD
:101A700009F451C1D801ED91FC910480F581E02D6C
:101A8000BE016B5E7F4FC8010995009709F03EC10A
:101A9000F80100851185EACFF3E0FF120EC08F89AF
:101AA000882309F440C0823061F440E867E086E4AE
:101AB00096E00E94910E811148CF81E28093EB0065
:101AC00047CF813029F440E86BE08AE396E0F1CF1C
:101AD000833099F70E940506DC011296ED90FC9088
:101AE0008E010F5F1F4F6801E114F10479F0D701F7
:101AF000ED91FC910680F781E02DB801C7010995B1
:101B0000080F111DF701E084F184EECFD8011C927B
:101B1000F60101900020E9F73197BF016C197D09AA
:101B200040E0C601C6CF64E276E0FB01449150E09C
:101B300080E80E94730609CF973009F4BECF983031
:101B400021F481E08093F10000CF993009F0FDCEBF
:101B5000837009F0B2CFE5EBF1E081E031E096E38C
:101B60002191222371F08093E9003093EB00DF0193
:101B700011972C912093EC009093ED008F5F8730AC
:101B800079F78EE78093EA001092EA008F898093BC
:101B90001A02DBCE8B8D9C8D1092E9001092E7012A
:101BA0001092E6019093E5018093E401898D811103
:101BB00092C08E899D89913A49F4813209F07DCF96
:101BC00047E050E064E071E080E0B3CF913209F08B
:101BD00074CF833269F48F89988DB0E0A0E0809350
:101BE000000190930101A0930201B0930301ADCED7
:101BF000803269F48091E80082FFFCCF67E084E0E6
:101C000091E00E94CA068BEF8093E8009ECE82325C
:101C100009F09BCE8F8980930B01EEEFFFE7859152
:101C200094918B3F9C4D51F1E0E0F8E080910401EC
:101C300090910501A0910601B0910701803B94406D
:101C4000A105B105F1F480910B0180FD1AC0EE3FB2
:101C50008AE0F80789F587E797E791838083809189
:101C600060008093E80188E19BE00FB6F894A895A6
:101C7000809360000FBE9093600067CEEEEFFAE0B5
:101C8000D5CF808191818737974709F05ECEA8959F
:101C9000809160008861809360008091E80180936A
:101CA0006000EE3F2AE0F20789F08091FE0A9091F1
:101CB000FF0A9183808349CE80819181873798077D
:101CC00051F29093FF0A8093FE0AC5CF1092FF0A4B
:101CD0001092FE0A3ACE0E940506DC0112960D9182
:101CE0001C910115110509F4E8CED801ED91FC9184
:101CF0000190F081E02DBE016B5E7F4FC801099518
:101D0000811123CEF80100851185EBCF1816190635
:101D10000CF41BCED2CEF1E0FF12BECE68E276E02C
:101D200004CFEF92FF920F931F93CF93DF93F82E80
:101D3000192FE62E042F81E0860F880F0E9445069A
:101D400083E00E944506CF2DD12FEC0EFD2EF11C15
:101D5000CE15DF05B9F007FF13C0FE0184910E9484
:101D60004506182F80E00E944506812321968111A7
:101D7000EFCFDF91CF911F910F91FF90EF900895DA
:101D80008881EDCF81E0F5CFCF9310921E0610929F
:101D90001D0688EE93E0A0E0B0E080931F069093CC
:101DA0002006A0932106B09322068FEB91E090933A
:101DB0001C0680931B068FEF9FEF9093280680935D
:101DC00027068DE599E01092600910925F0921EDD8
:101DD00031E030935E0920935D0990934809809328
:101DE00047092DE03BE030934A09209349092AE056
:101DF00020934B092CE120934C0920EC31E03093E7
:101E00004E0920934D0910924F0920E1209350096B
:101E10001092510990935309809352098AEE80934E
:101E2000540980935509109258091092590910923B
:101E30005A0910925B0981E080935C09E7E7F8E0BA
:101E4000A7E4B9E068EC70E054E647E098E02DEFD5
:101E50003AE0B183A083738362835483458396837E
:101E60003087278311861286138614861586168678
:101E700087877096C9E0E734FC0759F72DE539E00C
:101E800030936C0620936B0627E738E030936E069C
:101E900020936D0626E231E03093700620936F06A2
:101EA0008093710610926E0810926F0892E09093E2
:101EB000700894E09093710880937208809373087F
:101EC000109274088DE080937508909376084CEF1B
:101ED00051E061E079E082E796E0CF910C94071839
:101EE000CDB7DEB76397DEBFCDBF789483E084BD06
:101EF00083E085BD81E080936E00E1E8F0E083E05F
:101F00008083E0E881E08083E1E983E08083E0E9A9
:101F100081E08083E1EC87E08083E3EC81E08083F3
:101F2000E0EC82E08083E2EC81E08083EAE787E016
:101F300080838068808310921A021092EB011092C5
:101F4000EA018091D70081608093D70080EA809376
:101F5000D80089B5806189BD89B5826089BD09B421
:101F600000FEFDCF81E090E00E9419068091D8002C
:101F70008F7C80618093D8008091E000807F809387
:101F8000E0008091E1008E7E8093E1008DE08093FF
:101F9000E200559A209A81EC80937C0081EF85B90C
:101FA00087EE84B984E38BB984EF8AB9769A6E9808
:101FB00080EF81BB10BA80E58CBD81E08DBD85E0EE
:101FC0000E943E0A5F9A85E00E943E0A5C98EEEF0E
:101FD000F6E085918EBD00000DB407FEFDCFEB301D
:101FE000C1F75C9A81E88093640081E0809365008A
:101FF0000E94D40A80E80E94C90A8823A9F05C984C
:1020000085EA8EBD00000DB407FEFDCF5C9A2E98C8
:102010002F982D988091640080628093640081E005
:1020200083BF889513BEFCCF84E00E94C90A882331
:10203000B9F12D9884E80E94C90A8823A1F02D9A4D
:1020400088EC0E943E0A2F986FEF82E090E00E9499
:10205000181884EF91E00E9419062F9A84E80E94D4
:10206000C90A8111FBCF84E10E94C90A8823A1F02B
:102070002D9A88EC0E943E0A2E9860E082E090E063
:102080000E94181884EF91E00E9419062E9A84E1AC
:102090000E94C90A8111FBCF88EC0E943E0AC4CF7E
:1020A0002D9A82E090E00E941018882309F471C0F4
:1020B0003E9A3F9A81E090E00E941018082F047029
:1020C000D02E81FF0CC001112E9801EF1FEF80E48C
:1020D0000E94C90A882309F45FC02E9A2F9A82E3CE
:1020E0000E943E0A0E94410A8111F9CF80E180934B
:1020F0000C01809164008E7F8093640080917A004F
:10210000806480937A0080917A0086FDFCCF0091F4
:102110007800109179000E942D06AB01BC01C80126
:10212000B0E0A0E0DC01992788278C019D01040F15
:10213000151F261F371FC901B801209164002160B7
:1021400020936400611571058105910511F00E94CD
:10215000FE1783E080931D018FEF9FEF9093280679
:1021600080932706909105028091EF01192F181B8B
:10217000812F1091EE01112309F4AEC08093F0017C
:102180001092EE0180E090E0892B61F30E94000044
:10219000E9CF3E983F988ECFDD2029F0043011051D
:1021A00011F42E9A2F9881E00E94BB05202F2770F2
:1021B000C22E980143E0359527954A95E1F7C9016C
:1021C0009695982F882797958795855E9D4F70E007
:1021D00060E02E3F4FEF340781F17C0154E9E50EBA
:1021E000F11CDC0150E040E0FB01E25BF94F5F01D4
:1021F000F501E40FF51FE491F0E03F010C2C02C063
:10220000660C771C0A94E2F72F3F320739F0549698
:102210009C905497962854969C925497CC2021F0E9
:10222000F7019080972890824F5F5F4FFFEFEF1A82
:10223000FF0A119648355105D9F62F5F3F4F805858
:102240009F4F685A7F4F603B710509F0C2CF0E94D3
:10225000D40A8FE00E943E0A0F5F1F4F093111051B
:1022600009F035CFDD2011F02F9A2D9880E991E00B
:102270000E9419062D9A81E090E00E94101880FFBC
:102280002ECF8AE090E00E9410189FEF980F9E3F9B
:1022900008F025CF22E330E03093F2012093F101E2
:1022A00028E330E03093F4012093F3010AE010E0DA
:1022B000682F8DE599E00E945F0A0F5F1F4FC801EC
:1022C0000E9410180031110599F70E94D40A88EE77
:1022D00093E00E94190603CF20910C01821748F465
:1022E0008F5F821708F04ECF81E083BF889513BEC1
:1022F00049CF01E00093EE019093EF01ECEEF1E0A5
:10230000808191810196808391830E94410A80930C
:10231000F501EBE1F2E011111FEF8FEF1193119333
:10232000119311938150D0F71092F4011092F301A0
:102330001092F2011092F10180917106882309F444
:102340004BC080E20E94C90A882321F086E0809376
:1023500071080CC084E00E94C90A8111F7CF80E4A3
:102360000E94C90A882369F100937108809170085E
:1023700081508093700881112FC0EBE6F6E09185C3
:10238000978392859087329628E0E536F207B9F771
:10239000909175088917B8F440E1849F9001112449
:1023A000E0916D06F0916E06E20FF31F938599237D
:1023B00031F02281338121503109338322838F5FB1
:1023C000E7CF82E0C4CF80916F088F5F80936F0862
:1023D000809171088093700880916F088E3708F49F
:1023E000CAC088E0ECEAF1E0DE01119601900D929E
:1023F0008A95E1F700E717E093E0F92EEE24E394E5
:102400002FE3D22E0E94AF1728E030E040E050E0EA
:102410000E942A18A1E0B0E0AC0FBD1F6A0F7B1F1D
:10242000FB01808190917208890F809372080E944D
:10243000AF1728E030E040E050E00E942A1821E089
:1024400030E02C0F3D1F620F731FDB018C919091C8
:102450007308890F809373089091720819160CF411
:10246000BBC0E0927208181644F0E09273088091A5
:102470007208843014F0F0927208809173088430EE
:1024800014F0F09273089091720880917308890F8C
:10249000BD2DB81BF8019083B1830E5F1F4FF8E08C
:1024A0000E361F0709F0AECF0DE011E03801B0E1A4
:1024B0008B2E912CA12CB12C80E1282E312C412C7B
:1024C000512C0E94AF17D301BC91B98772016101F1
:1024D000C818D908EA08FB08A50194010E942A1827
:1024E000C60ED71EE81EF91EEC2DF0E0E35FFE4F8E
:1024F0008081D3018D933D01B985B083E1E08E1ACF
:102500009108A108B108F1E08F169104A104B1046B
:10251000C1F6ACE1EA2EA1E0FA2ED8014D918D0171
:1025200050E070E060E02AE08BE196E00E945A0BF8
:1025300069ED71E08BE196E00E944B0BE016F1062D
:1025400061F76DED71E08BE196E00E944B0B6BED56
:1025500071E08BE196E00E944B0B6DED71E08BE139
:1025600096E00E944B0B6BED71E08BE196E00E94D0
:102570004B0B10926F0880E04EED50E06EED7FEF58
:1025800091E020917508821708F052C0B0E18B9F4E
:10259000F001112420916D0630916E06E20FF31FB9
:1025A0002385222309F442C022813381273F0FEF84
:1025B0003007B4F4958714862485211117C025852A
:1025C000211126C0A081B18115963C912481231749
:1025D00008F49787948707C018160CF448CF45CFA6
:1025E000283331054CF32485222391F0A4812185E1
:1025F0002A1708F0978726812A0F3327331FB285C1
:10260000B217130609F00CF4778727852A0F248365
:102610002585222359F026852F5F26872A3034F01E
:102620005383428364831586138616868F5FA9CFF2
:10263000809158098823E1F08091540990915709BD
:10264000913009F4C2C10CF0B5C18250992309F44C
:10265000C1C18091540987FD04C08091550984341B
:1026600038F0109258098AEE8093540980935509E6
:1026700080915A09882309F4B0C180915B098F5F6A
:1026800080935B0984312CF08EED80934B0980930D
:102690004C098FB7F8944091050250910602609161
:1026A0000702709108028FBF809120019091210153
:1026B000A0912201B09123018A019B01081B190BF3
:1026C0002A0B3B0BD901C801843E9240A105B105FC
:1026D00098F080912501882379F0809124011816C3
:1026E0001CF48150809324014093200150932101D8
:1026F000609322017093230130915809C090F60134
:10270000D090F701E090F801F090F9010091FE01FE
:1027100009875090FD017090FC016091FB01A09031
:10272000FA0180914B09082F10E01B870A87085F88
:102730001F4F198B088B80914C09082F10E01D87C3
:102740000C87085F1F4F1B8B0A8B209071063090FF
:102750005C090091490910914A091F870E87609012
:102760002501B0901D0107E718E0442443948091AF
:10277000540990E0D80112968D909C901397AC016B
:102780004D5F5F4F481559050CF469C015964C9183
:102790001597480D592D511D481759070CF45FC066
:1027A0002091550914969C911497291708F457C045
:1027B00016968C911697890F9927991F2817190635
:1027C00011F00CF04CC01D964C921D971C961C925B
:1027D000BAEEB0935409B0935509E9E1CE0ED11C7D
:1027E000E11CF11CC701B60120E137E240E050E0F6
:1027F0000E945C182987C701B60128EE33E040E04B
:1028000050E00E945C18CA01B9012AE030E040E0C3
:1028100050E00E945C18562EC701B60124E630E055
:1028200040E050E00E945C18CA01B9012AE030E0A3
:1028300040E050E00E945C18762EC701B6012AE005
:1028400030E040E050E00E945C18A62ECA01B901B9
:102850002AE030E040E050E00E945C1830E0488917
:102860005989481559058CF1D80115968C91159701
:10287000880E911CEA85FB858E169F0634F114960E
:102880008C91149790E04A895B8948175907ECF0BE
:1028900016962C91820F911DAC85BD858A179B07DA
:1028A000A4F0F8018585811110C080915A09811129
:1028B0000CC040925A0945861486BA94612C312C7A
:1028C000212C47E358E05F874E87005F1F4F87E466
:1028D00099E08017910709F04ACF30935809C092C8
:1028E000F601D092F701E092F801F092F901098522
:1028F0000093FE015092FD017092FC016093FB0178
:10290000A092FA012092710630925C090E851F8513
:1029100010934A090093490960922501B0921D0164
:10292000809124011816B4F080915A09811112C0C7
:102930001092710681E080935A0910925C0987E336
:1029400098E090934A098093490910922501BA941E
:10295000B0921D01ABE6B6E090E080E06FEF179615
:102960005C91179718964C911897450FE52FE695AF
:10297000E695E695FF24FA94FE0E57701FEFF116C8
:1029800009F4A8C070E00F2D0F2C000C110B272F9D
:1029900030E0021713070CF49DC03695322F222722
:1029A00037952795280F391F255E3D4FF901608324
:1029B0007F5FEDCF923069F080915509825093305E
:1029C00009F047CE8093550944CE809155098E5F1A
:1029D000F9CF8E5F809354093CCE80915C098823A7
:1029E00009F457CE80E80E94C90A882319F08CEFB9
:1029F000809351090E94410A87FD08C00E94410A44
:102A000084FD04C01092510910924F0980E10E9488
:102A1000C90A882319F084E08093510980914F09F5
:102A200090915109890F80934F0940915009642F6B
:102A3000042E000C770B20914D0930914E09481758
:102A400084F5260F371F30934E0920934D0940938C
:102A50004F0980914D0990914E0997FD0F96F4E032
:102A600095958795FA95E1F780934C0988E00E9447
:102A7000C90A882309F40DCE80915809811109CE25
:102A800080914B098B5F8093540980914C098D5F35
:102A90008093550981E08093580982E0809357091B
:102AA000F8CD082E000C990BEE27FF27E61BF70B3D
:102AB0008E179F0744F4261B370B30934E09209343
:102AC0004D094195C4CF820F931F90934E09809377
:102AD0004D09BFCF5523C9F0EF2DFF0CFF0B3196E9
:102AE000F695FE2FEE27F795E795E80FF91FE55EBF
:102AF000FD4F28E030E0251B31090FEF10E002C048
:102B0000159507952A95E2F70083542F569556950B
:102B100056954770252F30E07901F694FE2CEE246F
:102B2000F794E794E80EF91E10E000E0752F700F9F
:102B3000783070F4F801F695FE2FEE27F795E795BB
:102B4000EE0DFF1DE55EFD4F60830F5F1F4FEECF63
:102B50004423C1F0E8E0F0E0E41BF1090FEF10E0DE
:102B600002C015950795EA95E2F7A8013695322F30
:102B7000222737952795280F391F255E3D4F409511
:102B8000F9014083019612968F37910509F0E7CE3F
:102B900010E080917508181710F500E1109FF00102
:102BA000112480916D0690916E06E80FF91F8385C0
:102BB000882379F0648170E08281938125852223C6
:102BC00051F0268527FD2F5F25954DE657E00E94A1
:102BD000070A1F5FDECF4781508520E0F8CF10E065
:102BE0000AE0809176081817A8F4E0916F06F0913A
:102BF0007006109FE00DF11D11248681882341F09D
:102C0000618170E080814DE557E090E00E94F1091C
:102C10001F5FE7CF8AE590E09093F2018093F10186
:102C20001092F4011092F30100916B0610916C0662
:102C300040916F0850E070E060E02AE0C8010E9417
:102C40005A0B6BED71E0C8010E944B0B9091750817
:102C5000E0916D06F0916E0680E010E0981731F07B
:102C6000238521111F5F8F5F7096F8CF86E490E077
:102C70009093F2018093F1011092F4011092F3010C
:102C80006EED71E080916B0690916C060E944B0B8B
:102C9000412F50E070E060E02AE080916B06909157
:102CA0006C060E945A0B90915A0980914B096091D1
:102CB0004C094091490950914A09992309F4FBC0F4
:102CC00020915B0927FD2D5F25952595062E000C8B
:102CD000770B082E000C990B0E94070A609155098A
:102CE000062E000C770B80915409082E000C990BCE
:102CF0002091560901E0222309F4E2C023E041E0DB
:102D00000E94D70A43E257E070E060E090E080E084
:102D10000E94F1098091240165E370E0681B71094C
:102D200087FD739520E047E157E090E080E00E9446
:102D3000070A00E020E447E070E060E089E790E007
:102D40000E94D70A10E000E041E0B80189E790E076
:102D50000E94490A0F5F1F4F00341105A9F7109117
:102D60001D014091F6015091F7016091F8017091B9
:102D7000F9014A30510561057105C8F081E0809381
:102D8000FF01443651056105710588F0809300020A
:102D9000483E23E052076105710548F08093010227
:102DA000403157426105710510F080930202809115
:102DB000FA010E94160BAC0168E370E08BE790E02B
:102DC0000E94F1098091FF01882359F08091FB0155
:102DD0000E94160BAC0160E370E08BE790E00E946C
:102DE000F10980910002882359F08091FC010E9432
:102DF000160BAC0168E270E08BE790E00E94F109ED
:102E000080910102882359F08091FD010E94160BE8
:102E1000AC0160E270E08BE790E00E94F1098091E4
:102E20000202882359F08091FE010E94160BAC012A
:102E300068E170E08BE790E00E94F10941E157E022
:102E400061E070E08BE790E00E94F1094BE057E011
:102E5000112321F0812F0E94160BAC0167E070E076
:102E60008BE790E00E94F1098AE090E09093F201F4
:102E70008093F1011092F4011092F3018091F0011E
:102E800044E6849FC001112460910C0170E00E940F
:102E90008D18AB01770F660B770B2AE08DE599E073
:102EA0000E945A0B61EE71E08DE599E00E944B0B98
:102EB0000E94D40A67C9062E000C770B20E009CFC8
:102EC00021E043E01DCF8F929F92AF92BF92CF92AD
:102ED000DF92EF92FF92CF93DF93EC0168817981CB
:102EE0008A819B81611571058105910521F464E258
:102EF00079ED8BE597E02DE133EF41E050E00E9462
:102F00002A1849015A019B01AC01A7EAB1E40E94C9
:102F100049186B017C01ACEEB4EFA50194010E944D
:102F20005718C60ED71EE81EF91EF7FE06C081E030
:102F3000C81AD108E10880E8F80AC882D982EA8272
:102F4000FB82C701B6019F77DF91CF91FF90EF9091
:102F5000DF90CF90BF90AF909F908F9008958F9209
:102F60009F92AF92BF92CF92DF92EF92FF926091C9
:102F7000A8017091A9018091AA019091AB016115FE
:102F800071058105910521F464E279ED8BE597E007
:102F90002DE133EF41E050E00E942A1849015A0127
:102FA0009B01AC01A7EAB1E40E9449186B017C01C6
:102FB000ACEEB4EFA50194010E945718C60ED71EBF
:102FC000E81EF91EF7FE06C081E0C81AD108E10824
:102FD00080E8F80AC092A801D092A901E092AA0163
:102FE000F092AB01C701B6019F77FF90EF90DF90A1
:102FF000CF90BF90AF909F908F9008956093A8015D
:103000007093A9018093AA019093AB010895FB01ED
:10301000DC0102C005900D9241505040D8F7089550
:10302000F999FECF92BD81BDF89A992780B5089590
:10303000262FF999FECF92BD81BDF89A019700B471
:10304000021639F01FBA20BD0FB6F894FA9AF99A11
:103050000FBE0895052E97FB1EF400940E944118A0
:1030600057FD07D00E945C1807FC03D04EF40C9467
:10307000411850954095309521953F4F4F4F5F4FE8
:10308000089590958095709561957F4F8F4F9F4FD4
:1030900008950E947E18A59F900DB49F900DA49F47
:1030A000800D911D11240895B7FF0C9449180E94BA
:1030B0004918821B930B0895A1E21A2EAA1BBB1B71
:1030C000FD010DC0AA1FBB1FEE1FFF1FA217B307F4
:1030D000E407F50720F0A21BB30BE40BF50B661F0A
:1030E000771F881F991F1A9469F7609570958095CE
:1030F00090959B01AC01BD01CF010895A29FB00145
:10310000B39FC001A39F700D811D1124911DB29F1B
:10311000700D811D1124911D089597FB072E16F443
:10312000009407D077FD09D00E94A71807FC05D0AE
:103130003EF4909581959F4F0895709561957F4FCE
:103140000895EE0FFF1F0590F491E02D0994AA1B3E
:10315000BB1B51E107C0AA1FBB1FA617B70710F082
:10316000A61BB70B881F991F5A95A9F780959095B4
:0A317000BC01CD010895F894FFCFD3
:10317A00FFFFFFFF00E10000000000001001020352
:10318A000405060708090A0B0C0D0E0F1003DEDEF4
:10319A00000000002F01DEDE0E0800000000000023
:1031AA00DEDE0E08000000000000DEDE0E08000071
:1031BA0000000000DEDE0E08000000000000DEDE77
:1031CA000E08000000000000DEDE0E08000000000D
:1031DA000000DEDE0E08000000000000DEDE0E0841
:1031EA00000000000000DEDE0E0800000000000003
:1031FA00DEDE0E08000000000000DEDE0E08000021
:10320A0000000000DEDE0E08000000000000DEDE26
:10321A000E0800000000000001000000FFFFFF0090
:10322A000001010100C18081000000000000008748
:10323A00070407A8079D07EE07AC07CA07000000A6
:10324A00005F0AD706480B470B20000D0A00453AD3
:04325A00002500004B
:00000001FF
