:100000000C94060B0C942E0B0C942E0B0C942E0BB4
:100010000C942E0B0C942E0B0C942E0B0C942E0B7C
:100020000C942E0B0C942E0B0C9415120C94841221
:100030000C942E0B0C942E0B0C942E0B0C942E0B5C
:100040000C942E0B0C942E0B0C942E0B0C942E0B4C
:100050000C942E0B0C942E0B0C942E0B0C94CB1199
:100060000C942E0B0C942E0B0C942E0B0C942E0B2C
:100070000C942E0B0C942E0B0C942E0B0C942E0B1C
:100080000C942E0B0C942E0B0C942E0B0C942E0B0C
:100090000C942E0B0C942E0B0C942E0B0C942E0BFC
:1000A0000C942E0B0C942E0B0C942E0B040836493A
:1000B000493604080161190704083E49493004081B
:1000C0004F494931040818167F1004082241493667
:1000D0000408625149460408427F400004083E413A
:1000E000413E00000000003E5B4F5B3E3E6B4F6BAD
:1000F0003E1C3E7C3E1C183C7E3C181C577D571C09
:100100001C5E7F5E1C00183C1800FFE7C3E7FF0081
:1001100018241800FFE7DBE7FF30483A060E2629CF
:10012000792926407F050507407F05253F5A3CE792
:100130003C5A7F3E1C1C08081C1C3E7F14227F2258
:10014000145F5F005F5F06097F017F006689956A23
:10015000606060606094A2FFA29408047E040810AE
:10016000207E201008082A1C08081C2A08081E10D7
:100170001010100C1E0C1E0C30383E3830060E3E8F
:100180000E06000000000000005F000000070007EE
:1001900000147F147F14242A7F2A12231308646218
:1001A00036495620500008070300001C2241000079
:1001B00041221C002A1C7F1C2A08083E08080080D7
:1001C000703000080808080800006060002010086F
:1001D00004023E5149453E00427F40007249494970
:1001E000462141494D331814127F102745454539A2
:1001F0003C4A4949314121110907364949493646A6
:100200004949291E00001400000040340000000885
:100210001422411414141414004122140802015928
:1002200009063E415D594E7C1211127C7F494949B5
:10023000363E414141227F4141413E7F494949414A
:100240007F090909013E414151737F0808087F0079
:10025000417F41002040413F017F081422417F40FF
:100260004040407F021C027F7F0408107F3E4141D6
:10027000413E7F090909063E4151215E7F09192946
:1002800046264949493203017F01033F4040403F30
:100290001F2040201F3F4038403F63140814630371
:1002A000047804036159494D43007F4141410204F0
:1002B000081020004141417F0402010204404040F7
:1002C0004040000307080020545478407F284444ED
:1002D000383844444428384444287F385454541807
:1002E00000087E090218A4A49C787F080404780002
:1002F000447D40002040403D007F102844000041E4
:100300007F40007C047804787C08040478384444F6
:100310004438FC1824241818242418FC7C080404ED
:1003200008485454542404043F44243C4040207C56
:100330001C2040201C3C4030403C44281028444CA9
:100340009090907C4464544C440008364100000076
:10035000770000004136080002010204023C262317
:10036000263C1EA1A161123A4040207A38545455CF
:10037000592155557941215454784121555478409B
:1003800020545579400C1E52721239555555593921
:100390005454545939555454580000457C41000276
:1003A000457D420001457C40F0292429F0F02825B4
:1003B00028F07C545545002054547C547C0A097F15
:1003C0004932494949323248484832324A4848302D
:1003D0003A4141217A3A42402078009DA0A07D39DF
:1003E000444444393D4040403D3C24FF2424487E61
:1003F0004943662B2FFC2F2BFF0929F620C0887E4E
:10040000090320545479410000447D413048484A52
:1004100032384040227A007A0A0A727D0D19317D05
:100420002629292F28262929292630484D402038D9
:100430000808080808080808382F10C8ACBA2F1098
:100440002834FA00007B000008142A142222142AFF
:1004500014089500220095AA005500AAAA55AA558D
:10046000AA000000FF00101010FF00141414FF0079
:100470001010FF00FF1010F010F0141414FC001402
:1004800014F700FF0000FF00FF1414F404FC141420
:1004900017101F10101F101F1414141F001010101D
:1004A000F0000000001F101010101F10101010F0AE
:1004B00010000000FF101010101010101010FF108E
:1004C000000000FF140000FF00FF00001F101700D5
:1004D00000FC04F414141710171414F404F40000AE
:1004E000FF00F714141414141414F700F714141460
:1004F000171410101F101F141414F4141010F010FF
:10050000F000001F101F0000001F14000000FC146A
:100510000000F010F01010FF10FF141414FF14105E
:1005200010101F00000000F010FFFFFFFFFFF0F0B1
:10053000F0F0F0FFFFFF0000000000FFFF0F0F0FC3
:100540000F0F38444438447C2A2A3E147E020206A7
:1005500006027E027E0263554941633844443C04EE
:10056000407E201E2006027E020299A5E7A5991C66
:100570002A492A1C4C7201724C304A4D4D30304889
:10058000784830BC625A463D3E494949007E0101E7
:10059000017E2A2A2A2A2A44445F444440514A447C
:1005A0004040444A51400000FF0103E080FF00004A
:1005B00008086B6B083612362436060F090F060042
:1005C0000018180000001010003040FF0101001F4B
:1005D00001011E00191D1712003C3C3C3C000000AC
:1005E0000000080B000202020000090400000102E2
:1005F0000200000524001001052401010104240269
:1006000006052406000107058103100040090401C6
:1006100000020A00000007050202400000070583EF
:10062000024000000403090412010002EF0201402D
:100630004123368000010102030141726475696E35
:100640006F204C4C430041726475626F7900F0F882
:100650009C8E8783878E9CF8F00000FEFF030303C7
:100660000303070EFCF80000FEFF03030303030768
:100670000EFCF80000FFFF00000000000000FFFF7C
:100680000000FEFF8383838383C7EE7C380000F87D
:10069000FC0E07030303070EFCF800003F7FE0C0D9
:1006A0008080C0E07F3FFFFF01010101010101FFE8
:1006B000FF0000FFFF0C0C0C0C1C3E77E3C1000098
:1006C0007FFFC0C0C0C0C0E0703F1F00001F3F7070
:1006D000E0C0C0C0E0703F1F00007FFFC1C1C1C1CA
:1006E000C1E3773E1C00001F3F70E0C0C0C0E07057
:1006F0003F1F000000000001FFFF01000000D5F0D7
:100700008D14A1C881CFD9F1AF20000D10FC0603D4
:1007100001F909E9A9A929292FE01F302020272460
:100720002424272020301F80400000F8040404887F
:100730000000E01010E00000E01010FC0000E050AD
:1007400050600000000000000000000020505080B9
:100750000000E01010E00000F00000F00000F010D9
:1007600010E00000E01010FC00000000000000009D
:100770000000A05050E00000F01010E00000E01079
:1007800010FC000000000000A05050E00000E0104D
:1007900010000010F8101000000000000000000021
:1007A0000000000000000000000000F04141810056
:1007B00000C00001C10000000001016190909001A3
:1007C0000100F04042810000804040800101F100C2
:1007D0000000804141F00000804141800000C140A4
:1007E0004081000000010101E01012112000000012
:1007F00000000101010100000100000100000001F2
:1008000001010000000000000101010100000100E1
:1008100000000000000101000000000000000000D6
:1008200000000000000000000000000704040300B6
:1008300000010A0A0700000000000002040404038B
:100840000000070000070000030505010000070481
:100850000000030404070000030404030000070071
:100860000007000000000000030404040200000070
:100870000000000000000000000000000000000078
:100880000000000000000000000000000000000068
:100890000000000000000000000000000000000058
:1008A0000000000000000000000000FE0808F0004A
:1008B00000087C88880000087C88880000F8484888
:1008C00030000090A8A840000000900000C038064A
:1008D0000000C03806000090A8A8400000FE0808EC
:1008E000F0000070A8A8300000FE8000007088882A
:1008F000FE0000708888700000F80808F0000070A2
:10090000888850000000800000708888500000D067
:10091000A8A8F00000000000000000000000000097
:1009200000000000000000000000000000000000C7
:1009300000000000000000000000000000010000B6
:1009400000000000000000000000000000000000A7
:100950000000000000000000000000000000000097
:100960000000000000000000000000000000000087
:100970000000000000000000000000000000000077
:100980000000000000000000000000000000000067
:100990000000000000000000000000000000000057
:1009A0000000000000000000000000FE1212120211
:1009B0000000708888700000F80808F00000087CCB
:1009C0008888000090A8A840000000000000FE8871
:1009D00088700000384040F80000000000004C9291
:1009E0009292600000708888700000F808F808F0A3
:1009F000000070A8A8300000FE1212120C0000C601
:100A0000281028C6000000000000000000000000C0
:100A100000000000000000000000000000000000D6
:100A20000000000000000000000000E080800000E6
:100A30000080C08080000080C080800000808080B6
:100A400000000000808000000000000000008060C6
:100A500000000080600101008080000000008080B4
:100A60000000008080808000000000808000000086
:100A700080808000000080000080000000000000F6
:100A800020000080C080800000008080000000E026
:100A90008080000000000000002000000080800036
:100AA00000000080600000000000000F00000F0048
:100AB000000007080800000007080800001F0404E1
:100AC000030000090A0A040000000900000C0300EA
:100AD00000000C03000000090A0A040000070808CF
:100AE0000700000F000F000F0000070A0A030000B4
:100AF0001F04040300000D02020D000000080000A6
:100B00000F00000007080800000708080500000F94
:100B100000000F0000000800000F00000708080791
:100B200000000C0300000000001108FFFFFFFFFFA2
:100B3000FF81FF81FF81FFFFFFFFFFFFFF81FF813B
:100B4000FF81FFFFFFFFFF7E7E3C3C18180A10006C
:100B500000000000000000303030300000000000D5
:100B60000000000000000000000000000000000085
:100B700000000000000000000000000000202038FD
:100B800038505060600000000000000000000000CD
:100B90000000000000000000000000000000000055
:100BA0000000003030C8C82020949468685050007D
:100BB0000000000000000000000000000000000035
:100BC00000000000000000000020205454AAAA5891
:100BD000582A2AE0E09C9C28280000000000000021
:100BE00000010100000101000000000000000018E9
:100BF00018A0A004044B4B80800A0A292910108CED
:100C00008C6060000001010000020202020000038B
:100C1000030000000000000A10009300FF00FF0026
:100C2000FF00FF00FE00FE007C0038001000010005
:100C300001000100010001000000000000000000B0
:100C40000005080F0F0F0F0F0F0707030307408062
:100C5000BE8A8A8280FF000000000000FF000000C2
:100C6000000000FF000000000000FF000000000086
:100C700000FF000000000000FF000000000000FF77
:100C8000017D55554501FF04082649493E04081BCE
:100C900004041B20204E6963652074727921202092
:100CA000002020546F6F20736C6F7721202000206C
:100CB0004E696365206372617368212000202054AF
:100CC0006F6F2065617379212020002050696C6F5F
:100CD00074206661696C2120002020426164206DCF
:100CE0006F7665212020002020536F20636C6F7386
:100CF0006521202000202020204F6F7073212020AC
:100D0000202000202020416C6D6F73742120202052
:100D1000002054727920686172646572212000207D
:100D20004E6F7420656E6F7567682120004E696391
:100D300065206C616E64696E67210020476F6F6487
:100D4000206372617368212000202020416761695F
:100D50006E3F21202020002020536F207175696391
:100D60006B212020000A100000000000000000306D
:100D700030303000000000000000000000000000E3
:100D80000000000000000000000000000000000063
:100D90000000000000202038385050606000000043
:100DA0000000000000000000000000000000000043
:100DB00000000000000000000000003030C8C82023
:100DC000209494686850500000000000000000006B
:100DD0000000000000000000000000000000000013
:100DE0000020205454AAAA58582A2AE0E09C9C28A3
:100DF00028000000000000000001010000010100C7
:100E0000000000000000001818A0A004044B4B8054
:100E1000800A0A292910108C8C60600000010100F2
:100E20000002020202000003030000000000002F85
:100E3000083E4141412200007F0919294600007FF8
:100E40004949494100007F4141413E000041417F05
:100E50004141000001017F0101000026494949305C
:100E60002F083E4141413E00007F0909090600006C
:100E700001017F0101000041417F414100003E41ED
:100E800041413E00007F0408107F00002649494987
:100E9000301A087F0808087F00007F49494941004F
:100EA000007F4040404000007F09090906210826D4
:100EB00049494930000001017F010100007E090914
:100EC000097F00007F09192946000001017F010107
:100ED0004A2080FFC0FFA0FF70FF28FF1C7F0A3F51
:100EE000071F050F050F050F070F070F050F050F4C
:100EF000050F070F070F050F050F050F070F070F4A
:100F0000050F050F050F070F070F050F050F050F3D
:100F1000070F070F050F050F050F070F070F050F29
:100F2000050F050F070F070F050F050F050F070F1B
:100F3000070F050F050F050F070F070F050F050F0B
:100F4000050F070F070F050F050F050F070F070FF9
:100F5000050F050F050F071F0A3F1C7F28FF70FFB5
:100F6000A0FFC0FF80FFFFFF18FFFFFF00FF000092
:100F70000000000000000000000000000000000071
:100F80000000000000000000000000000000000061
:100F90000000000000000000000000000000000051
:100FA0000000000000000000000000000000000041
:100FB0000000000000000000000000000000000031
:100FC0000000000000000000000000000000000021
:100FD0000000000000000000000000000000000011
:100FE0000000000000000000000000000000000001
:100FF000000000FFFFFF18FFFFFF3FFF63FFBFFF81
:10100000C0FF80E000C00080000000000000000081
:1010100000000000000000000000000000000000D0
:1010200000000000000000000000000000000000C0
:1010300000000000000000000000000000000000B0
:1010400000000000000000000000000000000000A0
:101050000000000000000000000000000000000090
:101060000000000000000000000000000000000080
:101070000000000000000000000000000000000070
:10108000008000C080E0C0FFBFFF63FF3FFF001F84
:10109000001F001F011F021F071F0A1F1C1F141E15
:1010A000141E141E1C1E1C1E141E141E141E1C1E98
:1010B0001C1E141E141E141E1C1E1C1E141E141E88
:1010C000141E1C1E1C1E141E141E141E1C1E1C1E70
:1010D000141E141E141E1C1E1C1E141E141E141E70
:1010E0001C1E1C1E141E141E141E1C1E1C1E141E50
:1010F000141E141E1C1E1C1E141E141E141E1C1E48
:101100001C1E141E141E141E1C1E1C1E141E141E37
:10111000141E1C1F0A1F071F021F011F001F001F94
:10112000001F161800E0F0F8FC7E3E1E1F1F3F7FD8
:10113000FFFFFEEEFEFCF8F0E0003FFFFFFFFFFCCC
:10114000F87070F0F8FCFF7F7FE7C3C3E7FFFF3F55
:10115000000103070F1F1F1E3E3F3F3F3C38181C76
:101160001F0F07030100B210F898F8F8F8F8F8F824
:10117000F8F8FC9CBCFCF8F8F8F8F8B8F4F4F4FAC9
:10118000FAFAF2FAF979797DFF3F7F7ABE3E3E1E88
:101190001C0E0C0C0E0E0C9C9CF8F8B838B8F8E835
:1011A000F8FCFCD8D8D8F8F8D8F0F8F8F8F8F8B87F
:1011B00098F8F8F8F8FCFCFADAFAFAF1FAFA727927
:1011C000F979FBFBFFFFFE7EFE7E7C7C3C18180855
:1011D00028F8F838F878F8F8F8B0F0F0F0F0F8F00F
:1011E000F8F8F870F8F8F0F0A0E0F0F0F0E8E8E8CF
:1011F000E8E8E8E4E4E4F2FAFCFCBCF8F8B8F0F063
:10120000D8D8F8F0F0E06070F070E0E0E0E0E0E006
:10121000C0C0C0C0C0E0E0F0F0F80F0F0F0F0F0724
:101220000500000001030F0F0B0F0F0F0707070149
:10123000010206050B0F070F0F0F0F0E0F0F0F0FF9
:101240000F0F0D0D0D0D0F0D0F0F0F0F0E0E0E0EBC
:101250000E0F0E0E070F0E0F0F0F0F0F0F0F0B0FAE
:101260000F0F0F0F0F0F080C0D0F0D0F0F0F0F0F9C
:101270000F0F0F0F0F0F0F0F0F0F0F0F0F0F0F0E7F
:101280000F0F0F0F0F0F0F070F0F0F0F0F0F0F0F76
:101290000E0F0F0F0F0F0F0F0F0F0F070703030393
:1012A0000303030101010101010101010303030320
:1012B0000307070F0F07070F0F0F0F0F0F0F0F0F6A
:1012C0000F0F0F0F0F0D0F0F0D0D0F0F0D10FF0153
:1012D0000101F9090919F1010306FC3F2020203F13
:1012E0000000003F2020203F0D10FF01010179493F
:1012F0004979010173DE803F2020203E0202023E38
:101300002020203F0D10FC06030139292929292915
:10131000E9090F1F30202027252525252525243CD8
:101320000D10FF010101FF000000FF010101FF039B
:10133000060C183326242633180C06030D10FE0362
:1013400001017949494979010103FE3F2020203EEE
:101350000202023E2020203F0B100F0909F9010173
:1013600001F909090F3C2424272020202724243CAC
:101370001110FF010101F909F9010101F909F90150
:101380000306FC3F2020203F003F2020203F003F5D
:101390002020203F0D10FC86030139292929292905
:1013A000296FC03C25252525252525272020301FF0
:1013B0000D10FE030101F9090909F9010103FE1FDE
:1013C00030202027242424272020301F0D10FE0346
:1013D0000101F9090909392121233E1F3020202765
:1013E000242424272121311F0040004000400040D8
:1013F00000400040004000400040004000400040ED
:1014000000400040004000400040004000400040DC
:1014100000400040004000400040004000400040CC
:1014200000400040004000400040004000400040BC
:1014300000400040004000400040004000400040AC
:10144000004000400040004000400040004000409C
:10145000004000400040004000400040004000408C
:101460001516151615161516151615161516151624
:101470001516151615161516151615161516151614
:101480001516151615161516121C0F220C28092EE6
:101490000634033A013E013E013E013E023B033960
:1014A000023A023B033A023B033B023B013D013C53
:1014B000013D013D023B013B023B013B013B023B45
:1014C000033B033B033A033B023B013B023A013C33
:1014D000023A013C023B0339033A033B033A033926
:1014E000023A033A023C023C013C023A033A023B14
:1014F0000339033A023B013C023C013C023C023C02
:10150000013D013D023C023B023B013C013B013CF1
:10151000023C033B033A033B033B033A033A033BDE
:10152000023C033A033A033B033B023C013C023BCF
:10153000013D023B013C023C013C013B013B023AC4
:10154000023A033903390339033A0339033A033BB7
:10155000033B023C023B033B033B023B013D013D9D
:10156000013D013C013D013D013C023C013C013D8E
:10157000013D013C013D013D023C013C023A013C80
:10158000023B023A023A013B013C023B023C013D74
:10159000013D023C013D013C023B0339023A023B62
:1015A0000339023A013B013B013C013C013D023C55
:1015B000033A033B033B033A023C023C013D013D3D
:1015C000013C013D013D013D023C013D013C023A2F
:1015D0000339033A033A033B023C033A0339023B23
:1015E000013D023B013D00000708117F5E7F3A7F0D
:1015F0006E7F3A7F5E7F117F080849496B6B7F7F62
:101600006B7F223E363E1C1C0808E91411241FBEC5
:10161000CFEFDAE0DEBFCDBF11E0A0E0B1E0EEEB4E
:10162000F9E402C005900D92AE3FB107D9F72AE068
:10163000AEEFB1E001C01D92A833B207E1F71BE0A5
:10164000C6E0DBE004C02197FE010E94C324C53040
:10165000D107C9F70E94B7150C94DD240C94000043
:10166000CF93DF93E82FF0E0EE0FFF1FE450F94F28
:1016700030E090E480E0361791F02781821708F47B
:10168000822F4085C22FC40FDD27DD1F9C171D064A
:1016900019F014F0922F940F3F5F3296ECCFDF9148
:1016A000CF910895E0E4F2E0A0E0B8E000800EBC45
:1016B0008111012C1197A0FDFDCF0192B9F70DB456
:1016C0000895FC0180913F02882311F13FB7F894FF
:1016D00082E08093E9002091F200822F90E01816BA
:1016E000190614F481E090E0882339F0289844E644
:1016F00040933E024091F1004083222339F0209133
:10170000F200211103C02BE62093E8003FBF0895AB
:101710008FEF9FEF08952FB7F89483E08093E9004F
:101720009091E800892F807295FF04C09091F2009B
:1017300080E4891B2FBF08958091360281110DC06E
:1017400082E08093320284E080933302109235026B
:101750001092340281E08093360282E392E0089591
:10176000FC010E94C40B319728F068517C4F8F4FC9
:101770009F4FF9CFAB01FC010E94C40B64177507A2
:101780008E079F07C8F30895AEE2B2E02FB7F89432
:101790007D918D919C9166B52FBFA89B05C06F3F31
:1017A00018F47F5F8F4F9F4F22E0660F771F881FCF
:1017B000991F2A95D1F70895409100025091010296
:1017C0002091FE013091FF0142175307B4F490912C
:1017D000E8009570E1F39091E80092FD19C08093C4
:1017E000F100809100029091010201968F73992778
:1017F000892B19F48EEF8093E8008091000290917C
:1018000001020196909301028093000281E0089505
:1018100080E00895DF92EF92FF920F931F93CF9392
:10182000DF93D82E8A01EB017B01E40EF51ECE1565
:10183000DF0559F0D7FE12C0FE0184910E94DC0B37
:1018400021968111F4CF0FEF1FEFC801DF91CF91E7
:101850001F910F91FF90EF90DF9008958881EECF58
:101860000F931F93CF93DF931F92CDB7DEB782E024
:10187000898342E450E062EE75E080E80E940A0C41
:101880000E949C0BDC0112960D911C910115110513
:1018900089F0D801ED91FC910280F381E02DBE0129
:1018A0006F5F7F4FC801099597FD04C0F80100855F
:1018B0001185ECCF89810F90DF91CF911F910F910E
:1018C0000895615030F02091F100FC0120830196D1
:1018D000F8CF289884E680933E020895AF92BF9295
:1018E000CF92DF92EF92FF920F931F93CF93DF93EC
:1018F0006C017B018B01040F151FEB015E01AE181B
:10190000BF08C017D10759F06991D601ED91FC913C
:101910000190F081E02DC6010995892B79F7C50169
:10192000DF91CF911F910F91FF90EF90DF90CF90BB
:10193000BF90AF9008958F929F92AF92BF92CF9237
:10194000DF92EF92FF920F931F93CF93DF936C017F
:101950007B018A0180910B01882309F45AC0809190
:101960003F02882309F455C08091040280FF05C01E
:101970008091E00082608093E000E801B12C8AEF62
:10198000A82E93E0892E2AE3922E209711F4BB20F3
:10199000C9F10E948B0B811108C0AA94AA20C9F139
:1019A00081E090E00E94B00BF0CF8C171D0611F083
:1019B0000CF08C2F9FB7F8948092E9002091E800FA
:1019C00025FD02C09FBFE1CF282F30E0C21BD30B03
:1019D000F701815020F041914093F100FACFE20EDF
:1019E000F31EBB2021F09092E800B12CEBCF809148
:1019F000E80085FDE7CF9092E800BB24B3942097E0
:101A000009F3F3CF5D9884E6809303021016110664
:101A10003CF081E090E0F6019383828310E000E0E7
:101A2000C801DF91CF911F910F91FF90EF90DF9050
:101A3000CF90BF90AF909F908F900895CF93DF93FA
:101A40001F92CDB7DEB76983DC01ED91FC91028076
:101A5000F381E02D41E050E0BE016F5F7F4F0995BB
:101A60000F90DF91CF91089583E08093E9008091FA
:101A7000F200882319F08AE38093E80008950E9419
:101A80008B0B90E00895CF93DF931F92CDB7DEB715
:101A9000FC018485958597FD08C02FEF3FEF3587C2
:101AA00024870F90DF91CF910895CE0101960E9477
:101AB000610B019719F4898190E0F3CF8FEF9FEFCD
:101AC000F0CF0F931F93CF93DF931F92CDB7DEB765
:101AD0008C01FC018485958597FF0BC0CE01019692
:101AE0000E94610B019771F4898190E0F80195875C
:101AF0008487F801848595850F90DF91CF911F91A0
:101B00000F9108958FEF9FEFF1CFFC0184859585AC
:101B100097FD0BC09FB7F89482E08093E900809115
:101B2000F2009FBF90E0019608959FB7F89482E07D
:101B30008093E9008091F2009FBF90E008954F925A
:101B40005F926F927F928F929F92AF92BF92CF924D
:101B5000DF92EF92FF920F931F93CF93DF934C018D
:101B60005901FC2DC02FD0E0CE01880D991D18160B
:101B700019060CF06CC020E8821691040CF067C0C6
:101B80009B012E0D311D121613060CF060C060343F
:101B900071050CF05CC04115510509F458C0E62FE1
:101BA000E770FE2EDB0177FD179633E0B595A7951C
:101BB0003A95E1F73A2F77FF04C0FF2011F03FEF8D
:101BC0003A0F662777276819790997FC02C070E0F9
:101BD00060E0803891050CF44BC090E89819961B92
:101BE000A32F032E000CBB0B1A2F10953F3F0CF0B8
:101BF00010E021E08E2D877009F420E0E694E69451
:101C0000E694E20EAE0DB11D19971CF028E0E22E0D
:101C1000E31AE11A310F20E83203D0011124A80D94
:101C2000B91DA60FB71F019F600D711D1124460F2E
:101C3000571F0F2D0F2C000C110BF33009F41CC192
:101C4000C8F4F13009F4D0C0F23009F47CC0DF915F
:101C5000CF911F910F91FF90EF90DF90CF90BF90A9
:101C6000AF909F908F907F906F905F904F9008956E
:101C7000902FB5CFFA3FB1F1232F2E0DFB3F39F74F
:101C8000321729F3BD01605C7D4FD12CC12CC916E0
:101C900008F0A4C0FA01EC0DFD1DE491F0E04F0145
:101CA000002E02C0880C991C0A94E2F737FD06C08A
:101CB000FB018081E82CE0948E218083FF2061F07D
:101CC000373054F45B01F0E8AF0EB11CE92CE0941E
:101CD000F50180818E218083FFEFCF1ADF0A6F5FCD
:101CE0007F4FD5CF232F2E0D321709F4B0CFBD0172
:101CF000605C7D4FD12CC12CC91608F069C0FA0177
:101D0000EC0DFD1DE491F0E04F01002E02C0880CA7
:101D1000991C0A94E2F737FD04C0FB0180818829F1
:101D20008083FF2051F0373044F45B01F0E8AF0EC0
:101D3000B11CF501808189298083FFEFCF1ADF0A6A
:101D40006F5F7F4FD9CF6FEF70E00F2C02C0660F2F
:101D5000771F0A94E2F760957095772E232F2E0D4A
:101D6000321709F474CFFD01E05CFD4F6F01B12C17
:101D7000A12CA91638F5FA01EA0DFB1DE491F0E05B
:101D80002F01002E02C0440C551C0A94E2F737FDC7
:101D900005C0F6018081862384298083FF2059F0C5
:101DA00037304CF44601F0E88F0E911CF40180812D
:101DB000872185298083FFEFAF1ABF0A8FEFC81AEA
:101DC000D80AD7CF3F5F4C0F5D1FA058BF4FC8CF79
:101DD0003F5F4C0F5D1FA058BF4F86CF3F5F4C0F3A
:101DE0005D1FA058BF4F4CCF6A0D7B1D232F2E0DBA
:101DF000321709F42CCFFD01E05CFD4F6F01B12CCF
:101E0000A12CA91688F5FB01EA0DFB1D8490912CED
:101E1000002E02C0880C991C0A94E2F780949094DA
:101E2000FA01EA0DFB1D6490712C002E02C0660CB5
:101E3000771C0A94E2F737FD05C0F60180818821FE
:101E400086298083FF2049F037303CF4F601E058C2
:101E5000FF4F8081892187298083FFEFAF1ABF0A56
:101E60008FEFC81AD80ACDCF3F5F4C0F5D1F6C0FA4
:101E70007D1FA058BF4FBCCFC92ED12CFA01E60F51
:101E8000F71FA05CBD4F00E810E00C191D09CC192C
:101E9000DD09BE01660F771F41E050E06A010F2C9B
:101EA00001C0CC0C0A94EAF7592F2E2D792ECF932E
:101EB000DF93ED01EF96EF9622968590A590FF2097
:101EC00059F08C9C4001AC9C500137302CF4E880D8
:101ED000B094EB20E928E99233233AF0EC90A094F7
:101EE000EA20E828ED920C94760F11965A9529F77E
:101EF0002A9551F0572D33951124E60FF11DA00FAF
:101F0000B11DC00FD11DD9CFDF91CF9111249FCE2C
:101F1000CF92EF920F934115510561F0FA010491B0
:101F20003196E4904E5F5F4F22E0C22E30E020E019
:101F30000E949F0D0F91EF90CF900895CF92EF9256
:101F40000F93FA0104913196E4904E5F5F4F2BEFAF
:101F5000C22E30E020E00E949F0D0F91EF90CF90B5
:101F60000895CF92EF920F934115510569F1FA014F
:101F700004913196E4904E5F5F4F2223F9F0A1E087
:101F8000B0E03E2D377011F4B0E0A0E0EE2DE69504
:101F9000E695E695EA0FFB2FF11D0E9FD0010F9FEE
:101FA000B00D112430E0220F331FA29FF001A39F38
:101FB000F00DB29FF00D11244E0F5F1F23E0C22ED3
:101FC00030E020E00E949F0D0F91EF90CF90089598
:101FD00090E00C94B00B8FB18095807F669B8860F9
:101FE0001C9B8460089590912602982329F4909177
:101FF0002702982381E009F480E00895CF93C82F49
:102000000E94EB0F982F9C2381E09C1380E0CF91DE
:10201000089580E00C94520B80389105B8F4603438
:102020007105A0F490E121E061FD24E060FD220F44
:1020300062FD2295687F969FD0011124A80FA05CB5
:10204000BD4F0C90022A40FF02260C9208958F92F9
:102050009F92AF92BF92CF92DF92EF92FF920F9337
:102060001F93CF93DF936D3089F0C0902402D090FE
:1020700025026A30D1F4109223021092220288E0E5
:10208000C80ED11CD0922502C092240281E090E0BB
:10209000DF91CF911F910F91FF90EF90DF90CF9044
:1020A000BF90AF909F908F90089500912202109161
:1020B0002302E5E06E9FE0011124CE51DF4F48017D
:1020C000F12CF5E0E12CFF1629F0CE010196FE017E
:1020D000E490EC01B12CA12C4E2D4170B6016A0D9B
:1020E0007B1DC4010E940C10E694FFEFAF1ABF0ADB
:1020F00088E0A816B10481F7F394EFEF8E1A9E0AD8
:10210000F6E0FF12DECF0A5F1F4F10932302009309
:102110002202BCCF8F929F92AF92BF92CF92DF925A
:10212000EF92FF920F93CF93DF935B01EC014C0191
:10213000840E911C6B01C20ED11CC815D905D4F4B4
:102140007501B7FE02C0F12CE12CC60121E4C216D4
:10215000D10414F080E490E0E816F9064CF4402F26
:10216000B701CE010E940C108FEFE81AF80AEDCFEC
:102170002196E3CFDF91CF910F91FF90EF90DF9009
:10218000CF90BF90AF909F908F9008958A3040F588
:10219000E82FF0E0E253FF4E0C94C324F110D81066
:1021A000F410DB10DE10E110E410E710EA10ED107F
:1021B00086ED90E008958AEC90E0089584EC90E03C
:1021C00008958EEB90E0089588EB90E0089582EBFF
:1021D00090E008958CEA90E0089587E89CE00895E7
:1021E00008958CED90E0089580ED90E008950895B5
:1021F00090E080E0089540E052E068EE73E183E013
:1022000097E00E941D24109203091092040981E0B6
:1022100080930709809308091092090980E068EC0F
:1022200070E044E650E090910A098917F0F490E1DB
:10223000899F90011124E091FE06F091FF06E20FC4
:10224000F31F73836283E091FE06F091FF06E20FB5
:10225000F31F53834283E091FE06F091FF06E20FE5
:10226000F31F138614868F5FDECF80E04BE02EEDE8
:1022700030E09EED50910B09851770F4E091000756
:10228000F0910107849FE00DF11D1124318320831B
:10229000928317828F5FEECF0895FB01019000209B
:1022A000E9F73197AF01461B570BDC01ED91FC912B
:1022B0000280F381E02D09948F929F92AF92BF929A
:1022C000EF92FF920F931F93CF93DF93CDB7DEB7BB
:1022D000A1970FB6F894DEBF0FBECDBF7C01FA0107
:1022E000CB0119A2223008F42AE08E010F5D1F4FA6
:1022F000822E912CB12CA12CBF01A50194010E942A
:102300007224F901CA016A300CF5605DD8016E9340
:102310008D01232B242B252B79F790E080E010975B
:1023200021F0BD01C7010E944D11A1960FB6F8948E
:10233000DEBF0FBECDBFDF91CF911F910F91FF90F8
:10234000EF90BF90AF909F908F900895695CDECF23
:10235000CF92DF92EF92FF92CF93DF936B017C01DC
:102360006DE284E39AE00E942710EC014427552790
:10237000BA014C195D096E097F092AE084E39AE0ED
:102380000E945C118C0F9D1FDF91CF91FF90EF9009
:10239000DF90CF9008950F920FB68F939F93EF9396
:1023A000FF93809129028D5F8D3708F08D578093C0
:1023B0002902EAE2F2E080818E4F808391819F4F73
:1023C000918382818F4F828383818F4F8383EEE25B
:1023D000F2E080818F5F808381818F4F8183828152
:1023E0008F4F828383818F4F83838FB18F606699F4
:1023F0001C9B88278F3681F480912802981B963089
:1024000068F0E0E0F8E087E78083818388E18093EB
:102410006000F0936000FFCF90932802FF91EF914E
:102420009F918F910FBE0F9018951F920F920FB62C
:102430000F9211248F939F938091E1009091E1007E
:10244000937F9093E10083FF0FC01092E90091E029
:102450009093EB001092EC0092E39093ED001092B9
:102460003F0298E09093F00082FF22C093E09093A7
:10247000E9009091F200992319F09AE39093E80013
:1024800090910302992341F090910302915090930F
:102490000302911101C05D9A90913E02992341F08F
:1024A00090913E02915090933E02911101C0289A62
:1024B00084FF18C08091E2008E7E81608093E200EC
:1024C0008091E1008F7E8093E100809104028E7EF6
:1024D0008061809304029F918F910F900FBE0F90A7
:1024E0001F90189580FFF7CF8091E2008E7E80616B
:1024F0008093E2008091E1008E7E8093E1008091E4
:1025000004028E7E8160E5CF1F920F920FB60F926C
:102510001124CF92DF92EF92FF920F931F932F938C
:102520003F934F935F936F937F938F939F93AF935B
:10253000BF93EF93FF93CF93DF93CDB7DEB76C9745
:10254000DEBFCDBF1092E9008091E80083FF25C077
:1025500068E0CE0145960E94610C82EF8093E8000E
:102560008D8987FF39C09091E80090FFFCCF982FAC
:10257000907609F034C19E894F89588D2F89F88C47
:10258000911131C0803861F5809105028093F1008E
:102590001092F1008EEF8093E8006C960FB6F894DD
:1025A000DEBF0FBECDBFDF91CF91FF91EF91BF9105
:1025B000AF919F918F917F916F915F914F913F91DB
:1025C0002F911F910F91FF90EF90DF90CF900F9080
:1025D0000FBE0F901F9018959EEF9093E800C7CF05
:1025E0001092F100D5CF913059F48111D3CF413001
:1025F000510581F6809105028D7F80930502CACF37
:10260000933049F48111C6CF4130510519F68091BC
:1026100005028260F2CF953041F48091E80080FF9E
:10262000FCCF20682093E300B5CF963009F0A9C015
:102630000B8D1C8D22E01092E90010920102109285
:102640000002F2122EC01092FF011092FE010E94B1
:10265000300C1F8299E09983FA8291E09E8390EA80
:1026600098879AEF99872091000230910102275FA5
:102670003F4F3C832B838D831092E900109201021F
:10268000109200021093FF010093FE0149E050E018
:10269000BE016F5F7F4F80E00E940A0C0E94300CE9
:1026A00079CF1093FF010093FE010E949C0BDC0187
:1026B00012960D911C910115110509F451C1D80113
:1026C000ED91FC910480F581E02DBE016B5E7F4FA2
:1026D000C8010995009709F03EC1F80100851185F0
:1026E000EACFF3E0FF120EC08F89882309F440C0BF
:1026F000823061F440E867E086E496E00E94B61418
:10270000811148CF81E28093EB0047CF813029F4DB
:1027100040E86BE08AE396E0F1CF833099F70E94BE
:102720009C0BDC011296ED90FC908E010F5F1F4F09
:102730006801E114F10479F0D701ED91FC91068074
:10274000F781E02DB801C7010995080F111DF701A8
:10275000E084F184EECFD8011C92F60101900020B4
:10276000E9F73197BF016C197D0940E0C601C6CF7A
:1027700064E276E0FB01449150E080E80E940A0C9C
:1027800009CF973009F4BECF983021F481E08093CF
:10279000F10000CF993009F0FDCE837009F0B2CF7F
:1027A000E4ECF1E081E031E096E32191222371F045
:1027B0008093E9003093EB00DF0111972C91209377
:1027C000EC009093ED008F5F873079F78EE7809370
:1027D000EA001092EA008F8980933F02DBCE8B8D56
:1027E0009C8D1092E90010920102109200029093C9
:1027F000FF018093FE01898D811192C08E899D8990
:10280000913A49F4813209F07DCF47E050E064E02D
:1028100071E080E0B3CF913209F074CF833269F474
:102820008F89988DB0E0A0E0809300019093010122
:10283000A0930201B0930301ADCE803269F4809180
:10284000E80082FFFCCF67E084E091E00E94610C29
:102850008BEF8093E8009ECE823209F09BCE8F8969
:1028600080930B01EEEFFFE7859194918B3F9C4D98
:1028700051F1E0E0F8E08091040190910501A09110
:102880000601B0910701803B9440A105B105F1F428
:1028900080910B0180FD1AC0EE3F8AE0F80789F5B0
:1028A00087E797E79183808380916000809302029D
:1028B00088E19BE00FB6F894A895809360000FBE66
:1028C0009093600067CEEEEFFAE0D5CF80819181E2
:1028D0008737974709F05ECEA895809160008861A0
:1028E000809360008091020280936000EE3F2AE0B6
:1028F000F20789F08091FE0A9091FF0A918380830C
:1029000049CE808191818737980751F29093FF0AD1
:102910008093FE0AC5CF1092FF0A1092FE0A3ACEAB
:102920000E949C0BDC0112960D911C910115110562
:1029300009F4E8CED801ED91FC910190F081E02DF1
:10294000BE016B5E7F4FC8010995811123CEF8014E
:1029500000851185EBCF181619060CF41BCED2CECC
:10296000F1E0FF12BECE68E276E004CFEF92FF9274
:102970000F931F93CF93DF93F82E192FE62E042F7A
:1029800081E0860F880F0E94DC0B83E00E94DC0B45
:10299000CF2DD12FEC0EFD2EF11CCE15DF05B9F099
:1029A00007FF13C0FE0184910E94DC0B182F80E00A
:1029B0000E94DC0B812321968111EFCFDF91CF9113
:1029C0001F910F91FF90EF9008958881EDCF81E0E6
:1029D000F5CFCF93109243061092420688EE93E013
:1029E000A0E0B0E08093440690934506A09346068D
:1029F000B09347068AED91E090934106809340069C
:102A00008FEF9FEF90934D0680934C0684E39AE0FE
:102A10001092370A1092360A2CEE31E03093350AC4
:102A20002093340A90931D0A80931C0A28EF35E105
:102A300030931F0A20931E0A2AE030E03093210AC7
:102A40002093200A2CE130E03093230A2093220ABD
:102A500020EC31E03093250A2093240A1092260AB4
:102A600020E12093270A1092280A90932A0A809343
:102A7000290A8AEE80932B0A80932C0A10922F0A3F
:102A80001092300A1092310A1092320A81E080933B
:102A9000330AECE0F9E0ACE1BAE068EC70E054E64F
:102AA00047E098E028EE35E1B183A0837383628329
:102AB0005483458396833087278311861286138635
:102AC00014861586168687877096CAE0EC31FC0757
:102AD00059F724E33AE03093FD062093FC064CE0DE
:102AE00059E05093FF064093FE0640E251E05093B8
:102AF0000107409300078093020710920309109288
:102B0000040992E09093050944E0409306098093FC
:102B10000709809308091092090981E180930A0945
:102B200040930B09309392062093910620E936E0FA
:102B3000309394062093930686E1809395069093B4
:102B40009606109298061092970686E08093990652
:102B500010929A0610929B0680E6EBE5F1E0ACE954
:102B6000B6E001900D928A95E1F7CF910895CDB727
:102B7000DEB76397DEBFCDBF789483E084BD83E08A
:102B800085BD81E080936E00E1E8F0E083E0808322
:102B9000E0E881E08083E1E983E08083E0E981E0AF
:102BA0008083E1EC87E08083E3EC81E08083E0ECEC
:102BB00082E08083E2EC81E08083EAE787E0808343
:102BC0008068808310923F021092050210920402E6
:102BD0008091D70081608093D70080EA8093D800ED
:102BE00089B5806189BD89B5826089BD09B400FE5F
:102BF000FDCF81E090E00E94B00B8091D8008F7CE7
:102C000080618093D8008091E000807F8093E00015
:102C10008091E1008E7E8093E1008DE08093E20060
:102C2000559A209A81EC80937C0081EF85B987EEDC
:102C300084B984E38BB984EF8AB9769A6E9880EF71
:102C400081BB10BA80E58CBD81E08DBD85E00E941E
:102C5000E80F5F9A85E00E94E80F5C98EEEFF6E0DF
:102C600085918EBD00000DB407FEFDCFEB30C1F79E
:102C70005C9A81E88093640081E0809365000E9403
:102C8000091080E80E94FE0F8823A9F05C9885EA6D
:102C90008EBD00000DB407FEFDCF5C9A2E982F98D4
:102CA0002D988091640080628093640081E083BFEE
:102CB000889513BEFCCF84E00E94FE0F8823B9F1F3
:102CC0002D9884E80E94FE0F8823A1F02D9A88ECAD
:102CD0000E94E80F2F986FEF82E090E00E942E2470
:102CE00084EF91E00E94B00B2F9A84E80E94FE0FBF
:102CF0008111FBCF84E10E94FE0F8823A1F02D9A61
:102D000088EC0E94E80F2E9860E082E090E00E943C
:102D10002E2484EF91E00E94B00B2E9A84E10E9451
:102D2000FE0F8111FBCF88EC0E94E80FC4CF2D9AD3
:102D300082E090E00E942624882309F473C03E9A22
:102D40003F9A81E090E00E942624082F0470D02E44
:102D500081FF0CC001112E9801EF1FEF80E40E944B
:102D6000FE0F882309F461C02E9A2F9A82E30E94F5
:102D7000E80F0E94EB0F8111F9CF80E180931F01D2
:102D8000809164008E7F8093640080917A008064DB
:102D900080937A0080917A0086FDFCCF00917800C4
:102DA000109179000E94C40BAB01BC01C801B0E0D6
:102DB000A0E0DC01992788278C019D01040F151FD5
:102DC000261F371FC901B80120916400216020939C
:102DD0006400611571058105910511F00E941424AC
:102DE00083E0809315010E94FB108FEF9FEF90937B
:102DF0004D0680934C0690912A0280910902192F6A
:102E0000181B812F10910802112309F4AEC0809382
:102E100021021092080280E090E0892B61F30E9469
:102E20000000E9CF3E983F988CCFDD2029F0043098
:102E3000110511F42E9A2F9881E00E94520B202F39
:102E40002770C22E980143E0359527954A95E1F702
:102E5000C9019695982F882797958795805C9D4FF7
:102E600070E060E02E3F4FEF340781F17C0154E9C0
:102E7000E50EF11CDC0150E040E0FB01E25BF94FA4
:102E80005F01F501E40FF51FE491F0E03F010C2C28
:102E900002C0660C771C0A94E2F72F3F320739F024
:102EA00054969C905497962854969C925497CC2074
:102EB00021F0F7019080972890824F5F5F4FFFEFDE
:102EC000EF1AFF0A119648355105D9F62F5F3F4F8B
:102ED00080589F4F685A7F4F603B710509F0C2CF01
:102EE0000E9409108FE00E94E80F0F5F1F4F093109
:102EF000110509F033CFDD2011F02F9A2D9880E9CC
:102F000091E00E94B00B2D9A81E090E00E9426246F
:102F100080FF2CCF8AE090E00E9426249FEF980F3C
:102F20009E3F08F023CF22E330E03093230220932A
:102F3000220228E330E030932502209324020AE0A5
:102F400010E0682F84E39AE00E9427100F5F1F4F64
:102F5000C8010E9426240031110599F70E9409102A
:102F600088EE93E00E94B00B01CF20911F018217E1
:102F700048F48F5F821708F04ECF81E083BF8895B9
:102F800013BE49CF81E08093080290930902E6E0E6
:102F9000F2E0808191810196808391838091270264
:102FA000809326020E94EB0F80932702E0E4F2E078
:102FB00011111FEF8FEF1193119311931193815002
:102FC000D0F7109225021092240210922302109240
:102FD000220210919006113009F4A3C258F0143067
:102FE00011F40C94F222173011F40C940A230E946D
:102FF000091011CF80919A0681113EC16091960609
:1030000070E0809195064CEC53E190E00E94880FAF
:103010006091960670E08091950690E040EB53E158
:103020000E960E94880F6091960670E0809195063A
:1030300090E044E953E14C960E94880F6091960617
:1030400070E08091950690E040E753E18A960E94F7
:10305000880F6091960670E08091950690E048E5B3
:1030600053E1CC960E94880F6091960670E08091A3
:10307000950690E04CEC53E1885B9F4F0E94880FCF
:103080006091960670E0615F7F4F8091950690E0B9
:103090004CEC53E101960E94880F6091960670E017
:1030A000615F7F4F8091950690E04CE353E10F966E
:1030B0000E94880F6091960670E0615F7F4F80915B
:1030C000950690E040E253E14D960E94880F609192
:1030D000960670E0615F7F4F8091950690E044E036
:1030E00053E18B960E94880F6091960670E0615FB5
:1030F0007F4F8091950690E048EE52E1C9960E947C
:10310000880F6091960670E0615F7F4F8091950611
:1031100090E04CEC52E1895B9F4F0E94880F6091D8
:10312000960670E0625E7F4F8091950690E04CECD1
:1031300053E103960E94880F6091960670E0625EEC
:103140007F4F8091950690E048EE52E141960E94B3
:10315000880F6091960670E0625E7F4F80919506C1
:1031600090E048E553E14F960E94880F60919606E3
:1031700070E0625E7F4F8091950690E044E953E1F4
:103180008B960E94880F6091960670E0625E7F4F7A
:103190008091950690E048E553E1C9960E94880F1A
:1031A0006091960670E0625E7F4F8091950690E098
:1031B00044E953E18B5B9F4F0E94880F6091990611
:1031C00070E080919706909198060E94AF24CB0101
:1031D00046E651E164E370E09195819591090E9482
:1031E000880F6091990670E08091970690919806FB
:1031F0000E94AF249B0146E651E164E370E082EB5C
:1032000090E0821B930B0E94880F80919A06811197
:10321000EFC080919706909198060196909398063A
:103220008093970620919906B2EB2B9F9001112471
:103230008217930724F0109298061092970688E060
:103240000E94F30F882319F081E080939A06809101
:103250002102F4E68F9FC001112460911F0170E0EC
:103260000E94AF24AB01770F660B770B2AE084E353
:103270009AE00E945C11BBCE813049F742E251E1F5
:1032800065E170E085E390E00E94880F80919B06E5
:10329000813009F485C008F479C0823009F488C00F
:1032A000833009F48BC020E040ED5EE068EF7FEFF3
:1032B00084EF9FEF0E94B10F20E040ED5EE068EFE9
:1032C0007FEF82E490E00E94B10F20E040ED5EE0ED
:1032D0006BE270E084EF9FEF0E94B10F20E040EDC1
:1032E0005EE06BE270E082E490E00E94B10F8091BA
:1032F0009B064DEA5EE066E070E0811165C08BE000
:1033000090E00E949E0F80919B0641E95EE066E09E
:1033100070E0813009F05DC085E590E00E949E0F6D
:1033200080919B0640E65EE063E370E0823009F046
:1033300055C085E090E00E949E0F80919B064FE271
:103340005EE063E370E0833009F04DC08BE490E011
:103350000E949E0F01E916E091EFE92E96E0F92E0A
:10336000D8011D968C911D97882351F01C966C9165
:103370001C9770E01B968C9141E090E00E940C102D
:103380000C5F1F4FE016F10659F73FCF01E021E136
:103390004AE370E060E090E080E00E948A1083CF12
:1033A00001E021E14AE370E060E086E490E0F5CFDF
:1033B00001E021E14AE36FE270E0EDCF01E021E1BD
:1033C0004AE36FE270E0F1CF8BE090E00E94880F5B
:1033D0009ACF85E590E00E94880FA2CF85E090E02B
:1033E0000E94880FAACF8BE490E00E94880FB2CF92
:1033F000813009F02CCF01E916E081EFE82E86E05C
:10340000F82EF8018585882309F444C0815085870A
:1034100081110FC00E94C52324E030E040E050E05D
:103420000E9440246D5F7F4F8F4F9F4FD8011E96A3
:103430006C930C5F1F4FE016F10619F780E10E94B4
:10344000F30F811106C080E80E94F30F882309F46E
:1034500047C080919B0692E0892780939B0688E075
:103460000E94F30F811106C084E00E94F30F8823AD
:1034700009F4EDCE80919B06813009F440C008F438
:1034800044C0823009F441C0833009F444C0109232
:103490009A06DDCE86858823A1F08150868781112A
:1034A000C8CF0E94C52320EF30E040E050E00E94EA
:1034B000402468597E4F8F4F9F4FD8011D966C93C3
:1034C000B8CF0E94C52320EF30E040E050E00E94DA
:1034D000402468597E4F8F4F9F4FF8016587A9CFD1
:1034E00080E40E94F30F811106C080E20E94F30F76
:1034F000882309F4B4CF80919B0691E0ADCFE09191
:103500009306F09194068083C2CFE0919306F091E8
:10351000940681E0F8CFE0919306F091940684E060
:10352000F2CF8091190281110CC00E94C5232FE0B7
:1035300030E040E050E00E94402460931802109375
:10354000190280910207882309F463C080E20E9477
:10355000FE0F882391F186E080930609809105098A
:10356000815080930509811154C0ECEFF6E09185FC
:10357000978392859087329608E0EA3FF007B9F783
:1035800090E020910A09921730F19BE020910B09FD
:103590008217B0F5E0910007F0910107899FE00DD7
:1035A000F11D11242781222331F020813181215006
:1035B0003109318320838F5FE9CF84E00E94FE0FC1
:1035C0008111C9CF80E40E94FE0F882311F081E0B1
:1035D000C3CF82E0C1CF10E1919FF001112420916F
:1035E000FE063091FF06E20FF31F2385222331F000
:1035F0002281338121503109338322839F5FC1CFE0
:10360000809104098F5F809304098091060980935B
:1036100005098091040987FFF2C188E0EBEBF1E036
:10362000DE01119601900D928A95E1F780910909CA
:103630008150833008F016C290E0FC01ED52FE4F3D
:10364000A080FC01E053FE4F8080FC01E353FE4F5D
:10365000E08086539E4FDC01CC90809103098F5F00
:103660008093030965E00E94A324911117C00E9472
:10367000C52323E030E040E050E00E9440246F5F2B
:103680007F4F8F4F9F4F609309098091030964E139
:103690000E94A324911102C01092090901E018E0D0
:1036A000E8E04E2E512C612C712CF12CD12CB12C38
:1036B000912CFFE33F2E0E94C523A30192010E949B
:1036C0004024E1E0F0E0EC0FFD1F6E0F7F1FDB01F7
:1036D0008C9190910709890F809307090E94C52357
:1036E000A30192010E944024E1E0F0E0EC0FFD1FF5
:1036F0006E0F7F1FDB018C9190910809890F8093D9
:10370000080990910709292F092E000C330BE216A6
:10371000F3061CF09F5F90930709282F082E000CDA
:10372000330BC216D3061CF08F5F8093080980917B
:103730000709282F082E000C330B2A153B051CF017
:1037400081508093070980910809282F082E000CCA
:10375000330B281539051CF081508093080990918E
:10376000070980910809890FB32DB81BF8019083D0
:10377000B1830E5F1F4FF9E003301F0709F09BCFA5
:103780005CE0252E51E0352E810168E0C62ED12C5B
:10379000E12CF12C78E0472E512C612C712C0E94E9
:1037A000C523D801BC90A70196010E944024A30123
:1037B00092012C193D094E095F09620F731F841F86
:1037C000951FE62FF0E0E45FFE4F8081D8018D93D6
:1037D0008D01B082B1E0CB1AD108E108F108E1E037
:1037E000CE16D104E104F104D1F60CE011E0D801C9
:1037F0004D918D0150E070E060E02AE080E496E0B9
:103800000E945C1164EF71E080E496E00E944D112B
:10381000B1E003311B0759F768EF71E080E496E0EF
:103820000E944D1166EF71E080E496E00E944D1118
:1038300068EF71E080E496E00E944D1166EF71E060
:1038400080E496E00E944D1143E0542E44244394BA
:1038500050910A092091FE063091FF06C90140E00F
:10386000541709F463C08C01021B130BFC01409632
:10387000DC0115976C916111FEC0D1018C91885FBC
:1038800065818295807F0E94300B3C018091FE060D
:103890009091FF06080F191FF1018081885F8295C2
:1038A000807F90E0D80113969C938E931297169682
:1038B0008C91E72DE81BFF0B6F01F5E0CF1AD108C3
:1038C0000D2C000CEE08FF08862C912C25E0820EB2
:1038D000911C092C000CAA08BB088C149D04AE0492
:1038E000BF048CF4C818D908EA08FB0841F00E940C
:1038F000C523A70196010E9440246B017C018C0C1A
:103900009D1CAE1CBF1CD80114968C92149719965E
:103910006C9219971A967C921A971B964C921B9749
:103920001C961C921C97EFEF1F96EC935A94FFEF96
:103930002F1A3F0A51108CCF8091030980FD5DC082
:103940002091000730910107F90190E080E08F019C
:10395000021B130B4781411190C0845F9E4FDC0115
:103960008C91885F63818295807F0E94300B3C013F
:103970008091000790910107080F191F80910F0196
:1039800090E0089634E0880F991F3A95E1F7F80126
:10399000918380838481272D281B330B69010D2C93
:1039A000000CEE08FF08862C912CB12CA12C8C1455
:1039B0009D04AE04BF048CF4C818D908EA08FB08BB
:1039C00041F00E94C523A70196010E9440246B018B
:1039D0007C018C0C9D1CAE1CBF1CD80112968C92D5
:1039E000129715966C92159716967C92169781E011
:1039F00017968C93179718961C921092040980E0E2
:103A00004EED50E06EED7FEF91E020910A098217B4
:103A100008F062C0B0E18B9FF00111242091FE06F6
:103A20003091FF06E20FF31F2385222309F452C0D1
:103A300022813381273F0FEF300734F595871486B5
:103A40002485211127C02585211136C0A081B1818F
:103A5000148116962D913C91121713060CF497873A
:103A6000948715C0CC24C394EE24E394A4E08A2E5A
:103A7000B4E0AB2EF2CD4F5FF3CE01963B9684308F
:103A8000910509F064CFB9CF28333105CCF22485F4
:103A9000222391F0A48121852A1708F09787268197
:103AA0002A0F3327331FB285B217130609F00CF41F
:103AB000778727852A0F24832585222359F0268599
:103AC0002F5F26872A3034F0538342836483158620
:103AD000138616868F5F99CF80E09BE02EED30E055
:103AE0006EED40910B098417B0F4E0910007F0915E
:103AF0000107899FE00DF11D11244781442349F0FE
:103B000040815181473F5F4F24F43183208362839A
:103B100017828F5FE6CF80912F0A8823E1F0809192
:103B20002B0A90912E0A913009F432C20CF025C272
:103B30008250992309F431C280912B0A87FD04C079
:103B400080912C0A843438F010922F0A8AEE8093E8
:103B50002B0A80932C0A8091310A882309F420C211
:103B60008091320A8F5F8093320A843154F082E46C
:103B700091E09093210A8093200A9093230A8093E6
:103B8000220A8FB7F89440912A0250912B0260913B
:103B90002C0270912D028FBF809118019091190114
:103BA000A0911A01B0911B018A019B01081B190BFE
:103BB0002A0B3B0BD901C801843E9240A105B105F7
:103BC00098F080911E01882379F080911C011816CD
:103BD0001CF4815080931C014093180150931901EB
:103BE00060931A0170931B0130912F0AC0900B0251
:103BF000D0900C02E0900D02F0900E0200911302A2
:103C00000E87109112021C87009111020D8760919E
:103C10001002A0900F022090200A3090210A21016A
:103C200018E0410E511C6090220A7090230A830113
:103C3000085F1F4F1B870A87109102071F8700919B
:103C4000330A0A8B00911E0A10911F0A198B088BE8
:103C5000B0901E0110910A021B8B0091150109877B
:103C60000CE019E080912B0A90E0D80112968D901B
:103C70009C901397AC014D5F5F4F481559050CF4AC
:103C80006AC015964C911597480D592D511D48172E
:103C900059070CF460C020912C0A14969C9114973B
:103CA000291708F458C016968C911697890F9927F2
:103CB000991F2817190611F00CF04DC0E1E01D9670
:103CC000EC931D971C961C92FAEEF0932B0AF0933E
:103CD0002C0A29E1C20ED11CE11CF11CC701B6015E
:103CE00020E137E240E050E00E9472242E87C701B5
:103CF000B60128EE33E040E050E00E947224CA0191
:103D0000B9012AE030E040E050E00E9472246C8764
:103D1000C701B60124E630E040E050E00E94722482
:103D2000CA01B9012AE030E040E050E00E9472246C
:103D30006D87C701B6012AE030E040E050E00E9404
:103D40007224A62ECA01B9012AE030E040E050E01A
:103D50000E94722430E048145904C4F1D801159629
:103D60008C911597880E911C281439047CF51496B3
:103D70008C91149790E0EA85FB85E817F90734F1F8
:103D800016962C911697820F911D68167906F4F4F9
:103D90001D968C911D97811119C08091310A811156
:103DA00015C0F1E0F093310A21E01D962C931D9788
:103DB0001C961C924985415049871A8A1F86B12C4E
:103DC00051E05B8B85E69DE0998B888B005F1F4FF0
:103DD000ACE1BAE0A017B10709F044CF30932F0A45
:103DE000C0920B02D0920C02E0920D02F0920E02F1
:103DF0000E85009313021C85109312020D8500930B
:103E0000110260931002A0920F021F851093020707
:103E10000A890093330A0889198910931F0A0093AD
:103E20001E0A1B8910930A0209850093150140910F
:103E3000310AA0E2B1E027E531E0FD018081918106
:103E400048165906B4F05381850F911D281639067E
:103E500084F4828190E00A851B85081719074CF0CD
:103E60005481850F911D681679061CF4818588237D
:103E700021F0411102C0BB24B3943B962E173F079B
:103E8000E9F690911D0180911C012D913C911197B3
:103E90004216530644F113965C911397250F311D7A
:103EA0002216330604F512962C91129730E00A85FB
:103EB0001B8502171307BCF014965C911497250F0D
:103EC000311D621673067CF419962C9119972111F5
:103ED0000AC019160CF4E7C08F5F8F320CF4DFC0F4
:103EE0008EE2B12C9CE01B96EA17FB0771F6B092AC
:103EF0001E0190931D0180931C011816BCF0411106
:103F000015C01092020781E08093310A1092330AA3
:103F100025E63DE030931F0A20931E0A10921E01F1
:103F200080930A02898581508093150168E0822D73
:103F30000E94300B2091220A3091230A8217130627
:103F40000CF4B4C08091310A8111C0C010920207F4
:103F500081E08093310A1092330A25E63DE03093E8
:103F60001F0A20931E0A10921E0180930A0280915C
:103F70001501815080931501A9C0923069F080919C
:103F80002C0A8250933009F0D7CD80932C0AD4CDDF
:103F900080912C0A8E5FF9CF8E5F80932B0ACCCD57
:103FA0008091330A882309F4ECCD80E80E94FE0F4B
:103FB000882319F08CEF8093280A0E94EB0F87FD6D
:103FC00008C00E94EB0F84FD04C01092280A1092D2
:103FD000260A80E10E94FE0F882319F084E0809376
:103FE000280A8091260A9091280A890F8093260A30
:103FF0004091270A642F042E000C770B2091240A8D
:104000003091250A481794F5260F371F3093250A5B
:104010002093240A4093260A8091240A9091250A2D
:1040200097FD0F9624E0959587952A95E1F7909353
:10403000230A8093220A88E00E94FE0F882309F455
:10404000A0CD80912F0A81119CCD8091200A8B5F99
:1040500080932B0A8091220A8D5F80932C0A81E045
:1040600080932F0A82E080932E0A8BCD082E000CBD
:10407000990BEE27FF27E61BF70B8E179F0744F4DB
:10408000261B370B3093250A2093240A4195C2CF73
:10409000820F931F9093250A8093240ABDCF87FF38
:1040A00020CF80E01ECF9150B12C1DCF68E08091D1
:1040B000200A0E94300B2091220A3091230A295FA6
:1040C0003F4F9217130609F00CF43CCF8091140176
:1040D000882309F41EC14CEF56E030E020E0EE24C6
:1040E000EA9468E070E00FEF10E0DA0117968C9127
:1040F00017971896EC91F82EFE0EE82FE695E695A8
:10410000E695E1508770B82EEF3FB1F0F0E0CE2E8B
:104110000E2E000CDD08AF2FB0E0CA16DB0664F0EF
:10412000B695BA2FAA27B795A795A20FB31FA05C83
:10413000BD4FEC92FF5FEFCFBB20B9F00E2E000C0D
:10414000FF0B3196F695FE2FEE27F795E795E20FD8
:10415000F31FE05CFD4FCB018B199109D80102C020
:10416000B595A7958A95E2F7A083FF2DF695F6956C
:10417000F695EF2DE7708F2F90E05C01B694BA2C86
:10418000AA24B794A794A20EB31ED12CC12CAF2F92
:10419000AC0DA83078F4D601B695BA2FAA27B795FA
:1041A000A795AA0DBB1DA05CBD4FEC92BFEFCB1A2B
:1041B000DB0AEDCFEE23B9F0DB01AE1BB109FD0147
:1041C000D80102C0B595A795EA95E2F7FD01DC019B
:1041D000B695BA2FAA27B795A795A20FB31FA05CD3
:1041E000BD4FE095EC932F5F3F4F4E5F5F4F203800
:1041F000310509F07ACF10E080910A09181710F5FF
:10420000B0E11B9FF00111248091FE069091FF0602
:10421000E80FF91F8385882379F0648170E082813B
:1042200093812585222351F0268527FD2F5F259533
:104230004DE45BE00E94B10F1F5FDECF47815085E8
:1042400020E0F8CF10E00BE080910B091817B0F4D4
:10425000E0910007F0910107109FE00DF11D11247E
:104260008781882349F0628170E020E049E25BE0C9
:10427000808191810E94B10F1F5FE6CF86E490E0BC
:10428000909323028093220210922502109224021E
:1042900069EF71E08091FC069091FD060E944D113E
:1042A0004091030950E070E060E02AE08091FC0654
:1042B0009091FD060E945C112091310A6091220AC2
:1042C0007091230A8091200A9091210A222309F4F7
:1042D00008C12091320A27FD2D5F25952595409133
:1042E0001E0A50911F0A0E94B10F60912C0A062EDF
:1042F000000C770B80912B0A082E000C990B209153
:104300002D0A01E0222309F402C123E041E00E94CA
:104310008A1080911C0115E3181B163308F015E371
:104320004DE45CE070E060E090E080E00E94880F87
:10433000173008F417E0612F70E020E041E45CE002
:1043400090E080E00E94B10F00E020E447E070E0E0
:1043500060E089E790E00E948A1010E000E041E010
:10436000B80189E790E00E940C100F5F1F4F0034E6
:104370001105A9F7F090150140910B0250910C0224
:1043800060910D0270910E024A3051056105710570
:10439000C8F081E08093140244365105610571052F
:1043A00088F080931502483EE3E05E0761057105E1
:1043B00048F080931602403157426105710510F0B4
:1043C0008093170280910F020E94C610AC0168E32F
:1043D00070E08BE790E00E94880F809114028823A0
:1043E00059F0809110020E94C610AC0160E370E0A9
:1043F0008BE790E00E94880F80911502882359F086
:10440000809111020E94C610AC0168E270E08BE757
:1044100090E00E94880F80911602882359F08091C5
:1044200012020E94C610AC0160E270E08BE790E0DF
:104430000E94880F80911702882359F080911302FF
:104440000E94C610AC0168E170E08BE790E00E942A
:10445000880F4DE85CE061E070E08BE790E00E943F
:10446000880F08E047E85CE00F1520F08F2D0E94D0
:10447000C610AC0167E070E08BE790E00E94880F07
:1044800080910A02882341F080911401882309F465
:1044900041C08150809314018AE090E09093230200
:1044A00080932202109225021092240240911E0154
:1044B00050E070E060E02AE084E39AE00E945C1142
:1044C00082E390E0909323028093220210922502CF
:1044D000109224024091230150E070E060E00C94BF
:1044E00036196150710920E047E15CE001970E94B4
:1044F000B10F40911E0A50911F0A6091220A7091DB
:10450000230A20E08091200A9091210AECCE21E03C
:1045100043E0FDCE80911C018F5F8F320CF08EE264
:1045200087FD80E080931C01009118028BE190E0F0
:1045300090932302809322028CE190E090932502D5
:10454000809324022EE0029F800111240D56134F08
:10455000F8016491662341F084E39AE00E942710F9
:104560000F5F1F4F892BA1F71F141CF087E080936A
:10457000900688E00E94F30F811106C084E00E943B
:10458000F30F882309F488CF81E0809302079EE22D
:1045900090931C011092320A1092310A8093330AD0
:1045A00088EF95E190931F0A80931E0A8AE090E0BD
:1045B0009093210A8093200A80EC91E09093250A41
:1045C0008093240A10920A0288E7809314010E94C3
:1045D000C5232FE030E040E050E00E94402460938B
:1045E00018025ACF47E257E070E060E090E080E0C8
:1045F0000E94880F88E00E94F30F811107C084E0B9
:104600000E94F30F882311F40C94F7171092900670
:104610000C94F7174BE057E065E070E082E290E021
:104620000E94880F4CE353E165E070E080E390E086
:104630000E94880F40E753E165E070E08EE390E070
:104640000E94880F44E053E165E070E080E590E06F
:104650000E94880F40EB53E164E170E084E290E057
:104660000E94880F40E253E164E170E082E390E051
:104670000E94880F44E053E164E170E080E490E040
:104680000E94880F48EE52E164E170E08EE490E011
:104690000E94880F88E00E94F30F811107C084E018
:1046A0000E94F30F882311F40C94F71710929006D0
:1046B00083E0809315010E94FB1010920B02109270
:1046C0000C0210920D0210920E0210920F02109224
:1046D0001002109211021092120210921302109204
:1046E00014021092150210921602109217020C94E6
:1046F000F7178F929F92AF92BF92CF92DF92EF9275
:10470000FF92CF93DF93EC01688179818A819B814D
:10471000611571058105910521F464E279ED8BE560
:1047200097E02DE133EF41E050E00E944024490141
:104730005A019B01AC01A7EAB1E40E945F246B011E
:104740007C01ACEEB4EFA50194010E946D24C60E6D
:10475000D71EE81EF91EF7FE06C081E0C81AD10870
:10476000E10880E8F80AC882D982EA82FB82C701A0
:10477000B6019F77DF91CF91FF90EF90DF90CF90C0
:10478000BF90AF909F908F9008958F929F92AF921D
:10479000BF92CF92DF92EF92FF926091570170919A
:1047A00058018091590190915A0161157105810557
:1047B000910521F464E279ED8BE597E02DE133EF8B
:1047C00041E050E00E94402449015A019B01AC01A4
:1047D000A7EAB1E40E945F246B017C01ACEEB4EF68
:1047E000A50194010E946D24C60ED71EE81EF91E75
:1047F000F7FE06C081E0C81AD108E10880E8F80A8F
:10480000C0925701D0925801E0925901F0925A019A
:10481000C701B6019F77FF90EF90DF90CF90BF90D8
:10482000AF909F908F9008956093570170935801B7
:104830008093590190935A010895FB01DC0102C055
:1048400005900D9241505040D8F70895F999FECF48
:1048500092BD81BDF89A992780B50895262FF999C0
:10486000FECF92BD81BDF89A019700B4021639F0CF
:104870001FBA20BD0FB6F894FA9AF99A0FBE0895A0
:10488000052E97FB1EF400940E94572457FD07D075
:104890000E94722407FC03D04EF40C9457245095C8
:1048A0004095309521953F4F4F4F5F4F089590951C
:1048B0008095709561957F4F8F4F9F4F08950E940F
:1048C0009424A59F900DB49F900DA49F800D911DE1
:1048D00011240895B7FF0C945F240E945F24821B6B
:1048E000930B0895A1E21A2EAA1BBB1BFD010DC05C
:1048F000AA1FBB1FEE1FFF1FA217B307E407F50790
:1049000020F0A21BB30BE40BF50B661F771F881F6B
:10491000991F1A9469F760957095809590959B0101
:10492000AC01BD01CF010895A29FB001B39FC001AA
:10493000A39F700D811D1124911DB29F700D811DCB
:104940001124911D0895991B79E004C0991F9617B1
:1049500008F0961B881F7A95C9F78095089597FBF4
:10496000072E16F4009407D077FD09D00E94C924C1
:1049700007FC05D03EF4909581959F4F0895709562
:1049800061957F4F0895EE0FFF1F0590F491E02D84
:104990000994AA1BBB1B51E107C0AA1FBB1FA61786
:1049A000B70710F0A61BB70B881F991F5A95A9F7D8
:0E49B00080959095BC01CD010895F894FFCF3D
:1049BE00FFFFFFFF00E10000000000000001020306
:1049CE00040706057803DEDE00000000320A01103F
:1049DE00DE00DE1108000000000000DE00DE11081F
:1049EE00000000000000DE00DE11080000000000E4
:1049FE0000DE00DE1108000000000000DE00DE1107
:104A0E000800000000000001000000061A00000867
:104A1E00250000122000001E1800001D2400002496
:104A2E002100002D2500002C1C0000311800003D37
:104A3E0012000041100000402F0000502400004FD3
:104A4E00180000581B00005A2400005E2000006869
:104A5E00210000621B00006D2200006F1A0000751D
:104A6E001F00007B19000079260000FFFFFF0000E9
:104A7E0001010100C1808100000001080808010841
:104A8E00041010100410000000001E0D9B0C3F0DB2
:104A9E00340D850D430D610D0000000027106E0CC6
:0E4AAE00F810F71020000D0A0043533A0000E4
:00000001FF
