:100000000C94FC050C9424060C9424060C942406F1
:100010000C9424060C9424060C9424060C942406B8
:100020000C9424060C9424060C94B70C0C94260D06
:100030000C9424060C9424060C9424060C94240698
:100040000C9424060C9424060C9424060C94240688
:100050000C9424060C9424060C9424060C946D0C29
:100060000C9424060C9424060C9424060C94240668
:100070000C9424060C9424060C9424060C94240658
:100080000C9424060C9424060C9424060C94240648
:100090000C9424060C9424060C9424060C94240638
:1000A0000C9424060C9424060C9424060408364967
:1000B000493604080161190704083E49493004081B
:1000C0004F494931040818167F1004082241493667
:1000D0000408625149460408427F400004083E413A
:1000E000413E00000000003E5B4F5B3E3E6B4F6BAD
:1000F0003E1C3E7C3E1C183C7E3C181C577D571C09
:100100001C5E7F5E1C00183C1800FFE7C3E7FF0081
:1001100018241800FFE7DBE7FF30483A060E2629CF
:10012000792926407F050507407F05253F5A3CE792
:100130003C5A7F3E1C1C08081C1C3E7F14227F2258
:10014000145F5F005F5F06097F017F006689956A23
:10015000606060606094A2FFA29408047E040810AE
:10016000207E201008082A1C08081C2A08081E10D7
:100170001010100C1E0C1E0C30383E3830060E3E8F
:100180000E06000000000000005F000000070007EE
:1001900000147F147F14242A7F2A12231308646218
:1001A00036495620500008070300001C2241000079
:1001B00041221C002A1C7F1C2A08083E08080080D7
:1001C000703000080808080800006060002010086F
:1001D00004023E5149453E00427F40007249494970
:1001E000462141494D331814127F102745454539A2
:1001F0003C4A4949314121110907364949493646A6
:100200004949291E00001400000040340000000885
:100210001422411414141414004122140802015928
:1002200009063E415D594E7C1211127C7F494949B5
:10023000363E414141227F4141413E7F494949414A
:100240007F090909013E414151737F0808087F0079
:10025000417F41002040413F017F081422417F40FF
:100260004040407F021C027F7F0408107F3E4141D6
:10027000413E7F090909063E4151215E7F09192946
:1002800046264949493203017F01033F4040403F30
:100290001F2040201F3F4038403F63140814630371
:1002A000047804036159494D43007F4141410204F0
:1002B000081020004141417F0402010204404040F7
:1002C0004040000307080020545478407F284444ED
:1002D000383844444428384444287F385454541807
:1002E00000087E090218A4A49C787F080404780002
:1002F000447D40002040403D007F102844000041E4
:100300007F40007C047804787C08040478384444F6
:100310004438FC1824241818242418FC7C080404ED
:1003200008485454542404043F44243C4040207C56
:100330001C2040201C3C4030403C44281028444CA9
:100340009090907C4464544C440008364100000076
:10035000770000004136080002010204023C262317
:10036000263C1EA1A161123A4040207A38545455CF
:10037000592155557941215454784121555478409B
:1003800020545579400C1E52721239555555593921
:100390005454545939555454580000457C41000276
:1003A000457D420001457C40F0292429F0F02825B4
:1003B00028F07C545545002054547C547C0A097F15
:1003C0004932494949323248484832324A4848302D
:1003D0003A4141217A3A42402078009DA0A07D39DF
:1003E000444444393D4040403D3C24FF2424487E61
:1003F0004943662B2FFC2F2BFF0929F620C0887E4E
:10040000090320545479410000447D413048484A52
:1004100032384040227A007A0A0A727D0D19317D05
:100420002629292F28262929292630484D402038D9
:100430000808080808080808382F10C8ACBA2F1098
:100440002834FA00007B000008142A142222142AFF
:1004500014089500220095AA005500AAAA55AA558D
:10046000AA000000FF00101010FF00141414FF0079
:100470001010FF00FF1010F010F0141414FC001402
:1004800014F700FF0000FF00FF1414F404FC141420
:1004900017101F10101F101F1414141F001010101D
:1004A000F0000000001F101010101F10101010F0AE
:1004B00010000000FF101010101010101010FF108E
:1004C000000000FF140000FF00FF00001F101700D5
:1004D00000FC04F414141710171414F404F40000AE
:1004E000FF00F714141414141414F700F714141460
:1004F000171410101F101F141414F4141010F010FF
:10050000F000001F101F0000001F14000000FC146A
:100510000000F010F01010FF10FF141414FF14105E
:1005200010101F00000000F010FFFFFFFFFFF0F0B1
:10053000F0F0F0FFFFFF0000000000FFFF0F0F0FC3
:100540000F0F38444438447C2A2A3E147E020206A7
:1005500006027E027E0263554941633844443C04EE
:10056000407E201E2006027E020299A5E7A5991C66
:100570002A492A1C4C7201724C304A4D4D30304889
:10058000784830BC625A463D3E494949007E0101E7
:10059000017E2A2A2A2A2A44445F444440514A447C
:1005A0004040444A51400000FF0103E080FF00004A
:1005B00008086B6B083612362436060F090F060042
:1005C0000018180000001010003040FF0101001F4B
:1005D00001011E00191D1712003C3C3C3C000000AC
:1005E0000000080B000202020000090400000102E2
:1005F0000200000524001001052401010104240269
:1006000006052406000107058103100040090401C6
:1006100000020A00000007050202400000070583EF
:10062000024000000403090412010002EF0201402D
:100630004123368000010102030141726475696E35
:100640006F204C4C430041726475626F7900F0F882
:100650009C8E8783878E9CF8F00000FEFF030303C7
:100660000303070EFCF80000FEFF03030303030768
:100670000EFCF80000FFFF00000000000000FFFF7C
:100680000000FEFF8383838383C7EE7C380000F87D
:10069000FC0E07030303070EFCF800003F7FE0C0D9
:1006A0008080C0E07F3FFFFF01010101010101FFE8
:1006B000FF0000FFFF0C0C0C0C1C3E77E3C1000098
:1006C0007FFFC0C0C0C0C0E0703F1F00001F3F7070
:1006D000E0C0C0C0E0703F1F00007FFFC1C1C1C1CA
:1006E000C1E3773E1C00001F3F70E0C0C0C0E07057
:1006F0003F1F000000000001FFFF01000000D5F0D7
:100700008D14A1C881CFD9F1AF20000E08FF8181DF
:1007100081FFFFFF818181FF7E3C180A10000000ED
:100720000000000000303030300000000000000009
:1007300000000000000000000000000000000000B9
:1007400000000000000000000000002020383850A9
:100750005060600000000000000000000000000089
:100760000000000000000000000000000000000089
:10077000003030C8C82020949468685050000000B1
:100780000000000000000000000000000000000069
:100790000000000000000020205454AAAA58582A43
:1007A0002AE0E09C9C2828000000000000000001D6
:1007B000010000010100000000000000001818A066
:1007C000A004044B4B80800A0A292910108C8C60ED
:1007D00060000001010000020202020000030300A9
:1007E000000000000005080F0F0F0F0F0F07070391
:1007F00003074080BE8A8A8280FF0000000000005C
:10080000FF000000000000FF000000000000FF00EB
:100810000000000000FF000000000000FF000000DA
:10082000000000FF017D55554501FF040826494998
:100830003E04081B04041B20204E6963652074726B
:1008400079212020002020546F6F20736C6F772156
:10085000202000204E696365206372617368212047
:10086000002020546F6F20656173792120200020C3
:1008700050696C6F74206661696C212000202042F1
:100880006164206D6F7665212020002020536F2049
:10089000636C6F736521202000202020204F6F7033
:1008A00073212020202000202020416C6D6F737464
:1008B00021202020002054727920686172646572C2
:1008C000212000204E6F7420656E6F7567682120AF
:1008D000004E696365206C616E64696E672100205B
:1008E000476F6F64206372617368212000202020AD
:1008F000416761696E3F21202020002020536F2036
:10090000717569636B212020000A1000000000004F
:100910000000003030303000000000000000000017
:1009200000000000000000000000000000000000C7
:100930000000000000000000002020383850506007
:100940006000000000000000000000000000000047
:100950000000000000000000000000000000003067
:1009600030C8C820209494686850500000000000EF
:100970000000000000000000000000000000000077
:10098000000000000020205454AAAA58582A2AE047
:10099000E09C9C28280000000000000000010100ED
:1009A00000010100000000000000001818A0A004D1
:1009B000044B4B80800A0A292910108C8C6060003F
:1009C0000001010000020202020000030300000017
:1009D0000000000040004000400040004000400097
:1009E0004000400040004000400040004000400007
:1009F00040004000400040004000400040004000F7
:100A000040004000400040004000400040004000E6
:100A100040004000400040004000400040004000D6
:100A200040004000400040004000400040004000C6
:100A300040004000400040004000400040004000B6
:100A400040004000400040004000401516151615BB
:100A5000161516151615161516151615161516153E
:100A6000161516151615161516151615161516152E
:100A7000161516121C0F220C28092E0634033A01F3
:100A80003E013E013E013E023B0339023A023B0376
:100A90003A023B033B023B013D013C013D013D026B
:100AA0003B013B023B013B013B023B033B033B035E
:100AB0003A033B023B013B023A013C023A013C0251
:100AC0003B0339033A033B033A0339023A033A0240
:100AD0003C023C013C023A033A023B0339033A022E
:100AE0003B013C023C013C023C023C013D013D0219
:100AF0003C023B023B013C013B013C023C033B030B
:100B00003A033B033B033A033A033B023C033A03F9
:100B10003A033B033B023C013C023B013D023B01EB
:100B20003C023C013C013B013B023A023A033903DF
:100B3000390339033A0339033A033B033B023C02CE
:100B40003B033B033B023B013D013D013D013C01B9
:100B50003D013D013C023C013C013D013D013C01A8
:100B60003D013D023C013C023A013C023B023A029B
:100B70003A013B013C023B023C013D013D023C018C
:100B80003D013C023B0339023A023B0339023A0180
:100B90003B013B013C013C013D023C033A033B036A
:100BA0003B033A023C023C013D013D013C013D0159
:100BB0003D013D023C013D013C023A0339033A0349
:100BC0003A033B023C033A0339023B013D023B013D
:100BD0003D00000708117F5E7F3A7F6E7F3A7F5E9F
:100BE0007F117F080849496B6B7F7F6B7F223E3600
:100BF0003E1C1C0808008B0F11241FBECFEFDAE04B
:100C0000DEBFCDBF11E0A0E0B1E0EEEEF6E302C042
:100C100005900D92AA3BB107D9F729E0AAEBB1E004
:100C200001C01D92A838B207E1F715E0CCEFD5E07E
:100C300004C02197FE010E946F1BCB3FD107C9F76B
:100C40000E943D100C94751B0C940000ECEFF1E039
:100C5000A0E0B8E000800EBC8111012C1197A0FD2E
:100C6000FDCF0192B9F70DB40895FC018091FB010D
:100C7000882311F13FB7F89482E08093E900209136
:100C8000F200822F90E01816190614F481E090E02B
:100C9000882339F0289844E64093FA014091F10006
:100CA0004083222339F02091F200211103C02BE66A
:100CB0002093E8003FBF08958FEF9FEF08952FB76F
:100CC000F89483E08093E9009091E800892F807286
:100CD00095FF04C09091F20080E4891B2FBF089516
:100CE0008091F20181110DC082E08093EE0184E0D9
:100CF0008093EF011092F1011092F00181E0809356
:100D0000F2018EEE91E00895FC010E949806319761
:100D100028F068517C4F8F4F9F4FF9CFAB01FC01FA
:100D20000E949806641775078E079F07C8F30895F9
:100D3000AAEEB1E02FB7F8947D918D919C9166B5A4
:100D40002FBFA89B05C06F3F18F47F5F8F4F9F4F49
:100D500022E0660F771F881F991F2A95D1F7089503
:100D60004091BC015091BD012091BA013091BB016D
:100D700042175307B4F49091E8009570E1F3909115
:100D8000E80092FD19C08093F1008091BC01909120
:100D9000BD0101968F739927892B19F48EEF8093EB
:100DA000E8008091BC019091BD0101969093BD0136
:100DB0008093BC0181E0089580E00895DF92EF9276
:100DC000FF920F931F93CF93DF93D82E8A01EB01ED
:100DD0007B01E40EF51ECE15DF0559F0D7FE12C0DB
:100DE000FE0184910E94B00621968111F4CF0FEF8D
:100DF0001FEFC801DF91CF911F910F91FF90EF90EE
:100E0000DF9008958881EECF0F931F93CF93DF93E8
:100E10001F92CDB7DEB782E0898342E450E062EEF4
:100E200075E080E80E94DE060E947006DC011296E2
:100E30000D911C910115110589F0D801ED91FC91DE
:100E40000280F381E02DBE016F5F7F4FC8010995DD
:100E500097FD04C0F80100851185ECCF89810F90C2
:100E6000DF91CF911F910F910895615030F0209143
:100E7000F100FC0120830196F8CF289884E6809346
:100E8000FA010895AF92BF92CF92DF92EF92FF9254
:100E90000F931F93CF93DF936C017B018B01040FA2
:100EA000151FEB015E01AE18BF08C017D10759F03E
:100EB0006991D601ED91FC910190F081E02DC60180
:100EC0000995892B79F7C501DF91CF911F910F917A
:100ED000FF90EF90DF90CF90BF90AF9008958F92EA
:100EE0009F92AF92BF92CF92DF92EF92FF920F93B9
:100EF0001F93CF93DF936C017B018A0180910B01DB
:100F0000882309F45AC08091FB01882309F455C055
:100F10008091C00180FF05C08091E00082608093D5
:100F2000E000E801B12C8AEFA82E93E0892E2AE395
:100F3000922E209711F4BB20C9F10E945F06811107
:100F400008C0AA94AA20C9F181E090E00E9484061A
:100F5000F0CF8C171D0611F00CF08C2F9FB7F89472
:100F60008092E9002091E80025FD02C09FBFE1CFFB
:100F7000282F30E0C21BD30BF701815020F04191A4
:100F80004093F100FACFE20EF31EBB2021F09092C5
:100F9000E800B12CEBCF8091E80085FDE7CF90927F
:100FA000E800BB24B394209709F3F3CF5D9884E65F
:100FB0008093BF01101611063CF081E090E0F6012D
:100FC0009383828310E000E0C801DF91CF911F91ED
:100FD0000F91FF90EF90DF90CF90BF90AF909F90D8
:100FE0008F900895CF93DF931F92CDB7DEB76983BB
:100FF000DC01ED91FC910280F381E02D41E050E0B5
:10100000BE016F5F7F4F09950F90DF91CF910895DB
:1010100083E08093E9008091F200882319F08AE34D
:101020008093E80008950E945F0690E00895CF93B2
:10103000DF931F92CDB7DEB7FC018485958597FDC0
:1010400008C02FEF3FEF358724870F90DF91CF91B6
:101050000895CE0101960E943506019719F4898101
:1010600090E0F3CF8FEF9FEFF0CF0F931F93CF93CD
:10107000DF931F92CDB7DEB78C01FC018485958587
:1010800097FF0BC0CE0101960E943506019771F4BF
:10109000898190E0F80195878487F801848595859A
:1010A0000F90DF91CF911F910F9108958FEF9FEFD8
:1010B000F1CFFC018485958597FD0BC09FB7F8940F
:1010C00082E08093E9008091F2009FBF90E001965A
:1010D00008959FB7F89482E08093E9008091F20030
:1010E0009FBF90E008954F925F926F927F928F9290
:1010F0009F92AF92BF92CF92DF92EF92FF920F93A7
:101100001F93CF93DF934C015901FC2DC02FD0E0EA
:10111000CE01880D991D181619060CF06CC020E838
:10112000821691040CF067C09B012E0D311D121622
:1011300013060CF060C0603471050CF05CC0411502
:10114000510509F458C0E62FE770FE2EDB0177FD4C
:10115000179633E0B595A7953A95E1F73A2F77FFC3
:1011600004C0FF2011F03FEF3A0F66277727681978
:10117000790997FC02C070E060E0803891050CF4BA
:101180004BC090E89819961BA32F032E000CBB0BA5
:101190001A2F10953F3F0CF010E021E08E2D877044
:1011A00009F420E0E694E694E694E20EAE0DB11D5B
:1011B00019971CF028E0E22EE31AE11A310F20E81B
:1011C0003203D0011124A80DB91DA60FB71F019F2E
:1011D000600D711D1124460F571F0F2D0F2C000C91
:1011E000110BF33009F41CC1C8F4F13009F4D0C07C
:1011F000F23009F47CC0DF91CF911F910F91FF90E5
:10120000EF90DF90CF90BF90AF909F908F907F90A6
:101210006F905F904F900895902FB5CFFA3FB1F146
:10122000232F2E0DFB3F39F7321729F3BD016450F0
:101230007E4FD12CC12CC91608F0A4C0FA01EC0DC8
:10124000FD1DE491F0E04F01002E02C0880C991CB6
:101250000A94E2F737FD06C0FB018081E82CE09498
:101260008E218083FF2061F0373054F45B01F0E879
:10127000AF0EB11CE92CE094F50180818E218083B2
:10128000FFEFCF1ADF0A6F5F7F4FD5CF232F2E0DD1
:10129000321709F4B0CFBD0164507E4FD12CC12C60
:1012A000C91608F069C0FA01EC0DFD1DE491F0E0EB
:1012B0004F01002E02C0880C991C0A94E2F737FDFA
:1012C00004C0FB01808188298083FF2051F03730E2
:1012D00044F45B01F0E8AF0EB11CF501808189296F
:1012E0008083FFEFCF1ADF0A6F5F7F4FD9CF6FEF99
:1012F00070E00F2C02C0660F771F0A94E2F760952A
:101300007095772E232F2E0D321709F474CFFD011F
:10131000E450FE4F6F01B12CA12CA91638F5FA014B
:10132000EA0DFB1DE491F0E02F01002E02C0440CF9
:10133000551C0A94E2F737FD05C0F601808186232B
:1013400084298083FF2059F037304CF44601F0E8BF
:101350008F0E911CF4018081872185298083FFEF06
:10136000AF1ABF0A8FEFC81AD80AD7CF3F5F4C0F0A
:101370005D1FA058BF4FC8CF3F5F4C0F5D1FA058E7
:10138000BF4F86CF3F5F4C0F5D1FA058BF4F4CCF64
:101390006A0D7B1D232F2E0D321709F42CCFFD0172
:1013A000E450FE4F6F01B12CA12CA91688F5FB016A
:1013B000EA0DFB1D8490912C002E02C0880C991C14
:1013C0000A94E2F780949094FA01EA0DFB1D649070
:1013D000712C002E02C0660C771C0A94E2F737FDD0
:1013E00005C0F6018081882186298083FF2049F08D
:1013F00037303CF4F601E058FF4F8081892187297E
:101400008083FFEFAF1ABF0A8FEFC81AD80ACDCF7B
:101410003F5F4C0F5D1F6C0F7D1FA058BF4FBCCFAF
:10142000C92ED12CFA01E60FF71FA450BE4F00E8D9
:1014300010E00C191D09CC19DD09BE01660F771FDC
:1014400041E050E06A010F2C01C0CC0C0A94EAF78D
:10145000592F2E2D792ECF93DF93ED01EF96EF9636
:1014600022968590A590FF2059F08C9C4001AC9C61
:10147000500137302CF4E880B094EB20E928E99251
:1014800033233AF0EC90A094EA20E828ED920C94F3
:101490004A0A11965A9529F72A9551F0572D3395F6
:1014A0001124E60FF11DA00FB11DC00FD11DD9CF22
:1014B000DF91CF9111249FCECF92EF920F934115E0
:1014C000510561F0FA0104913196E4904E5F5F4F4F
:1014D00022E0C22E30E020E00E9473080F91EF90CE
:1014E000CF900895CF92EF920F934115510569F176
:1014F000FA0104913196E4904E5F5F4F2223F9F098
:10150000A1E0B0E03E2D377011F4B0E0A0E0EE2D88
:10151000E695E695E695EA0FFB2FF11D0E9FD001AB
:101520000F9FB00D112430E0220F331FA29FF00156
:10153000A39FF00DB29FF00D11244E0F5F1F23E00B
:10154000C22E30E020E00E9473080F91EF90CF9000
:10155000089590E00C9484068FB18095807F669BFF
:1015600088601C9B8460089590E1282F81E061FDD4
:1015700084E060FD880F62FD8295687F969FD001B0
:101580001124A20FA450BE4F0C90082A40FF082639
:101590000C9208958F929F92AF92BF92CF92DF925A
:1015A000EF92FF920F931F93CF93DF936D3089F0EB
:1015B000C090DF01D090E0016A30D1F41092DE01DA
:1015C0001092DD0188E0C80ED11CD092E001C092DB
:1015D000DF0181E090E0DF91CF911F910F91FF90AB
:1015E000EF90DF90CF90BF90AF909F908F90089535
:1015F0000091DD011091DE01E5E06E9FE001112414
:10160000CE51DF4F5801F12CF5E0E12CFF1629F007
:10161000CE010196FE01E490EC01912C812CF0E8C2
:10162000AF16B10458F4B601680D791D6034710528
:1016300028F44E2D4170C5010E94B40AE6948FEF44
:10164000881A980AE8E08E16910449F7F394FFEFA0
:10165000AF1ABF0A86E0F812D7CF0A5F1F4F109368
:10166000DE010093DD01B5CF9091E101982329F4CB
:101670009091E201982381E009F480E00895CF93EE
:10168000C82F0E94AC0A982F9C2381E09C1380E015
:10169000CF91089580E00C9426068F929F92AF928E
:1016A000BF92CF92DF92EF92FF920F93CF93DF938F
:1016B0005B01EC014C01840E911C6B01C20ED11C2C
:1016C000C815D905ECF47501B7FE02C0F12CE12C68
:1016D000C60121E4C216D10414F080E490E0E816BB
:1016E000F90664F4C038D10528F4402FB701CE01C3
:1016F0000E94B40A8FEFE81AF80AEACF2196E0CFE9
:10170000DF91CF910F91FF90EF90DF90CF90BF903E
:10171000AF909F908F9008958A3040F5E82FF0E0C9
:10172000EC56F44F0C946F1BB70B9E0BBA0BA10B2E
:10173000A40BA70BAA0BAD0BB00BB30B86ED90E07F
:1017400008958AEC90E0089584EC90E008958EEB83
:1017500090E0089588EB90E0089582EB90E0089582
:101760008CEA90E008958BE298E0089508958CED5E
:1017700090E0089580ED90E00895089590E080E075
:101780000895FB0101900020E9F73197AF01461B56
:10179000570BDC01ED91FC910280F381E02D09945F
:1017A0008F929F92AF92BF92EF92FF920F931F93EF
:1017B000CF93DF93CDB7DEB7A1970FB6F894DEBF16
:1017C0000FBECDBF7C01FA01CB0119A2223008F473
:1017D0002AE08E010F5D1F4F822E912CB12CA12C7F
:1017E000BF01A50194010E943E1BF901CA016A30A4
:1017F0000CF5605DD8016E938D01232B242B252BD6
:1018000079F790E080E0109721F0BD01C7010E94B8
:10181000C10BA1960FB6F894DEBF0FBECDBFDF910E
:10182000CF911F910F91FF90EF90BF90AF909F903D
:101830008F900895695CDECF0F931F93CF93DF9352
:10184000EC010E94C10B8C0168E871E0CE010E949E
:10185000C10B800F911FDF91CF911F910F910895C0
:101860000F931F93CF93DF93809164008E7F8093BB
:10187000640080917A00806480937A0080917A007D
:1018800086FDFCCFC0917800D09179000E94980627
:10189000AB01BC01CE01B0E0A0E0DC0199278827B4
:1018A0008C019D01040F151F261F371FC901B801A8
:1018B0002091640021602093640061157105810509
:1018C000910531F0DF91CF911F910F910C94E01AA7
:1018D000DF91CF911F910F9108950F920FB68F93C3
:1018E0009F93EF93FF938091E5018D5F8D3708F013
:1018F0008D578093E501E6EEF1E080818E4F808385
:1019000091819F4F918382818F4F828383818F4FFB
:101910008383EAEEF1E080818F5F808381818F4F46
:10192000818382818F4F828383818F4F83838FB1A5
:101930008F6066991C9B88278F3681F48091E40123
:10194000981B963068F0E0E0F8E087E780838183B9
:1019500088E180936000F0936000FFCF9093E401F2
:10196000FF91EF919F918F910FBE0F9018951F924D
:101970000F920FB60F9211248F939F938091E100E5
:101980009091E100937F9093E10083FF0FC010924C
:10199000E90091E09093EB001092EC0092E39093B9
:1019A000ED001092FB0198E09093F00082FF22C0BE
:1019B00093E09093E9009091F200992319F09AE353
:1019C0009093E8009091BF01992341F09091BF015D
:1019D00091509093BF01911101C05D9A9091FA01CD
:1019E000992341F09091FA0191509093FA0191114D
:1019F00001C0289A84FF18C08091E2008E7E816029
:101A00008093E2008091E1008F7E8093E1008091DD
:101A1000C0018E7E80618093C0019F918F910F9055
:101A20000FBE0F901F90189580FFF7CF8091E200B6
:101A30008E7E80618093E2008091E1008E7E8093B3
:101A4000E1008091C0018E7E8160E5CF1F920F92F0
:101A50000FB60F921124CF92DF92EF92FF920F9365
:101A60001F932F933F934F935F936F937F938F9326
:101A70009F93AF93BF93EF93FF93CF93DF93CDB734
:101A8000DEB76C97DEBFCDBF1092E9008091E80011
:101A900083FF25C068E0CE0145960E94350782EF9E
:101AA0008093E8008D8987FF39C09091E80090FF0E
:101AB000FCCF982F907609F034C19E894F89588DBC
:101AC0002F89F88C911131C0803861F58091C10166
:101AD0008093F1001092F1008EEF8093E8006C96F5
:101AE0000FB6F894DEBF0FBECDBFDF91CF91FF914F
:101AF000EF91BF91AF919F918F917F916F915F9186
:101B00004F913F912F911F910F91FF90EF90DF9098
:101B1000CF900F900FBE0F901F9018959EEF90934F
:101B2000E800C7CF1092F100D5CF913059F4811160
:101B3000D3CF4130510581F68091C1018D7F8093D3
:101B4000C101CACF933049F48111C6CF413051054C
:101B500019F68091C1018260F2CF953041F48091F5
:101B6000E80080FFFCCF20682093E300B5CF9630DB
:101B700009F0A9C00B8D1C8D22E01092E900109293
:101B8000BD011092BC01F2122EC01092BB01109246
:101B9000BA010E9404071F8299E09983FA8291E0BA
:101BA0009E8390EA98879AEF99872091BC013091A3
:101BB000BD01275F3F4F3C832B838D831092E9004B
:101BC0001092BD011092BC011093BB010093BA01A9
:101BD00049E050E0BE016F5F7F4F80E00E94DE066B
:101BE0000E94040779CF1093BB010093BA010E94B1
:101BF0007006DC0112960D911C910115110509F476
:101C000051C1D801ED91FC910480F581E02DBE0118
:101C10006B5E7F4FC8010995009709F03EC1F8013E
:101C200000851185EACFF3E0FF120EC08F8988236B
:101C300009F440C0823061F440E867E086E496E051
:101C40000E94580F811148CF81E28093EB0047CF6B
:101C5000813029F440E86BE08AE396E0F1CF8330ED
:101C600099F70E947006DC011296ED90FC908E01AF
:101C70000F5F1F4F6801E114F10479F0D701ED9176
:101C8000FC910680F781E02DB801C7010995080F86
:101C9000111DF701E084F184EECFD8011C92F6010A
:101CA00001900020E9F73197BF016C197D0940E0F0
:101CB000C601C6CF64E276E0FB01449150E080E8C3
:101CC0000E94DE0609CF973009F4BECF983021F488
:101CD00081E08093F10000CF993009F0FDCE837050
:101CE00009F0B2CFE4E6F1E081E031E096E3219142
:101CF000222371F08093E9003093EB00DF0111970C
:101D00002C912093EC009093ED008F5F873079F752
:101D10008EE78093EA001092EA008F898093FB019E
:101D2000DBCE8B8D9C8D1092E9001092BD0110923C
:101D3000BC019093BB018093BA01898D811192C03F
:101D40008E899D89913A49F4813209F07DCF47E02F
:101D500050E064E071E080E0B3CF913209F074CFDD
:101D6000833269F48F89988DB0E0A0E08093000100
:101D700090930101A0930201B0930301ADCE803294
:101D800069F48091E80082FFFCCF67E084E091E095
:101D90000E9435078BEF8093E8009ECE823209F0D7
:101DA0009BCE8F8980930B01EEEFFFE78591949195
:101DB0008B3F9C4D51F1E0E0F8E08091040190915F
:101DC0000501A0910601B0910701803B9440A10557
:101DD000B105F1F480910B0180FD1AC0EE3F8AE05D
:101DE000F80789F587E797E7918380838091600002
:101DF0008093BE0188E19BE00FB6F894A89580938C
:101E000060000FBE9093600067CEEEEFFAE0D5CF92
:101E1000808191818737974709F05ECEA8958091A0
:101E200060008861809360008091BE0180936000B3
:101E3000EE3F2AE0F20789F08091FE0A9091FF0AB6
:101E40009183808349CE808191818737980751F2B1
:101E50009093FF0A8093FE0AC5CF1092FF0A10925A
:101E6000FE0A3ACE0E947006DC0112960D911C917A
:101E70000115110509F4E8CED801ED91FC9101900E
:101E8000F081E02DBE016B5E7F4FC8010995811185
:101E900023CEF80100851185EBCF181619060CF436
:101EA0001BCED2CEF1E0FF12BECE68E276E004CFC8
:101EB000EF92FF920F931F93CF93DF93F82E192F7A
:101EC000E62E042F81E0860F880F0E94B00683E083
:101ED0000E94B006CF2DD12FEC0EFD2EF11CCE1599
:101EE000DF05B9F007FF13C0FE0184910E94B00620
:101EF000182F80E00E94B006812321968111EFCF38
:101F0000DF91CF911F910F91FF90EF9008958881FD
:101F1000EDCF81E0F5CFCF931092FF051092FE0533
:101F200088EE93E0A0E0B0E0809300069093010675
:101F3000A0930206B09303068EE691E09093FD0510
:101F40008093FC058FEF9FEF90930906809308061E
:101F500084E899E0109287091092860920E831E020
:101F6000309385092093840990936D0980936C09BF
:101F700023EE3BE030936F0920936E092AE030E0B6
:101F800030937109209370092CE130E0309373098C
:101F90002093720920EC31E0309375092093740985
:101FA0001092760920E12093770910927809909396
:101FB0007A09809379098AEE80937B0980937C0962
:101FC00010927F0910928009109281091092820963
:101FD00081E080938309ECE5F8E0ACE6B9E068ECD9
:101FE00070E054E647E098E023ED3BE0B183A08346
:101FF0007383628354834583968330872783118656
:102000001286138614861586168687877096C9E011
:10201000EC36FC0759F724E839E030934D0620935D
:102020004C062CE538E030934F0620934E0620E214
:1020300031E030935106209350068093520610925F
:1020400053081092540892E09093550894E09093AE
:10205000560880935708809358081092590881E1D8
:1020600080935A0890935B0840E052E063ED79E07A
:1020700083E596E0CF910C94E91ACDB7DEB764976B
:10208000DEBFCDBF789483E084BD83E085BD81E071
:1020900080936E00E1E8F0E083E08083E0E881E097
:1020A0008083E1E983E08083E0E981E08083E1EC03
:1020B00087E08083E3EC81E08083E0EC82E0808352
:1020C000E2EC81E08083EAE787E0808380688083B8
:1020D0001092FB011092C1011092C0018091D700B3
:1020E00081608093D70080EA8093D80089B58061B1
:1020F00089BD89B5826089BD09B400FEFDCF81E04C
:1021000090E00E9484068091D8008F7C806180934B
:10211000D8008091E000807F8093E0008091E10012
:102120008E7E8093E1008DE08093E200559A209AA4
:1021300081EC80937C0081EF85B987EE84B984E3DC
:102140008BB984EF8AB9769A6E9880EF81BB10BA0A
:1021500080E58CBD81E08DBD85E00E94A90A5F9A73
:1021600085E00E94A90A5C98EEEFF6E085918EBDAD
:1021700000000DB407FEFDCFEB30C1F75C9A81E89B
:102180008093640081E0809365000E944A0B80E8A0
:102190000E943F0B8823A9F05C9885EA8EBD000061
:1021A0000DB407FEFDCF5C9A2E982F982D98809144
:1021B000640080628093640081E083BF889513BED1
:1021C000FCCF84E00E943F0B8823B9F12D9884E86E
:1021D0000E943F0B8823A1F02D9A88EC0E94A90A47
:1021E0002F986FEF82E090E00E94FA1A84EF91E05E
:1021F0000E9484062F9A84E80E943F0B8111FBCF36
:1022000084E10E943F0B8823A1F02D9A88EC0E9464
:10221000A90A2E9860E082E090E00E94FA1A84EF0A
:1022200091E00E9484062E9A84E10E943F0B811166
:10223000FBCF88EC0E94A90AC4CF2D9A82E090E0DF
:102240000E94F21A8823C9F13E9A3F9A81E090E0F9
:102250000E94F21A082F0470D02E81FF0BC00111CA
:102260002E9801EF1FEF80E40E943F0B882341F17D
:102270002E9A2F9A82E30E94A90A0E94AC0A811129
:10228000F9CF80E180930C010E94300C83E08093B1
:1022900016018FEF9FEF9093090680930806109127
:1022A000C401112309F4A6C01092C40180E090E09B
:1022B000892BA9F30E940000F2CF3E983F98C6CF29
:1022C000DD2029F00430110511F42E9A2F9881E0B9
:1022D0000E942606202F2770C22E980143E03595D4
:1022E00027954A95E1F7C9019695982F88279795E4
:1022F000879584509E4F70E060E02E3F4FEF34078B
:1023000059F1DC01AC56BF4F7C0150E040E0FB01CD
:10231000E25BF94F5F01F501E40FF51FE491F0E096
:102320003F010C2C02C0660C771C0A94E2F72F3F89
:10233000320721F0F70194889628948ACC2019F06E
:10234000EC91E729EC934F5F5F4F1196FFEFEF1A87
:10235000FF0A48355105F9F62F5F3F4F80589F4FD0
:10236000685A7F4F603B710541F60E944A0B8FE02F
:102370000E94A90A0F5F1F4F0931110509F073CFA1
:10238000DD2011F02F9A2D9880E991E00E948406BB
:102390002D9A81E090E00E94F21A80FF6BCF8AE0D4
:1023A00090E00E94F21A9FEF980F9E3F08F062CFD4
:1023B00022E330E03093DE012093DD0128E330E0BA
:1023C0003093E0012093DF010AE010E0682F84E8F9
:1023D00099E00E94CA0A0F5F1F4FC8010E94F21ABB
:1023E0000031110599F70E944A0B88EE93E00E9494
:1023F000840640CF9091E6018091C501092F081B0A
:10240000802F20910C01021748F48F5F821708F08B
:102410004DCF81E083BF889513BE48CF81E0809384
:10242000C4019093C501E2ECF1E0808191810196B5
:10243000808391838091E2018093E1010E94AC0A44
:102440008093E201ECEFF1E011111FEF8FEF119398
:102450001193119311938150D0F71092E0011092D3
:10246000DF011092DE011092DD011091E3011130C5
:1024700081F138F0173011F40C942F1A0E944A0B96
:1024800015CF6BE871E084E899E00E941C0C6AE8C3
:1024900071E084E899E00E941C0C6AE871E084E82D
:1024A00099E00E941C0C6BE971E084E899E00E94BD
:1024B0001C0C88E00E94340B811105C084E00E944E
:1024C000340B8823D9F20E94300C81E08093E30121
:1024D000D5CF8091D50181110CC00E94911A2FE0B7
:1024E00030E040E050E00E940C1B6093D401109358
:1024F000D50180915206882309F463C080E20E94CE
:102500003F0B882391F186E080935608809155080F
:10251000815080935508811154C0ECE4F6E0918518
:10252000978392859087329618E0EA34F107B9F7DD
:1025300090E020915A08921730F19BE020915B08BF
:102540008217B0F5E0915006F0915106899FE00D99
:10255000F11D11242781222331F020813181215066
:102560003109318320838F5FE9CF84E00E943F0BE4
:102570008111C9CF80E40E943F0B882311F081E0D4
:10258000C3CF82E0C1CF20E1929FF00111242091BE
:102590004E0630914F06E20FF31F2385222331F0C0
:1025A0002281338121503109338322839F5FC1CF40
:1025B000809154088F5F80935408809156088093CF
:1025C00055088091540887FFB8C188E0EBE5F1E039
:1025D000DE01119601900D928A95E1F780915308E2
:1025E0008F5F8093530801E517E0B3E5EB2EB8E069
:1025F000FB2E83E0D82ECC24C3949FE3B92E0E94F7
:10260000911A28E030E040E050E00E940C1B41E0CD
:1026100050E04C0F5D1F640F751FDB018C91909192
:102620005708890F809357080E94911A28E030E0DC
:1026300040E050E00E940C1BE1E0F0E0EC0FFD1FD9
:102640006E0F7F1FDB018C9190915808890F80934A
:1026500058089091570819160CF4B5C0C092570845
:10266000181644F0C092580880915708843014F02E
:10267000D092570880915808843014F0D0925808AE
:102680009091570880915808890FBB2DB81BF8010D
:102690009083B1830E5F1F4FE016F10609F0AFCFB4
:1026A000FDE02F2EF1E03F2E8101A8E08A2E912C33
:1026B000A12CB12C0E94911AD8017C90E8E0CE2E7A
:1026C000D12CE12CF12CC818D908EA08FB08A50187
:1026D00094010E940C1BC60ED71EE81EF91EEC2D9D
:1026E000F0E0E35FFE4F8081D8018D938D01708211
:1026F000B1E08B1A9108A108B108E1E08E169104AF
:10270000A104B104B9F654E1E52E51E0F52E0DE037
:1027100011E0D8014D918D0150E070E060E02AE0B9
:102720008CEF95E00E94D00B6AEA71E08CEF95E0A7
:102730000E94C10BE016F10661F76AE871E08CEFC8
:1027400095E00E941C0C6AE871E08CEF95E00E9415
:102750001C0C43E0642E4424439490915A08209129
:102760004E0630914F0680E0981709F46FC089013A
:10277000205F3F4FF80143854111A5C04581D1013C
:102780008C91885F8295807F90E0FC01EE0FFF1FA7
:10279000E45BF94F60E0712C30E4532EC52CD12C52
:1027A0004617A9F05781751608F4752E7085A52F68
:1027B000A70FBB27BB1FAC15BD0514F4552E570E34
:1027C0006F5F3296EBCF18160CF44ECF4BCFF8015B
:1027D000938382838681C81AD108F5E0CF1AD10885
:1027E0000D2C000CEE08FF08872C912C25E0820EA2
:1027F000911C092C000CAA08BB088C149D04AE0483
:10280000BF048CF4C818D908EA08FB0841F00E94FC
:10281000911AA70196010E940C1B6B017C018C0C84
:102820009D1CAE1CBF1CD80114968C92149719964F
:102830007C9219971A965C921A971B964C921B974A
:102840001C961C921C97EFEF1F96EC936A94FFEF77
:102850002F1A3F0A611081CF8091530880FD6BC011
:10286000009150061091510630E020E0D8011796F3
:102870008C911797811194C013968C91235F3E4FD2
:10288000D901EC91E85FE295E07FF0E0EE0FFF1FE9
:10289000E45BF94F40E0712C90E4692EC62CD12CFA
:1028A000841799F09781791608F4792E5085692F4D
:1028B000650F7727771F6C157D0514F4692E650E5B
:1028C0004F5F3296EBCF8F5F4FCF8091100190E03A
:1028D0000896A4E0880F991FAA95E1F7D8011196F0
:1028E0009C938E9314968C91C81AD1080D2C000CD1
:1028F000EE08FF08872C912CB12CA12C8C149D0480
:10290000AE04BF048CF4C818D908EA08FB0841F0EB
:102910000E94911AA70196010E940C1B6B017C0179
:102920008C0C9D1CAE1CBF1CF801828275826682D5
:1029300081E0878310861092540880E04EED50E0CD
:102940006EED7FEF91E020915A08821708F059C090
:1029500000E1809FF001112420914E0630914F0636
:10296000E20FF31F2385222309F449C0228133811A
:10297000273F1FEF3107ECF495871486248521113A
:102980001EC0258521112DC0A081B181148116960C
:102990002D913C911217130608F4978794870CC069
:1029A0002F5F3F4F055F1F4F2430310509F05ECF89
:1029B000C2CF2833310514F32485222391F0A4815A
:1029C00021852A1708F0978726812A0F3327331F7E
:1029D000B285B217130609F00CF4778727852A0F02
:1029E00024832585222359F026852F5F26872A30C8
:1029F00034F05383428364831586138616868F5F73
:102A0000A2CF80E09BE02EED30E06EED40915B08C0
:102A10008417B0F4E0915006F0915106899FE00DC3
:102A2000F11D11244781442349F040815181473FE2
:102A30005F4F24F431832083628317828F5FE6CF58
:102A400080917F098823E1F080917B0990917E0934
:102A5000913009F44AC20CF03DC28250992309F426
:102A600049C280917B0987FD04C080917C09843430
:102A700038F010927F098AEE80937B0980937C095D
:102A800080918109882309F438C2809182098F5F7F
:102A900080938209843154F082E491E0909371092B
:102AA0008093700990937309809372098FB7F8949B
:102AB0004091E6015091E7016091E8017091E901D0
:102AC0008FBF8091190190911A01A0911B01B091C3
:102AD0001C018A019B01081B190B2A0B3B0BD90116
:102AE000C801843E9240A105B10598F080911F0174
:102AF000882379F080911D0118161CF48150809371
:102B00001D014093190150931A0160931B017093AA
:102B10001C0130917F098090C7019090C801A0905E
:102B2000C901B090CA010091CF01098B1091CE016B
:102B30001B8B0091CD010A8B6091CC017090CB0171
:102B400040907009509071098201085F1F4F1E87E5
:102B50000D8720907209309073098101085F1F4F23
:102B6000188B0F8710915206198760908309009186
:102B70006E0910916F091C870B87E0901F0110915F
:102B8000C6011A87F09016010091E3010C8B0CE549
:102B900018E080917B0990E0D8011296CD90DC90EE
:102BA0001397AC014D5F5F4F4C155D050CF46AC087
:102BB00015964C9115974C0D5D2D511D48175907D1
:102BC0000CF460C020917C0914969C9114972917ED
:102BD00008F458C016968C911697890F9927991F5B
:102BE0002817190611F00CF04DC0E1E01D96EC938A
:102BF0001D971C961C92FAEEF0937B09F0937C09CA
:102C000029E1820E911CA11CB11CC501B40120E177
:102C100037E240E050E00E943E1B298BC501B40121
:102C200028EE33E040E050E00E943E1BCA01B901AB
:102C30002AE030E040E050E00E943E1B6B8BC50173
:102C4000B40124E630E040E050E00E943E1BCA019F
:102C5000B9012AE030E040E050E00E943E1B6A8B60
:102C6000C501B4012AE030E040E050E00E943E1B84
:102C7000762ECA01B9012AE030E040E050E00E941F
:102C80003E1B30E04D855E854C155D05C8F1D801D1
:102C900015968C911597C80ED11CC414D50480F1DB
:102CA00014968C91149790E0EF85F889E817F9074E
:102CB00038F116962C911697820F911D8215930567
:102CC000F8F01D968C911D9781111AC08091810991
:102CD000811116C0F1E0F093810921E01D962C933B
:102CE0001D971C961C921F140CF086C1FA94612C3F
:102CF0001986E12C41E04A8789E099E09C878B871F
:102D0000005F1F4F4CE659E04017510709F041CFD3
:102D100030937F098092C7019092C801A092C901A7
:102D2000B092CA0109890093CF011B891093CE018B
:102D30000A890093CD016093CC017092CB01198573
:102D400010935206609283090B851C8510936F09BE
:102D500000936E091A851093C601F09216010C8932
:102D60000093E30140918109A0E2B1E027E531E061
:102D7000FD01808191810D851E8508171907B0F02E
:102D80005381850F911D8415950580F0828190E017
:102D90000F8518890817190748F05481850F911D70
:102DA0008215930518F08185882321F0411102C016
:102DB000EE24E3943B962E173F07D9F690911E011F
:102DC00080911D012D913C9111970D851E85021753
:102DD000130740F113965C911397250F311D2415AD
:102DE000350500F112962C91129730E00F85188965
:102DF00002171307B8F014965C911497250F311D34
:102E00002215330578F019962C91199721110AC0D3
:102E100019160CF401C18F5F8F320CF4F9C08EE2E9
:102E2000E12C9CE01B96EA17FB0761F6E0921F017C
:102E300090931E0180931D011816BCF0411115C01E
:102E40001092520681E0809381091092830989E0F3
:102E500099E090936F0980936E0910921F011F14DF
:102E60000CF4DDC087E08093E30180911501882395
:102E700009F4C4C1ACE4B6E090E080E06FEF1796CF
:102E80005C91179718964C911897450FE52FE6958A
:102E9000E695E695FF24FA94FE0E57701FEFF116A3
:102EA00009F4C1C070E00F2D0F2C000C110B272F5F
:102EB00030E0021713070CF4B6C03695322F2227E4
:102EC00037952795280F391F24503E4FF90160830D
:102ED0007F5FEDCF923069F080917C098250933012
:102EE00009F0BFCD80937C09BCCD80917C098E5FB9
:102EF000F9CF8E5F80937B09B4CD809183098823BD
:102F000009F4D4CD80E80E943F0B882319F08CEFA0
:102F1000809378090E94AC0A87FD08C00E94AC0A21
:102F200084FD04C0109278091092760980E10E9415
:102F30003F0B882319F084E080937809209176096B
:102F400080917809280F2093760940917709642FA2
:102F5000042E000C770B809174099091750942172B
:102F600094F5860F971F9093750980937409409389
:102F70007609809174099091750997FD0F96F4E098
:102F800095958795FA95E1F7909373098093720967
:102F900088E00E943F0B882309F488CD80917F0947
:102FA000811184CD809170098B5F80937B09809122
:102FB00072098D5F80937C0981E080937F0982E0B4
:102FC00080937E0973CD022E000C330BEE27FF2772
:102FD000E61BF70B2E173F0744F4861B970B9093C5
:102FE0007509809374094195C2CF820F931F909306
:102FF000750980937409BDCF612C1986E12C97E087
:103000009C8BA1E0AA87E9E0F9E0FC87EB8778CE0A
:1030100087FF06CF80E004CF9150E12C03CFFA94D4
:10302000F092160122CF5523C9F0EF2DFF0CFF0BB4
:103030003196F695FE2FEE27F795E795E80FF91FE5
:10304000E450FE4F28E030E0251B31090FEF10E07F
:1030500002C0159507952A95E2F70083542F5695DF
:10306000569556954770252F30E07901F694FE2C41
:10307000EE24F794E794E80EF91E10E000E0752FB7
:10308000700F783070F4F801F695FE2FEE27F79563
:10309000E795EE0DFF1DE450FE4F60830F5F1F4F5D
:1030A000EECF4423C1F0E8E0F0E0E41BF1090FEFBC
:1030B00010E002C015950795EA95E2F7A80136954C
:1030C000322F222737952795280F391F24503E4F3E
:1030D0004095F9014083019612968F37910509F0CA
:1030E000CECE10E080915A08181710F500E1109F1D
:1030F000F001112480914E0690914F06E80FF91FC0
:103100008385882379F0648170E0828193812585AD
:10311000222351F0268527FD2F5F25954BE157E0AF
:103120000E94720A1F5FDECF4781508520E0F8CFF2
:1031300010E00BE080915B081817A8F4E0915006AE
:10314000F0915106109FE00DF11D11248781882315
:1031500041F0628170E04BE057E0808191810E94F4
:103160005C0A1F5FE7CF86E490E09093DE018093D6
:10317000DD011092E0011092DF016CEA71E08091B4
:103180004C0690914D060E94C10B4091530850E0AF
:1031900070E060E02AE080914C0690914D060E941C
:1031A000D00B2091810940916E0950916F09609177
:1031B00072097091730980917009909171092223AD
:1031C00009F404C12091820927FD2D5F25952595DD
:1031D0000E94720A60917C09062E000C770B809188
:1031E0007B09082E000C990B20917D0901E0222318
:1031F00009F4EEC023E041E00E944D0B80911D01D7
:1032000015E3181B163308F015E341EF57E070E0A3
:1032100060E090E080E00E945C0A173008F417E05C
:10322000612F70E020E045EE57E090E080E00E94E2
:10323000720A00E020E447E070E060E089E790E097
:103240000E944D0B10E000E041E0B80189E790E0FA
:103250000E94B40A0F5F1F4F00341105A9F7C090F8
:1032600016014091C7015091C8016091C901709148
:10327000CA014A30510561057105C8F081E08093AB
:10328000D001443651056105710588F08093D10164
:10329000483E13E051076105710548F08093D20163
:1032A000403157426105710510F08093D301809140
:1032B000CB010E948C0BAC0168E370E08BE790E0DF
:1032C0000E945C0A8091D001882359F08091CC0142
:1032D0000E948C0BAC0160E370E08BE790E00E94F1
:1032E0005C0A8091D101882359F08091CD010E9420
:1032F0008C0BAC0168E270E08BE790E00E945C0A06
:103300008091D201882359F08091CE010E948C0BCC
:10331000AC0160E270E08BE790E00E945C0A809173
:10332000D301882359F08091CF010E948C0BAC010E
:1033300068E170E08BE790E00E945C0A41E358E0AE
:1033400061E070E08BE790E00E945C0A38E04BE2BD
:1033500058E03C1520F08C2D0E948C0BAC0167E0EE
:1033600070E08BE790E00E945C0A8091C6018823A0
:1033700039F080911501882371F1815080931501F6
:103380008AE090E09093DE018093DD011092E001ED
:103390001092DF010C2C000CDD08EE08FF082AE07B
:1033A000B701A601F7FE0DC06DE284E899E00E9426
:1033B000CA0A44275527BA014C195D096E097F09CD
:1033C0002AE084E899E00E94D00B58C820E000CFA2
:1033D00021E043E011CF0091D4018BE190E0909384
:1033E000DE018093DD018CE190E09093E001809319
:1033F000DF014EE0049F80011124095C174FF801A2
:103400006491662341F084E899E00E94CA0A0F5F44
:103410001F4F892BA1F788E00E94340B811106C051
:1034200084E00E94340B882309F4AACF81E08093C2
:10343000520610928209109281098093830983EECB
:103440009BE090936F0980936E098AE090E09093DF
:103450007109809370091092C60188E78FCF60EBE5
:1034600071E084E899E00E94C10B88E00E94340B6F
:10347000811107C084E00E94340B882311F40C945E
:103480003E121092E3010C943E128F929F92AF92E3
:10349000BF92CF92DF92EF92FF92CF93DF93EC0136
:1034A000688179818A819B8161157105810591050A
:1034B00021F464E279ED8BE597E02DE133EF41E013
:1034C00050E00E940C1B49015A019B01AC01A7EA84
:1034D000B1E40E942B1B6B017C01ACEEB4EFA501A3
:1034E00094010E94391BC60ED71EE81EF91EF7FE76
:1034F00006C081E0C81AD108E10880E8F80AC8824D
:10350000D982EA82FB82C701B6019F77DF91CF9112
:10351000FF90EF90DF90CF90BF90AF909F908F90F3
:1035200008958F929F92AF92BF92CF92DF92EF92C7
:10353000FF926091570170915801809159019091CB
:103540005A01611571058105910521F464E279ED57
:103550008BE597E02DE133EF41E050E00E940C1B3A
:1035600049015A019B01AC01A7EAB1E40E942B1B5F
:103570006B017C01ACEEB4EFA50194010E94391BF4
:10358000C60ED71EE81EF91EF7FE06C081E0C81A57
:10359000D108E10880E8F80AC0925701D09258019A
:1035A000E0925901F0925A01C701B6019F77FF904E
:1035B000EF90DF90CF90BF90AF909F908F90089545
:1035C00060935701709358018093590190935A0169
:1035D0000895FB01DC0102C005900D92415050405E
:1035E000D8F70895F999FECF92BD81BDF89A992731
:1035F00080B50895262FF999FECF92BD81BDF89A26
:10360000019700B4021639F01FBA20BD0FB6F89426
:10361000FA9AF99A0FBE0895052E97FB1EF40094AE
:103620000E94231B57FD07D00E943E1B07FC03D0BE
:103630004EF40C94231B50954095309521953F4FA7
:103640004F4F5F4F089590958095709561957F4F8E
:103650008F4F9F4F08950E94601BA59F900DB49FB0
:10366000900DA49F800D911D11240895B7FF0C9417
:103670002B1B0E942B1B821B930B0895A1E21A2E79
:10368000AA1BBB1BFD010DC0AA1FBB1FEE1FFF1F06
:10369000A217B307E407F50720F0A21BB30BE40B56
:1036A000F50B661F771F881F991F1A9469F760959D
:1036B0007095809590959B01AC01BD01CF01089557
:1036C000A29FB001B39FC001A39F700D811D112463
:1036D000911DB29F700D811D1124911D0895EE0F53
:0E36E000FF1F0590F491E02D0994F894FFCFA0
:1036EE00FFFFFFFF00E100000000000010000102DC
:1036FE0003040706057803DEDE00000000320A012F
:10370E00DE00DE0E08000000000000DE00DE0E0807
:10371E00000000000000DE00DE0E080000000000C9
:10372E0000DE00DE0E08000000000000DE00DE0EEF
:10373E000800000000000001000000FFFFFF000075
:10374E0001010100C1808100000000000000F207AD
:10375E006F071308080859081708350800000000FD
:10376E00CA0A4207BE0BBD0B0D0A0054484953202E
:10377E0049532041205449544C450050726573738F
:10378E00206120627574746F6E00200043533A00FE
:0A379E0047616D65204F76657200EB
:00000001FF
