:100000000C94F10A0C94190B0C94190B0C94190B09
:100010000C94190B0C94190B0C94190B0C94190BD0
:100020000C94190B0C94190B0C948C110C94FB115F
:100030000C94190B0C94190B0C94190B0C94190BB0
:100040000C94190B0C94190B0C94190B0C94190BA0
:100050000C94190B0C94190B0C94190B0C94421161
:100060000C94190B0C94190B0C94190B0C94190B80
:100070000C94190B0C94190B0C94190B0C94190B70
:100080000C94190B0C94190B0C94190B0C94190B60
:100090000C94190B0C94190B0C94190B0C94190B50
:1000A0000C94190B0C94190B0C94190B0408364979
:1000B000493604080161190704083E49493004081B
:1000C0004F494931040818167F1004082241493667
:1000D0000408625149460408427F400004083E413A
:1000E000413E00000000003E5B4F5B3E3E6B4F6BAD
:1000F0003E1C3E7C3E1C183C7E3C181C577D571C09
:100100001C5E7F5E1C00183C1800FFE7C3E7FF0081
:1001100018241800FFE7DBE7FF30483A060E2629CF
:10012000792926407F050507407F05253F5A3CE792
:100130003C5A7F3E1C1C08081C1C3E7F14227F2258
:10014000145F5F005F5F06097F017F006689956A23
:10015000606060606094A2FFA29408047E040810AE
:10016000207E201008082A1C08081C2A08081E10D7
:100170001010100C1E0C1E0C30383E3830060E3E8F
:100180000E06000000000000005F000000070007EE
:1001900000147F147F14242A7F2A12231308646218
:1001A00036495620500008070300001C2241000079
:1001B00041221C002A1C7F1C2A08083E08080080D7
:1001C000703000080808080800006060002010086F
:1001D00004023E5149453E00427F40007249494970
:1001E000462141494D331814127F102745454539A2
:1001F0003C4A4949314121110907364949493646A6
:100200004949291E00001400000040340000000885
:100210001422411414141414004122140802015928
:1002200009063E415D594E7C1211127C7F494949B5
:10023000363E414141227F4141413E7F494949414A
:100240007F090909013E414151737F0808087F0079
:10025000417F41002040413F017F081422417F40FF
:100260004040407F021C027F7F0408107F3E4141D6
:10027000413E7F090909063E4151215E7F09192946
:1002800046264949493203017F01033F4040403F30
:100290001F2040201F3F4038403F63140814630371
:1002A000047804036159494D43007F4141410204F0
:1002B000081020004141417F0402010204404040F7
:1002C0004040000307080020545478407F284444ED
:1002D000383844444428384444287F385454541807
:1002E00000087E090218A4A49C787F080404780002
:1002F000447D40002040403D007F102844000041E4
:100300007F40007C047804787C08040478384444F6
:100310004438FC1824241818242418FC7C080404ED
:1003200008485454542404043F44243C4040207C56
:100330001C2040201C3C4030403C44281028444CA9
:100340009090907C4464544C440008364100000076
:10035000770000004136080002010204023C262317
:10036000263C1EA1A161123A4040207A38545455CF
:10037000592155557941215454784121555478409B
:1003800020545579400C1E52721239555555593921
:100390005454545939555454580000457C41000276
:1003A000457D420001457C40F0292429F0F02825B4
:1003B00028F07C545545002054547C547C0A097F15
:1003C0004932494949323248484832324A4848302D
:1003D0003A4141217A3A42402078009DA0A07D39DF
:1003E000444444393D4040403D3C24FF2424487E61
:1003F0004943662B2FFC2F2BFF0929F620C0887E4E
:10040000090320545479410000447D413048484A52
:1004100032384040227A007A0A0A727D0D19317D05
:100420002629292F28262929292630484D402038D9
:100430000808080808080808382F10C8ACBA2F1098
:100440002834FA00007B000008142A142222142AFF
:1004500014089500220095AA005500AAAA55AA558D
:10046000AA000000FF00101010FF00141414FF0079
:100470001010FF00FF1010F010F0141414FC001402
:1004800014F700FF0000FF00FF1414F404FC141420
:1004900017101F10101F101F1414141F001010101D
:1004A000F0000000001F101010101F10101010F0AE
:1004B00010000000FF101010101010101010FF108E
:1004C000000000FF140000FF00FF00001F101700D5
:1004D00000FC04F414141710171414F404F40000AE
:1004E000FF00F714141414141414F700F714141460
:1004F000171410101F101F141414F4141010F010FF
:10050000F000001F101F0000001F14000000FC146A
:100510000000F010F01010FF10FF141414FF14105E
:1005200010101F00000000F010FFFFFFFFFFF0F0B1
:10053000F0F0F0FFFFFF0000000000FFFF0F0F0FC3
:100540000F0F38444438447C2A2A3E147E020206A7
:1005500006027E027E0263554941633844443C04EE
:10056000407E201E2006027E020299A5E7A5991C66
:100570002A492A1C4C7201724C304A4D4D30304889
:10058000784830BC625A463D3E494949007E0101E7
:10059000017E2A2A2A2A2A44445F444440514A447C
:1005A0004040444A51400000FF0103E080FF00004A
:1005B00008086B6B083612362436060F090F060042
:1005C0000018180000001010003040FF0101001F4B
:1005D00001011E00191D1712003C3C3C3C000000AC
:1005E0000000080B000202020000090400000102E2
:1005F0000200000524001001052401010104240269
:1006000006052406000107058103100040090401C6
:1006100000020A00000007050202400000070583EF
:10062000024000000403090412010002EF0201402D
:100630004123368000010102030141726475696E35
:100640006F204C4C430041726475626F7900F0F882
:100650009C8E8783878E9CF8F00000FEFF030303C7
:100660000303070EFCF80000FEFF03030303030768
:100670000EFCF80000FFFF00000000000000FFFF7C
:100680000000FEFF8383838383C7EE7C380000F87D
:10069000FC0E07030303070EFCF800003F7FE0C0D9
:1006A0008080C0E07F3FFFFF01010101010101FFE8
:1006B000FF0000FFFF0C0C0C0C1C3E77E3C1000098
:1006C0007FFFC0C0C0C0C0E0703F1F00001F3F7070
:1006D000E0C0C0C0E0703F1F00007FFFC1C1C1C1CA
:1006E000C1E3773E1C00001F3F70E0C0C0C0E07057
:1006F0003F1F000000000001FFFF01000000D5F0D7
:100700008D14A1C881CFD9F1AF20000D10FC0603D4
:1007100001F909E9A9A929292FE01F302020272460
:100720002424272020301F80400000F8040404887F
:100730000000E01010E00000E01010FC0000E050AD
:1007400050600000000000000000000020505080B9
:100750000000E01010E00000F00000F00000F010D9
:1007600010E00000E01010FC00000000000000009D
:100770000000A05050E00000F01010E00000E01079
:1007800010FC000000000000A05050E00000E0104D
:1007900010000010F8101000000000000000000021
:1007A0000000000000000000000000F04141810056
:1007B00000C00001C10000000001016190909001A3
:1007C0000100F04042810000804040800101F100C2
:1007D0000000804141F00000804141800000C140A4
:1007E0004081000000010101E01012112000000012
:1007F00000000101010100000100000100000001F2
:1008000001010000000000000101010100000100E1
:1008100000000000000101000000000000000000D6
:1008200000000000000000000000000704040300B6
:1008300000010A0A0700000000000002040404038B
:100840000000070000070000030505010000070481
:100850000000030404070000030404030000070071
:100860000007000000000000030404040200000070
:100870000000000000000000000000000000000078
:100880000000000000000000000000000000000068
:100890000000000000000000000000000000000058
:1008A0000000000000000000000000FE0808F0004A
:1008B00000087C88880000087C88880000F8484888
:1008C00030000090A8A840000000900000C038064A
:1008D0000000C03806000090A8A8400000FE0808EC
:1008E000F0000070A8A8300000FE8000007088882A
:1008F000FE0000708888700000F80808F0000070A2
:10090000888850000000800000708888500000D067
:10091000A8A8F00000000000000000000000000097
:1009200000000000000000000000000000000000C7
:1009300000000000000000000000000000010000B6
:1009400000000000000000000000000000000000A7
:100950000000000000000000000000000000000097
:100960000000000000000000000000000000000087
:100970000000000000000000000000000000000077
:100980000000000000000000000000000000000067
:100990000000000000000000000000000000000057
:1009A0000000000000000000000000FE1212120211
:1009B0000000708888700000F80808F00000087CCB
:1009C0008888000090A8A840000000000000FE8871
:1009D00088700000384040F80000000000004C9291
:1009E0009292600000708888700000F808F808F0A3
:1009F000000070A8A8300000FE1212120C0000C601
:100A0000281028C6000000000000000000000000C0
:100A100000000000000000000000000000000000D6
:100A20000000000000000000000000E080800000E6
:100A30000080C08080000080C080800000808080B6
:100A400000000000808000000000000000008060C6
:100A500000000080600101008080000000008080B4
:100A60000000008080808000000000808000000086
:100A700080808000000080000080000000000000F6
:100A800020000080C080800000008080000000E026
:100A90008080000000000000002000000080800036
:100AA00000000080600000000000000F00000F0048
:100AB000000007080800000007080800001F0404E1
:100AC000030000090A0A040000000900000C0300EA
:100AD00000000C03000000090A0A040000070808CF
:100AE0000700000F000F000F0000070A0A030000B4
:100AF0001F04040300000D02020D000000080000A6
:100B00000F00000007080800000708080500000F94
:100B100000000F0000000800000F00000708080791
:100B200000000C0300000000001108FFFFFFFFFFA2
:100B3000FF81FF81FF81FFFFFFFFFFFFFF81FF813B
:100B4000FF81FFFFFFFFFF7E7E3C3C18180A10006C
:100B500000000000000000303030300000000000D5
:100B60000000000000000000000000000000000085
:100B700000000000000000000000000000202038FD
:100B800038505060600000000000000000000000CD
:100B90000000000000000000000000000000000055
:100BA0000000003030C8C82020949468685050007D
:100BB0000000000000000000000000000000000035
:100BC00000000000000000000020205454AAAA5891
:100BD000582A2AE0E09C9C28280000000000000021
:100BE00000010100000101000000000000000018E9
:100BF00018A0A004044B4B80800A0A292910108CED
:100C00008C6060000001010000020202020000038B
:100C10000300000000000005080F0F0F0F0F0F0763
:100C2000070303074080BE8A8A8280FF000000001D
:100C30000000FF000000000000FF000000000000B6
:100C4000FF000000000000FF000000000000FF00A7
:100C50000000000000FF017D55554501FF040826F6
:100C600049493E04081B04041B20204E696365208B
:100C7000747279212020002020546F6F20736C6FD4
:100C80007721202000204E696365206372617368BC
:100C90002120002020546F6F20656173792120206E
:100CA000002050696C6F74206661696C21200020FF
:100CB00020426164206D6F76652120200020205342
:100CC0006F20636C6F736521202000202020204F4F
:100CD0006F7073212020202000202020416C6D6F38
:100CE000737421202020002054727920686172647E
:100CF0006572212000204E6F7420656E6F756768E5
:100D00002120004E696365206C616E64696E672105
:100D10000020476F6F642063726173682120002098
:100D20002020416761696E3F212020200020205350
:100D30006F20717569636B212020000A100000008C
:100D400000000000003030303000000000000000E3
:100D50000000000000000000000000000000000093
:100D60000000000000000000000000202038385083
:100D70005060600000000000000000000000000063
:100D80000000000000000000000000000000000063
:100D9000003030C8C820209494686850500000008B
:100DA0000000000000000000000000000000000043
:100DB0000000000000000020205454AAAA58582A1D
:100DC0002AE0E09C9C2828000000000000000001B0
:100DD000010000010100000000000000001818A040
:100DE000A004044B4B80800A0A292910108C8C60C7
:100DF0006000000101000002020202000003030083
:100E000000000000002F083E4141412200007F0900
:100E100019294600007F4949494100007F4141416D
:100E20003E000041417F4141000001017F0101007E
:100E30000026494949302F083E4141413E00007F8C
:100E400009090906000001017F0101000041417FFD
:100E5000414100003E4141413E00007F0408107FB7
:100E6000000026494949301A087F0808087F000019
:100E70007F4949494100007F4040404000007F09D0
:100E800009090621082649494930000001017F016E
:100E90000100007E0909097F00007F091929460029
:100EA0000001017F01014A2080FFC0FFA0FF70FF09
:100EB00028FF1C7F0A3F071F050F050F050F070FAF
:100EC000070F050F050F050F070F070F050F050F7C
:100ED000050F070F070F050F050F050F070F070F6A
:100EE000050F050F050F070F070F050F050F050F5E
:100EF000070F070F050F050F050F070F070F050F4A
:100F0000050F050F070F070F050F050F050F070F3B
:100F1000070F050F050F050F070F070F050F050F2B
:100F2000050F070F070F050F050F050F071F0A3FD6
:100F30001C7F28FF70FFA0FFC0FF80FFFFFF18FF8E
:100F4000FFFF00FF000000000000000000000000A4
:100F50000000000000000000000000000000000091
:100F60000000000000000000000000000000000081
:100F70000000000000000000000000000000000071
:100F80000000000000000000000000000000000061
:100F90000000000000000000000000000000000051
:100FA0000000000000000000000000000000000041
:100FB0000000000000000000000000000000000031
:100FC000000000000000000000FFFFFF18FFFFFF0F
:100FD0003FFF63FFBFFFC0FF80E000C00080000054
:100FE0000000000000000000000000000000000001
:100FF00000000000000000000000000000000000F1
:1010000000000000000000000000000000000000E0
:1010100000000000000000000000000000000000D0
:1010200000000000000000000000000000000000C0
:1010300000000000000000000000000000000000B0
:1010400000000000000000000000000000000000A0
:10105000000000000000008000C080E0C0FFBFFF73
:1010600063FF3FFF001F001F001F011F021F071F1C
:101070000A1F1C1F141E141E141E1C1E1C1E141ED0
:10108000141E141E1C1E1C1E141E141E141E1C1EB8
:101090001C1E141E141E141E1C1E1C1E141E141EA8
:1010A000141E1C1E1C1E141E141E141E1C1E1C1E90
:1010B000141E141E141E1C1E1C1E141E141E141E90
:1010C0001C1E1C1E141E141E141E1C1E1C1E141E70
:1010D000141E141E1C1E1C1E141E141E141E1C1E68
:1010E0001C1E141E141E141E1C1F0A1F071F021F85
:1010F000011F001F001F001F161800E0F0F8FC7E03
:101100003E1E1F1F3F7FFFFFFEEEFEFCF8F0E000DB
:101110003FFFFFFFFFFCF87070F0F8FCFF7F7FE7F8
:10112000C3C3E7FFFF3F000103070F1F1F1E3E3F22
:101130003F3F3C38181C1F0F07030100B210F898FE
:10114000F8F8F8F8F8F8F8F8FC9CBCFCF8F8F8F8AF
:10115000F8B8F4F4F4FAFAFAF2FAF979797DFF3F83
:101160007F7ABE3E3E1E1C0E0C0C0E0E0C9C9CF894
:10117000F8B838B8F8E8F8FCFCD8D8D8F8F8D8F0BF
:10118000F8F8F8F8F8B898F8F8F8F8FCFCFADAFA91
:10119000FAF1FAFA7279F979FBFBFFFFFE7EFE7E27
:1011A0007C7C3C18180828F8F838F878F8F8F8B07B
:1011B000F0F0F0F0F8F0F8F8F870F8F8F0F0A0E0DF
:1011C000F0F0F0E8E8E8E8E8E8E4E4E4F2FAFCFC4F
:1011D000BCF8F8B8F0F0D8D8F8F0F0E06070F07033
:1011E000E0E0E0E0E0E0C0C0C0C0C0E0E0F0F0F867
:1011F0000F0F0F0F0F070500000001030F0F0B0F5C
:101200000F0F07070701010206050B0F070F0F0F4E
:101210000F0E0F0F0F0F0F0F0D0D0D0D0F0D0F0FE9
:101220000F0F0E0E0E0E0E0F0E0E070F0E0F0F0FDE
:101230000F0F0F0F0B0F0F0F0F0F0F0F080C0D0FCE
:101240000D0F0F0F0F0F0F0F0F0F0F0F0F0F0F0FB0
:101250000F0F0F0F0F0E0F0F0F0F0F0F0F070F0FA7
:101260000F0F0F0F0F0F0E0F0F0F0F0F0F0F0F0F8F
:101270000F07070303030303030101010101010138
:101280000101030303030307070F0F07070F0F0FE6
:101290000F0F0F0F0F0F0F0F0F0F0F0D0F0F0D0D64
:1012A0000F0F0D10FF010101F9090919F1010306E2
:1012B000FC3F2020203F0000003F2020203F0D1059
:1012C000FF01010179494979010173DE803F202046
:1012D000203E0202023E2020203F0D10FC060301AA
:1012E000392929292929E9090F1F302020272525F7
:1012F00025252525243C0D10FF010101FF000000DC
:10130000FF010101FF03060C183326242633180CB5
:1013100006030D10FE0301017949494979010103D2
:10132000FE3F2020203E0202023E2020203F0B10E4
:101330000F0909F9010101F909090F3C24242720AB
:1013400020202724243C1110FF010101F909F90193
:101350000101F909F9010306FC3F2020203F003F6D
:101360002020203F003F2020203F0D10FC8603015D
:10137000392929292929296FC03C252525252525F5
:1013800025272020301F0D10FE030101F90909094E
:10139000F9010103FE1F30202027242424272020C8
:1013A000301F0D10FE030101F9090909392121231C
:1013B0003E1F30202027242424272121311F0040D4
:1013C000004000400040004000400040004000401D
:1013D000004000400040004000400040004000400D
:1013E00000400040004000400040004000400040FD
:1013F00000400040004000400040004000400040ED
:1014000000400040004000400040004000400040DC
:1014100000400040004000400040004000400040CC
:1014200000400040004000400040004000400040BC
:101430000040004000401516151615161516151615
:101440001516151615161516151615161516151644
:101450001516151615161516151615161516121C31
:101460000F220C28092E0634033A013E013E013EAC
:10147000013E023B0339023A023B033A023B033B83
:10148000023B013D013C013D013D023B013B023B72
:10149000013B013B023B033B033B033A033B023B63
:1014A000013B023A013C023A013C023B0339033A58
:1014B000033B033A0339023A033A023C023C013C43
:1014C000023A033A023B0339033A023B013C023C35
:1014D000013C023C023C013D013D023C023B023B1F
:1014E000013C013B013C023C033B033A033B033B11
:1014F000033A033A033B023C033A033A033B033B00
:10150000023C013C023B013D023B013C023C013CF0
:10151000013B013B023A023A033903390339033AEA
:101520000339033A033B033B023C023B033B033BCF
:10153000023B013D013D013D013C013D013D013CBE
:10154000023C013C013D013D013C013D013D023CAD
:10155000013C023A013C023B023A023A013B013CA7
:10156000023B023C013D013D023C013D013C023B8E
:101570000339023A023B0339023A013B013B013C89
:10158000013C013D023C033A033B033B033A023C6E
:10159000023C013D013D013C013D013D013D023C5C
:1015A000013D013C023A0339033A033A033B023C52
:1015B000033A0339023B013D023B013D00000708AD
:1015C000117F5E7F3A7F6E7F3A7F5E7F117F0808D2
:1015D00049496B6B7F7F6B7F223E363E1C1C08089F
:1015E000601411241FBECFEFDAE0DEBFCDBF11E0E3
:1015F000A0E0B1E0EAE4F7E402C005900D92A23F5A
:10160000B107D9F72AE0A2EFB1E001C01D92AC32D8
:10161000B207E1F71AE0C1EFDAE004C02197FE015A
:101620000E948923C03FD107C9F70E943A150C9444
:10163000A3230C940000E4E3F2E0A0E0B8E0008013
:101640000EBC8111012C1197A0FDFDCF0192B9F7BD
:101650000DB40895FC0180913302882311F13FB746
:10166000F89482E08093E9002091F200822F90E0CC
:101670001816190614F481E090E0882339F02898B0
:1016800044E6409332024091F1004083222339F036
:101690002091F200211103C02BE62093E8003FBF08
:1016A00008958FEF9FEF08952FB7F89483E080930C
:1016B000E9009091E800892F807295FF04C0909115
:1016C000F20080E4891B2FBF089580912A028111C6
:1016D0000DC082E08093260284E08093270210925E
:1016E00029021092280281E080932A0286E292E089
:1016F0000895FC010E948D0B319728F068517C4FB2
:101700008F4F9F4FF9CFAB01FC010E948D0B6417E7
:1017100075078E079F07C8F30895A2E2B2E02FB7BE
:10172000F8947D918D919C9166B52FBFA89B05C0C3
:101730006F3F18F47F5F8F4F9F4F22E0660F771F38
:10174000881F991F2A95D1F708954091F40150916F
:10175000F5012091F2013091F30142175307B4F4DF
:101760009091E8009570E1F39091E80092FD19C026
:101770008093F1008091F4019091F50101968F73AF
:101780009927892B19F48EEF8093E8008091F4015A
:101790009091F50101969093F5018093F40181E019
:1017A000089580E00895DF92EF92FF920F931F93C8
:1017B000CF93DF93D82E8A01EB017B01E40EF51E57
:1017C000CE15DF0559F0D7FE12C0FE0184910E94AC
:1017D000A50B21968111F4CF0FEF1FEFC801DF9108
:1017E000CF911F910F91FF90EF90DF900895888126
:1017F000EECF0F931F93CF93DF931F92CDB7DEB73A
:1018000082E0898342E450E062EE75E080E80E9465
:10181000D30B0E94650BDC0112960D911C910115F2
:10182000110589F0D801ED91FC910280F381E02D42
:10183000BE016F5F7F4FC801099597FD04C0F80195
:1018400000851185ECCF89810F90DF91CF911F9199
:101850000F910895615030F02091F100FC01208338
:101860000196F8CF289884E6809332020895AF92CB
:10187000BF92CF92DF92EF92FF920F931F93CF937D
:10188000DF936C017B018B01040F151FEB015E01DF
:10189000AE18BF08C017D10759F06991D601ED9174
:1018A000FC910190F081E02DC6010995892B79F713
:1018B000C501DF91CF911F910F91FF90EF90DF90C5
:1018C000CF90BF90AF9008958F929F92AF92BF92AA
:1018D000CF92DF92EF92FF920F931F93CF93DF93FC
:1018E0006C017B018A0180910B01882309F45AC0A5
:1018F00080913302882309F455C08091F80180FF5C
:1019000005C08091E00082608093E000E801B12C86
:101910008AEFA82E93E0892E2AE3922E209711F4C5
:10192000BB20C9F10E94540B811108C0AA94AA20BF
:10193000C9F181E090E00E94790BF0CF8C171D0671
:1019400011F00CF08C2F9FB7F8948092E900209151
:10195000E80025FD02C09FBFE1CF282F30E0C21B69
:10196000D30BF701815020F041914093F100FACF61
:10197000E20EF31EBB2021F09092E800B12CEBCFD9
:101980008091E80085FDE7CF9092E800BB24B394F6
:10199000209709F3F3CF5D9884E68093F701101642
:1019A00011063CF081E090E0F6019383828310E021
:1019B00000E0C801DF91CF911F910F91FF90EF9050
:1019C000DF90CF90BF90AF909F908F900895CF936E
:1019D000DF931F92CDB7DEB76983DC01ED91FC91F7
:1019E0000280F381E02D41E050E0BE016F5F7F4F48
:1019F00009950F90DF91CF91089583E08093E900DE
:101A00008091F200882319F08AE38093E80008951A
:101A10000E94540B90E00895CF93DF931F92CDB7AF
:101A2000DEB7FC018485958597FD08C02FEF3FEF59
:101A3000358724870F90DF91CF910895CE010196CD
:101A40000E942A0B019719F4898190E0F3CF8FEF60
:101A50009FEFF0CF0F931F93CF93DF931F92CDB7DC
:101A6000DEB78C01FC018485958597FF0BC0CE0104
:101A700001960E942A0B019771F4898190E0F80188
:101A800095878487F801848595850F90DF91CF91A4
:101A90001F910F9108958FEF9FEFF1CFFC01848587
:101AA000958597FD0BC09FB7F89482E08093E9007D
:101AB0008091F2009FBF90E0019608959FB7F8943F
:101AC00082E08093E9008091F2009FBF90E008954A
:101AD0004F925F926F927F928F929F92AF92BF923E
:101AE000CF92DF92EF92FF920F931F93CF93DF93EA
:101AF0004C015901FC2DC02FD0E0CE01880D991D5D
:101B0000181619060CF06CC020E8821691040CF02F
:101B100067C09B012E0D311D121613060CF060C01C
:101B2000603471050CF05CC04115510509F458C0D2
:101B3000E62FE770FE2EDB0177FD179633E0B595B3
:101B4000A7953A95E1F73A2F77FF04C0FF2011F0EF
:101B50003FEF3A0F662777276819790997FC02C08B
:101B600070E060E0803891050CF44BC090E8981963
:101B7000961BA32F032E000CBB0B1A2F10953F3F73
:101B80000CF010E021E08E2D877009F420E0E6943F
:101B9000E694E694E20EAE0DB11D19971CF028E014
:101BA000E22EE31AE11A310F20E83203D0011124AA
:101BB000A80DB91DA60FB71F019F600D711D11243F
:101BC000460F571F0F2D0F2C000C110BF33009F48B
:101BD0001CC1C8F4F13009F4D0C0F23009F47CC063
:101BE000DF91CF911F910F91FF90EF90DF90CF90F9
:101BF000BF90AF909F908F907F906F905F904F902D
:101C00000895902FB5CFFA3FB1F1232F2E0DFB3F52
:101C100039F7321729F3BD016C5C7D4FD12CC12CF3
:101C2000C91608F0A4C0FA01EC0DFD1DE491F0E026
:101C30004F01002E02C0880C991C0A94E2F737FD70
:101C400006C0FB018081E82CE0948E218083FF2078
:101C500061F0373054F45B01F0E8AF0EB11CE92CB1
:101C6000E094F50180818E218083FFEFCF1ADF0A97
:101C70006F5F7F4FD5CF232F2E0D321709F4B0CFD2
:101C8000BD016C5C7D4FD12CC12CC91608F069C018
:101C9000FA01EC0DFD1DE491F0E04F01002E02C0B1
:101CA000880C991C0A94E2F737FD04C0FB0180817F
:101CB00088298083FF2051F0373044F45B01F0E83D
:101CC000AF0EB11CF501808189298083FFEFCF1A07
:101CD000DF0A6F5F7F4FD9CF6FEF70E00F2C02C02C
:101CE000660F771F0A94E2F760957095772E232F81
:101CF0002E0D321709F474CFFD01EC5CFD4F6F011E
:101D0000B12CA12CA91638F5FA01EA0DFB1DE491BE
:101D1000F0E02F01002E02C0440C551C0A94E2F79B
:101D200037FD05C0F6018081862384298083FF204A
:101D300059F037304CF44601F0E88F0E911CF40155
:101D40008081872185298083FFEFAF1ABF0A8FEF3B
:101D5000C81AD80AD7CF3F5F4C0F5D1FA058BF4F9E
:101D6000C8CF3F5F4C0F5D1FA058BF4F86CF3F5F6E
:101D70004C0F5D1FA058BF4F4CCF6A0D7B1D232F0A
:101D80002E0D321709F42CCFFD01EC5CFD4F6F01D5
:101D9000B12CA12CA91688F5FB01EA0DFB1D84903E
:101DA000912C002E02C0880C991C0A94E2F78094B2
:101DB0009094FA01EA0DFB1D6490712C002E02C074
:101DC000660C771C0A94E2F737FD05C0F6018081A6
:101DD000882186298083FF2049F037303CF4F601C2
:101DE000E058FF4F8081892187298083FFEFAF1A58
:101DF000BF0A8FEFC81AD80ACDCF3F5F4C0F5D1FC7
:101E00006C0F7D1FA058BF4FBCCFC92ED12CFA013B
:101E1000E60FF71FAC5CBD4F00E810E00C191D0980
:101E2000CC19DD09BE01660F771F41E050E06A0161
:101E30000F2C01C0CC0C0A94EAF7592F2E2D792EC5
:101E4000CF93DF93ED01EF96EF9622968590A590C4
:101E5000FF2059F08C9C4001AC9C500137302CF491
:101E6000E880B094EB20E928E99233233AF0EC9033
:101E7000A094EA20E828ED920C943F0F11965A9511
:101E800029F72A9551F0572D33951124E60FF11DAE
:101E9000A00FB11DC00FD11DD9CFDF91CF9111245B
:101EA0009FCECF92EF920F934115510561F0FA0149
:101EB00004913196E4904E5F5F4F22E0C22E30E0F5
:101EC00020E00E94680D0F91EF90CF900895CF927F
:101ED000EF920F93FA0104913196E4904E5F5F4FB9
:101EE0002BEFC22E30E020E00E94680D0F91EF90A2
:101EF000CF900895CF92EF920F934115510569F15C
:101F0000FA0104913196E4904E5F5F4F2223F9F07D
:101F1000A1E0B0E03E2D377011F4B0E0A0E0EE2D6E
:101F2000E695E695E695EA0FFB2FF11D0E9FD00191
:101F30000F9FB00D112430E0220F331FA29FF0013C
:101F4000A39FF00DB29FF00D11244E0F5F1F23E0F1
:101F5000C22E30E020E00E94680D0F91EF90CF90EC
:101F6000089590E00C94790B8FB18095807F669BEB
:101F700088601C9B8460089590911A02982329F42C
:101F800090911B02982381E009F480E00895CF939B
:101F9000C82F0E94B40F982F9C2381E09C1380E0EF
:101FA000CF91089580E00C941B0B80389105B8F414
:101FB00060347105A0F490E121E061FD24E060FD52
:101FC000220F62FD2295687F969FD0011124A80FF1
:101FD000AC5CBD4F0C90022A40FF02260C92089583
:101FE0008F929F92AF92BF92CF92DF92EF92FF9229
:101FF0000F931F93CF93DF936D3089F0C090180239
:10200000D09019026A30D1F4109217021092160281
:1020100088E0C80ED11CD0921902C092180281E04B
:1020200090E0DF91CF911F910F91FF90EF90DF90A3
:10203000CF90BF90AF909F908F900895009116021F
:1020400010911702E5E06E9FE0011124CE51DF4FA1
:102050004801F12CF5E0E12CFF1629F0CE010196A4
:10206000FE01E490EC01B12CA12C4E2D4170B60183
:102070006A0D7B1DC4010E94D50FE694FFEFAF1AD5
:10208000BF0A88E0A816B10481F7F394EFEF8E1A27
:102090009E0AF6E0FF12DECF0A5F1F4F1093170271
:1020A00000931602BCCF8F929F92AF92BF92CF92B5
:1020B000DF92EF92FF920F93CF93DF935B01EC01DE
:1020C0004C01840E911C6B01C20ED11CC815D905A0
:1020D000D4F47501B7FE02C0F12CE12CC60121E455
:1020E000C216D10414F080E490E0E816F9064CF42E
:1020F000402FB701CE010E94D50F8FEFE81AF80AE2
:10210000EDCF2196E3CFDF91CF910F91FF90EF902C
:10211000DF90CF90BF90AF909F908F9008958A30BE
:1021200040F5E82FF0E0E956FF4E0C948923BA10F1
:10213000A110BD10A410A710AA10AD10B010B310BC
:10214000B61086ED90E008958AEC90E0089584EC56
:1021500090E008958EEB90E0089588EB90E008956C
:1021600082EB90E008958CEA90E008958DE59CE084
:10217000089508958CED90E0089580ED90E0089525
:10218000089590E080E00895FB0101900020E9F7B8
:102190003197AF01461B570BDC01ED91FC9102809A
:1021A000F381E02D09948F929F92AF92BF92EF92AC
:1021B000FF920F931F93CF93DF93CDB7DEB7A19715
:1021C0000FB6F894DEBF0FBECDBF7C01FA01CB0184
:1021D00019A2223008F42AE08E010F5D1F4F822ED3
:1021E000912CB12CA12CBF01A50194010E94442384
:1021F000F901CA016A300CF5605DD8016E938D015A
:10220000232B242B252B79F790E080E0109721F0E9
:10221000BD01C7010E94C410A1960FB6F894DEBF9D
:102220000FBECDBFDF91CF911F910F91FF90EF9027
:10223000BF90AF909F908F900895695CDECFCF9252
:10224000DF92EF92FF92CF93DF936B017C016DE2FF
:1022500088E29AE00E94F00FEC0144275527BA016A
:102260004C195D096E097F092AE088E29AE00E9414
:10227000D3108C0F9D1FDF91CF91FF90EF90DF90D7
:10228000CF9008950F920FB68F939F93EF93FF9384
:1022900080911D028D5F8D3708F08D5780931D0250
:1022A000EEE1F2E080818E4F808391819F4F918398
:1022B00082818F4F828383818F4F8383E2E2F2E0BA
:1022C00080818F5F808381818F4F818382818F4F57
:1022D000828383818F4F83838FB18F6066991C9B2C
:1022E00088278F3681F480911C02981B963068F005
:1022F000E0E0F8E087E78083818388E180936000F5
:10230000F0936000FFCF90931C02FF91EF919F919B
:102310008F910FBE0F9018951F920F920FB60F92CC
:1023200011248F939F938091E1009091E100937F1E
:102330009093E10083FF0FC01092E90091E0909329
:10234000EB001092EC0092E39093ED0010923302B8
:1023500098E09093F00082FF22C093E09093E90010
:102360009091F200992319F09AE39093E8009091EC
:10237000F701992341F09091F70191509093F70163
:10238000911101C05D9A90913202992341F0909190
:102390003202915090933202911101C0289A84FF29
:1023A00018C08091E2008E7E81608093E20080916F
:1023B000E1008F7E8093E1008091F8018E7E806144
:1023C0008093F8019F918F910F900FBE0F901F90F7
:1023D000189580FFF7CF8091E2008E7E8061809318
:1023E000E2008091E1008E7E8093E1008091F8010F
:1023F0008E7E8160E5CF1F920F920FB60F9211244F
:10240000CF92DF92EF92FF920F931F932F933F9300
:102410004F935F936F937F938F939F93AF93BF93EC
:10242000EF93FF93CF93DF93CDB7DEB76C97DEBF0B
:10243000CDBF1092E9008091E80083FF25C068E0DD
:10244000CE0145960E942A0C82EF8093E8008D8988
:1024500087FF39C09091E80090FFFCCF982F9076CD
:1024600009F034C19E894F89588D2F89F88C9111BC
:1024700031C0803861F58091F9018093F1001092AC
:10248000F1008EEF8093E8006C960FB6F894DEBFF3
:102490000FBECDBFDF91CF91FF91EF91BF91AF9173
:1024A0009F918F917F916F915F914F913F912F916C
:1024B0001F910F91FF90EF90DF90CF900F900FBE84
:1024C0000F901F9018959EEF9093E800C7CF109241
:1024D000F100D5CF913059F48111D3CF413051055E
:1024E00081F68091F9018D7F8093F901CACF9330F5
:1024F00049F48111C6CF4130510519F68091F90197
:102500008260F2CF953041F48091E80080FFFCCFEB
:1025100020682093E300B5CF963009F0A9C00B8D59
:102520001C8D22E01092E9001092F5011092F40146
:10253000F2122EC01092F3011092F2010E94F90BD8
:102540001F8299E09983FA8291E09E8390EA9887AE
:102550009AEF99872091F4013091F501275F3F4F61
:102560003C832B838D831092E9001092F501109229
:10257000F4011093F3010093F20149E050E0BE0131
:102580006F5F7F4F80E00E94D30B0E94F90B79CFE1
:102590001093F3010093F2010E94650BDC01129687
:1025A0000D911C910115110509F451C1D801ED914E
:1025B000FC910480F581E02DBE016B5E7F4FC80168
:1025C0000995009709F03EC1F80100851185EACF11
:1025D000F3E0FF120EC08F89882309F440C08230D7
:1025E00061F440E867E086E496E00E942D148111D2
:1025F00048CF81E28093EB0047CF813029F440E857
:102600006BE08AE396E0F1CF833099F70E94650B87
:10261000DC011296ED90FC908E010F5F1F4F680158
:10262000E114F10479F0D701ED91FC910680F78176
:10263000E02DB801C7010995080F111DF701E084CD
:10264000F184EECFD8011C92F60101900020E9F749
:102650003197BF016C197D0940E0C601C6CF64E225
:1026600076E0FB01449150E080E80E94D30B09CF53
:10267000973009F4BECF983021F481E08093F100C7
:1026800000CF993009F0FDCE837009F0B2CFE4ECB1
:10269000F1E081E031E096E32191222371F0809313
:1026A000E9003093EB00DF0111972C912093EC00AF
:1026B0009093ED008F5F873079F78EE78093EA0083
:1026C0001092EA008F8980933302DBCE8B8D9C8D34
:1026D0001092E9001092F5011092F4019093F30129
:1026E0008093F201898D811192C08E899D89913AE2
:1026F00049F4813209F07DCF47E050E064E071E0B9
:1027000080E0B3CF913209F074CF833269F48F89BE
:10271000988DB0E0A0E08093000190930101A09318
:102720000201B0930301ADCE803269F48091E800DC
:1027300082FFFCCF67E084E091E00E942A0C8BEFDF
:102740008093E8009ECE823209F09BCE8F898093E1
:102750000B01EEEFFFE7859194918B3F9C4D51F17A
:10276000E0E0F8E08091040190910501A09106015C
:10277000B0910701803B9440A105B105F1F480912F
:102780000B0180FD1AC0EE3F8AE0F80789F587E764
:1027900097E791838083809160008093F60188E1C0
:1027A0009BE00FB6F894A895809360000FBE9093BD
:1027B000600067CEEEEFFAE0D5CF80819181873758
:1027C000974709F05ECEA89580916000886180935C
:1027D00060008091F60180936000EE3F2AE0F207EE
:1027E00089F08091FE0A9091FF0A9183808349CEFF
:1027F000808191818737980751F29093FF0A8093E7
:10280000FE0AC5CF1092FF0A1092FE0A3ACE0E942D
:10281000650BDC0112960D911C910115110509F44F
:10282000E8CED801ED91FC910190F081E02DBE0140
:102830006B5E7F4FC8010995811123CEF801008599
:102840001185EBCF181619060CF41BCED2CEF1E091
:10285000FF12BECE68E276E004CFEF92FF920F93B4
:102860001F93CF93DF93F82E192FE62E042F81E0CC
:10287000860F880F0E94A50B83E00E94A50BCF2D29
:10288000D12FEC0EFD2EF11CCE15DF05B9F007FFA0
:1028900013C0FE0184910E94A50B182F80E00E94B6
:1028A000A50B812321968111EFCFDF91CF911F914D
:1028B0000F91FF90EF9008958881EDCF81E0F5CFE3
:1028C0000F931F93CF93109237061092360688EE1F
:1028D00093E0A0E0B0E08093380690933906A0938F
:1028E0003A06B0933B068EEC91E0909335068093C8
:1028F00034068FEF9FEF909341068093400688E265
:102900009AE010922B0A10922A0A20EE31E03093BE
:10291000290A2093280A9093110A8093100A2EEC1A
:1029200035E13093130A2093120A2AE030E0309305
:10293000150A2093140A2CE130E03093170A2093F3
:10294000160A20EC31E03093190A2093180A1092ED
:102950001A0A20E120931B0A10921C0A90931E0A67
:1029600080931D0A8AEE80931F0A8093200A10929A
:10297000230A1092240A1092250A1092260A81E056
:102980008093270AE0E0F9E0A0E1BAE068EC70E0AB
:1029900054E647E098E02EEB35E1B183A0837383E2
:1029A00062835483458396833087278311861286FA
:1029B000138614861586168687877096CAE0E031DE
:1029C000FC0759F708E21AE01093F1060093F006AD
:1029D00020E039E03093F3062093F20620E231E064
:1029E0003093F5062093F4068093F6061092F708CC
:1029F0001092F808C2E0C093F90894E09093FA08A6
:102A00008093FB088093FC081092FD0881E180937D
:102A1000FE089093FF0840E052E06EEB73E187EF11
:102A200096E00E94EF22109386060093850684E8C4
:102A300096E0909388068093870686E180938906C6
:102A4000C0938A0610928C0610928B0686E08093C3
:102A50008D0610928E0610928F0680E6EBE5F1E06F
:102A6000A0E9B6E001900D928A95E1F7CF911F9110
:102A70000F910895CDB7DEB76497DEBFCDBF7894D0
:102A800083E084BD83E085BD81E080936E00E1E852
:102A9000F0E083E08083E0E881E08083E1E983E0A7
:102AA0008083E0E981E08083E1EC87E08083E3ECF0
:102AB00081E08083E0EC82E08083E2EC81E080834F
:102AC000EAE787E080838068808310923302109267
:102AD000F9011092F8018091D70081608093D700AE
:102AE00080EA8093D80089B5806189BD89B582600C
:102AF00089BD09B400FEFDCF81E090E00E94790B12
:102B00008091D8008F7C80618093D8008091E00014
:102B1000807F8093E0008091E1008E7E8093E100D1
:102B20008DE08093E200559A209A81EC80937C009E
:102B300081EF85B987EE84B984E38BB984EF8AB9D4
:102B4000769A6E9880EF81BB10BA80E58CBD81E0EB
:102B50008DBD85E00E94B10F5F9A85E00E94B10FA4
:102B60005C98EEEFF6E085918EBD00000DB407FE97
:102B7000FDCFEB30C1F75C9A81E88093640081E07F
:102B8000809365000E94D20F80E80E94C70F8823BF
:102B9000A9F05C9885EA8EBD00000DB407FEFDCF5C
:102BA0005C9A2E982F982D98809164008062809373
:102BB000640081E083BF889513BEFCCF84E00E944F
:102BC000C70F8823B9F12D9884E80E94C70F882386
:102BD000A1F02D9A88EC0E94B10F2F986FEF82E040
:102BE00090E00E94002384EF91E00E94790B2F9ADD
:102BF00084E80E94C70F8111FBCF84E10E94C70FB8
:102C00008823A1F02D9A88EC0E94B10F2E9860E0E5
:102C100082E090E00E94002384EF91E00E94790B13
:102C20002E9A84E10E94C70F8111FBCF88EC0E948D
:102C3000B10FC4CF2D9A82E090E00E94F822882341
:102C400009F471C03E9A3F9A81E090E00E94F82218
:102C5000082F0470D02E81FF0CC001112E9801EFB7
:102C60001FEF80E40E94C70F882309F45FC02E9AEB
:102C70002F9A82E30E94B10F0E94B40F8111F9CF05
:102C800080E180931F01809164008E7F80936400B7
:102C900080917A00806480937A0080917A0086FD2A
:102CA000FCCF00917800109179000E948D0BAB0150
:102CB000BC01C801B0E0A0E0DC01992788278C01A5
:102CC0009D01040F151F261F371FC901B801209150
:102CD00064002160209364006115710581059105F0
:102CE00011F00E94E62283E0809315018FEF9FEFA1
:102CF000909341068093400690911E028091FD01C1
:102D0000192F181B812F1091FC01112309F4AEC05B
:102D1000809315021092FC0180E090E0892B61F312
:102D20000E940000E9CF3E983F988ECFDD2029F029
:102D30000430110511F42E9A2F9881E00E941B0B8C
:102D4000202F2770C22E9801F3E035952795FA952C
:102D5000E1F7C9019695982F8827979587958C5C00
:102D60009D4F70E060E02E3F4FEF340781F17C0112
:102D700054E9E50EF11CDC0150E040E0FB01E25BB0
:102D8000F94F5F01F501E40FF51FE491F0E03F0119
:102D90000C2C02C0660C771C0A94E2F72F3F320716
:102DA00039F054969C905497962854969C92549738
:102DB000CC2021F0F7019080972890824F5F5F4FE1
:102DC000FFEFEF1AFF0A119648355105D9F62F5F2C
:102DD0003F4F80589F4F685A7F4F603B710509F005
:102DE000C2CF0E94D20F8FE00E94B10F0F5F1F4F22
:102DF0000931110509F035CFDD2011F02F9A2D98FA
:102E000080E991E00E94790B2D9A81E090E00E9488
:102E1000F82280FF2ECF8AE090E00E94F8229FEFF8
:102E2000980F9E3F08F025CF22E330E03093170241
:102E30002093160228E330E0309319022093180201
:102E40000AE010E0682F88E29AE00E94F00F0F5F1E
:102E50001F4FC8010E94F8220031110599F70E9406
:102E6000D20F88EE93E00E94790B03CF20911F01CF
:102E7000821748F48F5F821708F04ECF81E083BF3E
:102E8000889513BE49CF81E08093FC019093FD01AA
:102E9000EAEFF1E0808191810196808391838091B6
:102EA0001B0280931A020E94B40F80931B02E4E37A
:102EB000F2E011111FEF8FEF119311931193119302
:102EC0008150D0F710921902109218021092170236
:102ED0001092160210918406113009F4A3C258F022
:102EE000143011F40C94F321173011F40C940522D2
:102EF0000E94D20F11CF80918E0681113EC1609148
:102F00008A0670E08091890642EA53E190E00E94CF
:102F1000510F60918A0670E08091890690E046E842
:102F200053E10E960E94510F60918A0670E08091E5
:102F3000890690E04AE653E14C960E94510F609159
:102F40008A0670E08091890690E046E453E18A9613
:102F50000E94510F60918A0670E08091890690E08E
:102F60004EE253E1CC960E94510F60918A0670E0C8
:102F70008091890690E042EA53E1885B9F4F0E946E
:102F8000510F60918A0670E0615F7F4F80918906E2
:102F900090E042EA53E101960E94510F60918A0647
:102FA00070E0615F7F4F8091890690E042E153E1DC
:102FB0000F960E94510F60918A0670E0615F7F4F0B
:102FC0008091890690E046EF52E14D960E94510FA4
:102FD00060918A0670E0615F7F4F8091890690E082
:102FE0004AED52E18B960E94510F60918A0670E083
:102FF000615F7F4F8091890690E04EEB52E1C99668
:103000000E94510F60918A0670E0615F7F4F80914E
:10301000890690E042EA52E1895B9F4F0E94510F7E
:1030200060918A0670E0625E7F4F8091890690E031
:1030300042EA53E103960E94510F60918A0670E0C4
:10304000625E7F4F8091890690E04EEB52E141969F
:103050000E94510F60918A0670E0625E7F4F8091FE
:10306000890690E04EE253E14F960E94510F609125
:103070008A0670E0625E7F4F8091890690E04AE6A2
:1030800053E18B960E94510F60918A0670E0625E58
:103090007F4F8091890690E04EE253E1C9960E94ED
:1030A000510F60918A0670E0625E7F4F80918906C1
:1030B00090E04AE653E18B5B9F4F0E94510F609175
:1030C0008D0670E080918B0690918C060E9475238E
:1030D000CB014CE351E164E370E091958195910956
:1030E0000E94510F60918D0670E080918B06909147
:1030F0008C060E9475239B014CE351E164E370E070
:1031000082EB90E0821B930B0E94510F80918E0600
:103110008111EFC080918B0690918C06019690935F
:103120008C0680938B0620918D06B2EB2B9F90012D
:1031300011248217930724F010928C0610928B06AC
:1031400088E00E94BC0F882319F081E080938E06EE
:1031500080911502F4E68F9FC001112460911F0138
:1031600070E00E947523AB01770F660B770B2AE0A6
:1031700088E29AE00E94D310BBCE813049F748EF35
:1031800050E165E170E085E390E00E94510F80918D
:103190008F06813009F485C008F479C0823009F4C3
:1031A00088C0833009F48BC020E046EA5EE068EF17
:1031B0007FEF84EF9FEF0E947A0F20E046EA5EE007
:1031C00068EF7FEF82E490E00E947A0F20E046EA09
:1031D0005EE06BE270E084EF9FEF0E947A0F20E0E8
:1031E00046EA5EE06BE270E082E490E00E947A0FD3
:1031F00080918F0643E85EE066E070E0811165C073
:103200008BE090E00E94670F80918F0647E65EE0BA
:1032100066E070E0813009F05DC085E590E00E94D5
:10322000670F80918F0646E35EE063E370E08230D3
:1032300009F055C085E090E00E94670F80918F06ED
:1032400045E05EE063E370E0833009F04DC08BE45D
:1032500090E00E94670F05E816E055EEE52E56E077
:10326000F52ED8011D968C911D97882351F01C9640
:103270006C911C9770E01B968C9141E090E00E944D
:10328000D50F0C5F1F4FE016F10659F73FCF01E055
:1032900021E14AE370E060E090E080E00E9453109A
:1032A00083CF01E021E14AE370E060E086E490E052
:1032B000F5CF01E021E14AE36FE270E0EDCF01E0FC
:1032C00021E14AE36FE270E0F1CF8BE090E00E94F1
:1032D000510F9ACF85E590E00E94510FA2CF85E073
:1032E00090E00E94510FAACF8BE490E00E94510F12
:1032F000B2CF813009F02CCF05E816E045EEE42E80
:1033000046E0F42EF8018585882309F444C08150F5
:10331000858781110FC00E94972224E030E040E0B1
:1033200050E00E9412236D5F7F4F8F4F9F4FD80157
:103330001E966C930C5F1F4FE016F10619F780E1A3
:103340000E94BC0F811106C080E80E94BC0F882338
:1033500009F447C080918F0692E0892780938F06F9
:1033600088E00E94BC0F811106C084E00E94BC0F5F
:10337000882309F4EDCE80918F06813009F440C096
:1033800008F444C0823009F441C0833009F444C0D9
:1033900010928E06DDCE86858823A1F08150868727
:1033A0008111C8CF0E94972220EF30E040E050E02A
:1033B0000E94122368597E4F8F4F9F4FD8011D9650
:1033C0006C93B8CF0E94972220EF30E040E050E0AD
:1033D0000E94122368597E4F8F4F9F4FF8016587D7
:1033E000A9CF80E40E94BC0F811106C080E20E9438
:1033F000BC0F882309F4B4CF80918F0691E0ADCF44
:10340000E0918706F09188068083C2CFE09187061D
:10341000F091880681E0F8CFE0918706F091880668
:1034200084E0F2CF80910D0281110CC00E9497229E
:103430002FE030E040E050E00E94122360930C0245
:1034400010930D028091F606882309F463C080E290
:103450000E94C70F882391F186E08093FA0880913B
:10346000F90881508093F908811154C0E0EFF6E02B
:103470009185978392859087329608E0EE3EF0071B
:10348000B9F790E02091FE08921730F19BE020916F
:10349000FF088217B0F5E091F406F091F506899FD8
:1034A000E00DF11D11242781222331F0208131818B
:1034B00021503109318320838F5FE9CF84E00E945E
:1034C000C70F8111C9CF80E40E94C70F882311F074
:1034D00081E0C3CF82E0C1CF10E1919FF0011124C0
:1034E0002091F2063091F306E20FF31F2385222389
:1034F00031F02281338121503109338322839F5F50
:10350000C1CF8091F8088F5F8093F8088091FA0806
:103510008093F9088091F80887FFC4C188E0EBEB3D
:10352000F1E0DE01119601900D928A95E1F780910C
:10353000F7088F5F8093F70805EF17E087EFE82E15
:1035400088E0F82E98E0892E912CA12CB12C23E054
:10355000D22ECC24C3943FE3732E0E949722A50160
:1035600094010E94122321E030E02C0F3D1F620FD6
:10357000731FDB018C919091FB08890F8093FB08EE
:103580000E949722A50194010E941223E1E0F0E03D
:10359000EC0FFD1F6E0F7F1FDB018C919091FC08DB
:1035A000890F8093FC089091FB0819160CF4C0C099
:1035B000C092FB08181644F0C092FC088091FB08EA
:1035C000843014F0D092FB088091FC08843014F011
:1035D000D092FC089091FB088091FC08890FB72DD0
:1035E000B81BF8019083B1830E5F1F4FE016F10600
:1035F00009F0B3CFFCE02F2EF1E03F2E8101A8E0CF
:10360000CA2ED12CE12CF12CB8E04B2E512C612C80
:10361000712C0E949722D801BC90A70196010E94AC
:103620001223A30192012C193D094E095F09620F73
:10363000731F841F951FE62FF0E0E45FFE4F80812B
:10364000D8018D938D01B082B1E0CB1AD108E10889
:10365000F108E1E0CE16D104E104F104D1F60CE06A
:1036600011E0D8014D918D0150E070E060E02AE05A
:1036700084E396E00E94D31068EE71E084E396E064
:103680000E94C410B1E003311B0759F76CEE71E0E2
:1036900084E396E00E94C4106AEE71E084E396E051
:1036A0000E94C4106CEE71E084E396E00E94C410A6
:1036B0006AEE71E084E396E00E94C410E3E06E2EAF
:1036C000442443949091FE082091F2063091F30631
:1036D00080E0981709F46FC08901205F3F4FF8011F
:1036E00043854111A5C04581D1018C91885F8295A8
:1036F000807F90E0FC01EE0FFF1FE051F94F60E08A
:10370000712C70E4572EC52CD12C4617A9F0578187
:10371000751608F4752E7085A52FA70FBB27BB1F44
:10372000AC15BD0514F4552E570E6F5F3296EBCFD6
:1037300018160CF443CF40CFF8019383828386811F
:10374000C81AD108F5E0CF1AD1080D2C000CEE08EC
:10375000FF08872C912C25E0820E911C092C000C6F
:10376000AA08BB088C149D04AE04BF048CF4C818CE
:10377000D908EA08FB0841F00E949722A7019601A8
:103780000E9412236B017C018C0C9D1CAE1CBF1C83
:10379000D80114968C92149719967C9219971A96C0
:1037A0005C921A971B964C921B971C961C921C9726
:1037B000EFEF1F96EC936A94FFEF2F1A3F0A611008
:1037C00081CF8091F70880FD6BC00091F4061091C5
:1037D000F50630E020E0D80117968C9117978111FB
:1037E00094C013968C91245F3E4FD901EC91E85F11
:1037F000E295E07FF0E0EE0FFF1FE051F94F40E06F
:10380000712C50E4652EC62CD12C841799F0978129
:10381000791608F4792E5085692F650F7727771F61
:103820006C157D0514F4692E650E4F5F3296EBCF53
:103830008F5F4FCF80910F0190E0089634E0880FA2
:10384000991F3A95E1F7D80111969C938E9314969F
:103850008C91C81AD1080D2C000CEE08FF08872C9B
:10386000912CB12CA12C8C149D04AE04BF048CF4BB
:10387000C818D908EA08FB0841F00E949722A7015E
:1038800096010E9412236B017C018C0C9D1CAE1CC6
:10389000BF1CF80182827582668281E08783108670
:1038A0001092F80880E04EED50E06EED7FEF91E071
:1038B0002091FE08821708F059C000E1809FF001B6
:1038C00011242091F2063091F306E20FF31F2385B5
:1038D000222309F449C022813381273F1FEF31079A
:1038E000ECF495871486248521111EC025852111AD
:1038F0002DC0A081B181148116962D913C91121793
:10390000130608F4978794870CC02F5F3F4F055F1D
:103910001F4F2430310509F05ECFC2CF2833310567
:1039200014F32485222391F0A48121852A1708F01D
:10393000978726812A0F3327331FB285B2171306C4
:1039400009F00CF4778727852A0F24832585222305
:1039500059F026852F5F26872A3034F0538342831F
:1039600064831586138616868F5FA2CF80E09BE066
:103970002EED30E06EED4091FF088417B0F4E09139
:10398000F406F091F506899FE00DF11D11244781A1
:10399000442349F040815181473F5F4F24F43183F4
:1039A0002083628317828F5FE6CF8091230A88236A
:1039B000E1F080911F0A9091220A913009F44FC2E0
:1039C0000CF042C28250992309F44EC280911F0A22
:1039D00087FD04C08091200A843438F01092230AB5
:1039E0008AEE80931F0A8093200A8091250A8823FB
:1039F00009F43DC28091260A8F5F8093260A8431A4
:103A000054F082E491E09093150A8093140A909305
:103A1000170A8093160A8FB7F89440911E025091AE
:103A20001F0260912002709121028FBF80911801C6
:103A300090911901A0911A01B0911B018A019B017B
:103A4000081B190B2A0B3B0BD901C801843E92407D
:103A5000A105B10598F080911E01882379F080912D
:103A60001C0118161CF4815080931C01409318010E
:103A70005093190160931A0170931B013091230A2E
:103A80008090FF0190900002A0900102B09002028D
:103A900000910702098B109106021B8B0091050211
:103AA0000A8B60910402709003024090140A5090B7
:103AB000150A8201085F1F4F1E870D872090160A86
:103AC0003090170A8101085F1F4F188B0F871091E4
:103AD000F6061C876090270A0091120A1091130ABB
:103AE0001A870987E0901E011091FE011B87F09054
:103AF0001501009184060C8B00E019E080911F0AEB
:103B000090E0D8011296CD90DC901397AC014D5FF8
:103B10005F4F4C155D050CF46AC015964C911597D6
:103B20004C0D5D2D511D481759070CF460C02091B4
:103B3000200A14969C911497291708F458C01696D9
:103B40008C911697890F9927991F2817190611F03C
:103B50000CF04DC0E1E01D96EC931D971C961C9255
:103B6000FAEEF0931F0AF093200A29E1820E911CCD
:103B7000A11CB11CC501B40120E137E240E050E0D6
:103B80000E944423298BC501B40128EE33E040E0B4
:103B900050E00E944423CA01B9012AE030E040E02D
:103BA00050E00E9444236B8BC501B40124E630E051
:103BB00040E050E00E944423CA01B9012AE030E00D
:103BC00040E050E00E9444236A8BC501B4012AE022
:103BD00030E040E050E00E944423762ECA01B90153
:103BE0002AE030E040E050E00E94442330E04D8580
:103BF0005E854C155D05C8F1D80115968C91159719
:103C0000C80ED11C4C145D0480F514968C91149749
:103C100090E0EF85F889E817F90738F116962C91AE
:103C20001697820F911D28163906F8F41D968C916F
:103C30001D9781111AC08091250A811116C0F1E0EB
:103C4000F093250A21E01D962C931D971C961C923B
:103C50001F140CF08BC1FA94612C1C86E12C41E0FE
:103C60004B878BE39DE09A878987005F1F4F40E178
:103C70005AE04017510709F041CF3093230A809250
:103C8000FF0190920002A0920102B0920202098903
:103C9000009307021B89109306020A89009305020C
:103CA00060930402709203021C851093F6066092E2
:103CB000270A09851A851093130A0093120A1B8597
:103CC0001093FE01F09215010C8900938406409137
:103CD000250AA0E2B1E027E531E0FD018081918174
:103CE0000D851E8508171907B0F05381850F911DAA
:103CF0004816590680F4828190E00F8518890817CC
:103D0000190748F05481850F911D2816390618F4BB
:103D10008185882321F0411102C0EE24E3943B9673
:103D20002E173F07D9F690911D0180911C012D910E
:103D30003C9111970D851E850217130740F11396CC
:103D40005C911397250F311D4216530600F512960C
:103D50002C91129730E00F85188902171307B8F0DD
:103D600014965C911497250F311D2216330678F4B2
:103D700019962C91199721110AC019160CF406C135
:103D80008F5F8F320CF4FEC08EE2E12C9CE01B961C
:103D9000EA17FB0761F6E0921E0190931D018093E4
:103DA0001C011816CCF0411117C01092F60681E0E4
:103DB0008093250A1092270A2BE33DE03093130AE3
:103DC0002093120A10921E018093FE011F140CF41E
:103DD000E0C087E08093840680911401882309F471
:103DE000C9C140EF56E030E020E0EE24EA9468E0FC
:103DF00070E00FEF10E0DA0117968C911797189684
:103E0000EC91F82EFE0EE82FE695E695E695E1504A
:103E10008770B82EEF3F09F4C0C0F0E0CE2E0E2E12
:103E2000000CDD08AF2FB0E0CA16DB060CF4B5C0FD
:103E3000B695BA2FAA27B795A795A20FB31FAC5C6A
:103E4000BD4FEC92FF5FEECF923069F08091200A77
:103E50008250933009F0BACD8093200AB7CD80917B
:103E6000200A8E5FF9CF8E5F80931F0AAFCD8091BD
:103E7000270A882309F4CFCD80E80E94C70F882342
:103E800019F08CEF80931C0A0E94B40F87FD08C0C4
:103E90000E94B40F84FD04C010921C0A10921A0AEA
:103EA00080E10E94C70F882319F084E080931C0AE8
:103EB00080911A0A90911C0A890F80931A0A4091E6
:103EC0001B0A642F042E000C770B2091180A3091E6
:103ED000190A481794F5260F371F3093190A2093B3
:103EE000180A40931A0A8091180A9091190A97FDAE
:103EF0000F9624E0959587952A95E1F79093170AF8
:103F00008093160A88E00E94C70F882309F483CDA6
:103F10008091230A81117FCD8091140A8B5F809359
:103F20001F0A8091160A8D5F8093200A81E080939A
:103F3000230A82E08093220A6ECD082E000C990B92
:103F4000EE27FF27E61BF70B8E179F0744F4261B6F
:103F5000370B3093190A2093180A4195C2CF820F6C
:103F6000931F9093190A8093180ABDCF612C1C8669
:103F7000E12C97E09C8BA1E0AB87EBE3FDE0FA87B7
:103F8000E98773CE87FF01CF80E0FFCE9150E12C0F
:103F9000FECEFA94F09215011FCFBB20B9F00E2E81
:103FA000000CFF0B3196F695FE2FEE27F795E7955F
:103FB000E20FF31FEC5CFD4FCB018B199109D80187
:103FC00002C0B595A7958A95E2F7A083FF2DF695D7
:103FD000F695F695EF2DE7708F2F90E05C01B69483
:103FE000BA2CAA24B794A794A20EB31ED12CC12C2C
:103FF000AF2FAC0DA83078F4D601B695BA2FAA270A
:10400000B795A795AA0DBB1DAC5CBD4FEC92BFEF59
:10401000CB1ADB0AEDCFEE23B9F0DB01AE1BB10901
:10402000FD01D80102C0B595A795EA95E2F7FD011B
:10403000DC01B695BA2FAA27B795A795A20FB31F93
:10404000AC5CBD4FE095EC932F5F3F4F4E5F5F4FF1
:104050002F37310509F0CFCE10E08091FE081817F8
:1040600010F5B0E11B9FF00111248091F2069091B0
:10407000F306E80FF91F8385882379F0648170E0E7
:10408000828193812585222351F0268527FD2F5F8C
:1040900025954DE45BE00E947A0F1F5FDECF4781DC
:1040A000508520E0F8CF10E00BE08091FF08181752
:1040B000B0F4E091F406F091F506109FE00DF11DCB
:1040C00011248781882349F0628170E020E049E271
:1040D0005BE0808191810E947A0F1F5FE6CF86E4CA
:1040E00090E090931702809316021092190210929A
:1040F00018026DEE71E08091F0069091F1060E9439
:10410000C4104091F70850E070E060E02AE0809130
:10411000F0069091F1060E94D3102091250A40915B
:10412000120A5091130A6091160A7091170A809131
:10413000140A9091150A222309F4EEC02091260A50
:1041400027FD2D5F259525950E947A0F6091200A05
:10415000062E000C770B80911F0A082E000C990B7D
:104160002091210A01E0222309F4D8C023E041E094
:104170000E94531080911C0115E3181B163308F0A0
:1041800015E343E25CE070E060E090E080E00E94D4
:10419000510F173008F417E0612F70E020E047E17D
:1041A0005CE090E080E00E947A0F00E020E447E0CD
:1041B00070E060E089E790E00E94531010E000E0BA
:1041C00041E0B80189E790E00E94D50F0F5F1F4FD3
:1041D00000341105A9F7109115014091FF0150918C
:1041E000000260910102709102024A30510561059E
:1041F0007105C8F081E080930802443651056105DD
:10420000710588F080930902483EE3E05E0761058E
:10421000710548F080930A024031574261057105EB
:1042200010F080930B02809103020E948F10AC016A
:1042300068E370E08BE790E00E94510F80910802E4
:10424000882359F0809104020E948F10AC0160E332
:1042500070E08BE790E00E94510F80910902882363
:1042600059F0809105020E948F10AC0168E270E065
:104270008BE790E00E94510F80910A02882359F049
:10428000809106020E948F10AC0160E270E08BE723
:1042900090E00E94510F80910B02882359F0809189
:1042A00007020E948F10AC0168E170E08BE790E09C
:1042B0000E94510F43E65CE061E070E08BE790E024
:1042C0000E94510F4DE55CE0193020F4812F0E94CF
:1042D0008F10AC0167E070E08BE790E00E94510F17
:1042E0008091FE01882339F0809114018823C9F060
:1042F0008150809314018AE090E09093170280939C
:104300001602109219021092180240911E0150E0FC
:1043100070E060E00C94B71820E016CF21E043E095
:1043200027CF80911C018F5F8F320CF08EE287FDCA
:1043300080E080931C0100910C028BE190E090934F
:104340001702809316028CE190E0909319028093FB
:1043500018020631A9F587E08093840688E00E9460
:10436000BC0F811105C084E00E94BC0F882319F2A4
:1043700081E08093F6069EE290931C011092260A3B
:104380001092250A8093270A8EEC95E19093130AE8
:104390008093120A8AE090E09093150A8093140AA1
:1043A0001092FE0188E7809314010E9497222FE06B
:1043B00030E040E050E00E94122360930C029BCF5B
:1043C0002EE0029F800111240759134FF8016491D8
:1043D000662321F288E29AE00E94F00F0F5F1F4FE0
:1043E000892BA1F7BBCF47E257E070E060E090E097
:1043F00080E00E94510F88E00E94BC0F882309F4DE
:1044000043C0109284060C9478174BE057E065E0A7
:1044100070E082E290E00E94510F42E153E165E0DA
:1044200070E080E390E00E94510F46E453E165E0C4
:1044300070E08EE390E00E94510F4AED52E165E09A
:1044400070E080E590E00E94510F46E853E164E19E
:1044500070E084E290E00E94510F46EF52E164E187
:1044600070E082E390E00E94510F4AED52E164E176
:1044700070E080E490E00E94510F4EEB52E164E165
:1044800070E08EE490E0B5CF84E00E94BC0F811113
:10449000B8CF0C9478178F929F92AF92BF92CF9221
:1044A000DF92EF92FF92CF93DF93EC0168817981E5
:1044B0008A819B81611571058105910521F464E272
:1044C00079ED8BE597E02DE133EF41E050E00E947C
:1044D000122349015A019B01AC01A7EAB1E40E94F1
:1044E00031236B017C01ACEEB4EFA50194010E9475
:1044F0003F23C60ED71EE81EF91EF7FE06C081E058
:10450000C81AD108E10880E8F80AC882D982EA828C
:10451000FB82C701B6019F77DF91CF91FF90EF90AB
:10452000DF90CF90BF90AF909F908F9008958F9223
:104530009F92AF92BF92CF92DF92EF92FF926091E3
:104540005701709158018091590190915A0161155C
:1045500071058105910521F464E279ED8BE597E021
:104560002DE133EF41E050E00E94122349015A014E
:104570009B01AC01A7EAB1E40E9431236B017C01ED
:10458000ACEEB4EFA50194010E943F23C60ED71EE6
:10459000E81EF91EF7FE06C081E0C81AD108E1083E
:1045A00080E8F80AC0925701D0925801E092590170
:1045B000F0925A01C701B6019F77FF90EF90DF900C
:1045C000CF90BF90AF909F908F90089560935701C8
:1045D000709358018093590190935A010895FB01FB
:1045E000DC0102C005900D9241505040D8F708956B
:1045F000F999FECF92BD81BDF89A992780B50895AB
:10460000262FF999FECF92BD81BDF89A019700B48B
:10461000021639F01FBA20BD0FB6F894FA9AF99A2B
:104620000FBE0895052E97FB1EF400940E942923C7
:1046300057FD07D00E94442307FC03D04EF40C948E
:10464000292350954095309521953F4F4F4F5F4F0F
:10465000089590958095709561957F4F8F4F9F4FEE
:1046600008950E946623A59F900DB49F900DA49F6E
:10467000800D911D11240895B7FF0C9431230E94E1
:104680003123821B930B0895A1E21A2EAA1BBB1B98
:10469000FD010DC0AA1FBB1FEE1FFF1FA217B3070E
:1046A000E407F50720F0A21BB30BE40BF50B661F24
:1046B000771F881F991F1A9469F7609570958095E8
:1046C00090959B01AC01BD01CF010895A29FB0015F
:1046D000B39FC001A39F700D811D1124911DB29F36
:1046E000700D811D1124911D089597FB072E16F45E
:1046F000009407D077FD09D00E948F2307FC05D0D6
:104700003EF4909581959F4F0895709561957F4FE8
:104710000895EE0FFF1F0590F491E02D0994AA1B58
:10472000BB1B51E107C0AA1FBB1FA617B70710F09C
:10473000A61BB70B881F991F5A95A9F780959095CE
:0A474000BC01CD010895F894FFCFED
:10474A00FFFFFFFF00E1000000000000000102037C
:10475A00040706057803DEDE00000000320A0110B5
:10476A00DE00DE1108000000000000DE00DE110895
:10477A00000000000000DE00DE110800000000005A
:10478A0000DE00DE1108000000000000DE00DE117D
:10479A000800000000000001000000061A000008DE
:1047AA00250000122000001E1800001D240000240D
:1047BA002100002D2500002C1C0000311800003DAE
:1047CA0012000041100000402F0000502400004F4A
:1047DA00180000581B00005A2400005E20000068E0
:1047EA00210000621B00006D2200006F1A00007594
:1047FA001F00007B19000079260000FFFFFF000060
:10480A0001010100C1808100000000000000E70CE6
:10481A00640C080DFD0C4E0D0C0D2A0D0000000055
:10482A00F00F370CC110C01020000D0A0043533A94
:02483A0000007C
:00000001FF
