:100000000C94D90A0C94010B0C94010B0C94010B69
:100010000C94010B0C94010B0C94010B0C94010B30
:100020000C94010B0C94010B0C9474110C94E311BF
:100030000C94010B0C94010B0C94010B0C94010B10
:100040000C94010B0C94010B0C94010B0C94010B00
:100050000C94010B0C94010B0C94010B0C942A11C1
:100060000C94010B0C94010B0C94010B0C94010BE0
:100070000C94010B0C94010B0C94010B0C94010BD0
:100080000C94010B0C94010B0C94010B0C94010BC0
:100090000C94010B0C94010B0C94010B0C94010BB0
:1000A0000C94010B0C94010B0C94010B04083649C1
:1000B000493604080161190704083E49493004081B
:1000C0004F494931040818167F1004082241493667
:1000D0000408625149460408427F400004083E413A
:1000E000413E00000000003E5B4F5B3E3E6B4F6BAD
:1000F0003E1C3E7C3E1C183C7E3C181C577D571C09
:100100001C5E7F5E1C00183C1800FFE7C3E7FF0081
:1001100018241800FFE7DBE7FF30483A060E2629CF
:10012000792926407F050507407F05253F5A3CE792
:100130003C5A7F3E1C1C08081C1C3E7F14227F2258
:10014000145F5F005F5F06097F017F006689956A23
:10015000606060606094A2FFA29408047E040810AE
:10016000207E201008082A1C08081C2A08081E10D7
:100170001010100C1E0C1E0C30383E3830060E3E8F
:100180000E06000000000000005F000000070007EE
:1001900000147F147F14242A7F2A12231308646218
:1001A00036495620500008070300001C2241000079
:1001B00041221C002A1C7F1C2A08083E08080080D7
:1001C000703000080808080800006060002010086F
:1001D00004023E5149453E00427F40007249494970
:1001E000462141494D331814127F102745454539A2
:1001F0003C4A4949314121110907364949493646A6
:100200004949291E00001400000040340000000885
:100210001422411414141414004122140802015928
:1002200009063E415D594E7C1211127C7F494949B5
:10023000363E414141227F4141413E7F494949414A
:100240007F090909013E414151737F0808087F0079
:10025000417F41002040413F017F081422417F40FF
:100260004040407F021C027F7F0408107F3E4141D6
:10027000413E7F090909063E4151215E7F09192946
:1002800046264949493203017F01033F4040403F30
:100290001F2040201F3F4038403F63140814630371
:1002A000047804036159494D43007F4141410204F0
:1002B000081020004141417F0402010204404040F7
:1002C0004040000307080020545478407F284444ED
:1002D000383844444428384444287F385454541807
:1002E00000087E090218A4A49C787F080404780002
:1002F000447D40002040403D007F102844000041E4
:100300007F40007C047804787C08040478384444F6
:100310004438FC1824241818242418FC7C080404ED
:1003200008485454542404043F44243C4040207C56
:100330001C2040201C3C4030403C44281028444CA9
:100340009090907C4464544C440008364100000076
:10035000770000004136080002010204023C262317
:10036000263C1EA1A161123A4040207A38545455CF
:10037000592155557941215454784121555478409B
:1003800020545579400C1E52721239555555593921
:100390005454545939555454580000457C41000276
:1003A000457D420001457C40F0292429F0F02825B4
:1003B00028F07C545545002054547C547C0A097F15
:1003C0004932494949323248484832324A4848302D
:1003D0003A4141217A3A42402078009DA0A07D39DF
:1003E000444444393D4040403D3C24FF2424487E61
:1003F0004943662B2FFC2F2BFF0929F620C0887E4E
:10040000090320545479410000447D413048484A52
:1004100032384040227A007A0A0A727D0D19317D05
:100420002629292F28262929292630484D402038D9
:100430000808080808080808382F10C8ACBA2F1098
:100440002834FA00007B000008142A142222142AFF
:1004500014089500220095AA005500AAAA55AA558D
:10046000AA000000FF00101010FF00141414FF0079
:100470001010FF00FF1010F010F0141414FC001402
:1004800014F700FF0000FF00FF1414F404FC141420
:1004900017101F10101F101F1414141F001010101D
:1004A000F0000000001F101010101F10101010F0AE
:1004B00010000000FF101010101010101010FF108E
:1004C000000000FF140000FF00FF00001F101700D5
:1004D00000FC04F414141710171414F404F40000AE
:1004E000FF00F714141414141414F700F714141460
:1004F000171410101F101F141414F4141010F010FF
:10050000F000001F101F0000001F14000000FC146A
:100510000000F010F01010FF10FF141414FF14105E
:1005200010101F00000000F010FFFFFFFFFFF0F0B1
:10053000F0F0F0FFFFFF0000000000FFFF0F0F0FC3
:100540000F0F38444438447C2A2A3E147E020206A7
:1005500006027E027E0263554941633844443C04EE
:10056000407E201E2006027E020299A5E7A5991C66
:100570002A492A1C4C7201724C304A4D4D30304889
:10058000784830BC625A463D3E494949007E0101E7
:10059000017E2A2A2A2A2A44445F444440514A447C
:1005A0004040444A51400000FF0103E080FF00004A
:1005B00008086B6B083612362436060F090F060042
:1005C0000018180000001010003040FF0101001F4B
:1005D00001011E00191D1712003C3C3C3C000000AC
:1005E0000000080B000202020000090400000102E2
:1005F0000200000524001001052401010104240269
:1006000006052406000107058103100040090401C6
:1006100000020A00000007050202400000070583EF
:10062000024000000403090412010002EF0201402D
:100630004123368000010102030141726475696E35
:100640006F204C4C430041726475626F7900F0F882
:100650009C8E8783878E9CF8F00000FEFF030303C7
:100660000303070EFCF80000FEFF03030303030768
:100670000EFCF80000FFFF00000000000000FFFF7C
:100680000000FEFF8383838383C7EE7C380000F87D
:10069000FC0E07030303070EFCF800003F7FE0C0D9
:1006A0008080C0E07F3FFFFF01010101010101FFE8
:1006B000FF0000FFFF0C0C0C0C1C3E77E3C1000098
:1006C0007FFFC0C0C0C0C0E0703F1F00001F3F7070
:1006D000E0C0C0C0E0703F1F00007FFFC1C1C1C1CA
:1006E000C1E3773E1C00001F3F70E0C0C0C0E07057
:1006F0003F1F000000000001FFFF01000000D5F0D7
:100700008D14A1C881CFD9F1AF200080400000F83E
:10071000040404880000E01010E00000E01010FC69
:100720000000E050506000000000000000000000E9
:10073000205050800000E01010E00000F00000F0B9
:100740000000F01010E00000E01010FC00000000BD
:10075000000000000000A05050E00000F01010E089
:100760000000E01010FC000000000000A05050E06D
:100770000000E01010000010F81010000000000051
:10078000000000000000000000000000000000F079
:100790004141810000C00001C10000000001016171
:1007A000909090010100F040428100008040408024
:1007B0000101F1000000804141F0000080414180D2
:1007C0000000C1404081000000010101E010121151
:1007D00020000000000001010101000001000001F3
:1007E0000000000101010000000000000101010102
:1007F00000000100000000000001010000000000F6
:1008000000000000000000000000000000000007E1
:100810000404030000010A0A0700000000000002AF
:10082000040404030000070000070000030505019D
:10083000000007040000030404070000030404038D
:10084000000007000007000000000000030404048B
:100850000200000000000000000000000000000096
:100860000000000000000000000000000000000088
:100870000000000000000000000000000000000078
:10088000000000000000000000000000000000FE6A
:100890000808F00000087C88880000087C88880030
:1008A00000F8484830000090A8A8400000009000E0
:1008B00000C038060000C03806000090A8A840001C
:1008C00000FE0808F0000070A8A8300000FE8000BC
:1008D00000708888FE0000708888700000F80808A2
:1008E000F000007088885000000080000070888848
:1008F000500000D0A8A8F000000000000000000098
:1009000000000000000000000000000000000000E7
:1009100000000000000000000000000000000000D7
:1009200000010000000000000000000000000000C6
:1009300000000000000000000000000000000000B7
:1009400000000000000000000000000000000000A7
:100950000000000000000000000000000000000097
:100960000000000000000000000000000000000087
:100970000000000000000000000000000000000077
:10098000000000000000000000000000000000FE69
:10099000121212020000708888700000F80808F037
:1009A0000000087C8888000090A8A8400000000093
:1009B0000000FE8888700000384040F80000000009
:1009C00000004C929292600000708888700000F8DD
:1009D00008F808F0000070A8A8300000FE121212FB
:1009E0000C0000C6281028C600000000000000000F
:1009F00000000000000000000000000000000000F7
:100A0000000000000000000000000000000000E006
:100A1000808000000080C08080000080C080800056
:100A20000080808000000000808000000000000046
:100A300000008060000000806001010080800000F4
:100A40000000808000000080808080000000008026
:100A50008000000080808000000080000080000096
:100A60000000000020000080C08080000000808026
:100A7000000000E080800000000000000020000076
:100A80000080800000000080600000000000000F77
:100A900000000F0000000708080000000708080019
:100AA000001F0404030000090A0A040000000900F2
:100AB000000C030000000C03000000090A0A0400F7
:100AC000000708080700000F000F000F0000070ACA
:100AD0000A0300001F04040300000D02020D0000C1
:100AE000000800000F0000000708080000070808C1
:100AF0000500000F00000F0000000800000F0000BC
:100B00000708080700000C0300000000000E08FFA3
:100B1000818181FFFFFF818181FF7E3C180A1000E7
:100B20000000000000000030303030000000000005
:100B300000000000000000000000000000000000B5
:100B4000000000000000000000000000002020382D
:100B500038505060600000000000000000000000FD
:100B60000000000000000000000000000000000085
:100B70000000003030C8C8202094946868505000AD
:100B80000000000000000000000000000000000065
:100B900000000000000000000020205454AAAA58C1
:100BA000582A2AE0E09C9C28280000000000000051
:100BB0000001010000010100000000000000001819
:100BC00018A0A004044B4B80800A0A292910108C1D
:100BD0008C606000000101000002020202000003BC
:100BE0000300000000000005080F0F0F0F0F0F0794
:100BF000070303074080BE8A8A8280FF000000004E
:100C00000000FF000000000000FF000000000000E6
:100C1000FF000000000000FF000000000000FF00D7
:100C20000000000000FF017D55554501FF04082626
:100C300049493E04081B04041B20204E69636520BB
:100C4000747279212020002020546F6F20736C6F04
:100C50007721202000204E696365206372617368EC
:100C60002120002020546F6F20656173792120209E
:100C7000002050696C6F74206661696C212000202F
:100C800020426164206D6F76652120200020205372
:100C90006F20636C6F736521202000202020204F7F
:100CA0006F7073212020202000202020416C6D6F68
:100CB00073742120202000205472792068617264AE
:100CC0006572212000204E6F7420656E6F75676815
:100CD0002120004E696365206C616E64696E672136
:100CE0000020476F6F6420637261736821200020C9
:100CF0002020416761696E3F212020200020205381
:100D00006F20717569636B212020000A10000000BC
:100D10000000000000303030300000000000000013
:100D200000000000000000000000000000000000C3
:100D300000000000000000000000002020383850B3
:100D40005060600000000000000000000000000093
:100D50000000000000000000000000000000000093
:100D6000003030C8C82020949468685050000000BB
:100D70000000000000000000000000000000000073
:100D80000000000000000020205454AAAA58582A4D
:100D90002AE0E09C9C2828000000000000000001E0
:100DA000010000010100000000000000001818A070
:100DB000A004044B4B80800A0A292910108C8C60F7
:100DC00060000001010000020202020000030300B3
:100DD00000000000002F083E4141412200007F0931
:100DE00019294600007F4949494100007F4141419E
:100DF0003E000041417F4141000001017F010100AF
:100E00000026494949302F083E4141413E00007FBC
:100E100009090906000001017F0101000041417F2D
:100E2000414100003E4141413E00007F0408107FE7
:100E3000000026494949301A087F0808087F000049
:100E40007F4949494100007F4040404000007F0900
:100E500009090621082649494930000001017F019E
:100E60000100007E0909097F00007F091929460059
:100E70000001017F01014A2080FFC0FFA0FF70FF39
:100E800028FF1C7F0A3F071F050F050F050F070FDF
:100E9000070F050F050F050F070F070F050F050FAC
:100EA000050F070F070F050F050F050F070F070F9A
:100EB000050F050F050F070F070F050F050F050F8E
:100EC000070F070F050F050F050F070F070F050F7A
:100ED000050F050F070F070F050F050F050F070F6C
:100EE000070F050F050F050F070F070F050F050F5C
:100EF000050F070F070F050F050F050F071F0A3F07
:100F00001C7F28FF70FFA0FFC0FF80FFFFFF18FFBE
:100F1000FFFF00FF000000000000000000000000D4
:100F200000000000000000000000000000000000C1
:100F300000000000000000000000000000000000B1
:100F400000000000000000000000000000000000A1
:100F50000000000000000000000000000000000091
:100F60000000000000000000000000000000000081
:100F70000000000000000000000000000000000071
:100F80000000000000000000000000000000000061
:100F9000000000000000000000FFFFFF18FFFFFF3F
:100FA0003FFF63FFBFFFC0FF80E000C00080000084
:100FB0000000000000000000000000000000000031
:100FC0000000000000000000000000000000000021
:100FD0000000000000000000000000000000000011
:100FE0000000000000000000000000000000000001
:100FF00000000000000000000000000000000000F1
:1010000000000000000000000000000000000000E0
:1010100000000000000000000000000000000000D0
:10102000000000000000008000C080E0C0FFBFFFA3
:1010300063FF3FFF001F001F001F011F021F071F4C
:101040000A1F1C1F141E141E141E1C1E1C1E141E00
:10105000141E141E1C1E1C1E141E141E141E1C1EE8
:101060001C1E141E141E141E1C1E1C1E141E141ED8
:10107000141E1C1E1C1E141E141E141E1C1E1C1EC0
:10108000141E141E141E1C1E1C1E141E141E141EC0
:101090001C1E1C1E141E141E141E1C1E1C1E141EA0
:1010A000141E141E1C1E1C1E141E141E141E1C1E98
:1010B0001C1E141E141E141E1C1F0A1F071F021FB5
:1010C000011F001F001F001F161800E0F0F8FC7E33
:1010D0003E1E1F1F3F7FFFFFFEEEFEFCF8F0E0000C
:1010E0003FFFFFFFFFFCF87070F0F8FCFF7F7FE729
:1010F000C3C3E7FFFF3F000103070F1F1F1E3E3F53
:101100003F3F3C38181C1F0F07030100B210F8982E
:10111000F8F8F8F8F8F8F8F8FC9CBCFCF8F8F8F8DF
:10112000F8B8F4F4F4FAFAFAF2FAF979797DFF3FB3
:101130007F7ABE3E3E1E1C0E0C0C0E0E0C9C9CF8C4
:10114000F8B838B8F8E8F8FCFCD8D8D8F8F8D8F0EF
:10115000F8F8F8F8F8B898F8F8F8F8FCFCFADAFAC1
:10116000FAF1FAFA7279F979FBFBFFFFFE7EFE7E57
:101170007C7C3C18180828F8F838F878F8F8F8B0AB
:10118000F0F0F0F0F8F0F8F8F870F8F8F0F0A0E00F
:10119000F0F0F0E8E8E8E8E8E8E4E4E4F2FAFCFC7F
:1011A000BCF8F8B8F0F0D8D8F8F0F0E06070F07063
:1011B000E0E0E0E0E0E0C0C0C0C0C0E0E0F0F0F897
:1011C0000F0F0F0F0F070500000001030F0F0B0F8C
:1011D0000F0F07070701010206050B0F070F0F0F7F
:1011E0000F0E0F0F0F0F0F0F0D0D0D0D0F0D0F0F1A
:1011F0000F0F0E0E0E0E0E0F0E0E070F0E0F0F0F0F
:101200000F0F0F0F0B0F0F0F0F0F0F0F080C0D0FFE
:101210000D0F0F0F0F0F0F0F0F0F0F0F0F0F0F0FE0
:101220000F0F0F0F0F0E0F0F0F0F0F0F0F070F0FD7
:101230000F0F0F0F0F0F0E0F0F0F0F0F0F0F0F0FBF
:101240000F07070303030303030101010101010168
:101250000101030303030307070F0F07070F0F0F16
:101260000F0F0F0F0F0F0F0F0F0F0F0D0F0F0D0D94
:101270000F0F0D10FF010101F9090919F101030612
:10128000FC3F2020203F0000003F2020203F0D1089
:10129000FF01010179494979010173DE803F202076
:1012A000203E0202023E2020203F0D10FC060301DA
:1012B000392929292929E9090F1F30202027252527
:1012C00025252525243C0D10FF010101FF0000000C
:1012D000FF010101FF03060C183326242633180CE6
:1012E00006030D10FE030101794949497901010303
:1012F000FE3F2020203E0202023E2020203F0B1015
:101300000F0909F9010101F909090F3C24242720DB
:1013100020202724243C1110FF010101F909F901C3
:101320000101F909F9010306FC3F2020203F003F9D
:101330002020203F003F2020203F0D10FC8603018D
:10134000392929292929296FC03C25252525252525
:1013500025272020301F0D10FE030101F90909097E
:10136000F9010103FE1F30202027242424272020F8
:10137000301F0D10FE030101F9090909392121234C
:101380003E1F30202027242424272121311F004004
:10139000004000400040004000400040004000404D
:1013A000004000400040004000400040004000403D
:1013B000004000400040004000400040004000402D
:1013C000004000400040004000400040004000401D
:1013D000004000400040004000400040004000400D
:1013E00000400040004000400040004000400040FD
:1013F00000400040004000400040004000400040ED
:101400000040004000401516151615161516151645
:101410001516151615161516151615161516151674
:101420001516151615161516151615161516121C61
:101430000F220C28092E0634033A013E013E013EDC
:10144000013E023B0339023A023B033A023B033BB3
:10145000023B013D013C013D013D023B013B023BA2
:10146000013B013B023B033B033B033A033B023B93
:10147000013B023A013C023A013C023B0339033A88
:10148000033B033A0339023A033A023C023C013C73
:10149000023A033A023B0339033A023B013C023C65
:1014A000013C023C023C013D013D023C023B023B4F
:1014B000013C013B013C023C033B033A033B033B41
:1014C000033A033A033B023C033A033A033B033B30
:1014D000023C013C023B013D023B013C023C013C21
:1014E000013B013B023A023A033903390339033A1B
:1014F0000339033A033B033B023C023B033B033B00
:10150000023B013D013D013D013C013D013D013CEE
:10151000023C013C013D013D013C013D013D023CDD
:10152000013C023A013C023B023A023A013B013CD7
:10153000023B023C013D013D023C013D013C023BBE
:101540000339023A023B0339023A013B013B013CB9
:10155000013C013D023C033A033B033B033A023C9E
:10156000023C013D013D013C013D013D013D023C8C
:10157000013D013C023A0339033A033A033B023C82
:10158000033A0339023B013D023B013D00000708DD
:10159000117F5E7F3A7F6E7F3A7F5E7F117F080802
:1015A00049496B6B7F7F6B7F223E363E1C1C0808CF
:1015B000481411241FBECFEFDAE0DEBFCDBF11E02B
:1015C000A0E0B1E0E6E9F6E402C005900D92AC3F80
:1015D000B107D9F72AE0ACEFB1E001C01D92A63304
:1015E000B207E1F71AE0C9EDDAE004C02197FE0185
:1015F0000E942F23C83DD107C9F70E9422150C94E1
:1016000049230C940000EEE3F2E0A0E0B8E0008093
:101610000EBC8111012C1197A0FDFDCF0192B9F7ED
:101620000DB40895FC0180913D02882311F13FB76C
:10163000F89482E08093E9002091F200822F90E0FC
:101640001816190614F481E090E0882339F02898E0
:1016500044E640933C024091F1004083222339F05C
:101660002091F200211103C02BE62093E8003FBF38
:1016700008958FEF9FEF08952FB7F89483E080933C
:10168000E9009091E800892F807295FF04C0909145
:10169000F20080E4891B2FBF0895809134028111EC
:1016A0000DC082E08093300284E08093310210927A
:1016B00033021092320281E08093340280E392E0A0
:1016C0000895FC010E94750B319728F068517C4FFA
:1016D0008F4F9F4FF9CFAB01FC010E94750B641730
:1016E00075078E079F07C8F30895ACE2B2E02FB7E5
:1016F000F8947D918D919C9166B52FBFA89B05C0F4
:101700006F3F18F47F5F8F4F9F4F22E0660F771F68
:10171000881F991F2A95D1F708954091FE01509195
:10172000FF012091FC013091FD0142175307B4F4F1
:101730009091E8009570E1F39091E80092FD19C056
:101740008093F1008091FE019091FF0101968F73CB
:101750009927892B19F48EEF8093E8008091FE0180
:101760009091FF0101969093FF018093FE0181E02B
:10177000089580E00895DF92EF92FF920F931F93F8
:10178000CF93DF93D82E8A01EB017B01E40EF51E87
:10179000CE15DF0559F0D7FE12C0FE0184910E94DC
:1017A0008D0B21968111F4CF0FEF1FEFC801DF9150
:1017B000CF911F910F91FF90EF90DF900895888156
:1017C000EECF0F931F93CF93DF931F92CDB7DEB76A
:1017D00082E0898342E450E062EE75E080E80E9496
:1017E000BB0B0E944D0BDC0112960D911C91011553
:1017F000110589F0D801ED91FC910280F381E02D73
:10180000BE016F5F7F4FC801099597FD04C0F801C5
:1018100000851185ECCF89810F90DF91CF911F91C9
:101820000F910895615030F02091F100FC01208368
:101830000196F8CF289884E680933C020895AF92F1
:10184000BF92CF92DF92EF92FF920F931F93CF93AD
:10185000DF936C017B018B01040F151FEB015E010F
:10186000AE18BF08C017D10759F06991D601ED91A4
:10187000FC910190F081E02DC6010995892B79F743
:10188000C501DF91CF911F910F91FF90EF90DF90F5
:10189000CF90BF90AF9008958F929F92AF92BF92DA
:1018A000CF92DF92EF92FF920F931F93CF93DF932C
:1018B0006C017B018A0180910B01882309F45AC0D5
:1018C00080913D02882309F455C08091020280FF77
:1018D00005C08091E00082608093E000E801B12CB7
:1018E0008AEFA82E93E0892E2AE3922E209711F4F6
:1018F000BB20C9F10E943C0B811108C0AA94AA2008
:10190000C9F181E090E00E94610BF0CF8C171D06B9
:1019100011F00CF08C2F9FB7F8948092E900209181
:10192000E80025FD02C09FBFE1CF282F30E0C21B99
:10193000D30BF701815020F041914093F100FACF91
:10194000E20EF31EBB2021F09092E800B12CEBCF09
:101950008091E80085FDE7CF9092E800BB24B39426
:10196000209709F3F3CF5D9884E680930102101667
:1019700011063CF081E090E0F6019383828310E051
:1019800000E0C801DF91CF911F910F91FF90EF9080
:10199000DF90CF90BF90AF909F908F900895CF939E
:1019A000DF931F92CDB7DEB76983DC01ED91FC9127
:1019B0000280F381E02D41E050E0BE016F5F7F4F78
:1019C00009950F90DF91CF91089583E08093E9000E
:1019D0008091F200882319F08AE38093E80008954B
:1019E0000E943C0B90E00895CF93DF931F92CDB7F8
:1019F000DEB7FC018485958597FD08C02FEF3FEF8A
:101A0000358724870F90DF91CF910895CE010196FD
:101A10000E94120B019719F4898190E0F3CF8FEFA8
:101A20009FEFF0CF0F931F93CF93DF931F92CDB70C
:101A3000DEB78C01FC018485958597FF0BC0CE0134
:101A400001960E94120B019771F4898190E0F801D0
:101A500095878487F801848595850F90DF91CF91D4
:101A60001F910F9108958FEF9FEFF1CFFC018485B7
:101A7000958597FD0BC09FB7F89482E08093E900AD
:101A80008091F2009FBF90E0019608959FB7F8946F
:101A900082E08093E9008091F2009FBF90E008957A
:101AA0004F925F926F927F928F929F92AF92BF926E
:101AB000CF92DF92EF92FF920F931F93CF93DF931A
:101AC0004C015901FC2DC02FD0E0CE01880D991D8D
:101AD000181619060CF06CC020E8821691040CF060
:101AE00067C09B012E0D311D121613060CF060C04D
:101AF000603471050CF05CC04115510509F458C003
:101B0000E62FE770FE2EDB0177FD179633E0B595E3
:101B1000A7953A95E1F73A2F77FF04C0FF2011F01F
:101B20003FEF3A0F662777276819790997FC02C0BB
:101B300070E060E0803891050CF44BC090E8981993
:101B4000961BA32F032E000CBB0B1A2F10953F3FA3
:101B50000CF010E021E08E2D877009F420E0E6946F
:101B6000E694E694E20EAE0DB11D19971CF028E044
:101B7000E22EE31AE11A310F20E83203D0011124DA
:101B8000A80DB91DA60FB71F019F600D711D11246F
:101B9000460F571F0F2D0F2C000C110BF33009F4BB
:101BA0001CC1C8F4F13009F4D0C0F23009F47CC093
:101BB000DF91CF911F910F91FF90EF90DF90CF9029
:101BC000BF90AF909F908F907F906F905F904F905D
:101BD0000895902FB5CFFA3FB1F1232F2E0DFB3F83
:101BE00039F7321729F3BD01625C7D4FD12CC12C2E
:101BF000C91608F0A4C0FA01EC0DFD1DE491F0E057
:101C00004F01002E02C0880C991C0A94E2F737FDA0
:101C100006C0FB018081E82CE0948E218083FF20A8
:101C200061F0373054F45B01F0E8AF0EB11CE92CE1
:101C3000E094F50180818E218083FFEFCF1ADF0AC7
:101C40006F5F7F4FD5CF232F2E0D321709F4B0CF02
:101C5000BD01625C7D4FD12CC12CC91608F069C052
:101C6000FA01EC0DFD1DE491F0E04F01002E02C0E1
:101C7000880C991C0A94E2F737FD04C0FB018081AF
:101C800088298083FF2051F0373044F45B01F0E86D
:101C9000AF0EB11CF501808189298083FFEFCF1A37
:101CA000DF0A6F5F7F4FD9CF6FEF70E00F2C02C05C
:101CB000660F771F0A94E2F760957095772E232FB1
:101CC0002E0D321709F474CFFD01E25CFD4F6F0158
:101CD000B12CA12CA91638F5FA01EA0DFB1DE491EF
:101CE000F0E02F01002E02C0440C551C0A94E2F7CC
:101CF00037FD05C0F6018081862384298083FF207B
:101D000059F037304CF44601F0E88F0E911CF40185
:101D10008081872185298083FFEFAF1ABF0A8FEF6B
:101D2000C81AD80AD7CF3F5F4C0F5D1FA058BF4FCE
:101D3000C8CF3F5F4C0F5D1FA058BF4F86CF3F5F9E
:101D40004C0F5D1FA058BF4F4CCF6A0D7B1D232F3A
:101D50002E0D321709F42CCFFD01E25CFD4F6F010F
:101D6000B12CA12CA91688F5FB01EA0DFB1D84906E
:101D7000912C002E02C0880C991C0A94E2F78094E2
:101D80009094FA01EA0DFB1D6490712C002E02C0A4
:101D9000660C771C0A94E2F737FD05C0F6018081D6
:101DA000882186298083FF2049F037303CF4F601F2
:101DB000E058FF4F8081892187298083FFEFAF1A88
:101DC000BF0A8FEFC81AD80ACDCF3F5F4C0F5D1FF7
:101DD0006C0F7D1FA058BF4FBCCFC92ED12CFA016C
:101DE000E60FF71FA25CBD4F00E810E00C191D09BB
:101DF000CC19DD09BE01660F771F41E050E06A0192
:101E00000F2C01C0CC0C0A94EAF7592F2E2D792EF5
:101E1000CF93DF93ED01EF96EF9622968590A590F4
:101E2000FF2059F08C9C4001AC9C500137302CF4C1
:101E3000E880B094EB20E928E99233233AF0EC9063
:101E4000A094EA20E828ED920C94270F11965A9559
:101E500029F72A9551F0572D33951124E60FF11DDE
:101E6000A00FB11DC00FD11DD9CFDF91CF9111248B
:101E70009FCECF92EF920F934115510561F0FA0179
:101E800004913196E4904E5F5F4F22E0C22E30E025
:101E900020E00E94500D0F91EF90CF900895CF92C7
:101EA000EF920F93FA0104913196E4904E5F5F4FE9
:101EB0002BEFC22E30E020E00E94500D0F91EF90EA
:101EC000CF900895CF92EF920F934115510569F18C
:101ED000FA0104913196E4904E5F5F4F2223F9F0AE
:101EE000A1E0B0E03E2D377011F4B0E0A0E0EE2D9F
:101EF000E695E695E695EA0FFB2FF11D0E9FD001C2
:101F00000F9FB00D112430E0220F331FA29FF0016C
:101F1000A39FF00DB29FF00D11244E0F5F1F23E021
:101F2000C22E30E020E00E94500D0F91EF90CF9034
:101F3000089590E00C94610B8FB18095807F669B33
:101F400088601C9B8460089590912402982329F452
:101F500090912502982381E009F480E00895CF93C1
:101F6000C82F0E949C0F982F9C2381E09C1380E037
:101F7000CF91089580E00C94030B80389105B8F45C
:101F800060347105A0F490E121E061FD24E060FD82
:101F9000220F62FD2295687F969FD0011124A80F21
:101FA000A25CBD4F0C90022A40FF02260C920895BD
:101FB0008F929F92AF92BF92CF92DF92EF92FF9259
:101FC0000F931F93CF93DF936D3089F0C09022025F
:101FD000D09023026A30D1F4109221021092200294
:101FE00088E0C80ED11CD0922302C092220281E068
:101FF00090E0DF91CF911F910F91FF90EF90DF90D4
:10200000CF90BF90AF909F908F9008950091200245
:1020100010912102E5E06E9FE0011124CE51DF4FC7
:102020004801F12CF5E0E12CFF1629F0CE010196D4
:10203000FE01E490EC01B12CA12C4E2D4170B601B3
:102040006A0D7B1DC4010E94BD0FE694FFEFAF1A1D
:10205000BF0A88E0A816B10481F7F394EFEF8E1A57
:102060009E0AF6E0FF12DECF0A5F1F4F1093210297
:1020700000932002BCCF8F929F92AF92BF92CF92DB
:10208000DF92EF92FF920F93CF93DF935B01EC010E
:102090004C01840E911C6B01C20ED11CC815D905D0
:1020A000D4F47501B7FE02C0F12CE12CC60121E485
:1020B000C216D10414F080E490E0E816F9064CF45E
:1020C000402FB701CE010E94BD0F8FEFE81AF80A2A
:1020D000EDCF2196E3CFDF91CF910F91FF90EF905D
:1020E000DF90CF90BF90AF909F908F9008958A30EF
:1020F00040F5E82FF0E0E158FF4E0C942F23A2109A
:102100008910A5108C108F109210951098109B10AC
:102110009E1086ED90E008958AEC90E0089584EC9E
:1021200090E008958EEB90E0089588EB90E008959C
:1021300082EB90E008958CEA90E008958DE29CE0B7
:10214000089508958CED90E0089580ED90E0089555
:10215000089590E080E00895FB0101900020E9F7E8
:102160003197AF01461B570BDC01ED91FC910280CA
:10217000F381E02D09948F929F92AF92BF92EF92DC
:10218000FF920F931F93CF93DF93CDB7DEB7A19745
:102190000FB6F894DEBF0FBECDBF7C01FA01CB01B4
:1021A00019A2223008F42AE08E010F5D1F4F822E03
:1021B000912CB12CA12CBF01A50194010E94EA220F
:1021C000F901CA016A300CF5605DD8016E938D018A
:1021D000232B242B252B79F790E080E0109721F01A
:1021E000BD01C7010E94AC10A1960FB6F894DEBFE6
:1021F0000FBECDBFDF91CF911F910F91FF90EF9058
:10220000BF90AF909F908F900895695CDECFCF9282
:10221000DF92EF92FF92CF93DF936B017C016DE22F
:1022200082E39AE00E94D80FEC0144275527BA01B7
:102230004C195D096E097F092AE082E39AE00E9449
:10224000BB108C0F9D1FDF91CF91FF90EF90DF901F
:10225000CF9008950F920FB68F939F93EF93FF93B4
:10226000809127028D5F8D3708F08D57809327026C
:10227000E8E2F2E080818E4F808391819F4F9183CD
:1022800082818F4F828383818F4F8383ECE2F2E0E0
:1022900080818F5F808381818F4F818382818F4F87
:1022A000828383818F4F83838FB18F6066991C9B5C
:1022B00088278F3681F480912602981B963068F02B
:1022C000E0E0F8E087E78083818388E18093600025
:1022D000F0936000FFCF90932602FF91EF919F91C2
:1022E0008F910FBE0F9018951F920F920FB60F92FD
:1022F00011248F939F938091E1009091E100937F4F
:102300009093E10083FF0FC01092E90091E0909359
:10231000EB001092EC0092E39093ED0010923D02DE
:1023200098E09093F00082FF22C093E09093E90040
:102330009091F200992319F09AE39093E80090911C
:102340000102992341F09091010291509093010272
:10235000911101C05D9A90913C02992341F09091B6
:102360003C02915090933C02911101C0289A84FF45
:1023700018C08091E2008E7E81608093E20080919F
:10238000E1008F7E8093E100809102028E7E806169
:10239000809302029F918F910F900FBE0F901F901C
:1023A000189580FFF7CF8091E2008E7E8061809348
:1023B000E2008091E1008E7E8093E1008091020234
:1023C0008E7E8160E5CF1F920F920FB60F9211247F
:1023D000CF92DF92EF92FF920F931F932F933F9331
:1023E0004F935F936F937F938F939F93AF93BF931D
:1023F000EF93FF93CF93DF93CDB7DEB76C97DEBF3C
:10240000CDBF1092E9008091E80083FF25C068E00D
:10241000CE0145960E94120C82EF8093E8008D89D0
:1024200087FF39C09091E80090FFFCCF982F9076FD
:1024300009F034C19E894F89588D2F89F88C9111EC
:1024400031C0803861F5809103028093F1001092D1
:10245000F1008EEF8093E8006C960FB6F894DEBF23
:102460000FBECDBFDF91CF91FF91EF91BF91AF91A3
:102470009F918F917F916F915F914F913F912F919C
:102480001F910F91FF90EF90DF90CF900F900FBEB4
:102490000F901F9018959EEF9093E800C7CF109271
:1024A000F100D5CF913059F48111D3CF413051058E
:1024B00081F6809103028D7F80930302CACF93300F
:1024C00049F48111C6CF4130510519F680910302BC
:1024D0008260F2CF953041F48091E80080FFFCCF1C
:1024E00020682093E300B5CF963009F0A9C00B8D8A
:1024F0001C8D22E01092E9001092FF011092FE0163
:10250000F2122EC01092FD011092FC010E94E10B0C
:102510001F8299E09983FA8291E09E8390EA9887DE
:102520009AEF99872091FE013091FF01275F3F4F7D
:102530003C832B838D831092E9001092FF0110924F
:10254000FE011093FD010093FC0149E050E0BE0143
:102550006F5F7F4F80E00E94BB0B0E94E10B79CF41
:102560001093FD010093FC010E944D0BDC011296BB
:102570000D911C910115110509F451C1D801ED917E
:10258000FC910480F581E02DBE016B5E7F4FC80198
:102590000995009709F03EC1F80100851185EACF41
:1025A000F3E0FF120EC08F89882309F440C0823007
:1025B00061F440E867E086E496E00E94151481111A
:1025C00048CF81E28093EB0047CF813029F440E887
:1025D0006BE08AE396E0F1CF833099F70E944D0BD0
:1025E000DC011296ED90FC908E010F5F1F4F680189
:1025F000E114F10479F0D701ED91FC910680F781A7
:10260000E02DB801C7010995080F111DF701E084FD
:10261000F184EECFD8011C92F60101900020E9F779
:102620003197BF016C197D0940E0C601C6CF64E255
:1026300076E0FB01449150E080E80E94BB0B09CF9B
:10264000973009F4BECF983021F481E08093F100F7
:1026500000CF993009F0FDCE837009F0B2CFE4ECE1
:10266000F1E081E031E096E32191222371F0809343
:10267000E9003093EB00DF0111972C912093EC00DF
:102680009093ED008F5F873079F78EE78093EA00B3
:102690001092EA008F8980933D02DBCE8B8D9C8D5A
:1026A0001092E9001092FF011092FE019093FD013B
:1026B0008093FC01898D811192C08E899D89913A08
:1026C00049F4813209F07DCF47E050E064E071E0E9
:1026D00080E0B3CF913209F074CF833269F48F89EF
:1026E000988DB0E0A0E08093000190930101A09349
:1026F0000201B0930301ADCE803269F48091E8000D
:1027000082FFFCCF67E084E091E00E94120C8BEF27
:102710008093E8009ECE823209F09BCE8F89809311
:102720000B01EEEFFFE7859194918B3F9C4D51F1AA
:10273000E0E0F8E08091040190910501A09106018C
:10274000B0910701803B9440A105B105F1F480915F
:102750000B0180FD1AC0EE3F8AE0F80789F587E794
:1027600097E791838083809160008093000288E1E5
:102770009BE00FB6F894A895809360000FBE9093ED
:10278000600067CEEEEFFAE0D5CF80819181873788
:10279000974709F05ECEA89580916000886180938C
:1027A00060008091000280936000EE3F2AE0F20713
:1027B00089F08091FE0A9091FF0A9183808349CE2F
:1027C000808191818737980751F29093FF0A809317
:1027D000FE0AC5CF1092FF0A1092FE0A3ACE0E945E
:1027E0004D0BDC0112960D911C910115110509F498
:1027F000E8CED801ED91FC910190F081E02DBE0171
:102800006B5E7F4FC8010995811123CEF8010085C9
:102810001185EBCF181619060CF41BCED2CEF1E0C1
:10282000FF12BECE68E276E004CFEF92FF920F93E4
:102830001F93CF93DF93F82E192FE62E042F81E0FC
:10284000860F880F0E948D0B83E00E948D0BCF2D89
:10285000D12FEC0EFD2EF11CCE15DF05B9F007FFD0
:1028600013C0FE0184910E948D0B182F80E00E94FE
:102870008D0B812321968111EFCFDF91CF911F9195
:102880000F91FF90EF9008958881EDCF81E0F5CF13
:102890000F931F93CF93109241061092400688EE3B
:1028A00093E0A0E0B0E08093420690934306A093AB
:1028B0004406B09345068EEC91E090933F068093DA
:1028C0003E068FEF9FEF90934B0680934A0682E37C
:1028D0009AE01092350A1092340A20EE31E03093DB
:1028E000330A2093320A90931B0A80931A0A2EE926
:1028F00035E130931D0A20931C0A2AE030E0309322
:102900001F0A20931E0A2CE130E03093210A209305
:10291000200A20EC31E03093230A2093220A1092FF
:10292000240A20E12093250A1092260A9093280A6F
:102930008093270A8AEE8093290A80932A0A1092AC
:102940002D0A10922E0A10922F0A1092300A81E05E
:102950008093310AEAE0F9E0AAE1BAE068EC70E0BD
:1029600054E647E098E02EE835E1B183A083738315
:10297000628354834583968330872783118612862A
:10298000138614861586168687877096CAE0EA3104
:10299000FC0759F702E31AE01093FB060093FA06CE
:1029A0002AE039E03093FD062093FC0620E231E076
:1029B0003093FF062093FE068093000710920109D2
:1029C00010920209C2E0C093030994E090930409B5
:1029D00080930509809306091092070981E180938D
:1029E00008099093090940E052E06EE873E181E044
:1029F00097E00E9495221093900600938F068EE830
:102A000096E0909392068093910686E180939306D8
:102A1000C0939406109296061092950686E08093D5
:102A20009706109298061092990680E6EBE5F1E081
:102A3000AAE9B6E001900D928A95E1F7CF911F9136
:102A40000F910895CDB7DEB76497DEBFCDBF789400
:102A500083E084BD83E085BD81E080936E00E1E882
:102A6000F0E083E08083E0E881E08083E1E983E0D7
:102A70008083E0E981E08083E1EC87E08083E3EC20
:102A800081E08083E0EC82E08083E2EC81E080837F
:102A9000EAE787E080838068808310923D0210928D
:102AA0000302109202028091D70081608093D700C8
:102AB00080EA8093D80089B5806189BD89B582603C
:102AC00089BD09B400FEFDCF81E090E00E94610B5A
:102AD0008091D8008F7C80618093D8008091E00045
:102AE000807F8093E0008091E1008E7E8093E10002
:102AF0008DE08093E200559A209A81EC80937C00CF
:102B000081EF85B987EE84B984E38BB984EF8AB904
:102B1000769A6E9880EF81BB10BA80E58CBD81E01B
:102B20008DBD85E00E94990F5F9A85E00E94990F04
:102B30005C98EEEFF6E085918EBD00000DB407FEC7
:102B4000FDCFEB30C1F75C9A81E88093640081E0AF
:102B5000809365000E94BA0F80E80E94AF0F88231F
:102B6000A9F05C9885EA8EBD00000DB407FEFDCF8C
:102B70005C9A2E982F982D988091640080628093A3
:102B8000640081E083BF889513BEFCCF84E00E947F
:102B9000AF0F8823B9F12D9884E80E94AF0F8823E6
:102BA000A1F02D9A88EC0E94990F2F986FEF82E088
:102BB00090E00E94A62284EF91E00E94610B2F9A80
:102BC00084E80E94AF0F8111FBCF84E10E94AF0F18
:102BD0008823A1F02D9A88EC0E94990F2E9860E02E
:102BE00082E090E00E94A62284EF91E00E94610BB7
:102BF0002E9A84E10E94AF0F8111FBCF88EC0E94D6
:102C0000990FC4CF2D9A82E090E00E949E228823E3
:102C100009F471C03E9A3F9A81E090E00E949E22A2
:102C2000082F0470D02E81FF0CC001112E9801EFE7
:102C30001FEF80E40E94AF0F882309F45FC02E9A33
:102C40002F9A82E30E94990F0E949C0F8111F9CF65
:102C500080E180931F01809164008E7F80936400E7
:102C600080917A00806480937A0080917A0086FD5A
:102C7000FCCF00917800109179000E94750BAB0198
:102C8000BC01C801B0E0A0E0DC01992788278C01D5
:102C90009D01040F151F261F371FC901B801209180
:102CA0006400216020936400611571058105910520
:102CB00011F00E948C2283E0809315018FEF9FEF2B
:102CC00090934B0680934A069091280280910702C8
:102CD000192F181B812F10910602112309F4AEC081
:102CE00080931F021092060280E090E0892B61F32E
:102CF0000E940000E9CF3E983F988ECFDD2029F05A
:102D00000430110511F42E9A2F9881E00E94030BD4
:102D1000202F2770C22E9801F3E035952795FA955C
:102D2000E1F7C9019695982F882797958795825C3A
:102D30009D4F70E060E02E3F4FEF340781F17C0142
:102D400054E9E50EF11CDC0150E040E0FB01E25BE0
:102D5000F94F5F01F501E40FF51FE491F0E03F0149
:102D60000C2C02C0660C771C0A94E2F72F3F320746
:102D700039F054969C905497962854969C92549768
:102D8000CC2021F0F7019080972890824F5F5F4F11
:102D9000FFEFEF1AFF0A119648355105D9F62F5F5C
:102DA0003F4F80589F4F685A7F4F603B710509F035
:102DB000C2CF0E94BA0F8FE00E94990F0F5F1F4F82
:102DC0000931110509F035CFDD2011F02F9A2D982A
:102DD00080E991E00E94610B2D9A81E090E00E94D1
:102DE0009E2280FF2ECF8AE090E00E949E229FEFDD
:102DF000980F9E3F08F025CF22E330E03093210268
:102E00002093200228E330E0309323022093220213
:102E10000AE010E0682F82E39AE00E94D80F0F5F6B
:102E20001F4FC8010E949E220031110599F70E9490
:102E3000BA0F88EE93E00E94610B03CF20911F012F
:102E4000821748F48F5F821708F04ECF81E083BF6E
:102E5000889513BE49CF81E08093060290930702C4
:102E6000E4E0F2E0808191810196808391838091FA
:102E70002502809324020E949C0F80932502EEE39A
:102E8000F2E011111FEF8FEF119311931193119332
:102E90008150D0F710922302109222021092210248
:102EA0001092200210918E06113009F4A3C258F03E
:102EB000143011F40C94D221173011F40C94E32146
:102EC0000E94BA0F11CF8091980681113EC1609186
:102ED000940670E08091930642E753E190E00E94EF
:102EE000390F6091940670E08091930690E046E57A
:102EF00053E10E960E94390F6091940670E0809124
:102F0000930690E04AE353E14C960E94390F60919A
:102F1000940670E08091930690E046E153E18A9632
:102F20000E94390F6091940670E08091930690E0C2
:102F30004EEF52E1CC960E94390F6091940670E0FA
:102F40008091930690E042E753E1885B9F4F0E9497
:102F5000390F6091940670E0615F7F4F8091930616
:102F600090E042E753E101960E94390F6091940688
:102F700070E0615F7F4F8091930690E042EE52E1F6
:102F80000F960E94390F6091940670E0615F7F4F49
:102F90008091930690E046EC52E14D960E94390FE5
:102FA0006091940670E0615F7F4F8091930690E09E
:102FB0004AEA52E18B960E94390F6091940670E0C4
:102FC000615F7F4F8091930690E04EE852E1C99691
:102FD0000E94390F6091940670E0615F7F4F80918D
:102FE000930690E042E752E1895B9F4F0E94390FC0
:102FF0006091940670E0625E7F4F8091930690E04E
:1030000042E753E103960E94390F6091940670E005
:10301000625E7F4F8091930690E04EE852E14196C8
:103020000E94390F6091940670E0625E7F4F80913C
:10303000930690E04EEF52E14F960E94390F609157
:10304000940670E0625E7F4F8091930690E04AE3C1
:1030500053E18B960E94390F6091940670E0625E96
:103060007F4F8091930690E04EEF52E1C9960E9407
:10307000390F6091940670E0625E7F4F80919306F5
:1030800090E04AE353E18B5B9F4F0E94390F6091C0
:10309000970670E080919506909196060E941B23FA
:1030A000CB014CE051E164E370E091958195910989
:1030B0000E94390F6091970670E08091950690917B
:1030C00096060E941B239B014CE051E164E370E0F3
:1030D00082EB90E0821B930B0E94390F809198063F
:1030E0008111EFC08091950690919606019690937C
:1030F00096068093950620919706B2EB2B9F900140
:1031000011248217930724F01092960610929506C8
:1031100088E00E94A40F882319F081E0809398062C
:1031200080911F02F4E68F9FC001112460911F015E
:1031300070E00E941B23AB01770F660B770B2AE030
:1031400082E39AE00E94BB10BBCE813049F748EC85
:1031500050E165E170E085E390E00E94390F8091D5
:103160009906813009F485C008F479C0823009F4E9
:1031700088C0833009F48BC020E046E75EE068EF4A
:103180007FEF84EF9FEF0E94620F20E046E75EE052
:1031900068EF7FEF82E490E00E94620F20E046E754
:1031A0005EE06BE270E084EF9FEF0E94620F20E030
:1031B00046E75EE06BE270E082E490E00E94620F1E
:1031C0008091990643E55EE066E070E0811165C09C
:1031D0008BE090E00E944F0F8091990647E35EE0FC
:1031E00066E070E0813009F05DC085E590E00E9406
:1031F0004F0F8091990646E05EE063E370E0823015
:1032000009F055C085E090E00E944F0F809199062B
:1032100045ED5DE063E370E0833009F04DC08BE481
:1032200090E00E944F0F0FE816E04FEEE42E46E0CC
:10323000F42ED8011D968C911D97882351F01C9671
:103240006C911C9770E01B968C9141E090E00E947D
:10325000BD0F0C5F1F4FE016F10659F73FCF01E09D
:1032600021E14AE370E060E090E080E00E943B10E2
:1032700083CF01E021E14AE370E060E086E490E082
:10328000F5CF01E021E14AE36FE270E0EDCF01E02C
:1032900021E14AE36FE270E0F1CF8BE090E00E9421
:1032A000390F9ACF85E590E00E94390FA2CF85E0D3
:1032B00090E00E94390FAACF8BE490E00E94390F72
:1032C000B2CF813009F02CCF0FE816E03FEEE32EAD
:1032D00036E0F32EF8018585882309F444C0815037
:1032E000858781110FC00E943D2224E030E040E03C
:1032F00050E00E94B8226D5F7F4F8F4F9F4FD801E3
:103300001E966C930C5F1F4FE016F10619F780E1D3
:103310000E94A40F811106C080E80E94A40F882398
:1033200009F447C08091990692E089278093990615
:1033300088E00E94A40F811106C084E00E94A40FBF
:10334000882309F4EDCE80919906813009F440C0BC
:1033500008F444C0823009F441C0833009F444C009
:1033600010929806DDCE86858823A1F0815086874D
:103370008111C8CF0E943D2220EF30E040E050E0B4
:103380000E94B82268597E4F8F4F9F4FD8011D96DB
:103390006C93B8CF0E943D2220EF30E040E050E037
:1033A0000E94B82268597E4F8F4F9F4FF801658762
:1033B000A9CF80E40E94A40F811106C080E20E9480
:1033C000A40F882309F4B4CF8091990691E0ADCF82
:1033D000E0919106F09192068083C2CFE091910630
:1033E000F091920681E0F8CFE0919106F09192067B
:1033F00084E0F2CF8091170281110CC00E943D221F
:103400002FE030E040E050E00E94B82260931602C6
:103410001093170280910007882309F463C080E2AB
:103420000E94AF0F882391F186E080930409809178
:103430000309815080930309811154C0EAEFF6E03B
:103440009185978392859087329608E0E83FF00750
:10345000B9F790E020910809921730F19BE0209194
:1034600009098217B0F5E091FE06F091FF06899FE9
:10347000E00DF11D11242781222331F020813181BB
:1034800021503109318320838F5FE9CF84E00E948E
:10349000AF0F8111C9CF80E40E94AF0F882311F0D4
:1034A00081E0C3CF82E0C1CF10E1919FF0011124F0
:1034B0002091FC063091FD06E20FF31F23852223A5
:1034C00031F02281338121503109338322839F5F80
:1034D000C1CF809102098F5F809302098091040916
:1034E000809303098091020987FFC1C188E0EBEB5B
:1034F000F1E0DE01119601900D928A95E1F780913D
:1035000001098F5F809301090FEF17E088E0C82E53
:10351000D12CE12CF12C93E0B92EAA24A3942FE313
:10352000922E0E943D22A70196010E94B82221E01E
:1035300030E02C0F3D1F620F731FDB018C919091C7
:103540000509890F809305090E943D22A701960174
:103550000E94B822E1E0F0E0EC0FFD1F6E0F7F1F2C
:10356000DB018C9190910609890F80930609909157
:10357000050919160CF4C1C0A0920509181644F0EB
:10358000A092060980910509843014F0B0920509D3
:1035900080910609843014F0B092060990910509D3
:1035A00080910609890FB92DB81BF8019083B1836A
:1035B0000E5F1F4FF9E001301F0709F0B2CFFCE0AA
:1035C0002F2EF1E03F2E8101A8E0CA2ED12CE12C54
:1035D000F12CB8E04B2E512C612C712C0E943D2215
:1035E000D801BC90A70196010E94B822A3019201C4
:1035F0002C193D094E095F09620F731F841F951F27
:10360000E62FF0E0E45FFE4F8081D8018D938D01BD
:10361000B082B1E0CB1AD108E108F108E1E0CE16A2
:10362000D104E104F104D1F60CE011E0D8014D9190
:103630008D0150E070E060E02AE08EE396E00E94A9
:10364000BB1068EE71E08EE396E00E94AC10B1E032
:1036500003311B0759F76CEE71E08EE396E00E9490
:10366000AC106AEE71E08EE396E00E94AC106CEE56
:1036700071E08EE396E00E94AC106AEE71E08EE39A
:1036800096E00E94AC10E3E06E2E442443949091A7
:1036900008092091FC063091FD0680E0981709F496
:1036A0006FC08901205F3F4FF80143854111A5C0DC
:1036B0004581D1018C91885F8295807F90E0FC01EB
:1036C000EE0FFF1FE650F94F60E0712C70E4572EAB
:1036D000C52CD12C4617A9F05781751608F4752E04
:1036E0007085A52FA70FBB27BB1FAC15BD0514F414
:1036F000552E570E6F5F3296EBCF18160CF442CF53
:103700003FCFF801938382838681C81AD108F5E000
:10371000CF1AD1080D2C000CEE08FF08872C912C35
:1037200025E0820E911C092C000CAA08BB088C1401
:103730009D04AE04BF048CF4C818D908EA08FB083D
:1037400041F00E943D22A70196010E94B8226B0120
:103750007C018C0C9D1CAE1CBF1CD80114968C9255
:10376000149719967C9219971A965C921A971B9641
:103770004C921B971C961C921C97EFEF1F96EC9394
:103780006A94FFEF2F1A3F0A611081CF80910109DF
:1037900080FD6BC00091FE061091FF0630E020E036
:1037A000D80117968C911797811194C013968C911C
:1037B000245F3E4FD901EC91E85FE295E07FF0E0B5
:1037C000EE0FFF1FE650F94F40E0712C50E4652EDC
:1037D000C62CD12C841799F09781791608F4792E8C
:1037E0005085692F650F7727771F6C157D0514F4B9
:1037F000692E650E4F5F3296EBCF8F5F4FCF809172
:103800000F0190E0089634E0880F991F3A95E1F790
:10381000D80111969C938E9314968C91C81AD10856
:103820000D2C000CEE08FF08872C912CB12CA12C3C
:103830008C149D04AE04BF048CF4C818D908EA089F
:10384000FB0841F00E943D22A70196010E94B82288
:103850006B017C018C0C9D1CAE1CBF1CF80182828C
:103860007582668281E0878310861092020980E06B
:103870004EED50E06EED7FEF91E020910809821748
:1038800008F059C000E1809FF00111242091FC064E
:103890003091FD06E20FF31F2385222309F449C06E
:1038A00022813381273F1FEF3107ECF4958714867F
:1038B000248521111EC0258521112DC0A081B18133
:1038C000148116962D913C911217130608F49787D0
:1038D00094870CC02F5F3F4F055F1F4F2430310589
:1038E00009F05ECFC2CF2833310514F3248522239B
:1038F00091F0A48121852A1708F0978726812A0F45
:103900003327331FB285B217130609F00CF47787FB
:1039100027852A0F24832585222359F026852F5FAA
:1039200026872A3034F053834283648315861386B6
:1039300016868F5FA2CF80E09BE02EED30E06EED2B
:10394000409109098417B0F4E091FE06F091FF065A
:10395000899FE00DF11D11244781442349F04081E6
:103960005181473F5F4F24F4318320836283178264
:103970008F5FE6CF80912D0A8823E1F08091290A9C
:1039800090912C0A913009F44DC20CF040C2825043
:10399000992309F44CC28091290A87FD04C08091C3
:1039A0002A0A843438F010922D0A8AEE8093290A6C
:1039B00080932A0A80912F0A882309F43BC28091C0
:1039C000300A8F5F8093300A843154F082E491E0B2
:1039D00090931F0A80931E0A9093210A8093200AD5
:1039E0008FB7F894409128025091290260912A02E1
:1039F00070912B028FBF8091180190911901A091B5
:103A00001A01B0911B018A019B01081B190B2A0B9B
:103A10003B0BD901C801843E9240A105B10598F045
:103A200080911E01882379F080911C0118161CF4E6
:103A3000815080931C0140931801509319016093A9
:103A40001A0170931B0130912D0A80900902909009
:103A50000A02A0900B02B0900C02009111020A8B96
:103A600010911002198B00910F020B8B60910E02C6
:103A700070900D0240901E0A50901F0A8201085F4C
:103A80001F4F1E870D872090200A3090210A810148
:103A9000085F1F4F188B0F87109100071C876090DD
:103AA000310A00911C0A10911D0A1A870987E090BB
:103AB0001E01109108021B87F090150100918E06DF
:103AC0000C8B0AE019E08091290A90E0D801129647
:103AD000CD90DC901397AC014D5F5F4F4C155D05A9
:103AE0000CF46AC015964C9115974C0D5D2D511D27
:103AF000481759070CF460C020912A0A14969C912B
:103B00001497291708F458C016968C911697890FA8
:103B10009927991F2817190611F00CF04DC0E1E004
:103B20001D96EC931D971C961C92FAEEF093290AB1
:103B3000F0932A0A29E1820E911CA11CB11CC50137
:103B4000B40120E137E240E050E00E94EA222A8BF3
:103B5000C501B40128EE33E040E050E00E94EA22C3
:103B6000CA01B9012AE030E040E050E00E94EA22B8
:103B7000698BC501B40124E630E040E050E00E94CA
:103B8000EA22CA01B9012AE030E040E050E00E9498
:103B9000EA226B8BC501B4012AE030E040E050E03E
:103BA0000E94EA22762ECA01B9012AE030E040E004
:103BB00050E00E94EA2230E04D855E854C155D059F
:103BC000C8F1D80115968C911597C80ED11CC41454
:103BD000D50480F114968C91149790E0EF85F889C4
:103BE000E817F90738F116962C911697820F911D58
:103BF00082159305F8F01D968C911D9781111AC0BE
:103C000080912F0A811116C0F1E0F0932F0A21E074
:103C10001D962C931D971C961C921F140CF089C1A5
:103C2000FA94612C1C86E12C41E04B878BE09DE0EF
:103C30009A878987005F1F4F4AE15AE04017510772
:103C400009F041CF30932D0A8092090290920A0226
:103C5000A0920B02B0920C020A89009311021989FA
:103C6000109310020B8900930F0260930E02709262
:103C70000D021C85109300076092310A09851A8590
:103C800010931D0A00931C0A1B8510930802F092E2
:103C900015010C8900938E0640912F0AA0E2B1E035
:103CA00027E531E0FD01808191810D851E85081792
:103CB0001907B0F05381850F911D8415950580F08B
:103CC000828190E00F8518890817190748F0548100
:103CD000850F911D8215930518F08185882321F0A9
:103CE000411102C0EE24E3943B962E173F07D9F60C
:103CF00090911D0180911C012D913C9111970D8592
:103D00001E850217130740F113965C911397250F38
:103D1000311D2415350500F112962C91129730E0D3
:103D20000F85188902171307B8F014965C91149741
:103D3000250F311D2215330578F019962C9119970E
:103D400021110AC019160CF404C18F5F8F320CF4D4
:103D5000FCC08EE2E12C9CE01B96EA17FB0761F6A3
:103D6000E0921E0190931D0180931C011816BCF077
:103D7000411115C01092000781E080932F0A109224
:103D8000310A8BE09DE090931D0A80931C0A1092EB
:103D90001E011F140CF4E0C087E080938E06809112
:103DA0001401882309F4C8C14AEF56E030E020E04E
:103DB000EE24EA9468E070E00FEF10E0DA01179665
:103DC0008C9117971896EC91F82EFE0EE82FE69539
:103DD000E695E695E1508770B82EEF3F09F4C0C034
:103DE000F0E0CE2E0E2E000CDD08AF2FB0E0CA168C
:103DF000DB060CF4B5C0B695BA2FAA27B795A795E0
:103E0000A20FB31FA25CBD4FEC92FF5FEECF9230CA
:103E100069F080912A0A8250933009F0BCCD8093DA
:103E20002A0AB9CD80912A0A8E5FF9CF8E5F8093DE
:103E3000290AB1CD8091310A882309F4D1CD80E8D7
:103E40000E94AF0F882319F08CEF8093260A0E94FE
:103E50009C0F87FD08C00E949C0F84FD04C0109237
:103E6000260A1092240A80E10E94AF0F882319F0DD
:103E700084E08093260A8091240A9091260A890F73
:103E80008093240A4091250A642F042E000C770B9E
:103E90002091220A3091230A481794F5260F371FE4
:103EA0003093230A2093220A4093240A8091220A05
:103EB0009091230A97FD0F9624E0959587952A9572
:103EC000E1F79093210A8093200A88E00E94AF0FC7
:103ED000882309F485CD80912D0A811181CD8091AF
:103EE0001E0A8B5F8093290A8091200A8D5F809340
:103EF0002A0A81E080932D0A82E080932C0A70CDFB
:103F0000082E000C990BEE27FF27E61BF70B8E17E8
:103F10009F0744F4261B370B3093230A2093220A71
:103F20004195C2CF820F931F9093230A8093220A58
:103F3000BDCF612C1C86E12C97E09C8BA1E0AB8768
:103F4000EBE0FDE0FA87E98775CE87FF03CF80E0DD
:103F500001CF9150E12C00CFFA94F09215011FCFC0
:103F6000BB20B9F00E2E000CFF0B3196F695FE2FFC
:103F7000EE27F795E795E20FF31FE25CFD4FCB01CB
:103F80008B199109D80102C0B595A7958A95E2F7DA
:103F9000A083FF2DF695F695F695EF2DE7708F2F00
:103FA00090E05C01B694BA2CAA24B794A794A20E10
:103FB000B31ED12CC12CAF2FAC0DA83078F4D60194
:103FC000B695BA2FAA27B795A795AA0DBB1DA25CD7
:103FD000BD4FEC92BFEFCB1ADB0AEDCFEE23B9F069
:103FE000DB01AE1BB109FD01D80102C0B595A79553
:103FF000EA95E2F7FD01DC01B695BA2FAA27B7953D
:10400000A795A20FB31FA25CBD4FE095EC932F5F65
:104010003F4F4E5F5F4F2F37310509F0CFCE10E095
:1040200080910809181710F5B0E11B9FF0011124C9
:104030008091FC069091FD06E80FF91F8385882387
:1040400079F0648170E0828193812585222351F08B
:10405000268527FD2F5F25954DE15BE00E94620FCD
:104060001F5FDECF4781508520E0F8CF10E00BE0E6
:10407000809109091817A8F4E091FE06F091FF0657
:10408000109FE00DF11D11248781882341F062818A
:1040900070E04DE05BE0808191810E94390F1F5FED
:1040A000E7CF86E490E09093210280932002109263
:1040B0002302109222026DEE71E08091FA06909137
:1040C000FB060E94AC104091010950E070E060E0F6
:1040D0002AE08091FA069091FB060E94BB10209185
:1040E0002F0A40911C0A50911D0A6091200A70917C
:1040F000210A80911E0A90911F0A222309F4F8C018
:104100002091300A27FD2D5F259525950E94620F8D
:1041100060912A0A062E000C770B8091290A082E3E
:10412000000C990B20912B0A01E0222309F4E2C034
:1041300023E041E00E943B1080911C0115E3181B15
:10414000163308F015E343EF5BE070E060E090E0C9
:1041500080E00E94390F173008F417E0612F70E0FB
:1041600020E047EE5BE090E080E00E94620F00E01C
:1041700020E447E070E060E089E790E00E943B10B7
:1041800010E000E041E0B80189E790E00E94BD0F37
:104190000F5F1F4F00341105A9F7109115014091D1
:1041A000090250910A0260910B0270910C024A3090
:1041B000510561057105C8F081E080931202443613
:1041C00051056105710588F080931302483EE3E0D4
:1041D0005E076105710548F0809314024031574233
:1041E0006105710510F08093150280910D020E9407
:1041F0007710AC0168E370E08BE790E00E94390F24
:1042000080911202882359F080910E020E9477104B
:10421000AC0160E370E08BE790E00E94390F809181
:104220001302882359F080910F020E947710AC018D
:1042300068E270E08BE790E00E94390F80911402F1
:10424000882359F0809110020E947710AC0160E23F
:1042500070E08BE790E00E94390F8091150288236F
:1042600059F0809111020E947710AC0168E170E072
:104270008BE790E00E94390F43E35CE061E070E07F
:104280008BE790E00E94390F4DE25CE0193020F49A
:10429000812F0E947710AC0167E070E08BE790E01F
:1042A0000E94390F80910802882339F0809114010F
:1042B000882319F18150809314018AE090E0909353
:1042C0002102809320021092230210922202409138
:1042D0001501042E000C550B660B770B77FD02C001
:1042E0000C949F18CB01BA010E9407110C9460171F
:1042F00020E00CCF21E043E01DCF009116028BE1BE
:1043000090E090932102809320028CE190E09093C2
:10431000230280932202063191F587E080938E0676
:1043200088E00E94A40F811105C084E00E94A40FC0
:10433000882319F281E0809300071092300A1092CE
:104340002F0A8093310A8EE995E190931D0A80939C
:104350001C0A8AE090E090931F0A80931E0A109234
:10436000080288E7809314010E943D222FE030E08C
:1043700040E050E00E94B822609316029ECF2EE0EB
:10438000029F80011124075C134FF801649166239A
:1043900039F282E39AE00E94D80F0F5F1F4F892BFA
:1043A000A1F7BECF4BE057E070E060E090E080E026
:1043B0000E94390F88E00E94A40F882359F01092C0
:1043C0008E060C94601761EF71E082E39AE00E9420
:1043D000AC10F0CF84E00E94A40F8111F0CF0C94B8
:1043E00060178F929F92AF92BF92CF92DF92EF921F
:1043F000FF92CF93DF93EC01688179818A819B8161
:10440000611571058105910521F464E279ED8BE573
:1044100097E02DE133EF41E050E00E94B8224901DE
:104420005A019B01AC01A7EAB1E40E94D7226B01BB
:104430007C01ACEEB4EFA50194010E94E522C60E0A
:10444000D71EE81EF91EF7FE06C081E0C81AD10883
:10445000E10880E8F80AC882D982EA82FB82C701B3
:10446000B6019F77DF91CF91FF90EF90DF90CF90D3
:10447000BF90AF909F908F9008958F929F92AF9230
:10448000BF92CF92DF92EF92FF92609157017091AD
:1044900058018091590190915A016115710581056A
:1044A000910521F464E279ED8BE597E02DE133EF9E
:1044B00041E050E00E94B82249015A019B01AC0141
:1044C000A7EAB1E40E94D7226B017C01ACEEB4EF05
:1044D000A50194010E94E522C60ED71EE81EF91E12
:1044E000F7FE06C081E0C81AD108E10880E8F80AA2
:1044F000C0925701D0925801E0925901F0925A01AE
:10450000C701B6019F77FF90EF90DF90CF90BF90EB
:10451000AF909F908F9008956093570170935801CA
:104520008093590190935A010895FB01DC0102C068
:1045300005900D9241505040D8F70895F999FECF5B
:1045400092BD81BDF89A992780B50895262FF999D3
:10455000FECF92BD81BDF89A019700B4021639F0E2
:104560001FBA20BD0FB6F894FA9AF99A0FBE0895B3
:10457000052E97FB1EF400940E94CF2257FD07D012
:104580000E94EA2207FC03D04EF40C94CF225095EF
:104590004095309521953F4F4F4F5F4F089590952F
:1045A0008095709561957F4F8F4F9F4F08950E9422
:1045B0000C23A59F900DB49F900DA49F800D911D7D
:1045C00011240895B7FF0C94D7220E94D722821B92
:1045D000930B0895A1E21A2EAA1BBB1BFD010DC06F
:1045E000AA1FBB1FEE1FFF1FA217B307E407F507A3
:1045F00020F0A21BB30BE40BF50B661F771F881F7F
:10460000991F1A9469F760957095809590959B0114
:10461000AC01BD01CF010895A29FB001B39FC001BD
:10462000A39F700D811D1124911DB29F700D811DDE
:104630001124911D089597FB072E16F4009407D0BE
:1046400077FD09D00E94352307FC05D03EF49095F4
:1046500081959F4F0895709561957F4F0895EE0F56
:10466000FF1F0590F491E02D0994AA1BBB1B51E19B
:1046700007C0AA1FBB1FA617B70710F0A61BB70BD2
:10468000881F991F5A95A9F780959095BC01CD0177
:064690000895F894FFCF2D
:10469600FFFFFFFF00E10000000000000001020331
:1046A600040706057803DEDE00000000320A01106A
:1046B600DE00DE0E08000000000000DE00DE0E0850
:1046C600000000000000DE00DE0E08000000000012
:1046D60000DE00DE0E08000000000000DE00DE0E38
:1046E6000800000000000001000000061A00000893
:1046F600250000122000001E1800001D24000024C2
:104706002100002D2500002C1C0000311800003D62
:1047160012000041100000402F0000502400004FFE
:10472600180000581B00005A2400005E2000006894
:10473600210000621B00006D2200006F1A00007548
:104746001F00007B19000079260000FFFFFF000014
:1047560001010100C1808100000000000000CF0CB3
:104766004C0CF00CE50C360DF40C120D000000009C
:10477600D80F1F0CA910A81020000D0A0043533AA9
:0C4786000047616D65204F7665720000F1
:00000001FF
