:100000000C949B0A0C94C30A0C94C30A0C94C30A64
:100010000C94C30A0C94C30A0C94C30A0C94C30A2C
:100020000C94C30A0C94C30A0C9423110C949211DF
:100030000C94C30A0C94C30A0C94C30A0C94C30A0C
:100040000C94C30A0C94C30A0C94C30A0C94C30AFC
:100050000C94C30A0C94C30A0C94C30A0C94D910D0
:100060000C94C30A0C94C30A0C94C30A0C94C30ADC
:100070000C94C30A0C94C30A0C94C30A0C94C30ACC
:100080000C94C30A0C94C30A0C94C30A0C94C30ABC
:100090000C94C30A0C94C30A0C94C30A0C94C30AAC
:1000A0000C94C30A0C94C30A0C94C30A040836497E
:1000B000493604080161190704083E49493004081B
:1000C0004F494931040818167F1004082241493667
:1000D0000408625149460408427F400004083E413A
:1000E000413E00000000003E5B4F5B3E3E6B4F6BAD
:1000F0003E1C3E7C3E1C183C7E3C181C577D571C09
:100100001C5E7F5E1C00183C1800FFE7C3E7FF0081
:1001100018241800FFE7DBE7FF30483A060E2629CF
:10012000792926407F050507407F05253F5A3CE792
:100130003C5A7F3E1C1C08081C1C3E7F14227F2258
:10014000145F5F005F5F06097F017F006689956A23
:10015000606060606094A2FFA29408047E040810AE
:10016000207E201008082A1C08081C2A08081E10D7
:100170001010100C1E0C1E0C30383E3830060E3E8F
:100180000E06000000000000005F000000070007EE
:1001900000147F147F14242A7F2A12231308646218
:1001A00036495620500008070300001C2241000079
:1001B00041221C002A1C7F1C2A08083E08080080D7
:1001C000703000080808080800006060002010086F
:1001D00004023E5149453E00427F40007249494970
:1001E000462141494D331814127F102745454539A2
:1001F0003C4A4949314121110907364949493646A6
:100200004949291E00001400000040340000000885
:100210001422411414141414004122140802015928
:1002200009063E415D594E7C1211127C7F494949B5
:10023000363E414141227F4141413E7F494949414A
:100240007F090909013E414151737F0808087F0079
:10025000417F41002040413F017F081422417F40FF
:100260004040407F021C027F7F0408107F3E4141D6
:10027000413E7F090909063E4151215E7F09192946
:1002800046264949493203017F01033F4040403F30
:100290001F2040201F3F4038403F63140814630371
:1002A000047804036159494D43007F4141410204F0
:1002B000081020004141417F0402010204404040F7
:1002C0004040000307080020545478407F284444ED
:1002D000383844444428384444287F385454541807
:1002E00000087E090218A4A49C787F080404780002
:1002F000447D40002040403D007F102844000041E4
:100300007F40007C047804787C08040478384444F6
:100310004438FC1824241818242418FC7C080404ED
:1003200008485454542404043F44243C4040207C56
:100330001C2040201C3C4030403C44281028444CA9
:100340009090907C4464544C440008364100000076
:10035000770000004136080002010204023C262317
:10036000263C1EA1A161123A4040207A38545455CF
:10037000592155557941215454784121555478409B
:1003800020545579400C1E52721239555555593921
:100390005454545939555454580000457C41000276
:1003A000457D420001457C40F0292429F0F02825B4
:1003B00028F07C545545002054547C547C0A097F15
:1003C0004932494949323248484832324A4848302D
:1003D0003A4141217A3A42402078009DA0A07D39DF
:1003E000444444393D4040403D3C24FF2424487E61
:1003F0004943662B2FFC2F2BFF0929F620C0887E4E
:10040000090320545479410000447D413048484A52
:1004100032384040227A007A0A0A727D0D19317D05
:100420002629292F28262929292630484D402038D9
:100430000808080808080808382F10C8ACBA2F1098
:100440002834FA00007B000008142A142222142AFF
:1004500014089500220095AA005500AAAA55AA558D
:10046000AA000000FF00101010FF00141414FF0079
:100470001010FF00FF1010F010F0141414FC001402
:1004800014F700FF0000FF00FF1414F404FC141420
:1004900017101F10101F101F1414141F001010101D
:1004A000F0000000001F101010101F10101010F0AE
:1004B00010000000FF101010101010101010FF108E
:1004C000000000FF140000FF00FF00001F101700D5
:1004D00000FC04F414141710171414F404F40000AE
:1004E000FF00F714141414141414F700F714141460
:1004F000171410101F101F141414F4141010F010FF
:10050000F000001F101F0000001F14000000FC146A
:100510000000F010F01010FF10FF141414FF14105E
:1005200010101F00000000F010FFFFFFFFFFF0F0B1
:10053000F0F0F0FFFFFF0000000000FFFF0F0F0FC3
:100540000F0F38444438447C2A2A3E147E020206A7
:1005500006027E027E0263554941633844443C04EE
:10056000407E201E2006027E020299A5E7A5991C66
:100570002A492A1C4C7201724C304A4D4D30304889
:10058000784830BC625A463D3E494949007E0101E7
:10059000017E2A2A2A2A2A44445F444440514A447C
:1005A0004040444A51400000FF0103E080FF00004A
:1005B00008086B6B083612362436060F090F060042
:1005C0000018180000001010003040FF0101001F4B
:1005D00001011E00191D1712003C3C3C3C000000AC
:1005E0000000080B000202020000090400000102E2
:1005F0000200000524001001052401010104240269
:1006000006052406000107058103100040090401C6
:1006100000020A00000007050202400000070583EF
:10062000024000000403090412010002EF0201402D
:100630004123368000010102030141726475696E35
:100640006F204C4C430041726475626F7900F0F882
:100650009C8E8783878E9CF8F00000FEFF030303C7
:100660000303070EFCF80000FEFF03030303030768
:100670000EFCF80000FFFF00000000000000FFFF7C
:100680000000FEFF8383838383C7EE7C380000F87D
:10069000FC0E07030303070EFCF800003F7FE0C0D9
:1006A0008080C0E07F3FFFFF01010101010101FFE8
:1006B000FF0000FFFF0C0C0C0C1C3E77E3C1000098
:1006C0007FFFC0C0C0C0C0E0703F1F00001F3F7070
:1006D000E0C0C0C0E0703F1F00007FFFC1C1C1C1CA
:1006E000C1E3773E1C00001F3F70E0C0C0C0E07057
:1006F0003F1F000000000001FFFF01000000D5F0D7
:100700008D14A1C881CFD9F1AF20000E08FF8181DF
:1007100081FFFFFF818181FF7E3C180A10000000ED
:100720000000000000303030300000000000000009
:1007300000000000000000000000000000000000B9
:1007400000000000000000000000002020383850A9
:100750005060600000000000000000000000000089
:100760000000000000000000000000000000000089
:10077000003030C8C82020949468685050000000B1
:100780000000000000000000000000000000000069
:100790000000000000000020205454AAAA58582A43
:1007A0002AE0E09C9C2828000000000000000001D6
:1007B000010000010100000000000000001818A066
:1007C000A004044B4B80800A0A292910108C8C60ED
:1007D00060000001010000020202020000030300A9
:1007E000000000000005080F0F0F0F0F0F07070391
:1007F00003074080BE8A8A8280FF0000000000005C
:10080000FF000000000000FF000000000000FF00EB
:100810000000000000FF000000000000FF000000DA
:10082000000000FF017D55554501FF040826494998
:100830003E04081B04041B20204E6963652074726B
:1008400079212020002020546F6F20736C6F772156
:10085000202000204E696365206372617368212047
:10086000002020546F6F20656173792120200020C3
:1008700050696C6F74206661696C212000202042F1
:100880006164206D6F7665212020002020536F2049
:10089000636C6F736521202000202020204F6F7033
:1008A00073212020202000202020416C6D6F737464
:1008B00021202020002054727920686172646572C2
:1008C000212000204E6F7420656E6F7567682120AF
:1008D000004E696365206C616E64696E672100205B
:1008E000476F6F64206372617368212000202020AD
:1008F000416761696E3F21202020002020536F2036
:10090000717569636B212020000A1000000000004F
:100910000000003030303000000000000000000017
:1009200000000000000000000000000000000000C7
:100930000000000000000000002020383850506007
:100940006000000000000000000000000000000047
:100950000000000000000000000000000000003067
:1009600030C8C820209494686850500000000000EF
:100970000000000000000000000000000000000077
:10098000000000000020205454AAAA58582A2AE047
:10099000E09C9C28280000000000000000010100ED
:1009A00000010100000000000000001818A0A004D1
:1009B000044B4B80800A0A292910108C8C6060003F
:1009C0000001010000020202020000030300000017
:1009D0000000002F083E4141412200007F091929F3
:1009E0004600007F4949494100007F4141413E00A6
:1009F0000041417F4141000001017F0101000026CB
:100A0000494949302F083E4141413E00007F0909D4
:100A10000906000001017F0101000041417F4141C1
:100A200000003E4141413E00007F0408107F00006D
:100A300026494949301A087F0808087F00007F4985
:100A400049494100007F4040404000007F090909BA
:100A50000621082649494930000001017F010100B3
:100A6000007E0909097F00007F091929460000015D
:100A7000017F01013E188080C0C0A0E070F028F81E
:100A80001CFC0AFE07FF05FF05FF05FF07FF07FF28
:100A900005FF05FF05FF07FF07FF05FF05FF05FF32
:100AA00007FF07FF05FF05FF05FF07FF07FF05FF1E
:100AB00005FF05FF07FF07FF05FF05FF05FF07FF10
:100AC00007FF05FF05FF05FF07FF07FF05FF05FF00
:100AD00005FF07FF07FF05FF05FF05FF07FF07FFEE
:100AE00005FF05FF05FF07FF07FF05FF05FF05FFE2
:100AF00007FFFFFF18FFFFFF00FF00FF00FF00FFE1
:100B000000FF00FF00FF00FF00FF00FF00FF00FFED
:100B100000FF00FF00FF00FF00FF00FF00FF00FFDD
:100B200000FF00FF00FF00FF00FF00FF00FF00FFCD
:100B300000FF00FF00FF00FF00FF00FF00FF00FFBD
:100B400000FF00FF00FF00FF00FF00FF00FF00FFAD
:100B500000FF00FF00FF00FF00FF00FF00FF00FF9D
:100B600000FF00FF00FF00FF00FF00FF00FF1F1F4E
:100B7000031F1F1F001F001F001F001F001F001F5B
:100B8000001F001F001F001F001F001F001F001F6D
:100B9000001F001F001F001F001F001F001F001F5D
:100BA000001F001F001F001F001F001F001F001F4D
:100BB000001F001F001F001F001F001F001F001F3D
:100BC000001F001F001F001F001F001F001F001F2D
:100BD000001F001F001F001F001F001F001F001F1D
:100BE000001F001F001F001F001F3E18FFFF18FFFF
:100BF000FFFF00FF00FF00FF00FF00FF00FF00FFFE
:100C000000FF00FF00FF00FF00FF00FF00FF00FFEC
:100C100000FF00FF00FF00FF00FF00FF00FF00FFDC
:100C200000FF00FF00FF00FF00FF00FF00FF00FFCC
:100C300000FF00FF00FF00FF00FF00FF00FF00FFBC
:100C400000FF00FF00FF00FF00FF00FF00FF00FFAC
:100C500000FF00FF00FF00FF00FF00FF00FF00FF9C
:100C600000FF00FF00FF00FF3F3F637FBFFFC0FFAB
:100C700080FF00FF00FF00FF00FF00FF00FF00FFFC
:100C800000FF00FF00FF00FF00FF00FF00FF00FF6C
:100C900000FF00FF00FF00FF00FF00FF00FF00FF5C
:100CA00000FF00FF00FF00FF00FF00FF00FF00FF4C
:100CB00000FF00FF00FF00FF00FF00FF00FF00FF3C
:100CC00000FF00FF00FF00FF00FF00FF00FF00FF2C
:100CD00000FF00FF00FF00FF00FF00FF00FF00FF1C
:100CE00000FF00FF000000000000010102030707F1
:100CF0000A0F1C1F141F141F141F1C1F1C1F141F5E
:100D0000141F141F1C1F1C1F141F141F141F1C1F33
:100D10001C1F141F141F141F1C1F1C1F141F141F23
:100D2000141F1C1F1C1F141F141F141F1C1F1C1F0B
:100D3000141F141F141F1C1F1C1F141F141F141F0B
:100D40001C1F1C1F141F141F141F1C1F1C1F141FEB
:100D5000141F141F1C1F1C1F141F141F141F1C1FE3
:100D60003E1807FF05FF05FF05FF07FF07FF05FF0B
:100D700005FF05FF07FF07FF05FF05FF05FF07FF4D
:100D800007FF05FF05FF05FF07FF07FF05FF05FF3D
:100D900005FF07FF07FF05FF05FF05FF07FF07FF2B
:100DA00005FF05FF05FF07FF07FF05FF05FF05FF1F
:100DB00007FF07FF05FF05FF05FF07FF07FF05FF0B
:100DC00005FF05FF07FF07FF05FF05FF05FF07FFFD
:100DD0000AFE1CFC28F870F0A0E0C0C0808000FF74
:100DE00000FF00FF00FF00FF00FF00FF00FF00FF0B
:100DF00000FF00FF00FF00FF00FF00FF00FF00FFFB
:100E000000FF00FF00FF00FF00FF00FF00FF00FFEA
:100E100000FF00FF00FF00FF00FF00FF00FF00FFDA
:100E200000FF00FF00FF00FF00FF00FF00FF00FFCA
:100E300000FF00FF00FF00FF00FF00FF00FF00FFBA
:100E400000FF00FF00FF00FF00FF00FF00FF00FFAA
:100E500000FF00FFFFFF18FFFFFF001F001F001F24
:100E6000001F001F001F001F001F001F001F001F8A
:100E7000001F001F001F001F001F001F001F001F7A
:100E8000001F001F001F001F001F001F001F001F6A
:100E9000001F001F001F001F001F001F001F001F5A
:100EA000001F001F001F001F001F001F001F001F4A
:100EB000001F001F001F001F001F001F001F001F3A
:100EC000001F001F001F001F001F001F001F001F2A
:100ED0001F1F031F1F1F3E1800FF00FF00FF00FF22
:100EE00000FF00FF00FF00FF00FF00FF00FF00FF0A
:100EF00000FF00FF00FF00FF00FF00FF00FF00FFFA
:100F000000FF00FF00FF00FF00FF00FF00FF00FFE9
:100F100000FF00FF00FF00FF00FF00FF00FF00FFD9
:100F200000FF00FF00FF00FF00FF00FF00FF00FFC9
:100F300000FF00FF00FF00FF00FF00FF00FF00FFB9
:100F400000FF00FF00FF00FF00FF00FF00FFFFFFAA
:100F500018FFFFFF00FF00FF00FF00FF00FF00FF82
:100F600000FF00FF00FF00FF00FF00FF00FF00FF89
:100F700000FF00FF00FF00FF00FF00FF00FF00FF79
:100F800000FF00FF00FF00FF00FF00FF00FF00FF69
:100F900000FF00FF00FF00FF00FF00FF00FF00FF59
:100FA00000FF00FF00FF00FF00FF00FF00FF00FF49
:100FB00000FF00FF00FF00FF00FF00FF00FF00FF39
:100FC00000FF00FF00FF80FFC0FFBFFF637F3F3FC8
:100FD0001C1F141F141F141F1C1F1C1F141F141F61
:100FE000141F1C1F1C1F141F141F141F1C1F1C1F49
:100FF000141F141F141F1C1F1C1F141F141F141F49
:101000001C1F1C1F141F141F141F1C1F1C1F141F28
:10101000141F141F1C1F1C1F141F141F141F1C1F20
:101020001C1F141F141F141F1C1F1C1F141F141F10
:10103000141F1C1F1C1F141F141F141F1C1F0A0F1A
:10104000070702030101000000000000161800E07D
:10105000F0F8FC7E3E1E1F1F3F7FFFFFFEEEFEFCF2
:10106000F8F0E0003FFFFFFFFFFCF87070F0F8FCC5
:10107000FF7F7FE7C3C3E7FFFF3F000103070F1FA9
:101080001F1E3E3F3F3F3C38181C1F0F0703010047
:10109000B210F898F8F8F8F8F8F8F8F8FC9CBCFCEE
:1010A000F8F8F8F8F8B8F4F4F4FAFAFAF2FAF97988
:1010B000797DFF3F7F7ABE3E3E1E1C0E0C0C0E0E4D
:1010C0000C9C9CF8F8B838B8F8E8F8FCFCD8D8D8EC
:1010D000F8F8D8F0F8F8F8F8F8B898F8F8F8F8FC54
:1010E000FCFADAFAFAF1FAFA7279F979FBFBFFFF06
:1010F000FE7EFE7E7C7C3C18180828F8F838F878CC
:10110000F8F8F8B0F0F0F0F0F8F0F8F8F870F8F857
:10111000F0F0A0E0F0F0F0E8E8E8E8E8E8E4E4E483
:10112000F2FAFCFCBCF8F8B8F0F0D8D8F8F0F0E02F
:101130006070F070E0E0E0E0E0E0C0C0C0C0C0E09F
:10114000E0F0F0F80F0F0F0F0F070500000001038C
:101150000F0F0B0F0F0F07070701010206050B0FFB
:10116000070F0F0F0F0E0F0F0F0F0F0F0D0D0D0DA0
:101170000F0D0F0F0F0F0E0E0E0E0E0F0E0E070F90
:101180000E0F0F0F0F0F0F0F0B0F0F0F0F0F0F0F74
:10119000080C0D0F0D0F0F0F0F0F0F0F0F0F0F0F6D
:1011A0000F0F0F0F0F0F0F0F0F0E0F0F0F0F0F0F50
:1011B0000F070F0F0F0F0F0F0F0F0E0F0F0F0F0F48
:1011C0000F0F0F0F0F0707030303030303010101B1
:1011D000010101010101030303030307070F0F07C7
:1011E000070F0F0F0F0F0F0F0F0F0F0F0F0F0F0D19
:1011F0000F0F0D0D0F0F0D10FF010101F909091956
:10120000F1010306FC3F2020203F0000003F20208A
:10121000203F0D10FF01010179494979010173DE79
:10122000803F2020203E0202023E2020203F0D1061
:10123000FC060301392929292929E9090F1F302032
:101240002027252525252525243C0D10FF010101FA
:10125000FF000000FF010101FF03060C18332624E4
:101260002633180C06030D10FE0301017949494984
:1012700079010103FE3F2020203E0202023E202091
:10128000203F0B100F0909F9010101F909090F3C71
:101290002424272020202724243C1110FF010101B1
:1012A000F909F9010101F909F9010306FC3F2020C0
:1012B000203F003F2020203F003F2020203F0D10F6
:1012C000FC860301392929292929296FC03C2525B4
:1012D0002525252525272020301F0D10FE0301017F
:1012E000F9090909F9010103FE1F302020272424F0
:1012F00024272020301F0D10FE030101F9090909E0
:10130000392121233E1F3020202724242427212176
:10131000311F0040004000400040004000400040BD
:1013200000400040004000400040004000400040BD
:1013300000400040004000400040004000400040AD
:10134000004000400040004000400040004000409D
:10135000004000400040004000400040004000408D
:10136000004000400040004000400040004000407D
:10137000004000400040004000400040004000406D
:10138000004000400040004000401516151615169C
:1013900015161516151615161516151615161516F5
:1013A00015161516151615161516151615161516E5
:1013B0001516121C0F220C28092E0634033A013E82
:1013C000013E013E013E023B0339023A023B033A31
:1013D000023B033B023B013D013C013D013D023B21
:1013E000013B023B013B013B023B033B033B033A16
:1013F000033B023B013B023A013C023A013C023B07
:101400000339033A033B033A0339023A033A023CF5
:10141000023C013C023A033A023B0339033A023BE5
:10142000013C023C013C023C023C013D013D023CCE
:10143000023B023B013C013B013C023C033B033AC3
:10144000033B033B033A033A033B023C033A033AB0
:10145000033B033B023C013C023B013D023B013CA0
:10146000023C013C013B013B023A023A0339033999
:101470000339033A0339033A033B033B023C023B83
:10148000033B033B023B013D013D013D013C013D6E
:10149000013D013C023C013C013D013D013C013D5F
:1014A000013D023C013C023A013C023B023A023A55
:1014B000013B013C023B023C013D013D023C013D40
:1014C000013C023B0339023A023B0339023A013B39
:1014D000013B013C013C013D023C033A033B033B21
:1014E000033A023C023C013D013D013C013D013D0E
:1014F000013D023C013D013C023A0339033A033A03
:10150000033B023C033A0339023B013D023B013DF0
:1015100000000708117F5E7F3A7F6E7F3A7F5E7F13
:10152000117F080849496B6B7F7F6B7F223E363EF7
:101530001C1C0808F71311241FBECFEFDAE0DEBF32
:10154000CDBF11E0A0E0B1E0E6E9F4E402C005900F
:101550000D92AC3FB107D9F72AE0ACEFB1E001C082
:101560001D92A333B207E1F71AE0CBE9DAE004C039
:101570002197FE010E942F22CA39D107C9F70E9484
:10158000C9140C9449220C940000EFE3F2E0A0E0AF
:10159000B8E000800EBC8111012C1197A0FDFDCF99
:1015A0000192B9F70DB40895FC0180913E028823A1
:1015B00011F13FB7F89482E08093E9002091F200A6
:1015C000822F90E01816190614F481E090E0882329
:1015D00039F0289844E640933D024091F100408361
:1015E000222339F02091F200211103C02BE6209331
:1015F000E8003FBF08958FEF9FEF08952FB7F8944D
:1016000083E08093E9009091E800892F807295FF34
:1016100004C09091F20080E4891B2FBF089580914F
:10162000350281110DC082E08093310284E0809305
:101630003202109234021092330281E0809335021C
:1016400081E392E00895FC010E94370B319728F066
:1016500068517C4F8F4F9F4FF9CFAB01FC010E9427
:10166000370B641775078E079F07C8F30895ADE21F
:10167000B2E02FB7F8947D918D919C9166B52FBF04
:10168000A89B05C06F3F18F47F5F8F4F9F4F22E0EC
:10169000660F771F881F991F2A95D1F708954091EB
:1016A000FE015091FF012091FC013091FD01421794
:1016B0005307B4F49091E8009570E1F39091E8003D
:1016C00092FD19C08093F1008091FE019091FF017D
:1016D00001968F739927892B19F48EEF8093E80078
:1016E0008091FE019091FF0101969093FF018093FC
:1016F000FE0181E0089580E00895DF92EF92FF926D
:101700000F931F93CF93DF93D82E8A01EB017B01B8
:10171000E40EF51ECE15DF0559F0D7FE12C0FE010E
:1017200084910E944F0B21968111F4CF0FEF1FEF90
:10173000C801DF91CF911F910F91FF90EF90DF9043
:1017400008958881EECF0F931F93CF93DF931F925D
:10175000CDB7DEB782E0898342E450E062EE75E007
:1017600080E80E947D0B0E940F0BDC0112960D9108
:101770001C910115110589F0D801ED91FC910280B1
:10178000F381E02DBE016F5F7F4FC801099597FD82
:1017900004C0F80100851185ECCF89810F90DF919D
:1017A000CF911F910F910895615030F02091F10079
:1017B000FC0120830196F8CF289884E680933D02AF
:1017C0000895AF92BF92CF92DF92EF92FF920F9364
:1017D0001F93CF93DF936C017B018B01040F151FC7
:1017E000EB015E01AE18BF08C017D10759F069912F
:1017F000D601ED91FC910190F081E02DC601099593
:10180000892B79F7C501DF91CF911F910F91FF903F
:10181000EF90DF90CF90BF90AF9008958F929F92FE
:10182000AF92BF92CF92DF92EF92FF920F931F93EE
:10183000CF93DF936C017B018A0180910B01882398
:1018400009F45AC080913E02882309F455C0809162
:10185000020280FF05C08091E00082608093E0007A
:10186000E801B12C8AEFA82E93E0892E2AE3922E6C
:10187000209711F4BB20C9F10E94FE0A811108C013
:10188000AA94AA20C9F181E090E00E94230BF0CF36
:101890008C171D0611F00CF08C2F9FB7F8948092D6
:1018A000E9002091E80025FD02C09FBFE1CF282F6D
:1018B00030E0C21BD30BF701815020F041914093DF
:1018C000F100FACFE20EF31EBB2021F09092E80067
:1018D000B12CEBCF8091E80085FDE7CF9092E80036
:1018E000BB24B394209709F3F3CF5D9884E68093EB
:1018F0000102101611063CF081E090E0F60193839E
:10190000828310E000E0C801DF91CF911F910F9119
:10191000FF90EF90DF90CF90BF90AF909F908F900F
:101920000895CF93DF931F92CDB7DEB76983DC01B3
:10193000ED91FC910280F381E02D41E050E0BE0189
:101940006F5F7F4F09950F90DF91CF91089583E0EE
:101950008093E9008091F200882319F08AE3809354
:10196000E80008950E94FE0A90E00895CF93DF9367
:101970001F92CDB7DEB7FC018485958597FD08C021
:101980002FEF3FEF358724870F90DF91CF91089598
:10199000CE0101960E94D40A019719F4898190E042
:1019A000F3CF8FEF9FEFF0CF0F931F93CF93DF9382
:1019B0001F92CDB7DEB78C01FC018485958597FF1A
:1019C0000BC0CE0101960E94D40A019771F489815F
:1019D00090E0F80195878487F801848595850F90BC
:1019E000DF91CF911F910F9108958FEF9FEFF1CF6E
:1019F000FC018485958597FD0BC09FB7F89482E024
:101A00008093E9008091F2009FBF90E001960895D5
:101A10009FB7F89482E08093E9008091F2009FBF25
:101A200090E008954F925F926F927F928F929F9273
:101A3000AF92BF92CF92DF92EF92FF920F931F93DC
:101A4000CF93DF934C015901FC2DC02FD0E0CE0184
:101A5000880D991D181619060CF06CC020E8821626
:101A600091040CF067C09B012E0D311D1216130658
:101A70000CF060C0603471050CF05CC0411551057C
:101A800009F458C0E62FE770FE2EDB0177FD1796AC
:101A900033E0B595A7953A95E1F73A2F77FF04C063
:101AA000FF2011F03FEF3A0F662777276819790971
:101AB00097FC02C070E060E0803891050CF44BC0E8
:101AC00090E89819961BA32F032E000CBB0B1A2F1E
:101AD00010953F3F0CF010E021E08E2D877009F447
:101AE00020E0E694E694E694E20EAE0DB11D19975F
:101AF0001CF028E0E22EE31AE11A310F20E832034D
:101B0000D0011124A80DB91DA60FB71F019F600DAC
:101B1000711D1124460F571F0F2D0F2C000C110B98
:101B2000F33009F41CC1C8F4F13009F4D0C0F2302C
:101B300009F47CC0DF91CF911F910F91FF90EF903E
:101B4000DF90CF90BF90AF909F908F907F906F90DD
:101B50005F904F900895902FB5CFFA3FB1F1232FAA
:101B60002E0DFB3F39F7321729F3BD01615C7D4F24
:101B7000D12CC12CC91608F0A4C0FA01EC0DFD1D32
:101B8000E491F0E04F01002E02C0880C991C0A94E9
:101B9000E2F737FD06C0FB018081E82CE0948E213E
:101BA0008083FF2061F0373054F45B01F0E8AF0E22
:101BB000B11CE92CE094F50180818E218083FFEF38
:101BC000CF1ADF0A6F5F7F4FD5CF232F2E0D32172D
:101BD00009F4B0CFBD01615C7D4FD12CC12CC91679
:101BE00008F069C0FA01EC0DFD1DE491F0E04F0131
:101BF000002E02C0880C991C0A94E2F737FD04C03D
:101C0000FB01808188298083FF2051F0373044F424
:101C10005B01F0E8AF0EB11CF5018081892980835A
:101C2000FFEFCF1ADF0A6F5F7F4FD9CF6FEF70E002
:101C30000F2C02C0660F771F0A94E2F7609570952B
:101C4000772E232F2E0D321709F474CFFD01E15C9E
:101C5000FD4F6F01B12CA12CA91638F5FA01EA0D40
:101C6000FB1DE491F0E02F01002E02C0440C551C36
:101C70000A94E2F737FD05C0F601808186238429A6
:101C80008083FF2059F037304CF44601F0E88F0E86
:101C9000911CF4018081872185298083FFEFAF1A91
:101CA000BF0A8FEFC81AD80AD7CF3F5F4C0F5D1F0E
:101CB000A058BF4FC8CF3F5F4C0F5D1FA058BF4F0C
:101CC00086CF3F5F4C0F5D1FA058BF4F4CCF6A0DB2
:101CD0007B1D232F2E0D321709F42CCFFD01E15C63
:101CE000FD4F6F01B12CA12CA91688F5FB01EA0D5F
:101CF000FB1D8490912C002E02C0880C991C0A9424
:101D0000E2F780949094FA01EA0DFB1D6490712C27
:101D1000002E02C0660C771C0A94E2F737FD05C05E
:101D2000F6018081882186298083FF2049F03730A1
:101D30003CF4F601E058FF4F808189218729808398
:101D4000FFEFAF1ABF0A8FEFC81AD80ACDCF3F5F97
:101D50004C0F5D1F6C0F7D1FA058BF4FBCCFC92E0D
:101D6000D12CFA01E60FF71FA15CBD4F00E810E08F
:101D70000C191D09CC19DD09BE01660F771F41E062
:101D800050E06A010F2C01C0CC0C0A94EAF7592FDD
:101D90002E2D792ECF93DF93ED01EF96EF962296BD
:101DA0008590A590FF2059F08C9C4001AC9C50017F
:101DB00037302CF4E880B094EB20E928E992332303
:101DC0003AF0EC90A094EA20E828ED920C94E90E09
:101DD00011965A9529F72A9551F0572D33951124CC
:101DE000E60FF11DA00FB11DC00FD11DD9CFDF919E
:101DF000CF9111249FCECF92EF920F9341155105B1
:101E000061F0FA0104913196E4904E5F5F4F22E059
:101E1000C22E30E020E00E94120D0F91EF90CF9083
:101E20000895CF92EF920F934115510569F1FA0190
:101E300004913196E4904E5F5F4F2223F9F0A1E0C8
:101E4000B0E03E2D377011F4B0E0A0E0EE2DE69545
:101E5000E695E695EA0FFB2FF11D0E9FD0010F9F2F
:101E6000B00D112430E0220F331FA29FF001A39F79
:101E7000F00DB29FF00D11244E0F5F1F23E0C22E14
:101E800030E020E00E94120D0F91EF90CF90089566
:101E900090E00C94230B8FB18095807F669B8860C7
:101EA0001C9B8460089590912402982329F49091BA
:101EB0002502982381E009F480E00895CF93C82F8C
:101EC0000E944B0F982F9C2381E09C1380E0CF91C0
:101ED000089580E00C94C50A80389105B8F4603408
:101EE0007105A0F490E121E061FD24E060FD220F86
:101EF00062FD2295687F969FD0011124A80FA15CF6
:101F0000BD4F0C90022A40FF02260C9208958F923A
:101F10009F92AF92BF92CF92DF92EF92FF920F9378
:101F20001F93CF93DF936D3089F0C0902202D09041
:101F300023026A30D1F4109221021092200288E02C
:101F4000C80ED11CD0922302C092220281E090E000
:101F5000DF91CF911F910F91FF90EF90DF90CF9085
:101F6000BF90AF909F908F900895009120021091A4
:101F70002102E5E06E9FE0011124CE51DF4F4801C0
:101F8000F12CF5E0E12CFF1629F0CE010196FE01BF
:101F9000E490EC01B12CA12C4E2D4170B6016A0DDC
:101FA0007B1DC4010E946C0FE694FFEFAF1ABF0ABD
:101FB00088E0A816B10481F7F394EFEF8E1A9E0A19
:101FC000F6E0FF12DECF0A5F1F4F1093210200934D
:101FD0002002BCCF8F929F92AF92BF92CF92DF929E
:101FE000EF92FF920F93CF93DF935B01EC014C01D3
:101FF000840E911C6B01C20ED11CC815D905D4F4F6
:102000007501B7FE02C0F12CE12CC60121E4C21615
:10201000D10414F080E490E0E816F9064CF4402F67
:10202000B701CE010E946C0F8FEFE81AF80AEDCFCE
:102030002196E3CFDF91CF910F91FF90EF90DF904A
:10204000CF90BF90AF909F908F9008958A3040F5C9
:10205000E82FF0E0E25DFF4E0C942F225110381073
:1020600054103B103E104110441047104A104D10C0
:1020700086ED90E008958AEC90E0089584EC90E07D
:1020800008958EEB90E0089588EB90E0089582EB40
:1020900090E008958CEA90E008958BE298E008952E
:1020A00008958CED90E0089580ED90E008950895F6
:1020B00090E080E00895FB0101900020E9F731975E
:1020C000AF01461B570BDC01ED91FC910280F381BF
:1020D000E02D09948F929F92AF92BF92EF92FF9260
:1020E0000F931F93CF93DF93CDB7DEB7A1970FB6B2
:1020F000F894DEBF0FBECDBF7C01FA01CB0119A25F
:10210000223008F42AE08E010F5D1F4F822E912CA1
:10211000B12CA12CBF01A50194010E94EA21F90173
:10212000CA016A300CF5605DD8016E938D01232BD6
:10213000242B252B79F790E080E0109721F0BD014A
:10214000C7010E945B10A1960FB6F894DEBF0FBEC8
:10215000CDBFDF91CF911F910F91FF90EF90BF9076
:10216000AF909F908F900895695CDECFCF92DF9201
:10217000EF92FF92CF93DF936B017C016DE28FE2D0
:102180009AE00E94870FEC0144275527BA014C19A9
:102190005D096E097F092AE08FE29AE00E946A10C9
:1021A0008C0F9D1FDF91CF91FF90EF90DF90CF902C
:1021B00008950F920FB68F939F93EF93FF938091A3
:1021C00028028D5F8D3708F08D5780932802E9E251
:1021D000F2E080818E4F808391819F4F9183828135
:1021E0008F4F828383818F4F8383EDE2F2E0808182
:1021F0008F5F808381818F4F818382818F4F828324
:1022000083818F4F83838FB18F6066991C9B882752
:102210008F3681F480912702981B963068F0E0E0B9
:10222000F8E087E78083818388E180936000F09302
:102230006000FFCF90932702FF91EF919F918F91C4
:102240000FBE0F9018951F920F920FB60F92112488
:102250008F939F938091E1009091E100937F909301
:10226000E10083FF0FC01092E90091E09093EB0032
:102270001092EC0092E39093ED0010923E0298E0F1
:102280009093F00082FF22C093E09093E900909138
:10229000F200992319F09AE39093E80090910102DB
:1022A000992341F090910102915090930102911174
:1022B00001C05D9A90913D02992341F090913D02B9
:1022C000915090933D02911101C0289A84FF18C04B
:1022D0008091E2008E7E81608093E2008091E10037
:1022E0008F7E8093E100809102028E7E80618093D8
:1022F00002029F918F910F900FBE0F901F90189523
:1023000080FFF7CF8091E2008E7E80618093E200B3
:102310008091E1008E7E8093E100809102028E7EAA
:102320008160E5CF1F920F920FB60F921124CF92CA
:10233000DF92EF92FF920F931F932F933F934F9350
:102340005F936F937F938F939F93AF93BF93EF931D
:10235000FF93CF93DF93CDB7DEB76C97DEBFCDBFD2
:102360001092E9008091E80083FF25C068E0CE016B
:1023700045960E94D40B82EF8093E8008D8987FFF9
:1023800039C09091E80090FFFCCF982F907609F02B
:1023900034C19E894F89588D2F89F88C911131C095
:1023A000803861F5809103028093F1001092F10072
:1023B0008EEF8093E8006C960FB6F894DEBF0FBEE8
:1023C000CDBFDF91CF91FF91EF91BF91AF919F91E1
:1023D0008F917F916F915F914F913F912F911F91BD
:1023E0000F91FF90EF90DF90CF900F900FBE0F9066
:1023F0001F9018959EEF9093E800C7CF1092F100C0
:10240000D5CF913059F48111D3CF4130510581F6A8
:10241000809103028D7F80930302CACF933049F4E9
:102420008111C6CF4130510519F6809103028260B7
:10243000F2CF953041F48091E80080FFFCCF206816
:102440002093E300B5CF963009F0A9C00B8D1C8D09
:1024500022E01092E9001092FF011092FE01F212A8
:102460002EC01092FD011092FC010E94A30B1F824E
:1024700099E09983FA8291E09E8390EA98879AEF97
:1024800099872091FE013091FF01275F3F4F3C83E8
:102490002B838D831092E9001092FF011092FE01B0
:1024A0001093FD010093FC0149E050E0BE016F5F15
:1024B0007F4F80E00E947D0B0E94A30B79CF109389
:1024C000FD010093FC010E940F0BDC0112960D919F
:1024D0001C910115110509F451C1D801ED91FC9130
:1024E0000480F581E02DBE016B5E7F4FC801099528
:1024F000009709F03EC1F80100851185EACFF3E0AD
:10250000FF120EC08F89882309F440C0823061F425
:1025100040E867E086E496E00E94C413811148CF4A
:1025200081E28093EB0047CF813029F440E86BE0F3
:102530008AE396E0F1CF833099F70E940F0BDC011C
:102540001296ED90FC908E010F5F1F4F6801E11411
:10255000F10479F0D701ED91FC910680F781E02D2F
:10256000B801C7010995080F111DF701E084F18436
:10257000EECFD8011C92F60101900020E9F73197C7
:10258000BF016C197D0940E0C601C6CF64E276E068
:10259000FB01449150E080E80E947D0B09CF973009
:1025A00009F4BECF983021F481E08093F10000CF90
:1025B000993009F0FDCE837009F0B2CFE4ECF1E080
:1025C00081E031E096E32191222371F08093E900CC
:1025D0003093EB00DF0111972C912093EC00909346
:1025E000ED008F5F873079F78EE78093EA001092D5
:1025F000EA008F8980933E02DBCE8B8D9C8D1092FA
:10260000E9001092FF011092FE019093FD0180936A
:10261000FC01898D811192C08E899D89913A49F47E
:10262000813209F07DCF47E050E064E071E080E066
:10263000B3CF913209F074CF833269F48F89988DCA
:10264000B0E0A0E08093000190930101A09302010B
:10265000B0930301ADCE803269F48091E80082FF2F
:10266000FCCF67E084E091E00E94D40B8BEF809375
:10267000E8009ECE823209F09BCE8F8980930B01B9
:10268000EEEFFFE7859194918B3F9C4D51F1E0E097
:10269000F8E08091040190910501A0910601B091AC
:1026A0000701803B9440A105B105F1F480910B0135
:1026B00080FD1AC0EE3F8AE0F80789F587E797E7C3
:1026C00091838083809160008093000288E19BE089
:1026D0000FB6F894A895809360000FBE90936000A9
:1026E00067CEEEEFFAE0D5CF8081918187379747AB
:1026F00009F05ECEA89580916000886180936000AB
:102700008091000280936000EE3F2AE0F20789F09A
:102710008091FE0A9091FF0A9183808349CE808147
:1027200091818737980751F29093FF0A8093FE0AB0
:10273000C5CF1092FF0A1092FE0A3ACE0E940F0BEC
:10274000DC0112960D911C910115110509F4E8CEDA
:10275000D801ED91FC910190F081E02DBE016B5EFE
:102760007F4FC8010995811123CEF801008511859D
:10277000EBCF181619060CF41BCED2CEF1E0FF12E7
:10278000BECE68E276E004CFEF92FF920F931F93E4
:10279000CF93DF93F82E192FE62E042F81E0860FBA
:1027A000880F0E944F0B83E00E944F0BCF2DD12F3B
:1027B000EC0EFD2EF11CCE15DF05B9F007FF13C09E
:1027C000FE0184910E944F0B182F80E00E944F0B56
:1027D000812321968111EFCFDF91CF911F910F912E
:1027E000FF90EF9008958881EDCF81E0F5CF0F93B2
:1027F0001F93CF93109242061092410688EE93E009
:10280000A0E0B0E08093430690934406A093450671
:10281000B09346068EEC91E09093400680933F067D
:102820008FEF9FEF90934C0680934B068FE29AE0D8
:102830001092320A1092310A20EE31E03093300AC1
:1028400020932F0A9093180A8093170A22E235E109
:1028500030931A0A2093190A2AE030E030931C0AB8
:1028600020931B0A2CE130E030931E0A20931D0AAE
:1028700020EC31E03093200A20931F0A1092210AA5
:1028800020E12093220A1092230A9093250A809334
:10289000240A8AEE8093260A8093270A10922A0A35
:1028A00010922B0A10922C0A10922D0A81E080932C
:1028B0002E0AE7E0F9E0A7E1BAE068EC70E054E640
:1028C00047E098E022E135E1B183A083738362831E
:1028D0005483458396833087278311861286138617
:1028E00014861586168687877096CAE0E731FC073E
:1028F00059F70FE21AE01093F8060093F70627E065
:1029000039E03093FA062093F90620E231E0309363
:10291000FC062093FB068093FD061092FE081092A1
:10292000FF08C2E0C093000994E0909301098093EE
:102930000209809303091092040981E1809305093B
:102940009093060940E052E062E173E18EEF96E079
:102950000E9495211093900600938F0686E1809344
:102960009106C0939206109294061092930686E008
:10297000809395061092960680E6EBE5F1E0A7E9D4
:10298000B6E001900D928A95E1F7CF911F910F91DA
:102990000895CDB7DEB76497DEBFCDBF789483E0EE
:1029A00084BD83E085BD81E080936E00E1E8F0E0C6
:1029B00083E08083E0E881E08083E1E983E0808355
:1029C000E0E981E08083E1EC87E08083E3EC81E073
:1029D0008083E0EC82E08083E2EC81E08083EAE7C0
:1029E00087E080838068808310923E021092030209
:1029F000109202028091D70081608093D70080EA14
:102A00008093D80089B5806189BD89B5826089BD10
:102A100009B400FEFDCF81E090E00E94230B80917D
:102A2000D8008F7C80618093D8008091E000807F07
:102A30008093E0008091E1008E7E8093E1008DE044
:102A40008093E200559A209A81EC80937C0081EF7C
:102A500085B987EE84B984E38BB984EF8AB9769A15
:102A60006E9880EF81BB10BA80E58CBD81E08DBD92
:102A700085E00E94480F5F9A85E00E94480F5C98AD
:102A8000EEEFF6E085918EBD00000DB407FEFDCFA0
:102A9000EB30C1F75C9A81E88093640081E0809319
:102AA00065000E94690F80E80E945E0F8823A9F0EC
:102AB0005C9885EA8EBD00000DB407FEFDCF5C9AE0
:102AC0002E982F982D9880916400806280936400E6
:102AD00081E083BF889513BEFCCF84E00E945E0F27
:102AE0008823B9F12D9884E80E945E0F8823A1F015
:102AF0002D9A88EC0E94480F2F986FEF82E090E0AB
:102B00000E94A62184EF91E00E94230B2F9A84E873
:102B10000E945E0F8111FBCF84E10E945E0F88232B
:102B2000A1F02D9A88EC0E94480F2E9860E082E078
:102B300090E00E94A62184EF91E00E94230B2E9A40
:102B400084E10E945E0F8111FBCF88EC0E94480F48
:102B5000C4CF2D9A82E090E00E949E21882309F440
:102B600071C03E9A3F9A81E090E00E949E21082F1A
:102B70000470D02E81FF0CC001112E9801EF1FEFC1
:102B800080E40E945E0F882309F45FC02E9A2F9A7A
:102B900082E30E94480F0E944B0F8111F9CF80E120
:102BA00080931F01809164008E7F809364008091E8
:102BB0007A00806480937A0080917A0086FDFCCF51
:102BC00000917800109179000E94370BAB01BC0195
:102BD000C801B0E0A0E0DC01992788278C019D01A5
:102BE000040F151F261F371FC901B801209164006B
:102BF000216020936400611571058105910511F034
:102C00000E948C2183E0809315018FEF9FEF9093BA
:102C10004C0680934B069091290280910702192F50
:102C2000181B812F10910602112309F4A8C080936C
:102C30001F021092060280E090E0892B61F30E944F
:102C40000000E9CF3E983F988ECFDD2029F0043078
:102C5000110511F42E9A2F9881E00E94C50A202FA9
:102C60002770C22E9801F3E035952795FA95E1F784
:102C7000C9019695982F882797958795815C9D4FD8
:102C800070E060E02E3F4FEF340759F1DC01AC56A5
:102C9000BF4F7C0150E040E0FB01E25BF94F5F0178
:102CA000F501E40FF51FE491F0E03F010C2C02C0A8
:102CB000660C771C0A94E2F72F3F320721F0F701E8
:102CC00094889628948ACC2019F0EC91E729EC930B
:102CD0004F5F5F4F1196FFEFEF1AFF0A483551051E
:102CE000F9F62F5F3F4F80589F4F685A7F4F603BE8
:102CF000710541F60E94690F8FE00E94480F0F5F37
:102D00001F4F0931110509F03BCFDD2011F02F9A3B
:102D10002D9880E991E00E94230B2D9A81E090E0AC
:102D20000E949E2180FF34CF8AE090E00E949E2185
:102D30009FEF980F9E3F08F02BCF22E330E03093B7
:102D400021022093200228E330E0309323022093D5
:102D500022020AE010E0682F8FE29AE00E94870FBB
:102D60000F5F1F4FC8010E949E210031110599F786
:102D70000E94690F88EE93E00E94230B09CF2091F7
:102D80001F01821748F48F5F821708F054CF81E04B
:102D900083BF889513BE4FCF81E080930602909346
:102DA0000702E4E0F2E080819181019680839183C3
:102DB00080912502809324020E944B0F809325026C
:102DC000EFE3F2E011111FEF8FEF119311931193C5
:102DD00011938150D0F71092230210922202109288
:102DE00021021092200210912602113009F400C233
:102DF00038F0173011F40C94DB200E94690F1BCFC0
:102E00008091960681113EC16091920670E080919A
:102E1000910646EF52E190E00E94FB0E609192060F
:102E200070E08091910690E04AED52E10E960E948A
:102E3000FB0E6091920670E08091910690E04EEB5F
:102E400052E14C960E94FB0E6091920670E08091D8
:102E5000910690E04AE952E18A960E94FB0E609149
:102E6000920670E08091910690E042E852E1CC96A3
:102E70000E94FB0E6091920670E08091910690E0B6
:102E800046EF52E1885B9F4F0E94FB0E60919206D5
:102E900070E0615F7F4F8091910690E046EF52E1D4
:102EA00001960E94FB0E6091920670E0615F7F4F79
:102EB0008091910690E046E652E10F960E94FB0E4B
:102EC0006091920670E0615F7F4F8091910690E083
:102ED0004AE452E14D960E94FB0E6091920670E02A
:102EE000615F7F4F8091910690E04EE252E18B96B8
:102EF0000E94FB0E6091920670E0615F7F4F8091AF
:102F0000910690E042E152E1C9960E94FB0E609169
:102F1000920670E0615F7F4F8091910690E046EFEE
:102F200051E1895B9F4F0E94FB0E6091920670E019
:102F3000625E7F4F8091910690E046EF52E10396EA
:102F40000E94FB0E6091920670E0625E7F4F80915E
:102F5000910690E042E152E141960E94FB0E6091A1
:102F6000920670E0625E7F4F8091910690E042E8A9
:102F700052E14F960E94FB0E6091920670E0625EF5
:102F80007F4F8091910690E04EEB52E18B960E942C
:102F9000FB0E6091920670E0625E7F4F8091910619
:102FA00090E042E852E1C9960E94FB0E60919206C1
:102FB00070E0625E7F4F8091910690E04EEB52E1AF
:102FC0008B5B9F4F0E94FB0E6091950670E0809195
:102FD0009306909194060E941B22CB0140E950E198
:102FE00064E370E09195819591090E94FB0E6091D8
:102FF000950670E080919306909194060E941B22A2
:103000009B0140E950E164E370E082EB90E0821BB9
:10301000930B0E94FB0E8091960681119DC08091BA
:10302000930690919406019690939406809393064C
:1030300020919506B2EB2B9F9001112482179307E4
:1030400024F0109294061092930688E00E94530F89
:10305000882319F081E08093960680911F02F4E6A0
:103060008F9FC001112460911F0170E00E941B22FC
:10307000AB01770F660B770B2AE08FE29AE00E9494
:103080006A10BBCE813049F74CE450E165E170E055
:1030900085E390E00E94FB0E20E046ED5EE070E0EC
:1030A00060E090E080E00E94110F20E040E65DE0EB
:1030B0006BE270E090E080E00E94110F20E04AEEA9
:1030C0005BE070E060E082E490E00E94110F20E09D
:1030D00044E75AE06BE270E082E490E00E94110F56
:1030E00041E55AE066E070E08BE090E00E94FB0E64
:1030F00045E35AE066E070E085E590E00E94FB0E53
:1031000044E05AE063E370E085E090E00E94FB0E4B
:1031100043ED59E063E370E08BE490E00E94FB0E26
:103120000FE816E05FEEE52E56E0F52ED8011A9670
:103130008C911A97882351F019966C91199770E029
:1031400018968C9141E090E00E946C0F0C5F1F4F2D
:10315000E016F10659F75FCF813009F07ECF0FE816
:1031600016E04FEEE42E46E0F42EF8018285882327
:10317000C9F08150828781110FC00E943D2124E057
:1031800030E040E050E00E94B8216D5F7F4F8F4FEC
:103190009F4FD8011B966C930C5F1F4FE016F106F2
:1031A00021F75BCF83858823A1F08150838781112C
:1031B000F3CF0E943D2120EF30E040E050E00E943C
:1031C000B82168597E4F8F4F9F4FD8011A966C9344
:1031D000E3CF0E943D2120EF30E040E050E00E942C
:1031E000B82168597E4F8F4F9F4FF8016287D4CF27
:1031F0008091170281110CC00E943D212FE030E028
:1032000040E050E00E94B82160931602109317022C
:103210008091FD06882309F464C080E20E945E0F5D
:10322000882399F186E080930109809100098150FB
:1032300080930009811155C0E7EFF6E025EF38E0F3
:10324000918597839285908732962E173F07C1F715
:1032500090E020910509921730F19BE0209106093A
:103260008217B0F5E091FB06F091FC06899FE00D16
:10327000F11D11242781222331F020813181215039
:103280003109318320838F5FE9CF84E00E945E0F94
:103290008111C8CF80E40E945E0F882311F081E085
:1032A000C2CF82E0C0CF00E1909FF00111242091B5
:1032B000F9063091FA06E20FF31F2385222331F03D
:1032C0002281338121503109338322839F5FC1CF13
:1032D0008091FF088F5F8093FF08809101098093A0
:1032E00000098091FF0887FFCBC188E0EBEBF1E09C
:1032F000DE01119601900D928A95E1F78091FE080A
:103300008F5F8093FE080CEF17E08EEFE82E88E0C9
:10331000F82E98E0892E912CA12CB12C23E0D22EEE
:10332000CC24C3943FE3732E0E943D21A501940158
:103330000E94B82121E030E02C0F3D1F620F731F67
:10334000DB018C9190910209890F809302090E9400
:103350003D21A50194010E94B821E1E0F0E0EC0FCD
:10336000FD1F6E0F7F1FDB018C9190910309890F68
:10337000809303099091020919160CF4C5C0C092FC
:103380000209181644F0C0920309809102098430A2
:1033900014F0D092020980910309843014F0D09285
:1033A00003099091020980910309890FB72DB81B79
:1033B000F8019083B1830E5F1F4FE016F10609F00C
:1033C000B3CF0CE011E01A870987A8E08A2E912C70
:1033D000A12CB12CB8E02B2E312C412C512C0E9469
:1033E0003D21D8017C9072016101C818D908EA0812
:1033F000FB08A50194010E94B821C60ED71EE81E45
:10340000F91EEC2DF0E0E45FFE4F8081D8018D9332
:103410008D017082B1E08B1A9108A108B108E1E03A
:103420008E169104A104B104D1F6F3E1EF2EF1E080
:10343000FF2E0CE011E0D8014D918D0150E070E0BD
:1034400060E02AE08FE396E00E946A1068EE71E087
:103450008FE396E00E945B10E016F10661F76CEED8
:1034600071E08FE396E00E945B106AEE71E08FE3FB
:1034700096E00E945B106CEE71E08FE396E00E9494
:103480005B106AEE71E08FE396E00E945B10E3E070
:103490006E2E4424439433243A949091050920914C
:1034A000F9063091FA0680E0981709F46FC0890197
:1034B000205F3F4FF80143854111A8C04581A98590
:1034C000BA858C91885F8295807F90E0FC01EE0F39
:1034D000FF1FE950F94F60E0712C70E4572EC52CA6
:1034E000D12C4617A9F05781751608F4752E7085F2
:1034F000A52FA70FBB27BB1FAC15BD0514F4552E78
:10350000570E6F5F3296EBCF18160CF43ECF3BCFC1
:10351000F801938382838681C81AD108F5E0CF1A17
:10352000D1080D2C000CEE08FF08872C912C25E00B
:10353000820E911C092C000CAA08BB088C149D0457
:10354000AE04BF048CF4C818D908EA08FB0841F09F
:103550000E943D21A70196010E94B8216B017C01C8
:103560008C0C9D1CAE1CBF1CD80114968C92149719
:1035700019967C9219971A965C921A971B964C9200
:103580001B971C961C921C971F963C926A94098567
:103590001A850F5F1F4F1A87098761107ECF8091B0
:1035A000FE0880FD6BC00091FB061091FC0630E028
:1035B00020E0D80117968C911797811194C013962B
:1035C0008C91245F3E4FD901EC91E85FE295E07F5A
:1035D000F0E0EE0FFF1FE950F94F40E0712C50E48E
:1035E000652EC62CD12C841799F09781791608F492
:1035F000792E5085692F650F7727771F6C157D050C
:1036000014F4692E650E4F5F3296EBCF8F5F4CCF6F
:1036100080910F0190E0089634E0880F991F3A9549
:10362000E1F7D80111969C938E9314968C91C81A49
:10363000D1080D2C000CEE08FF08872C912CB12C22
:10364000A12C8C149D04AE04BF048CF4C818D908B6
:10365000EA08FB0841F00E943D21A70196010E9463
:10366000B8216B017C018C0C9D1CAE1CBF1CF801A9
:1036700082827582668281E0878310861092FF08BD
:1036800080E04EED50E06EED7FEF91E02091050976
:10369000821708F059C000E1809FF00111242091A9
:1036A000F9063091FA06E20FF31F2385222309F46D
:1036B00049C022813381273F1FEF3107ECF4958702
:1036C0001486248521111EC0258521112DC0A081BD
:1036D000B181148116962D913C911217130608F4AE
:1036E000978794870CC02F5F3F4F055F1F4F243093
:1036F000310509F05ECFC2CF2833310514F324859C
:10370000222391F0A48121852A1708F0978726812A
:103710002A0F3327331FB285B217130609F00CF4B2
:10372000778727852A0F24832585222359F026852C
:103730002F5F26872A3034F05383428364831586B3
:10374000138616868F5FA2CF80E09BE02EED30E0DF
:103750006EED409106098417B0F4E091FB06F091FC
:10376000FC06899FE00DF11D11244781442349F097
:1037700040815181473F5F4F24F43183208362832E
:1037800017828F5FE6CF80912A0A8823E1F080912B
:10379000260A9091290A913009F44DC20CF040C2DA
:1037A0008250992309F44CC28091260A87FD04C0F7
:1037B0008091270A843438F010922A0A8AEE809386
:1037C000260A8093270A80912C0A882309F43BC299
:1037D00080912D0A8F5F80932D0A843154F082E40A
:1037E00091E090931C0A80931B0A90931E0A809389
:1037F0001D0A8FB7F8944091290250912A026091D6
:103800002B0270912C028FBF8091180190911901A9
:10381000A0911A01B0911B018A019B01081B190B91
:103820002A0B3B0BD901C801843E9240A105B1058A
:1038300098F080911E01882379F080911C01181660
:103840001CF4815080931C0140931801509319017E
:1038500060931A0170931B0130912A0A809009022B
:1038600090900A02A0900B02B0900C0200911102FD
:103870000A8B10911002198B00910F020B8B609133
:103880000E0270900D0240901B0A50901C0A82019B
:10389000085F1F4F1E870D8720901D0A30901E0A5B
:1038A0008101085F1F4F188B0F871091FD061C8741
:1038B00060902E0A0091190A10911A0A1A87098736
:1038C000E0901E01109108021B87F09015010091F5
:1038D00026020C8B07E019E08091260A90E0D801BF
:1038E0001296CD90DC901397AC014D5F5F4F4C1555
:1038F0005D050CF46AC015964C9115974C0D5D2D25
:10390000511D481759070CF460C02091270A1496DE
:103910009C911497291708F458C016968C91169705
:10392000890F9927991F2817190611F00CF04DC01F
:10393000E1E01D96EC931D971C961C92FAEEF09315
:10394000260AF093270A29E1820E911CA11CB11CC2
:10395000C501B40120E137E240E050E00E94EA21D5
:103960002A8BC501B40128EE33E040E050E00E940C
:10397000EA21CA01B9012AE030E040E050E00E94AB
:10398000EA21698BC501B40124E630E040E050E053
:103990000E94EA21CA01B9012AE030E040E050E08B
:1039A0000E94EA216B8BC501B4012AE030E040E0BF
:1039B00050E00E94EA21762ECA01B9012AE030E0E7
:1039C00040E050E00E94EA2130E04D855E854C15D4
:1039D0005D05C8F1D80115968C911597C80ED11CBC
:1039E000C414D50480F114968C91149790E0EF855F
:1039F000F889E817F90738F116962C911697820F77
:103A0000911D82159305F8F01D968C911D978111DB
:103A10001AC080912C0A811116C0F1E0F0932C0A93
:103A200021E01D962C931D971C961C921F140CF0E0
:103A300089C1FA94612C1C86E12C41E04B8789E016
:103A400099E09A878987005F1F4F47E15AE0401746
:103A5000510709F041CF30932A0A809209029092CF
:103A60000A02A0920B02B0920C020A890093110282
:103A70001989109310020B8900930F0260930E02B4
:103A800070920D021C851093FD0660922E0A098526
:103A90001A8510931A0A0093190A1B8510930802BD
:103AA000F09215010C890093260240912C0AA0E2A5
:103AB000B1E027E531E0FD01808191810D851E8512
:103AC00008171907B0F05381850F911D84159505CE
:103AD00080F0828190E00F8518890817190748F057
:103AE0005481850F911D8215930518F081858823D7
:103AF00021F0411102C0EE24E3943B962E173F07BC
:103B0000D9F690911D0180911C012D913C91119746
:103B10000D851E850217130740F113965C911397CC
:103B2000250F311D2415350500F112962C911297A1
:103B300030E00F85188902171307B8F014965C91CE
:103B40001497250F311D2215330578F019962C9105
:103B5000199721110AC019160CF404C18F5F8F3216
:103B60000CF4FCC08EE2E12C9CE01B96EA17FB07EC
:103B700061F6E0921E0190931D0180931C011816BE
:103B8000BCF0411115C01092FD0681E080932C0A13
:103B900010922E0A89E099E090931A0A8093190AEC
:103BA00010921E011F140CF4E0C087E080932602DF
:103BB00080911401882309F4C8C147EF56E030E032
:103BC00020E0EE24EA9468E070E00FEF10E0DA0104
:103BD00017968C9117971896EC91F82EFE0EE82FF9
:103BE000E695E695E695E1508770B82EEF3F09F42B
:103BF000C0C0F0E0CE2E0E2E000CDD08AF2FB0E0DE
:103C0000CA16DB060CF4B5C0B695BA2FAA27B7952D
:103C1000A795A20FB31FA15CBD4FEC92FF5FEECF43
:103C2000923069F08091270A8250933009F0BCCD20
:103C30008093270AB9CD8091270A8E5FF9CF8E5FD6
:103C40008093260AB1CD80912E0A882309F4D1CD24
:103C500080E80E945E0F882319F08CEF8093230A7E
:103C60000E944B0F87FD08C00E944B0F84FD04C0CB
:103C70001092230A1092210A80E10E945E0F88238D
:103C800019F084E08093230A8091210A9091230AFD
:103C9000890F8093210A4091220A642F042E000C80
:103CA000770B20911F0A3091200A481794F5260FB0
:103CB000371F3093200A20931F0A4093210A8091D6
:103CC0001F0A9091200A97FD0F9624E095958795FD
:103CD0002A95E1F790931E0A80931D0A88E00E94BE
:103CE0005E0F882309F485CD80912A0A811181CD48
:103CF00080911B0A8B5F8093260A80911D0A8D5F3D
:103D00008093270A81E080932A0A82E08093290A1F
:103D100070CD082E000C990BEE27FF27E61BF70B42
:103D20008E179F0744F4261B370B3093200A2093ED
:103D30001F0A4195C2CF820F931F9093200A809350
:103D40001F0ABDCF612C1C86E12C97E09C8BA1E063
:103D5000AB87E9E0F9E0FA87E98775CE87FF03CF03
:103D600080E001CF9150E12C00CFFA94F092150140
:103D70001FCFBB20B9F00E2E000CFF0B3196F6952D
:103D8000FE2FEE27F795E795E20FF31FE15CFD4F5D
:103D9000CB018B199109D80102C0B595A7958A95D9
:103DA000E2F7A083FF2DF695F695F695EF2DE770D7
:103DB0008F2F90E05C01B694BA2CAA24B794A794F4
:103DC000A20EB31ED12CC12CAF2FAC0DA83078F4AD
:103DD000D601B695BA2FAA27B795A795AA0DBB1DF0
:103DE000A15CBD4FEC92BFEFCB1ADB0AEDCFEE2307
:103DF000B9F0DB01AE1BB109FD01D80102C0B595D8
:103E0000A795EA95E2F7FD01DC01B695BA2FAA273E
:103E1000B795A795A20FB31FA15CBD4FE095EC939A
:103E20002F5F3F4F4E5F5F4F2F37310509F0CFCEE9
:103E300010E080910509181710F5B0E11B9FF00103
:103E400011248091F9069091FA06E80FF91F8385F5
:103E5000882379F0648170E0828193812585222313
:103E600051F0268527FD2F5F25954BE157E00E94F5
:103E7000110F1F5FDECF4781508520E0F8CF10E0A3
:103E80000BE0809106091817A8F4E091FB06F09169
:103E9000FC06109FE00DF11D11248781882341F05D
:103EA000628170E04BE057E0808191810E94FB0EBF
:103EB0001F5FE7CF86E490E0909321028093200279
:103EC00010922302109222026DEE71E08091F706AB
:103ED0009091F8060E945B104091FE0850E070E05F
:103EE00060E02AE08091F7069091F8060E946A103F
:103EF00020912C0A4091190A50911A0A60911D0ACA
:103F000070911E0A80911B0A90911C0A222309F4C9
:103F1000F8C020912D0A27FD2D5F259525950E943B
:103F2000110F6091270A062E000C770B8091260A4C
:103F3000082E000C990B2091280A01E0222309F495
:103F4000E2C023E041E00E94EA0F80911C0115E3EA
:103F5000181B163308F015E341EF57E070E060E0FE
:103F600090E080E00E94FB0E173008F417E0612F0C
:103F700070E020E045EE57E090E080E00E94110FF5
:103F800000E020E447E070E060E089E790E00E9414
:103F9000EA0F10E000E041E0B80189E790E00E94FC
:103FA0006C0F0F5F1F4F00341105A9F71091150119
:103FB0004091090250910A0260910B0270910C022B
:103FC0004A30510561057105C8F081E08093120205
:103FD000443651056105710588F080931302483E0F
:103FE000E3E05E076105710548F0809314024031FB
:103FF00057426105710510F08093150280910D0202
:104000000E942610AC0168E370E08BE790E00E940C
:10401000FB0E80911202882359F080910E020E94BB
:104020002610AC0160E370E08BE790E00E94FB0E8D
:1040300080911302882359F080910F020E9426106C
:10404000AC0168E270E08BE790E00E94FB0E80918B
:104050001402882359F0809110020E942610AC01AE
:1040600060E270E08BE790E00E94FB0E8091150209
:10407000882359F0809111020E942610AC0168E15A
:1040800070E08BE790E00E94FB0E41E358E061E0B6
:1040900070E08BE790E00E94FB0E4BE258E0193095
:1040A00020F4812F0E942610AC0167E070E08BE7BE
:1040B00090E00E94FB0E80910802882339F08091E5
:1040C0001401882319F18150809314018AE090E053
:1040D00090932102809320021092230210922202D8
:1040E00040911501042E000C550B660B770B77FDE4
:1040F00002C00C943C18CB01BA010E94B6100C947B
:10410000FD1620E00CCF21E043E01DCF0091160208
:104110008BE190E090932102809320028CE190E06B
:104120009093230280932202063191F587E08093D9
:10413000260288E00E94530F811105C084E00E948E
:10414000530F882319F281E08093FD0610922D0A07
:1041500010922C0A80932E0A82E295E190931A0A1B
:104160008093190A8AE090E090931C0A80931B0ABE
:104170001092080288E7809314010E943D212FE0ED
:1041800030E040E050E00E94B821609316029ECFDC
:104190002EE0029F80011124095C174FF801649101
:1041A000662339F28FE29AE00E94870F0F5F1F4F5C
:1041B000892BA1F7BECF61EF71E08FE29AE00E94F8
:1041C0005B1088E00E94530F811107C084E00E94B9
:1041D000530F882311F40C94FD16109226020C94B0
:1041E000FD168F929F92AF92BF92CF92DF92EF9285
:1041F000FF92CF93DF93EC01688179818A819B8163
:10420000611571058105910521F464E279ED8BE575
:1042100097E02DE133EF41E050E00E94B8214901E1
:104220005A019B01AC01A7EAB1E40E94D7216B01BE
:104230007C01ACEEB4EFA50194010E94E521C60E0D
:10424000D71EE81EF91EF7FE06C081E0C81AD10885
:10425000E10880E8F80AC882D982EA82FB82C701B5
:10426000B6019F77DF91CF91FF90EF90DF90CF90D5
:10427000BF90AF909F908F9008958F929F92AF9232
:10428000BF92CF92DF92EF92FF92609157017091AF
:1042900058018091590190915A016115710581056C
:1042A000910521F464E279ED8BE597E02DE133EFA0
:1042B00041E050E00E94B82149015A019B01AC0144
:1042C000A7EAB1E40E94D7216B017C01ACEEB4EF08
:1042D000A50194010E94E521C60ED71EE81EF91E15
:1042E000F7FE06C081E0C81AD108E10880E8F80AA4
:1042F000C0925701D0925801E0925901F0925A01B0
:10430000C701B6019F77FF90EF90DF90CF90BF90ED
:10431000AF909F908F9008956093570170935801CC
:104320008093590190935A010895FB01DC0102C06A
:1043300005900D9241505040D8F70895F999FECF5D
:1043400092BD81BDF89A992780B50895262FF999D5
:10435000FECF92BD81BDF89A019700B4021639F0E4
:104360001FBA20BD0FB6F894FA9AF99A0FBE0895B5
:10437000052E97FB1EF400940E94CF2157FD07D015
:104380000E94EA2107FC03D04EF40C94CF215095F3
:104390004095309521953F4F4F4F5F4F0895909531
:1043A0008095709561957F4F8F4F9F4F08950E9424
:1043B0000C22A59F900DB49F900DA49F800D911D80
:1043C00011240895B7FF0C94D7210E94D721821B96
:1043D000930B0895A1E21A2EAA1BBB1BFD010DC071
:1043E000AA1FBB1FEE1FFF1FA217B307E407F507A5
:1043F00020F0A21BB30BE40BF50B661F771F881F81
:10440000991F1A9469F760957095809590959B0116
:10441000AC01BD01CF010895A29FB001B39FC001BF
:10442000A39F700D811D1124911DB29F700D811DE0
:104430001124911D089597FB072E16F4009407D0C0
:1044400077FD09D00E94352207FC05D03EF49095F7
:1044500081959F4F0895709561957F4F0895EE0F58
:10446000FF1F0590F491E02D0994AA1BBB1B51E19D
:1044700007C0AA1FBB1FA617B70710F0A61BB70BD4
:10448000881F991F5A95A9F780959095BC01CD0179
:064490000895F894FFCF2F
:10449600FFFFFFFF00E10000000000000001020333
:1044A600040706057803DEDE00000000320A01106C
:1044B600DE00DE0E08000000000000DE00DE0E0852
:1044C600000000000000DE00DE0E08000000000014
:1044D60000DE00DE0E08000000000000DE00DE0E3A
:1044E6000800000000000001000000061A00000895
:1044F600250000122000001E1800001D24000024C4
:104506002100002D2500002C1C0000311800003D64
:1045160012000041100000402F0000502400004F00
:10452600180000581B00005A2400005E2000006896
:10453600210000621B00006D2200006F1A0000754A
:104546001F00007B19000079260000FFFFFF000016
:1045560001010100C1808100000000000000910CF3
:104566000E0CB20CA70CF80CB60CD40C0000000014
:10457600870FE10B5810571020000D0A0043533ADD
:0C4586000047616D65204F7665720000F3
:00000001FF
