:100000000C949B0A0C94C30A0C94C30A0C94C30A64
:100010000C94C30A0C94C30A0C94C30A0C94C30A2C
:100020000C94C30A0C94C30A0C9405110C9474111B
:100030000C94C30A0C94C30A0C94C30A0C94C30A0C
:100040000C94C30A0C94C30A0C94C30A0C94C30AFC
:100050000C94C30A0C94C30A0C94C30A0C94BB10EE
:100060000C94C30A0C94C30A0C94C30A0C94C30ADC
:100070000C94C30A0C94C30A0C94C30A0C94C30ACC
:100080000C94C30A0C94C30A0C94C30A0C94C30ABC
:100090000C94C30A0C94C30A0C94C30A0C94C30AAC
:1000A0000C94C30A0C94C30A0C94C30A040836497E
:1000B000493604080161190704083E49493004081B
:1000C0004F494931040818167F1004082241493667
:1000D0000408625149460408427F400004083E413A
:1000E000413E00000000003E5B4F5B3E3E6B4F6BAD
:1000F0003E1C3E7C3E1C183C7E3C181C577D571C09
:100100001C5E7F5E1C00183C1800FFE7C3E7FF0081
:1001100018241800FFE7DBE7FF30483A060E2629CF
:10012000792926407F050507407F05253F5A3CE792
:100130003C5A7F3E1C1C08081C1C3E7F14227F2258
:10014000145F5F005F5F06097F017F006689956A23
:10015000606060606094A2FFA29408047E040810AE
:10016000207E201008082A1C08081C2A08081E10D7
:100170001010100C1E0C1E0C30383E3830060E3E8F
:100180000E06000000000000005F000000070007EE
:1001900000147F147F14242A7F2A12231308646218
:1001A00036495620500008070300001C2241000079
:1001B00041221C002A1C7F1C2A08083E08080080D7
:1001C000703000080808080800006060002010086F
:1001D00004023E5149453E00427F40007249494970
:1001E000462141494D331814127F102745454539A2
:1001F0003C4A4949314121110907364949493646A6
:100200004949291E00001400000040340000000885
:100210001422411414141414004122140802015928
:1002200009063E415D594E7C1211127C7F494949B5
:10023000363E414141227F4141413E7F494949414A
:100240007F090909013E414151737F0808087F0079
:10025000417F41002040413F017F081422417F40FF
:100260004040407F021C027F7F0408107F3E4141D6
:10027000413E7F090909063E4151215E7F09192946
:1002800046264949493203017F01033F4040403F30
:100290001F2040201F3F4038403F63140814630371
:1002A000047804036159494D43007F4141410204F0
:1002B000081020004141417F0402010204404040F7
:1002C0004040000307080020545478407F284444ED
:1002D000383844444428384444287F385454541807
:1002E00000087E090218A4A49C787F080404780002
:1002F000447D40002040403D007F102844000041E4
:100300007F40007C047804787C08040478384444F6
:100310004438FC1824241818242418FC7C080404ED
:1003200008485454542404043F44243C4040207C56
:100330001C2040201C3C4030403C44281028444CA9
:100340009090907C4464544C440008364100000076
:10035000770000004136080002010204023C262317
:10036000263C1EA1A161123A4040207A38545455CF
:10037000592155557941215454784121555478409B
:1003800020545579400C1E52721239555555593921
:100390005454545939555454580000457C41000276
:1003A000457D420001457C40F0292429F0F02825B4
:1003B00028F07C545545002054547C547C0A097F15
:1003C0004932494949323248484832324A4848302D
:1003D0003A4141217A3A42402078009DA0A07D39DF
:1003E000444444393D4040403D3C24FF2424487E61
:1003F0004943662B2FFC2F2BFF0929F620C0887E4E
:10040000090320545479410000447D413048484A52
:1004100032384040227A007A0A0A727D0D19317D05
:100420002629292F28262929292630484D402038D9
:100430000808080808080808382F10C8ACBA2F1098
:100440002834FA00007B000008142A142222142AFF
:1004500014089500220095AA005500AAAA55AA558D
:10046000AA000000FF00101010FF00141414FF0079
:100470001010FF00FF1010F010F0141414FC001402
:1004800014F700FF0000FF00FF1414F404FC141420
:1004900017101F10101F101F1414141F001010101D
:1004A000F0000000001F101010101F10101010F0AE
:1004B00010000000FF101010101010101010FF108E
:1004C000000000FF140000FF00FF00001F101700D5
:1004D00000FC04F414141710171414F404F40000AE
:1004E000FF00F714141414141414F700F714141460
:1004F000171410101F101F141414F4141010F010FF
:10050000F000001F101F0000001F14000000FC146A
:100510000000F010F01010FF10FF141414FF14105E
:1005200010101F00000000F010FFFFFFFFFFF0F0B1
:10053000F0F0F0FFFFFF0000000000FFFF0F0F0FC3
:100540000F0F38444438447C2A2A3E147E020206A7
:1005500006027E027E0263554941633844443C04EE
:10056000407E201E2006027E020299A5E7A5991C66
:100570002A492A1C4C7201724C304A4D4D30304889
:10058000784830BC625A463D3E494949007E0101E7
:10059000017E2A2A2A2A2A44445F444440514A447C
:1005A0004040444A51400000FF0103E080FF00004A
:1005B00008086B6B083612362436060F090F060042
:1005C0000018180000001010003040FF0101001F4B
:1005D00001011E00191D1712003C3C3C3C000000AC
:1005E0000000080B000202020000090400000102E2
:1005F0000200000524001001052401010104240269
:1006000006052406000107058103100040090401C6
:1006100000020A00000007050202400000070583EF
:10062000024000000403090412010002EF0201402D
:100630004123368000010102030141726475696E35
:100640006F204C4C430041726475626F7900F0F882
:100650009C8E8783878E9CF8F00000FEFF030303C7
:100660000303070EFCF80000FEFF03030303030768
:100670000EFCF80000FFFF00000000000000FFFF7C
:100680000000FEFF8383838383C7EE7C380000F87D
:10069000FC0E07030303070EFCF800003F7FE0C0D9
:1006A0008080C0E07F3FFFFF01010101010101FFE8
:1006B000FF0000FFFF0C0C0C0C1C3E77E3C1000098
:1006C0007FFFC0C0C0C0C0E0703F1F00001F3F7070
:1006D000E0C0C0C0E0703F1F00007FFFC1C1C1C1CA
:1006E000C1E3773E1C00001F3F70E0C0C0C0E07057
:1006F0003F1F000000000001FFFF01000000D5F0D7
:100700008D14A1C881CFD9F1AF20000E08FF8181DF
:1007100081FFFFFF818181FF7E3C180A10000000ED
:100720000000000000303030300000000000000009
:1007300000000000000000000000000000000000B9
:1007400000000000000000000000002020383850A9
:100750005060600000000000000000000000000089
:100760000000000000000000000000000000000089
:10077000003030C8C82020949468685050000000B1
:100780000000000000000000000000000000000069
:100790000000000000000020205454AAAA58582A43
:1007A0002AE0E09C9C2828000000000000000001D6
:1007B000010000010100000000000000001818A066
:1007C000A004044B4B80800A0A292910108C8C60ED
:1007D00060000001010000020202020000030300A9
:1007E000000000000005080F0F0F0F0F0F07070391
:1007F00003074080BE8A8A8280FF0000000000005C
:10080000FF000000000000FF000000000000FF00EB
:100810000000000000FF000000000000FF000000DA
:10082000000000FF017D55554501FF040826494998
:100830003E04081B04041B20204E6963652074726B
:1008400079212020002020546F6F20736C6F772156
:10085000202000204E696365206372617368212047
:10086000002020546F6F20656173792120200020C3
:1008700050696C6F74206661696C212000202042F1
:100880006164206D6F7665212020002020536F2049
:10089000636C6F736521202000202020204F6F7033
:1008A00073212020202000202020416C6D6F737464
:1008B00021202020002054727920686172646572C2
:1008C000212000204E6F7420656E6F7567682120AF
:1008D000004E696365206C616E64696E672100205B
:1008E000476F6F64206372617368212000202020AD
:1008F000416761696E3F21202020002020536F2036
:10090000717569636B212020000A1000000000004F
:100910000000003030303000000000000000000017
:1009200000000000000000000000000000000000C7
:100930000000000000000000002020383850506007
:100940006000000000000000000000000000000047
:100950000000000000000000000000000000003067
:1009600030C8C820209494686850500000000000EF
:100970000000000000000000000000000000000077
:10098000000000000020205454AAAA58582A2AE047
:10099000E09C9C28280000000000000000010100ED
:1009A00000010100000000000000001818A0A004D1
:1009B000044B4B80800A0A292910108C8C6060003F
:1009C0000001010000020202020000030300000017
:1009D0000000002F083E4141412200007F091929F3
:1009E0004600007F4949494100007F4141413E00A6
:1009F0000041417F4141000001017F0101000026CB
:100A0000494949302F083E4141413E00007F0909D4
:100A10000906000001017F0101000041417F4141C1
:100A200000003E4141413E00007F0408107F00006D
:100A300026494949301A087F0808087F00007F4985
:100A400049494100007F4040404000007F090909BA
:100A50000621082649494930000001017F010100B3
:100A6000007E0909097F00007F091929460000015D
:100A7000017F01013E188080C0C0A0E070F028F81E
:100A80001CFC0AFE07FF05FF05FF05FF07FF07FF28
:100A900005FF05FF05FF07FF07FF05FF05FF05FF32
:100AA00007FF07FF05FF05FF05FF07FF07FF05FF1E
:100AB00005FF05FF07FF07FF05FF05FF05FF07FF10
:100AC00007FF05FF05FF05FF07FF07FF05FF05FF00
:100AD00005FF07FF07FF05FF05FF05FF07FF07FFEE
:100AE00005FF05FF05FF07FF07FF05FF05FF05FFE2
:100AF00007FFFFFF18FFFFFF00FF00FF00FF00FFE1
:100B000000FF00FF00FF00FF00FF00FF00FF00FFED
:100B100000FF00FF00FF00FF00FF00FF00FF00FFDD
:100B200000FF00FF00FF00FF00FF00FF00FF00FFCD
:100B300000FF00FF00FF00FF00FF00FF00FF00FFBD
:100B400000FF00FF00FF00FF00FF00FF00FF00FFAD
:100B500000FF00FF00FF00FF00FF00FF00FF00FF9D
:100B600000FF00FF00FF00FF00FF00FF00FF1F1F4E
:100B7000031F1F1F001F001F001F001F001F001F5B
:100B8000001F001F001F001F001F001F001F001F6D
:100B9000001F001F001F001F001F001F001F001F5D
:100BA000001F001F001F001F001F001F001F001F4D
:100BB000001F001F001F001F001F001F001F001F3D
:100BC000001F001F001F001F001F001F001F001F2D
:100BD000001F001F001F001F001F001F001F001F1D
:100BE000001F001F001F001F001F3E18FFFF18FFFF
:100BF000FFFF00FF00FF00FF00FF00FF00FF00FFFE
:100C000000FF00FF00FF00FF00FF00FF00FF00FFEC
:100C100000FF00FF00FF00FF00FF00FF00FF00FFDC
:100C200000FF00FF00FF00FF00FF00FF00FF00FFCC
:100C300000FF00FF00FF00FF00FF00FF00FF00FFBC
:100C400000FF00FF00FF00FF00FF00FF00FF00FFAC
:100C500000FF00FF00FF00FF00FF00FF00FF00FF9C
:100C600000FF00FF00FF00FF3F3F637FBFFFC0FFAB
:100C700080FF00FF00FF00FF00FF00FF00FF00FFFC
:100C800000FF00FF00FF00FF00FF00FF00FF00FF6C
:100C900000FF00FF00FF00FF00FF00FF00FF00FF5C
:100CA00000FF00FF00FF00FF00FF00FF00FF00FF4C
:100CB00000FF00FF00FF00FF00FF00FF00FF00FF3C
:100CC00000FF00FF00FF00FF00FF00FF00FF00FF2C
:100CD00000FF00FF00FF00FF00FF00FF00FF00FF1C
:100CE00000FF00FF000000000000010102030707F1
:100CF0000A0F1C1F141F141F141F1C1F1C1F141F5E
:100D0000141F141F1C1F1C1F141F141F141F1C1F33
:100D10001C1F141F141F141F1C1F1C1F141F141F23
:100D2000141F1C1F1C1F141F141F141F1C1F1C1F0B
:100D3000141F141F141F1C1F1C1F141F141F141F0B
:100D40001C1F1C1F141F141F141F1C1F1C1F141FEB
:100D5000141F141F1C1F1C1F141F141F141F1C1FE3
:100D60003E1807FF05FF05FF05FF07FF07FF05FF0B
:100D700005FF05FF07FF07FF05FF05FF05FF07FF4D
:100D800007FF05FF05FF05FF07FF07FF05FF05FF3D
:100D900005FF07FF07FF05FF05FF05FF07FF07FF2B
:100DA00005FF05FF05FF07FF07FF05FF05FF05FF1F
:100DB00007FF07FF05FF05FF05FF07FF07FF05FF0B
:100DC00005FF05FF07FF07FF05FF05FF05FF07FFFD
:100DD0000AFE1CFC28F870F0A0E0C0C0808000FF74
:100DE00000FF00FF00FF00FF00FF00FF00FF00FF0B
:100DF00000FF00FF00FF00FF00FF00FF00FF00FFFB
:100E000000FF00FF00FF00FF00FF00FF00FF00FFEA
:100E100000FF00FF00FF00FF00FF00FF00FF00FFDA
:100E200000FF00FF00FF00FF00FF00FF00FF00FFCA
:100E300000FF00FF00FF00FF00FF00FF00FF00FFBA
:100E400000FF00FF00FF00FF00FF00FF00FF00FFAA
:100E500000FF00FFFFFF18FFFFFF001F001F001F24
:100E6000001F001F001F001F001F001F001F001F8A
:100E7000001F001F001F001F001F001F001F001F7A
:100E8000001F001F001F001F001F001F001F001F6A
:100E9000001F001F001F001F001F001F001F001F5A
:100EA000001F001F001F001F001F001F001F001F4A
:100EB000001F001F001F001F001F001F001F001F3A
:100EC000001F001F001F001F001F001F001F001F2A
:100ED0001F1F031F1F1F3E1800FF00FF00FF00FF22
:100EE00000FF00FF00FF00FF00FF00FF00FF00FF0A
:100EF00000FF00FF00FF00FF00FF00FF00FF00FFFA
:100F000000FF00FF00FF00FF00FF00FF00FF00FFE9
:100F100000FF00FF00FF00FF00FF00FF00FF00FFD9
:100F200000FF00FF00FF00FF00FF00FF00FF00FFC9
:100F300000FF00FF00FF00FF00FF00FF00FF00FFB9
:100F400000FF00FF00FF00FF00FF00FF00FFFFFFAA
:100F500018FFFFFF00FF00FF00FF00FF00FF00FF82
:100F600000FF00FF00FF00FF00FF00FF00FF00FF89
:100F700000FF00FF00FF00FF00FF00FF00FF00FF79
:100F800000FF00FF00FF00FF00FF00FF00FF00FF69
:100F900000FF00FF00FF00FF00FF00FF00FF00FF59
:100FA00000FF00FF00FF00FF00FF00FF00FF00FF49
:100FB00000FF00FF00FF00FF00FF00FF00FF00FF39
:100FC00000FF00FF00FF80FFC0FFBFFF637F3F3FC8
:100FD0001C1F141F141F141F1C1F1C1F141F141F61
:100FE000141F1C1F1C1F141F141F141F1C1F1C1F49
:100FF000141F141F141F1C1F1C1F141F141F141F49
:101000001C1F1C1F141F141F141F1C1F1C1F141F28
:10101000141F141F1C1F1C1F141F141F141F1C1F20
:101020001C1F141F141F141F1C1F1C1F141F141F10
:10103000141F1C1F1C1F141F141F141F1C1F0A0F1A
:10104000070702030101000000000000161800E07D
:10105000F0F8FCFEFEFEFFFFFFFFFFFFFEFEFEFCC2
:10106000F8F0E0003FFFFFFFFFFFFFFFFFFFFFFF84
:10107000FFFFFFFFFFFFFFFFFF3F000103070F1F01
:101080001F1F3F3F3F3F3F3F1F1F1F0F0703010031
:10109000B210F898F8F8F8F8F8F8F8F8FC9CBCFCEE
:1010A000F8F8F8F8F8B8F4F4F4FAFAFAF2FAF97988
:1010B000797DFF3F7F7ABE3E3E1E1C0E0C0C0E0E4D
:1010C0000C9C9CF8F8B838B8F8E8F8FCFCD8D8D8EC
:1010D000F8F8D8F0F8F8F8F8F8B898F8F8F8F8FC54
:1010E000FCFADAFAFAF1FAFA7279F979FBFBFFFF06
:1010F000FE7EFE7E7C7C3C18180828F8F838F878CC
:10110000F8F8F8B0F0F0F0F0F8F0F8F8F870F8F857
:10111000F0F0A0E0F0F0F0E8E8E8E8E8E8E4E4E483
:10112000F2FAFCFCBCF8F8B8F0F0D8D8F8F0F0E02F
:101130006070F070E0E0E0E0E0E0C0C0C0C0C0E09F
:10114000E0F0F0F80F0F0F0F0F070500000001038C
:101150000F0F0B0F0F0F07070701010206050B0FFB
:10116000070F0F0F0F0E0F0F0F0F0F0F0D0D0D0DA0
:101170000F0D0F0F0F0F0E0E0E0E0E0F0E0E070F90
:101180000E0F0F0F0F0F0F0F0B0F0F0F0F0F0F0F74
:10119000080C0D0F0D0F0F0F0F0F0F0F0F0F0F0F6D
:1011A0000F0F0F0F0F0F0F0F0F0E0F0F0F0F0F0F50
:1011B0000F070F0F0F0F0F0F0F0F0E0F0F0F0F0F48
:1011C0000F0F0F0F0F0707030303030303010101B1
:1011D000010101010101030303030307070F0F07C7
:1011E000070F0F0F0F0F0F0F0F0F0F0F0F0F0F0D19
:1011F0000F0F0D0D0F0F0D10FF010101F909091956
:10120000F1010306FC3F2020203F0000003F20208A
:10121000203F0D10FF01010179494979010173DE79
:10122000803F2020203E0202023E2020203F0D1061
:10123000FC060301392929292929E9090F1F302032
:101240002027252525252525243C0D10FF010101FA
:10125000FF000000FF010101FF03060C18332624E4
:101260002633180C06030D10FE0301017949494984
:1012700079010103FE3F2020203E0202023E202091
:10128000203F0B100F0909F9010101F909090F3C71
:101290002424272020202724243C1110FF010101B1
:1012A000F909F9010101F909F9010306FC3F2020C0
:1012B000203F003F2020203F003F2020203F0D10F6
:1012C000FC860301392929292929296FC03C2525B4
:1012D0002525252525272020301F0D10FE0301017F
:1012E000F9090909F9010103FE1F302020272424F0
:1012F00024272020301F0D10FE030101F9090909E0
:10130000392121233E1F3020202724242427212176
:10131000311F0040004000400040004000400040BD
:1013200000400040004000400040004000400040BD
:1013300000400040004000400040004000400040AD
:10134000004000400040004000400040004000409D
:10135000004000400040004000400040004000408D
:10136000004000400040004000400040004000407D
:10137000004000400040004000400040004000406D
:10138000004000400040004000401516151615169C
:1013900015161516151615161516151615161516F5
:1013A00015161516151615161516151615161516E5
:1013B0001516121C0F220C28092E0634033A013E82
:1013C000013E013E013E023B0339023A023B033A31
:1013D000023B033B023B013D013C013D013D023B21
:1013E000013B023B013B013B023B033B033B033A16
:1013F000033B023B013B023A013C023A013C023B07
:101400000339033A033B033A0339023A033A023CF5
:10141000023C013C023A033A023B0339033A023BE5
:10142000013C023C013C023C023C013D013D023CCE
:10143000023B023B013C013B013C023C033B033AC3
:10144000033B033B033A033A033B023C033A033AB0
:10145000033B033B023C013C023B013D023B013CA0
:10146000023C013C013B013B023A023A0339033999
:101470000339033A0339033A033B033B023C023B83
:10148000033B033B023B013D013D013D013C013D6E
:10149000013D013C023C013C013D013D013C013D5F
:1014A000013D023C013C023A013C023B023A023A55
:1014B000013B013C023B023C013D013D023C013D40
:1014C000013C023B0339023A023B0339023A013B39
:1014D000013B013C013C013D023C033A033B033B21
:1014E000033A023C023C013D013D013C013D013D0E
:1014F000013D023C013D013C023A0339033A033A03
:10150000033B023C033A0339023B013D023B013DF0
:1015100000000708117F5E7F3A7F6E7F3A7F5E7F13
:10152000117F080849496B6B7F7F6B7F223E363EF7
:101530001C1C0808D91311241FBECFEFDAE0DEBF50
:10154000CDBF11E0A0E0B1E0EEE5F3E402C005900C
:101550000D92AC39B107D9F729E0ACE9B1E001C08F
:101560001D92A237B207E1F71AE0CBE9DAE004C036
:101570002197FE010E949321CA39D107C9F70E9421
:10158000A2140C94AD210C940000EEEDF1E0A0E06B
:10159000B8E000800EBC8111012C1197A0FDFDCF99
:1015A0000192B9F70DB40895FC018091DD01882303
:1015B00011F13FB7F89482E08093E9002091F200A6
:1015C000822F90E01816190614F481E090E0882329
:1015D00039F0289844E64093DC014091F1004083C3
:1015E000222339F02091F200211103C02BE6209331
:1015F000E8003FBF08958FEF9FEF08952FB7F8944D
:1016000083E08093E9009091E800892F807295FF34
:1016100004C09091F20080E4891B2FBF089580914F
:10162000D40181110DC082E08093D00184E08093C9
:10163000D1011092D3011092D20181E08093D401A4
:1016400080ED91E00895FC010E94370B319728F05E
:1016500068517C4F8F4F9F4FF9CFAB01FC010E9427
:10166000370B641775078E079F07C8F30895ACEC16
:10167000B1E02FB7F8947D918D919C9166B52FBF05
:10168000A89B05C06F3F18F47F5F8F4F9F4F22E0EC
:10169000660F771F881F991F2A95D1F708954091EB
:1016A0009E0150919F0120919C0130919D01421714
:1016B0005307B4F49091E8009570E1F39091E8003D
:1016C00092FD19C08093F10080919E0190919F013D
:1016D00001968F739927892B19F48EEF8093E80078
:1016E00080919E0190919F01019690939F0180931C
:1016F0009E0181E0089580E00895DF92EF92FF92CD
:101700000F931F93CF93DF93D82E8A01EB017B01B8
:10171000E40EF51ECE15DF0559F0D7FE12C0FE010E
:1017200084910E944F0B21968111F4CF0FEF1FEF90
:10173000C801DF91CF911F910F91FF90EF90DF9043
:1017400008958881EECF0F931F93CF93DF931F925D
:10175000CDB7DEB782E0898342E450E062EE75E007
:1017600080E80E947D0B0E940F0BDC0112960D9108
:101770001C910115110589F0D801ED91FC910280B1
:10178000F381E02DBE016F5F7F4FC801099597FD82
:1017900004C0F80100851185ECCF89810F90DF919D
:1017A000CF911F910F910895615030F02091F10079
:1017B000FC0120830196F8CF289884E68093DC0111
:1017C0000895AF92BF92CF92DF92EF92FF920F9364
:1017D0001F93CF93DF936C017B018B01040F151FC7
:1017E000EB015E01AE18BF08C017D10759F069912F
:1017F000D601ED91FC910190F081E02DC601099593
:10180000892B79F7C501DF91CF911F910F91FF903F
:10181000EF90DF90CF90BF90AF9008958F929F92FE
:10182000AF92BF92CF92DF92EF92FF920F931F93EE
:10183000CF93DF936C017B018A0180910B01882398
:1018400009F45AC08091DD01882309F455C08091C4
:10185000A20180FF05C08091E00082608093E000DB
:10186000E801B12C8AEFA82E93E0892E2AE3922E6C
:10187000209711F4BB20C9F10E94FE0A811108C013
:10188000AA94AA20C9F181E090E00E94230BF0CF36
:101890008C171D0611F00CF08C2F9FB7F8948092D6
:1018A000E9002091E80025FD02C09FBFE1CF282F6D
:1018B00030E0C21BD30BF701815020F041914093DF
:1018C000F100FACFE20EF31EBB2021F09092E80067
:1018D000B12CEBCF8091E80085FDE7CF9092E80036
:1018E000BB24B394209709F3F3CF5D9884E68093EB
:1018F000A101101611063CF081E090E0F6019383FF
:10190000828310E000E0C801DF91CF911F910F9119
:10191000FF90EF90DF90CF90BF90AF909F908F900F
:101920000895CF93DF931F92CDB7DEB76983DC01B3
:10193000ED91FC910280F381E02D41E050E0BE0189
:101940006F5F7F4F09950F90DF91CF91089583E0EE
:101950008093E9008091F200882319F08AE3809354
:10196000E80008950E94FE0A90E00895CF93DF9367
:101970001F92CDB7DEB7FC018485958597FD08C021
:101980002FEF3FEF358724870F90DF91CF91089598
:10199000CE0101960E94D40A019719F4898190E042
:1019A000F3CF8FEF9FEFF0CF0F931F93CF93DF9382
:1019B0001F92CDB7DEB78C01FC018485958597FF1A
:1019C0000BC0CE0101960E94D40A019771F489815F
:1019D00090E0F80195878487F801848595850F90BC
:1019E000DF91CF911F910F9108958FEF9FEFF1CF6E
:1019F000FC018485958597FD0BC09FB7F89482E024
:101A00008093E9008091F2009FBF90E001960895D5
:101A10009FB7F89482E08093E9008091F2009FBF25
:101A200090E008954F925F926F927F928F929F9273
:101A3000AF92BF92CF92DF92EF92FF920F931F93DC
:101A4000CF93DF934C015901FC2DC02FD0E0CE0184
:101A5000880D991D181619060CF06CC020E8821626
:101A600091040CF067C09B012E0D311D1216130658
:101A70000CF060C0603471050CF05CC0411551057C
:101A800009F458C0E62FE770FE2EDB0177FD1796AC
:101A900033E0B595A7953A95E1F73A2F77FF04C063
:101AA000FF2011F03FEF3A0F662777276819790971
:101AB00097FC02C070E060E0803891050CF44BC0E8
:101AC00090E89819961BA32F032E000CBB0B1A2F1E
:101AD00010953F3F0CF010E021E08E2D877009F447
:101AE00020E0E694E694E694E20EAE0DB11D19975F
:101AF0001CF028E0E22EE31AE11A310F20E832034D
:101B0000D0011124A80DB91DA60FB71F019F600DAC
:101B1000711D1124460F571F0F2D0F2C000C110B98
:101B2000F33009F41CC1C8F4F13009F4D0C0F2302C
:101B300009F47CC0DF91CF911F910F91FF90EF903E
:101B4000DF90CF90BF90AF909F908F907F906F90DD
:101B50005F904F900895902FB5CFFA3FB1F1232FAA
:101B60002E0DFB3F39F7321729F3BD0162527E4F2C
:101B7000D12CC12CC91608F0A4C0FA01EC0DFD1D32
:101B8000E491F0E04F01002E02C0880C991C0A94E9
:101B9000E2F737FD06C0FB018081E82CE0948E213E
:101BA0008083FF2061F0373054F45B01F0E8AF0E22
:101BB000B11CE92CE094F50180818E218083FFEF38
:101BC000CF1ADF0A6F5F7F4FD5CF232F2E0D32172D
:101BD00009F4B0CFBD0162527E4FD12CC12CC91681
:101BE00008F069C0FA01EC0DFD1DE491F0E04F0131
:101BF000002E02C0880C991C0A94E2F737FD04C03D
:101C0000FB01808188298083FF2051F0373044F424
:101C10005B01F0E8AF0EB11CF5018081892980835A
:101C2000FFEFCF1ADF0A6F5F7F4FD9CF6FEF70E002
:101C30000F2C02C0660F771F0A94E2F7609570952B
:101C4000772E232F2E0D321709F474CFFD01E252A7
:101C5000FE4F6F01B12CA12CA91638F5FA01EA0D3F
:101C6000FB1DE491F0E02F01002E02C0440C551C36
:101C70000A94E2F737FD05C0F601808186238429A6
:101C80008083FF2059F037304CF44601F0E88F0E86
:101C9000911CF4018081872185298083FFEFAF1A91
:101CA000BF0A8FEFC81AD80AD7CF3F5F4C0F5D1F0E
:101CB000A058BF4FC8CF3F5F4C0F5D1FA058BF4F0C
:101CC00086CF3F5F4C0F5D1FA058BF4F4CCF6A0DB2
:101CD0007B1D232F2E0D321709F42CCFFD01E2526C
:101CE000FE4F6F01B12CA12CA91688F5FB01EA0D5E
:101CF000FB1D8490912C002E02C0880C991C0A9424
:101D0000E2F780949094FA01EA0DFB1D6490712C27
:101D1000002E02C0660C771C0A94E2F737FD05C05E
:101D2000F6018081882186298083FF2049F03730A1
:101D30003CF4F601E058FF4F808189218729808398
:101D4000FFEFAF1ABF0A8FEFC81AD80ACDCF3F5F97
:101D50004C0F5D1F6C0F7D1FA058BF4FBCCFC92E0D
:101D6000D12CFA01E60FF71FA252BE4F00E810E097
:101D70000C191D09CC19DD09BE01660F771F41E062
:101D800050E06A010F2C01C0CC0C0A94EAF7592FDD
:101D90002E2D792ECF93DF93ED01EF96EF962296BD
:101DA0008590A590FF2059F08C9C4001AC9C50017F
:101DB00037302CF4E880B094EB20E928E992332303
:101DC0003AF0EC90A094EA20E828ED920C94E90E09
:101DD00011965A9529F72A9551F0572D33951124CC
:101DE000E60FF11DA00FB11DC00FD11DD9CFDF919E
:101DF000CF9111249FCECF92EF920F9341155105B1
:101E000061F0FA0104913196E4904E5F5F4F22E059
:101E1000C22E30E020E00E94120D0F91EF90CF9083
:101E20000895CF92EF920F934115510569F1FA0190
:101E300004913196E4904E5F5F4F2223F9F0A1E0C8
:101E4000B0E03E2D377011F4B0E0A0E0EE2DE69545
:101E5000E695E695EA0FFB2FF11D0E9FD0010F9F2F
:101E6000B00D112430E0220F331FA29FF001A39F79
:101E7000F00DB29FF00D11244E0F5F1F23E0C22E14
:101E800030E020E00E94120D0F91EF90CF90089566
:101E900090E00C94230B8FB18095807F669B8860C7
:101EA0001C9B8460089590E1282F81E061FD84E00F
:101EB00060FD880F62FD8295687F969FD001112496
:101EC000A20FA252BE4F0C90082A40FF08260C9287
:101ED00008958F929F92AF92BF92CF92DF92EF922E
:101EE000FF920F931F93CF93DF936D3089F0C090D3
:101EF000C101D090C2016A30D1F41092C001109299
:101F0000BF0188E0C80ED11CD092C201C092C101AD
:101F100081E090E0DF91CF911F910F91FF90EF90C2
:101F2000DF90CF90BF90AF909F908F9008950091D9
:101F3000BF011091C001E5E06E9FE0011124CE5178
:101F4000DF4F5801F12CF5E0E12CFF1629F0CE010E
:101F50000196FE01E490EC01912C812CF0E8AF1683
:101F6000B10458F4B601680D791D6034710528F488
:101F70004E2D4170C5010E94530FE6948FEF881AD1
:101F8000980AE8E08E16910449F7F394FFEFAF1A30
:101F9000BF0A86E0F812D7CF0A5F1F4F1093C00127
:101FA0000093BF01B5CF9091C301982329F490917C
:101FB000C401982381E009F480E00895CF93C82FED
:101FC0000E944B0F982F9C2381E09C1380E0CF91BF
:101FD000089580E00C94C50A8F929F92AF92BF92B1
:101FE000CF92DF92EF92FF920F93CF93DF935B013B
:101FF000EC014C01840E911C6B01C20ED11CC81562
:10200000D905ECF47501B7FE02C0F12CE12CC60134
:1020100021E4C216D10414F080E490E0E816F90639
:1020200064F4C038D10528F4402FB701CE010E94D6
:10203000530F8FEFE81AF80AEACF2196E0CFDF912D
:10204000CF910F91FF90EF90DF90CF90BF90AF9026
:102050009F908F9008958A3040F5E82FF0E0ED5C76
:10206000FF4E0C94932156103D1059104010431010
:10207000461049104C104F10521086ED90E0089514
:102080008AEC90E0089584EC90E008958EEB90E067
:10209000089588EB90E0089582EB90E008958CEA33
:1020A00090E008958BE298E0089508958CED90E01B
:1020B000089580ED90E00895089590E080E00895FF
:1020C000FB0101900020E9F73197AF01461B570B48
:1020D000DC01ED91FC910280F381E02D09948F9257
:1020E0009F92AF92BF92EF92FF920F931F93CF9365
:1020F000DF93CDB7DEB7A1970FB6F894DEBF0FBE62
:10210000CDBF7C01FA01CB0119A2223008F42AE0EC
:102110008E010F5D1F4F822E912CB12CA12CBF017F
:10212000A50194010E944E21F901CA016A300CF503
:10213000605DD8016E938D01232B242B252B79F71D
:1021400090E080E0109721F0BD01C7010E9460106F
:10215000A1960FB6F894DEBF0FBECDBFDF91CF9131
:102160001F910F91FF90EF90BF90AF909F908F9035
:102170000895695CDECF0F920FB68F939F93EF9314
:10218000FF938091C7018D5F8D3708F08D57809345
:10219000C701E8ECF1E080818E4F808391819F4FF1
:1021A000918382818F4F828383818F4F8383ECEC75
:1021B000F1E080818F5F808381818F4F8183828175
:1021C0008F4F828383818F4F83838FB18F60669916
:1021D0001C9B88278F3681F48091C601981B96300E
:1021E00068F0E0E0F8E087E78083818388E180930E
:1021F0006000F0936000FFCF9093C601FF91EF91D4
:102200009F918F910FBE0F9018951F920F920FB64E
:102210000F9211248F939F938091E1009091E100A0
:10222000937F9093E10083FF0FC01092E90091E04B
:102230009093EB001092EC0092E39093ED001092DB
:10224000DD0198E09093F00082FF22C093E090932C
:10225000E9009091F200992319F09AE39093E80035
:102260009091A101992341F09091A10191509093F7
:10227000A101911101C05D9A9091DC01992341F077
:102280009091DC0191509093DC01911101C0289A4A
:1022900084FF18C08091E2008E7E81608093E2000E
:1022A0008091E1008F7E8093E1008091A2018E7E7B
:1022B00080618093A2019F918F910F900FBE0F902C
:1022C0001F90189580FFF7CF8091E2008E7E80618D
:1022D0008093E2008091E1008E7E8093E100809106
:1022E000A2018E7E8160E5CF1F920F920FB60F92F2
:1022F0001124CF92DF92EF92FF920F931F932F93AF
:102300003F934F935F936F937F938F939F93AF937D
:10231000BF93EF93FF93CF93DF93CDB7DEB76C9767
:10232000DEBFCDBF1092E9008091E80083FF25C099
:1023300068E0CE0145960E94D40B82EF8093E800BE
:102340008D8987FF39C09091E80090FFFCCF982FCE
:10235000907609F034C19E894F89588D2F89F88C69
:10236000911131C0803861F58091A3018093F10013
:102370001092F1008EEF8093E8006C960FB6F894FF
:10238000DEBF0FBECDBFDF91CF91FF91EF91BF9127
:10239000AF919F918F917F916F915F914F913F91FD
:1023A0002F911F910F91FF90EF90DF90CF900F90A2
:1023B0000FBE0F901F9018959EEF9093E800C7CF27
:1023C0001092F100D5CF913059F48111D3CF413023
:1023D000510581F68091A3018D7F8093A301CACF1F
:1023E000933049F48111C6CF4130510519F68091DF
:1023F000A3018260F2CF953041F48091E80080FF24
:10240000FCCF20682093E300B5CF963009F0A9C037
:102410000B8D1C8D22E01092E90010929F0110920A
:102420009E01F2122EC010929D0110929C010E94FA
:10243000A30B1F8299E09983FA8291E09E8390EA30
:1024400098879AEF998720919E0130919F01275F8D
:102450003F4F3C832B838D831092E90010929F01A4
:1024600010929E0110939D0100939C0149E050E061
:10247000BE016F5F7F4F80E00E947D0B0E94A30B27
:1024800079CF10939D0100939C010E940F0BDC01FA
:1024900012960D911C910115110509F451C1D80135
:1024A000ED91FC910480F581E02DBE016B5E7F4FC4
:1024B000C8010995009709F03EC1F8010085118512
:1024C000EACFF3E0FF120EC08F89882309F440C0E1
:1024D000823061F440E867E086E496E00E94A6134B
:1024E000811148CF81E28093EB0047CF813029F4FE
:1024F00040E86BE08AE396E0F1CF833099F70E94E1
:102500000F0BDC011296ED90FC908E010F5F1F4FB8
:102510006801E114F10479F0D701ED91FC91068096
:10252000F781E02DB801C7010995080F111DF701CA
:10253000E084F184EECFD8011C92F60101900020D6
:10254000E9F73197BF016C197D0940E0C601C6CF9C
:1025500064E276E0FB01449150E080E80E947D0B4C
:1025600009CF973009F4BECF983021F481E08093F1
:10257000F10000CF993009F0FDCE837009F0B2CFA1
:10258000E4E6F1E081E031E096E32191222371F06D
:102590008093E9003093EB00DF0111972C91209399
:1025A000EC009093ED008F5F873079F78EE7809392
:1025B000EA001092EA008F898093DD01DBCE8B8DDB
:1025C0009C8D1092E90010929F0110929E019093B1
:1025D0009D0180939C01898D811192C08E899D8976
:1025E000913A49F4813209F07DCF47E050E064E050
:1025F00071E080E0B3CF913209F074CF833269F497
:102600008F89988DB0E0A0E0809300019093010144
:10261000A0930201B0930301ADCE803269F48091A2
:10262000E80082FFFCCF67E084E091E00E94D40BD9
:102630008BEF8093E8009ECE823209F09BCE8F898B
:1026400080930B01EEEFFFE7859194918B3F9C4DBA
:1026500051F1E0E0F8E08091040190910501A09132
:102660000601B0910701803B9440A105B105F1F44A
:1026700080910B0180FD1AC0EE3F8AE0F80789F5D2
:1026800087E797E791838083809160008093A00122
:1026900088E19BE00FB6F894A895809360000FBE88
:1026A0009093600067CEEEEFFAE0D5CF8081918104
:1026B0008737974709F05ECEA895809160008861C2
:1026C000809360008091A00180936000EE3F2AE03B
:1026D000F20789F08091FE0A9091FF0A918380832E
:1026E00049CE808191818737980751F29093FF0AF4
:1026F0008093FE0AC5CF1092FF0A1092FE0A3ACECE
:102700000E940F0BDC0112960D911C910115110511
:1027100009F4E8CED801ED91FC910190F081E02D13
:10272000BE016B5E7F4FC8010995811123CEF80170
:1027300000851185EBCF181619060CF41BCED2CEEE
:10274000F1E0FF12BECE68E276E004CFEF92FF9296
:102750000F931F93CF93DF93F82E192FE62E042F9C
:1027600081E0860F880F0E944F0B83E00E944F0B81
:10277000CF2DD12FEC0EFD2EF11CCE15DF05B9F0BB
:1027800007FF13C0FE0184910E944F0B182F80E0B9
:102790000E944F0B812321968111EFCFDF91CF91C2
:1027A0001F910F91FF90EF9008958881EDCF81E008
:1027B000F5CF0F931F93CF931092E1051092E00590
:1027C00088EE93E0A0E0B0E08093E2059093E3050B
:1027D000A093E405B093E5058EE691E09093DF05C4
:1027E0008093DE058FEF9FEF9093EB058093EA05D2
:1027F0008EE699E0109271091092700920E831E09C
:1028000030936F0920936E0990935709809356096E
:1028100022E235E130935909209358092AE030E04B
:1028200030935B0920935A092CE130E030935D0925
:1028300020935C0920EC31E030935F0920935E091E
:102840001092600920E1209361091092620990932F
:102850006409809363098AEE809365098093660911
:102860001092690910926A0910926B0910926C0912
:1028700081E080936D09E6E4F8E0A6E5B9E068EC54
:1028800070E054E647E098E022E135E1B183A083AF
:1028900073836283548345839683308727831186AD
:1028A0001286138614861586168687877096C9E069
:1028B000E635FC0759F70EE619E01093370600934A
:1028C000360626E438E0309339062093380620E2B5
:1028D00031E030933B0620933A0680933C061092F9
:1028E0003D0810923E08C2E0C0933F0894E09093E8
:1028F000400880934108809342081092430881E188
:10290000809344089093450840E052E062E173E10F
:102910008DE396E00E94F92010932F0600932E0677
:1029200086E180933006C0933106109233061092F0
:10293000320686E08093340610923506CF911F91BF
:102940000F910895CDB7DEB76597DEBFCDBF789400
:1029500083E084BD83E085BD81E080936E00E1E883
:10296000F0E083E08083E0E881E08083E1E983E0D8
:102970008083E0E981E08083E1EC87E08083E3EC21
:1029800081E08083E0EC82E08083E2EC81E0808380
:10299000EAE787E08083806880831092DD011092EF
:1029A000A3011092A2018091D70081608093D7008B
:1029B00080EA8093D80089B5806189BD89B582603D
:1029C00089BD09B400FEFDCF81E090E00E94230B99
:1029D0008091D8008F7C80618093D8008091E00046
:1029E000807F8093E0008091E1008E7E8093E10003
:1029F0008DE08093E200559A209A81EC80937C00D0
:102A000081EF85B987EE84B984E38BB984EF8AB905
:102A1000769A6E9880EF81BB10BA80E58CBD81E01C
:102A20008DBD85E00E94480F5F9A85E00E94480FA7
:102A30005C98EEEFF6E085918EBD00000DB407FEC8
:102A4000FDCFEB30C1F75C9A81E88093640081E0B0
:102A5000809365000E94E90F80E80E94DE0F8823C2
:102A6000A9F05C9885EA8EBD00000DB407FEFDCF8D
:102A70005C9A2E982F982D988091640080628093A4
:102A8000640081E083BF889513BEFCCF84E00E9480
:102A9000DE0F8823B9F12D9884E80E94DE0F882389
:102AA000A1F02D9A88EC0E94480F2F986FEF82E0DA
:102AB00090E00E940A2184EF91E00E94230B2F9A5C
:102AC00084E80E94DE0F8111FBCF84E10E94DE0FBB
:102AD0008823A1F02D9A88EC0E94480F2E9860E080
:102AE00082E090E00E940A2184EF91E00E94230B93
:102AF0002E9A84E10E94DE0F8111FBCF88EC0E94A8
:102B0000480FC4CF2D9A82E090E00E9402218823D2
:102B100009F468C03E9A3F9A81E090E00E94022149
:102B2000082F0470D02E81FF0CC001112E9801EFE8
:102B30001FEF80E40E94DE0F882309F456C02E9A0E
:102B40002F9A82E30E94480F0E944B0F8111F9CF08
:102B500080E180930C01809164008E7F80936400FB
:102B600080917A00806480937A0080917A0086FD5B
:102B7000FCCF00917800109179000E94370BAB01D7
:102B8000BC01C801B0E0A0E0DC01992788278C01D6
:102B90009D01040F151F261F371FC901B801209181
:102BA0006400216020936400611571058105910521
:102BB00011F00E94F02083E0809316018FEF9FEFC9
:102BC0009093EB058093EA051091A601112309F477
:102BD000A7C01092A60180E090E0892BA9F30E9483
:102BE0000000F2CF3E983F9897CFDD2029F00430C7
:102BF000110511F42E9A2F9881E00E94C50A202F0A
:102C00002770C22E980183E0359527958A95E1F7C4
:102C1000C9019695982F88279795879582529E4F40
:102C2000F12CE12C2E3F4FEF340751F1DC01AC5673
:102C3000BF4FBC0150E040E0F701E25BF94F5F019C
:102C4000F501E40FF51FE491F0E03F010C2C02C008
:102C5000660C771C0A94E2F72F3F320721F0FB0144
:102C600094889628948ACC2019F0EC91E729EC936B
:102C70004F5F5F4F11966F5F7F4F4835510501F7EA
:102C80002F5F3F4F80589F4FF8E5EF0EF11C40EB50
:102C9000E416F10439F60E94E90F8FE00E94480F14
:102CA0000F5F1F4F0931110509F043CFDD2011F0EF
:102CB0002F9A2D9880E991E00E94230B2D9A81E0B4
:102CC00090E00E94022180FF3CCF8AE090E00E94C9
:102CD00002219FEF980F9E3F08F033CF22E330E0B0
:102CE0003093C0012093BF0128E330E03093C2014C
:102CF0002093C1010AE010E0682F8EE699E00E945F
:102D0000690F0F5F1F4FC8010E940221003111059A
:102D100099F70E94E90F88EE93E00E94230B11CFF0
:102D20009091C8018091A701292F281B822F209103
:102D30000C01821748F48F5F821708F04CCF81E0B6
:102D400083BF889513BE47CF81E08093A6019093FF
:102D5000A701E4EAF1E0808191810196808391836B
:102D60008091C4018093C3010E944B0F8093C401E2
:102D7000EEEDF1E011111FEF8FEF1193119311930D
:102D800011938150D0F71092C2011092C10110929C
:102D9000C0011092BF011091C501113009F484C126
:102DA00038F0173011F40C943F200E94E90F13CF34
:102DB0008091350681112BC16091310670E08091C0
:102DC000300646EF52E190E00E94FB0E6091310622
:102DD00070E08091300690E04AED52E10E960E943C
:102DE000FB0E6091310670E08091300690E04EEB72
:102DF00052E14C960E94FB0E6091310670E080918A
:102E0000300690E04AE952E18A960E94FB0E6091FA
:102E1000310670E08091300690E042E852E1CC96B5
:102E20000E94FB0E6091310670E08091300690E0C8
:102E300046EF52E1885B9F4F0E94FB0E6091310686
:102E400070E0615F7F4F8091300690E046EF52E185
:102E500001960E94FB0E6091310670E0615F7F4F2A
:102E60008091300690E046E652E10F960E94FB0EFC
:102E70006091310670E0615F7F4F8091300690E095
:102E80004AE452E14D960E94FB0E6091310670E0DB
:102E9000615F7F4F8091300690E04EE252E18B9669
:102EA0000E94FB0E6091310670E0615F7F4F809160
:102EB000300690E042E152E1C9960E94FB0E60911B
:102EC000310670E0615F7F4F8091300690E046EF01
:102ED00051E1895B9F4F0E94FB0E6091310670E0CB
:102EE000625E7F4F8091300690E046EF52E103969C
:102EF0000E94FB0E6091310670E0625E7F4F809110
:102F0000300690E042E152E141960E94FB0E609152
:102F1000310670E0625E7F4F8091300690E042E8BB
:102F200052E14F960E94FB0E6091310670E0625EA6
:102F30007F4F8091300690E04EEB52E18B960E94DD
:102F4000FB0E6091310670E0625E7F4F809130062B
:102F500090E042E852E1C9960E94FB0E6091310672
:102F600070E0625E7F4F8091300690E04EEB52E160
:102F70008B5B9F4F0E94FB0E6091340670E0809146
:102F80003206909133060E947F21CB0140E950E147
:102F900064E370E09195819591090E94FB0E609128
:102FA000340670E080913206909133060E947F21B2
:102FB0009B0140E950E164E370E082EB90E0821B0A
:102FC000930B0E94FB0E809135068111EECE80910D
:102FD0003206909133060196909333068093320621
:102FE0002091340642EB249F90011124821793070D
:102FF00024F0109233061092320688E00E94D30F1C
:10300000882309F4D2CE81E080933506CECE81307C
:10301000D1F64CE450E165E170E085E390E00E9478
:10302000FB0E20E046ED5EE070E060E090E080E0C6
:103030000E94110F20E040E65DE06BE270E090E05E
:1030400080E00E94110F20E04AEE5BE070E060E05B
:1030500082E490E00E94110F20E044E75AE06BE226
:1030600070E082E490E00E94110F41E55AE066E0D2
:1030700070E08BE090E00E94FB0E45E35AE066E0D2
:1030800070E085E590E00E94FB0E44E05AE063E3C7
:1030900070E085E090E00E94FB0E43ED59E063E3B1
:1030A00070E08BE490E08DCF8091B70181110CC06E
:1030B0000E94A1202FE030E040E050E00E941C215F
:1030C0006093B6011093B70180913C06882309F400
:1030D00064C080E20E94DE0F882399F186E080932D
:1030E000400880913F08815080933F08811155C06E
:1030F000E6E3F6E024E338E09185978392859087B4
:1031000032962E173F07C1F790E02091440892179E
:1031100030F19BE0209145088217B0F5E0913A0626
:10312000F0913B06899FE00DF11D11242781222398
:1031300031F02081318121503109318320838F5F2B
:10314000E9CF84E00E94DE0F8111C8CF80E40E94A5
:10315000DE0F882311F081E0C2CF82E0C0CF50E1C2
:10316000959FF00111242091380630913906E20F25
:10317000F31F2385222331F022813381215031092D
:10318000338322839F5FC1CF80913E088F5F8093FE
:103190003E088091400880933F0880913E0887FF59
:1031A000C8C188E0EBE5F1E0DE01119601900D92D7
:1031B0008A95E1F780913D088F5F80933D080BE38E
:1031C00017E0E8E0CE2ED12CE12CF12CF3E0BF2E5D
:1031D000AA24A394AFE39A2E0E94A120A7019601EE
:1031E0000E941C21A1E0B0E0AC0FBD1F6A0F7B1F45
:1031F000FB01808190914108890F809341080E94D2
:10320000A120A70196010E941C2121E030E02C0F93
:103210003D1F620F731FDB018C9190914208890F53
:10322000809342089091410819160CF4C6C0A092F0
:103230004108181644F0A092420880914108843059
:1032400014F0B092410880914208843014F0B0929A
:1032500042089091410880914208890FB92DB81B0E
:10326000F8019083B1830E5F1F4FF8E00D331F0705
:1032700009F0B2CF0DE011E01A87098768E0862EC9
:10328000912CA12CB12C78E0272E312C412C512CE3
:103290000E94A120D8017C9072016101C818D90850
:1032A000EA08FB08A50194010E941C21C60ED71E46
:1032B000E81EF91EEC2DF0E0E35FFE4F8081D8019F
:1032C0008D938D017082B1E08B1A9108A108B1082D
:1032D000E1E08E169104A104B104D1F654E1E52E8B
:1032E00051E0F52E0DE011E0D8014D918D0150E037
:1032F00070E060E02AE08EED95E00E946F1068E8D3
:1033000071E08EED95E00E946010E016F10661F725
:103310006CE871E08EED95E00E9460106AE871E063
:103320008EED95E00E9460106CE871E08EED95E006
:103330000E9460106AE871E08EED95E00E946010D6
:1033400043E0642E4424439433243A9490914408F7
:10335000209138063091390680E0981709F46FC043
:103360008901205F3F4FF80143854111A8C0458185
:10337000A985BA858C91885F8295807F90E0FC0159
:10338000EE0FFF1FEA5CF94F60E0712C30E4532E22
:10339000C52CD12C4617A9F05781751608F4752E47
:1033A0007085A52FA70FBB27BB1FAC15BD0514F457
:1033B000552E570E6F5F3296EBCF18160CF43DCF9B
:1033C0003ACFF801938382838681C81AD108F5E049
:1033D000CF1AD1080D2C000CEE08FF08872C912C79
:1033E00025E0820E911C092C000CAA08BB088C1445
:1033F0009D04AE04BF048CF4C818D908EA08FB0881
:1034000041F00E94A120A70196010E941C216B019E
:103410007C018C0C9D1CAE1CBF1CD80114968C9298
:10342000149719967C9219971A965C921A971B9684
:103430004C921B971C961C921C971F963C926A9468
:1034400009851A850F5F1F4F1A87098761107ECF84
:1034500080913D0880FD6BC000913A0610913B06BB
:1034600030E020E0D80117968C911797811194C015
:1034700013968C91235F3E4FD901EC91E85FE29562
:10348000E07FF0E0EE0FFF1FEA5CF94F40E0712CA7
:1034900090E4692EC62CD12C841799F09781791667
:1034A00008F4792E5085692F650F7727771F6C15E3
:1034B0007D0514F4692E650E4F5F3296EBCF8F5F5A
:1034C0004CCF8091100190E00896A4E0880F991FDE
:1034D000AA95E1F7D80111969C938E9314968C913E
:1034E000C81AD1080D2C000CEE08FF08872C912C6F
:1034F000B12CA12C8C149D04AE04BF048CF4C8180C
:10350000D908EA08FB0841F00E94A120A701960112
:103510000E941C216B017C018C0C9D1CAE1CBF1CED
:10352000F80182827582668281E08783108610921C
:103530003E0880E04EED50E06EED7FEF91E020918F
:103540004408821708F059C000E1809FF00111245F
:103550002091380630913906E20FF31F238522238C
:1035600009F449C022813381273F1FEF3107ECF472
:1035700095871486248521111EC0258521112DC013
:10358000A081B181148116962D913C9112171306DA
:1035900008F4978794870CC02F5F3F4F055F1F4F3C
:1035A0002430310509F05ECFC2CF2833310514F342
:1035B0002485222391F0A48121852A1708F097877A
:1035C00026812A0F3327331FB285B217130609F05D
:1035D0000CF4778727852A0F24832585222359F029
:1035E00026852F5F26872A3034F0538342836483F5
:1035F0001586138616868F5FA2CF80E09BE02EEDA6
:1036000030E06EED409145088417B0F4E0913A0641
:10361000F0913B06899FE00DF11D11244781442361
:1036200049F040815181473F5F4F24F4318320832B
:10363000628317828F5FE6CF809169098823E1F06A
:103640008091650990916809913009F44AC20CF0A3
:103650003DC28250992309F449C28091650987FDD2
:1036600004C080916609843438F0109269098AEEAA
:10367000809365098093660980916B09882309F41A
:1036800038C280916C098F5F80936C09843154F04B
:1036900082E491E090935B0980935A0990935D09CD
:1036A00080935C098FB7F8944091C8015091C9018B
:1036B0006091CA017091CB018FBF809119019091E7
:1036C0001A01A0911B01B0911C018A019B01081BEA
:1036D000190B2A0B3B0BD901C801843E9240A1056E
:1036E000B10598F080911F01882379F080911D0128
:1036F00018161CF4815080931D01409319015093BA
:103700001A0160931B0170931C013091690980902C
:10371000A9019090AA01A090AB01B090AC010091DA
:10372000B1010A8B1091B0011C8B0091AF010B8B82
:103730006091AE017090AD0140905A0950905B09C4
:103740008201085F1F4F1C870B8720905C09309017
:103750005D098101085F1F4F1E870D8710913C0690
:10376000198760906D090091580910915909198BBA
:10377000088BE0901F011091A8011F87F09016019F
:103780000091C5010D8B06E418E08091650990E079
:10379000D8011296CD90DC901397AC014D5F5F4F2E
:1037A0004C155D050CF46AC015964C9115974C0D9F
:1037B0005D2D511D481759070CF460C02091660912
:1037C00014969C911497291708F458C016968C915A
:1037D0001697890F9927991F2817190611F00CF0D1
:1037E0004DC0E1E01D96EC931D971C961C92FAEEDD
:1037F000F0936509F093660929E1820E911CA11CE2
:10380000B11CC501B40120E137E240E050E00E9464
:103810004E212A8BC501B40128EE33E040E050E090
:103820000E944E21CA01B9012AE030E040E050E098
:103830000E944E216C8BC501B40124E630E040E0CB
:1038400050E00E944E21CA01B9012AE030E040E078
:1038500050E00E944E216B8BC501B4012AE030E09C
:1038600040E050E00E944E21762ECA01B9012AE0C4
:1038700030E040E050E00E944E2130E04B855C8516
:103880004C155D05C8F1D80115968C911597C80E99
:10389000D11CC414D50480F114968C91149790E037
:1038A000ED85FE85E817F90738F116962C911697E5
:1038B000820F911D82159305F8F01D968C911D972E
:1038C00081111AC080916B09811116C0F1E0F0934B
:1038D0006B0921E01D962C931D971C961C921F14BA
:1038E0000CF086C1FA94612C1986E12C41E04F87D7
:1038F00089E099E0998B888B005F1F4F46E559E07E
:103900004017510709F041CF309369098092A9010E
:103910009092AA01A092AB01B092AC010A890093E7
:10392000B1011C891093B0010B890093AF01609322
:10393000AE017092AD01198510933C0660926D093D
:103940000889198910935909009358091F85109304
:10395000A801F09216010D890093C50140916B09F1
:10396000A0E2B1E027E531E0FD01808191810B8586
:103970001C8508171907B0F05381850F911D841518
:10398000950580F0828190E00D851E850817190746
:1039900048F05481850F911D8215930518F081859B
:1039A000882321F0411102C0EE24E3943B962E17A8
:1039B0003F07D9F690911E0180911D012D913C91F8
:1039C00011970B851C850217130740F113965C9124
:1039D0001397250F311D2415350500F112962C91F2
:1039E000129730E00D851E8502171307B8F0149664
:1039F0005C911497250F311D2215330578F0199627
:103A00002C91199721110AC019160CF401C18F5F6E
:103A10008F320CF4F9C08EE2E12C9CE01B96EA1781
:103A2000FB0761F6E0921F0190931E0180931D0138
:103A30001816BCF0411115C010923C0681E080932D
:103A40006B0910926D0989E099E090935909809370
:103A5000580910921F011F140CF4DDC087E08093F9
:103A6000C50180911501882309F4C4C1A6E3B6E01D
:103A700090E080E06FEF17965C91179718964C9145
:103A80001897450FE52FE695E695E695FF24FA94FD
:103A9000FE0E57701FEFF11609F4C1C070E00F2D34
:103AA0000F2C000C110B272F30E0021713070CF41A
:103AB000B6C03695322F222737952795280F391F04
:103AC00022523E4FF90160837F5FEDCF923069F063
:103AD000809166098250933009F0BFCD80936609CA
:103AE000BCCD809166098E5FF9CF8E5F80936509AA
:103AF000B4CD80916D09882309F4D4CD80E80E946B
:103B0000DE0F882319F08CEF809362090E944B0F1F
:103B100087FD08C00E944B0F84FD04C0109262090B
:103B20001092600980E10E94DE0F882319F084E082
:103B3000809362098091600990916209890F809356
:103B4000600940916109642F042E000C770B2091CD
:103B50005E0930915F09481794F5260F371F30939F
:103B60005F0920935E094093600980915E099091FE
:103B70005F0997FD0F96F4E095958795FA95E1F723
:103B800090935D0980935C0988E00E94DE0F882392
:103B900009F488CD80916909811184CD80915A09F9
:103BA0008B5F8093650980915C098D5F80936609C6
:103BB00081E08093690982E08093680973CD082EC3
:103BC000000C990BEE27FF27E61BF70B8E179F07BC
:103BD00044F4261B370B30935F0920935E0941950F
:103BE000C2CF820F931F90935F0980935E09BDCF70
:103BF000612C1986E12C97E09D8BA1E0AF87E9E06D
:103C0000F9E0F98BE88B78CE87FF06CF80E004CF10
:103C10009150E12C03CFFA94F092160122CF552354
:103C2000C9F0EF2DFF0CFF0B3196F695FE2FEE2716
:103C3000F795E795E80FF91FE252FE4F28E030E0D4
:103C4000251B31090FEF10E002C0159507952A9545
:103C5000E2F70083542F5695569556954770252FB9
:103C600030E07901F694FE2CEE24F794E794E80E08
:103C7000F91E10E000E0752F700F783070F4F80135
:103C8000F695FE2FEE27F795E795EE0DFF1DE25214
:103C9000FE4F60830F5F1F4FEECF4423C1F0E8E07B
:103CA000F0E0E41BF1090FEF10E002C01595079555
:103CB000EA95E2F7A8013695322F22273795279506
:103CC000280F391F22523E4F4095F901408301963B
:103CD00012968F37910509F0CECE10E080914408FE
:103CE000181710F500E1109FF0011124809138069B
:103CF00090913906E80FF91F8385882379F0648154
:103D000070E0828193812585222351F0268527FD4D
:103D10002F5F25954BE157E00E94110F1F5FDECF0B
:103D20004781508520E0F8CF10E00BE080914508F6
:103D30001817A8F4E0913A06F0913B06109FE00DA9
:103D4000F11D11248781882341F0628170E04BE0EE
:103D500057E0808191810E94FB0E1F5FE7CF86E4D0
:103D600090E09093C0018093BF011092C201109225
:103D7000C1016DE871E080913606909137060E948E
:103D8000601040913D0850E070E060E02AE08091D2
:103D90003606909137060E946F1020916B09409172
:103DA00058095091590960915C0970915D098091A1
:103DB0005A0990915B09222309F406C120916C09EC
:103DC00027FD2D5F259525950E94110F60916609AD
:103DD000062E000C770B80916509082E000C990BBC
:103DE0002091670901E0222309F4F0C023E041E0BB
:103DF0000E94EC0F80911D0115E3181B163308F08B
:103E000015E341EF57E070E060E090E080E00E9451
:103E1000FB0E173008F417E0612F70E020E045EE4C
:103E200057E090E080E00E94110F00E020E447E0BE
:103E300070E060E089E790E00E94EC0F10E000E0A5
:103E400041E0B80189E790E00E94530F0F5F1F4FD8
:103E500000341105A9F7109116014091A901509164
:103E6000AA016091AB017091AC014A305105610526
:103E70007105C8F081E08093B201443651056105B7
:103E8000710588F08093B301483E23E05207610535
:103E9000710548F08093B4014031574261057105C6
:103EA00010F08093B5018091AD010E942B10AC0100
:103EB00068E370E08BE790E00E94FB0E8091B20116
:103EC000882359F08091AE010E942B10AC0160E371
:103ED00070E08BE790E00E94FB0E8091B301882395
:103EE00059F08091AF010E942B10AC0168E270E0A4
:103EF0008BE790E00E94FB0E8091B401882359F07B
:103F00008091B0010E942B10AC0160E270E08BE761
:103F100090E00E94FB0E8091B501882359F08091BA
:103F2000B1010E942B10AC0168E170E08BE790E0DA
:103F30000E94FB0E41E358E061E070E08BE790E007
:103F40000E94FB0E4BE258E0193020F4812F0E94B2
:103F50002B10AC0167E070E08BE790E00E94FB0E55
:103F60008091A801882339F080911501882389F177
:103F70008150809315018AE090E09093C001809376
:103F8000BF011092C2011092C101C09016010C2C09
:103F9000000CDD08EE08FF082AE0B701A601F7FED5
:103FA0000DC06DE28EE699E00E94690F4427552707
:103FB000BA014C195D096E097F092AE08EE699E085
:103FC0000E946F100C94D51620E0FECE21E043E055
:103FD0000FCF0091B6018BE190E09093C0018093E8
:103FE000BF018CE190E09093C2018093C101063142
:103FF00099F587E08093C50188E00E94D30F811175
:1040000006C084E00E94D30F882309F4B4CF81E076
:1040100080933C0610926C0910926B0980936D0995
:1040200082E295E190935909809358098AE090E0E3
:1040300090935B0980935A091092A80188E78093B6
:1040400015010E94A1202FE030E040E050E00E94E6
:104050001C216093B6018FCF4EE0049F8001112494
:10406000095C174FF8016491662331F28EE699E0FE
:104070000E94690F0F5F1F4F892BA1F7BDCF61E928
:1040800071E08EE699E00E94601088E00E94D30FF4
:10409000811107C084E00E94D30F882311F40C948F
:1040A000D5161092C5010C94D5168F929F92AF929F
:1040B000BF92CF92DF92EF92FF92CF93DF93EC010A
:1040C000688179818A819B816115710581059105DE
:1040D00021F464E279ED8BE597E02DE133EF41E0E7
:1040E00050E00E941C2149015A019B01AC01A7EA42
:1040F000B1E40E943B216B017C01ACEEB4EFA50161
:1041000094010E944921C60ED71EE81EF91EF7FE33
:1041100006C081E0C81AD108E10880E8F80AC88220
:10412000D982EA82FB82C701B6019F77DF91CF91E6
:10413000FF90EF90DF90CF90BF90AF909F908F90C7
:1041400008958F929F92AF92BF92CF92DF92EF929B
:10415000FF9260915701709158018091590190919F
:104160005A01611571058105910521F464E279ED2B
:104170008BE597E02DE133EF41E050E00E941C21F8
:1041800049015A019B01AC01A7EAB1E40E943B211D
:104190006B017C01ACEEB4EFA50194010E944921B2
:1041A000C60ED71EE81EF91EF7FE06C081E0C81A2B
:1041B000D108E10880E8F80AC0925701D09258016E
:1041C000E0925901F0925A01C701B6019F77FF9022
:1041D000EF90DF90CF90BF90AF909F908F90089519
:1041E00060935701709358018093590190935A013D
:1041F0000895FB01DC0102C005900D924150504032
:10420000D8F70895F999FECF92BD81BDF89A992704
:1042100080B50895262FF999FECF92BD81BDF89AF9
:10422000019700B4021639F01FBA20BD0FB6F894FA
:10423000FA9AF99A0FBE0895052E97FB1EF4009482
:104240000E94332157FD07D00E944E2107FC03D066
:104250004EF40C94332150954095309521953F4F65
:104260004F4F5F4F089590958095709561957F4F62
:104270008F4F9F4F08950E947021A59F900DB49F6E
:10428000900DA49F800D911D11240895B7FF0C94EB
:104290003B210E943B21821B930B0895A1E21A2E21
:1042A000AA1BBB1BFD010DC0AA1FBB1FEE1FFF1FDA
:1042B000A217B307E407F50720F0A21BB30BE40B2A
:1042C000F50B661F771F881F991F1A9469F7609571
:1042D0007095809590959B01AC01BD01CF0108952B
:1042E000A29FB001B39FC001A39F700D811D112437
:1042F000911DB29F700D811D1124911D089597FB92
:10430000072E16F4009407D077FD09D00E9499215A
:1043100007FC05D03EF4909581959F4F08957095C8
:1043200061957F4F0895EE0FFF1F0590F491E02DEA
:104330000994AA1BBB1B51E107C0AA1FBB1FA617EC
:10434000B70710F0A61BB70B881F991F5A95A9F73E
:0E43500080959095BC01CD010895F894FFCFA3
:10435E00FFFFFFFF00E1000000000000100001025F
:10436E0003040706057803DEDE00000000320A01B2
:10437E00DE00DE0E08000000000000DE00DE0E088B
:10438E00000000000000DE00DE0E0800000000004D
:10439E0000DE00DE0E08000000000000DE00DE0E73
:1043AE000800000000000001000000FFFFFF0000F9
:1043BE0001010100C1808100000000000000910C8D
:1043CE000E0CB20CA70CF80CB60CD40C00000000AE
:1043DE00690FE10B5D105C1020000D0A0043533A8B
:0C43EE000047616D65204F76657200008D
:00000001FF
