:100000000C949B0A0C94C30A0C94C30A0C94C30A64
:100010000C94C30A0C94C30A0C94C30A0C94C30A2C
:100020000C94C30A0C94C30A0C9428110C949711D5
:100030000C94C30A0C94C30A0C94C30A0C94C30A0C
:100040000C94C30A0C94C30A0C94C30A0C94C30AFC
:100050000C94C30A0C94C30A0C94C30A0C94DE10CB
:100060000C94C30A0C94C30A0C94C30A0C94C30ADC
:100070000C94C30A0C94C30A0C94C30A0C94C30ACC
:100080000C94C30A0C94C30A0C94C30A0C94C30ABC
:100090000C94C30A0C94C30A0C94C30A0C94C30AAC
:1000A0000C94C30A0C94C30A0C94C30A040836497E
:1000B000493604080161190704083E49493004081B
:1000C0004F494931040818167F1004082241493667
:1000D0000408625149460408427F400004083E413A
:1000E000413E00000000003E5B4F5B3E3E6B4F6BAD
:1000F0003E1C3E7C3E1C183C7E3C181C577D571C09
:100100001C5E7F5E1C00183C1800FFE7C3E7FF0081
:1001100018241800FFE7DBE7FF30483A060E2629CF
:10012000792926407F050507407F05253F5A3CE792
:100130003C5A7F3E1C1C08081C1C3E7F14227F2258
:10014000145F5F005F5F06097F017F006689956A23
:10015000606060606094A2FFA29408047E040810AE
:10016000207E201008082A1C08081C2A08081E10D7
:100170001010100C1E0C1E0C30383E3830060E3E8F
:100180000E06000000000000005F000000070007EE
:1001900000147F147F14242A7F2A12231308646218
:1001A00036495620500008070300001C2241000079
:1001B00041221C002A1C7F1C2A08083E08080080D7
:1001C000703000080808080800006060002010086F
:1001D00004023E5149453E00427F40007249494970
:1001E000462141494D331814127F102745454539A2
:1001F0003C4A4949314121110907364949493646A6
:100200004949291E00001400000040340000000885
:100210001422411414141414004122140802015928
:1002200009063E415D594E7C1211127C7F494949B5
:10023000363E414141227F4141413E7F494949414A
:100240007F090909013E414151737F0808087F0079
:10025000417F41002040413F017F081422417F40FF
:100260004040407F021C027F7F0408107F3E4141D6
:10027000413E7F090909063E4151215E7F09192946
:1002800046264949493203017F01033F4040403F30
:100290001F2040201F3F4038403F63140814630371
:1002A000047804036159494D43007F4141410204F0
:1002B000081020004141417F0402010204404040F7
:1002C0004040000307080020545478407F284444ED
:1002D000383844444428384444287F385454541807
:1002E00000087E090218A4A49C787F080404780002
:1002F000447D40002040403D007F102844000041E4
:100300007F40007C047804787C08040478384444F6
:100310004438FC1824241818242418FC7C080404ED
:1003200008485454542404043F44243C4040207C56
:100330001C2040201C3C4030403C44281028444CA9
:100340009090907C4464544C440008364100000076
:10035000770000004136080002010204023C262317
:10036000263C1EA1A161123A4040207A38545455CF
:10037000592155557941215454784121555478409B
:1003800020545579400C1E52721239555555593921
:100390005454545939555454580000457C41000276
:1003A000457D420001457C40F0292429F0F02825B4
:1003B00028F07C545545002054547C547C0A097F15
:1003C0004932494949323248484832324A4848302D
:1003D0003A4141217A3A42402078009DA0A07D39DF
:1003E000444444393D4040403D3C24FF2424487E61
:1003F0004943662B2FFC2F2BFF0929F620C0887E4E
:10040000090320545479410000447D413048484A52
:1004100032384040227A007A0A0A727D0D19317D05
:100420002629292F28262929292630484D402038D9
:100430000808080808080808382F10C8ACBA2F1098
:100440002834FA00007B000008142A142222142AFF
:1004500014089500220095AA005500AAAA55AA558D
:10046000AA000000FF00101010FF00141414FF0079
:100470001010FF00FF1010F010F0141414FC001402
:1004800014F700FF0000FF00FF1414F404FC141420
:1004900017101F10101F101F1414141F001010101D
:1004A000F0000000001F101010101F10101010F0AE
:1004B00010000000FF101010101010101010FF108E
:1004C000000000FF140000FF00FF00001F101700D5
:1004D00000FC04F414141710171414F404F40000AE
:1004E000FF00F714141414141414F700F714141460
:1004F000171410101F101F141414F4141010F010FF
:10050000F000001F101F0000001F14000000FC146A
:100510000000F010F01010FF10FF141414FF14105E
:1005200010101F00000000F010FFFFFFFFFFF0F0B1
:10053000F0F0F0FFFFFF0000000000FFFF0F0F0FC3
:100540000F0F38444438447C2A2A3E147E020206A7
:1005500006027E027E0263554941633844443C04EE
:10056000407E201E2006027E020299A5E7A5991C66
:100570002A492A1C4C7201724C304A4D4D30304889
:10058000784830BC625A463D3E494949007E0101E7
:10059000017E2A2A2A2A2A44445F444440514A447C
:1005A0004040444A51400000FF0103E080FF00004A
:1005B00008086B6B083612362436060F090F060042
:1005C0000018180000001010003040FF0101001F4B
:1005D00001011E00191D1712003C3C3C3C000000AC
:1005E0000000080B000202020000090400000102E2
:1005F0000200000524001001052401010104240269
:1006000006052406000107058103100040090401C6
:1006100000020A00000007050202400000070583EF
:10062000024000000403090412010002EF0201402D
:100630004123368000010102030141726475696E35
:100640006F204C4C430041726475626F7900F0F882
:100650009C8E8783878E9CF8F00000FEFF030303C7
:100660000303070EFCF80000FEFF03030303030768
:100670000EFCF80000FFFF00000000000000FFFF7C
:100680000000FEFF8383838383C7EE7C380000F87D
:10069000FC0E07030303070EFCF800003F7FE0C0D9
:1006A0008080C0E07F3FFFFF01010101010101FFE8
:1006B000FF0000FFFF0C0C0C0C1C3E77E3C1000098
:1006C0007FFFC0C0C0C0C0E0703F1F00001F3F7070
:1006D000E0C0C0C0E0703F1F00007FFFC1C1C1C1CA
:1006E000C1E3773E1C00001F3F70E0C0C0C0E07057
:1006F0003F1F000000000001FFFF01000000D5F0D7
:100700008D14A1C881CFD9F1AF20000E08FF8181DF
:1007100081FFFFFF818181FF7E3C180A10000000ED
:100720000000000000303030300000000000000009
:1007300000000000000000000000000000000000B9
:1007400000000000000000000000002020383850A9
:100750005060600000000000000000000000000089
:100760000000000000000000000000000000000089
:10077000003030C8C82020949468685050000000B1
:100780000000000000000000000000000000000069
:100790000000000000000020205454AAAA58582A43
:1007A0002AE0E09C9C2828000000000000000001D6
:1007B000010000010100000000000000001818A066
:1007C000A004044B4B80800A0A292910108C8C60ED
:1007D00060000001010000020202020000030300A9
:1007E000000000000005080F0F0F0F0F0F07070391
:1007F00003074080BE8A8A8280FF0000000000005C
:10080000FF000000000000FF000000000000FF00EB
:100810000000000000FF000000000000FF000000DA
:10082000000000FF017D55554501FF040826494998
:100830003E04081B04041B20204E6963652074726B
:1008400079212020002020546F6F20736C6F772156
:10085000202000204E696365206372617368212047
:10086000002020546F6F20656173792120200020C3
:1008700050696C6F74206661696C212000202042F1
:100880006164206D6F7665212020002020536F2049
:10089000636C6F736521202000202020204F6F7033
:1008A00073212020202000202020416C6D6F737464
:1008B00021202020002054727920686172646572C2
:1008C000212000204E6F7420656E6F7567682120AF
:1008D000004E696365206C616E64696E672100205B
:1008E000476F6F64206372617368212000202020AD
:1008F000416761696E3F21202020002020536F2036
:10090000717569636B212020000A1000000000004F
:100910000000003030303000000000000000000017
:1009200000000000000000000000000000000000C7
:100930000000000000000000002020383850506007
:100940006000000000000000000000000000000047
:100950000000000000000000000000000000003067
:1009600030C8C820209494686850500000000000EF
:100970000000000000000000000000000000000077
:10098000000000000020205454AAAA58582A2AE047
:10099000E09C9C28280000000000000000010100ED
:1009A00000010100000000000000001818A0A004D1
:1009B000044B4B80800A0A292910108C8C6060003F
:1009C0000001010000020202020000030300000017
:1009D0000000002F083E4141412200007F091929F3
:1009E0004600007F4949494100007F4141413E00A6
:1009F0000041417F4141000001017F0101000026CB
:100A0000494949302F083E4141413E00007F0909D4
:100A10000906000001017F0101000041417F4141C1
:100A200000003E4141413E00007F0408107F00006D
:100A300026494949301A087F0808087F00007F4985
:100A400049494100007F4040404000007F090909BA
:100A50000621082649494930000001017F010100B3
:100A6000007E0909097F00007F091929460000015D
:100A7000017F01013E188080C0C0A0E070F028F81E
:100A80001CFC0AFE07FF05FF05FF05FF07FF07FF28
:100A900005FF05FF05FF07FF07FF05FF05FF05FF32
:100AA00007FF07FF05FF05FF05FF07FF07FF05FF1E
:100AB00005FF05FF07FF07FF05FF05FF05FF07FF10
:100AC00007FF05FF05FF05FF07FF07FF05FF05FF00
:100AD00005FF07FF07FF05FF05FF05FF07FF07FFEE
:100AE00005FF05FF05FF07FF07FF05FF05FF05FFE2
:100AF00007FFFFFF18FFFFFF00FF00FF00FF00FFE1
:100B000000FF00FF00FF00FF00FF00FF00FF00FFED
:100B100000FF00FF00FF00FF00FF00FF00FF00FFDD
:100B200000FF00FF00FF00FF00FF00FF00FF00FFCD
:100B300000FF00FF00FF00FF00FF00FF00FF00FFBD
:100B400000FF00FF00FF00FF00FF00FF00FF00FFAD
:100B500000FF00FF00FF00FF00FF00FF00FF00FF9D
:100B600000FF00FF00FF00FF00FF00FF00FF1F1F4E
:100B7000031F1F1F001F001F001F001F001F001F5B
:100B8000001F001F001F001F001F001F001F001F6D
:100B9000001F001F001F001F001F001F001F001F5D
:100BA000001F001F001F001F001F001F001F001F4D
:100BB000001F001F001F001F001F001F001F001F3D
:100BC000001F001F001F001F001F001F001F001F2D
:100BD000001F001F001F001F001F001F001F001F1D
:100BE000001F001F001F001F001F3E18FFFF18FFFF
:100BF000FFFF00FF00FF00FF00FF00FF00FF00FFFE
:100C000000FF00FF00FF00FF00FF00FF00FF00FFEC
:100C100000FF00FF00FF00FF00FF00FF00FF00FFDC
:100C200000FF00FF00FF00FF00FF00FF00FF00FFCC
:100C300000FF00FF00FF00FF00FF00FF00FF00FFBC
:100C400000FF00FF00FF00FF00FF00FF00FF00FFAC
:100C500000FF00FF00FF00FF00FF00FF00FF00FF9C
:100C600000FF00FF00FF00FF3F3F637FBFFFC0FFAB
:100C700080FF00FF00FF00FF00FF00FF00FF00FFFC
:100C800000FF00FF00FF00FF00FF00FF00FF00FF6C
:100C900000FF00FF00FF00FF00FF00FF00FF00FF5C
:100CA00000FF00FF00FF00FF00FF00FF00FF00FF4C
:100CB00000FF00FF00FF00FF00FF00FF00FF00FF3C
:100CC00000FF00FF00FF00FF00FF00FF00FF00FF2C
:100CD00000FF00FF00FF00FF00FF00FF00FF00FF1C
:100CE00000FF00FF000000000000010102030707F1
:100CF0000A0F1C1F141F141F141F1C1F1C1F141F5E
:100D0000141F141F1C1F1C1F141F141F141F1C1F33
:100D10001C1F141F141F141F1C1F1C1F141F141F23
:100D2000141F1C1F1C1F141F141F141F1C1F1C1F0B
:100D3000141F141F141F1C1F1C1F141F141F141F0B
:100D40001C1F1C1F141F141F141F1C1F1C1F141FEB
:100D5000141F141F1C1F1C1F141F141F141F1C1FE3
:100D60003E1807FF05FF05FF05FF07FF07FF05FF0B
:100D700005FF05FF07FF07FF05FF05FF05FF07FF4D
:100D800007FF05FF05FF05FF07FF07FF05FF05FF3D
:100D900005FF07FF07FF05FF05FF05FF07FF07FF2B
:100DA00005FF05FF05FF07FF07FF05FF05FF05FF1F
:100DB00007FF07FF05FF05FF05FF07FF07FF05FF0B
:100DC00005FF05FF07FF07FF05FF05FF05FF07FFFD
:100DD0000AFE1CFC28F870F0A0E0C0C0808000FF74
:100DE00000FF00FF00FF00FF00FF00FF00FF00FF0B
:100DF00000FF00FF00FF00FF00FF00FF00FF00FFFB
:100E000000FF00FF00FF00FF00FF00FF00FF00FFEA
:100E100000FF00FF00FF00FF00FF00FF00FF00FFDA
:100E200000FF00FF00FF00FF00FF00FF00FF00FFCA
:100E300000FF00FF00FF00FF00FF00FF00FF00FFBA
:100E400000FF00FF00FF00FF00FF00FF00FF00FFAA
:100E500000FF00FFFFFF18FFFFFF001F001F001F24
:100E6000001F001F001F001F001F001F001F001F8A
:100E7000001F001F001F001F001F001F001F001F7A
:100E8000001F001F001F001F001F001F001F001F6A
:100E9000001F001F001F001F001F001F001F001F5A
:100EA000001F001F001F001F001F001F001F001F4A
:100EB000001F001F001F001F001F001F001F001F3A
:100EC000001F001F001F001F001F001F001F001F2A
:100ED0001F1F031F1F1F3E1800FF00FF00FF00FF22
:100EE00000FF00FF00FF00FF00FF00FF00FF00FF0A
:100EF00000FF00FF00FF00FF00FF00FF00FF00FFFA
:100F000000FF00FF00FF00FF00FF00FF00FF00FFE9
:100F100000FF00FF00FF00FF00FF00FF00FF00FFD9
:100F200000FF00FF00FF00FF00FF00FF00FF00FFC9
:100F300000FF00FF00FF00FF00FF00FF00FF00FFB9
:100F400000FF00FF00FF00FF00FF00FF00FFFFFFAA
:100F500018FFFFFF00FF00FF00FF00FF00FF00FF82
:100F600000FF00FF00FF00FF00FF00FF00FF00FF89
:100F700000FF00FF00FF00FF00FF00FF00FF00FF79
:100F800000FF00FF00FF00FF00FF00FF00FF00FF69
:100F900000FF00FF00FF00FF00FF00FF00FF00FF59
:100FA00000FF00FF00FF00FF00FF00FF00FF00FF49
:100FB00000FF00FF00FF00FF00FF00FF00FF00FF39
:100FC00000FF00FF00FF80FFC0FFBFFF637F3F3FC8
:100FD0001C1F141F141F141F1C1F1C1F141F141F61
:100FE000141F1C1F1C1F141F141F141F1C1F1C1F49
:100FF000141F141F141F1C1F1C1F141F141F141F49
:101000001C1F1C1F141F141F141F1C1F1C1F141F28
:10101000141F141F1C1F1C1F141F141F141F1C1F20
:101020001C1F141F141F141F1C1F1C1F141F141F10
:10103000141F1C1F1C1F141F141F141F1C1F0A0F1A
:10104000070702030101000000000000161800E07D
:10105000F0F8FC7E3E1E1F1F3F7FFFFFFEEEFEFCF2
:10106000F8F0E0003FFFFFFFFFFCF87070F0F8FCC5
:10107000FF7F7FE7C3C3E7FFFF3F000103070F1FA9
:101080001F1E3E3F3F3F3C38181C1F0F0703010047
:10109000B210F898F8F8F8F8F8F8F8F8FC9CBCFCEE
:1010A000F8F8F8F8F8B8F4F4F4FAFAFAF2FAF97988
:1010B000797DFF3F7F7ABE3E3E1E1C0E0C0C0E0E4D
:1010C0000C9C9CF8F8B838B8F8E8F8FCFCD8D8D8EC
:1010D000F8F8D8F0F8F8F8F8F8B898F8F8F8F8FC54
:1010E000FCFADAFAFAF1FAFA7279F979FBFBFFFF06
:1010F000FE7EFE7E7C7C3C18180828F8F838F878CC
:10110000F8F8F8B0F0F0F0F0F8F0F8F8F870F8F857
:10111000F0F0A0E0F0F0F0E8E8E8E8E8E8E4E4E483
:10112000F2FAFCFCBCF8F8B8F0F0D8D8F8F0F0E02F
:101130006070F070E0E0E0E0E0E0C0C0C0C0C0E09F
:10114000E0F0F0F80F0F0F0F0F070500000001038C
:101150000F0F0B0F0F0F07070701010206050B0FFB
:10116000070F0F0F0F0E0F0F0F0F0F0F0D0D0D0DA0
:101170000F0D0F0F0F0F0E0E0E0E0E0F0E0E070F90
:101180000E0F0F0F0F0F0F0F0B0F0F0F0F0F0F0F74
:10119000080C0D0F0D0F0F0F0F0F0F0F0F0F0F0F6D
:1011A0000F0F0F0F0F0F0F0F0F0E0F0F0F0F0F0F50
:1011B0000F070F0F0F0F0F0F0F0F0E0F0F0F0F0F48
:1011C0000F0F0F0F0F0707030303030303010101B1
:1011D000010101010101030303030307070F0F07C7
:1011E000070F0F0F0F0F0F0F0F0F0F0F0F0F0F0D19
:1011F0000F0F0D0D0F0F0D10FF010101F909091956
:10120000F1010306FC3F2020203F0000003F20208A
:10121000203F0D10FF01010179494979010173DE79
:10122000803F2020203E0202023E2020203F0D1061
:10123000FC060301392929292929E9090F1F302032
:101240002027252525252525243C0D10FF010101FA
:10125000FF000000FF010101FF03060C18332624E4
:101260002633180C06030D10FE0301017949494984
:1012700079010103FE3F2020203E0202023E202091
:10128000203F0B100F0909F9010101F909090F3C71
:101290002424272020202724243C1110FF010101B1
:1012A000F909F9010101F909F9010306FC3F2020C0
:1012B000203F003F2020203F003F2020203F0D10F6
:1012C000FC860301392929292929296FC03C2525B4
:1012D0002525252525272020301F0D10FE0301017F
:1012E000F9090909F9010103FE1F302020272424F0
:1012F00024272020301F0D10FE030101F9090909E0
:10130000392121233E1F3020202724242427212176
:10131000311F0040004000400040004000400040BD
:1013200000400040004000400040004000400040BD
:1013300000400040004000400040004000400040AD
:10134000004000400040004000400040004000409D
:10135000004000400040004000400040004000408D
:10136000004000400040004000400040004000407D
:10137000004000400040004000400040004000406D
:10138000004000400040004000401516151615169C
:1013900015161516151615161516151615161516F5
:1013A00015161516151615161516151615161516E5
:1013B0001516121C0F220C28092E0634033A013E82
:1013C000013E013E013E023B0339023A023B033A31
:1013D000023B033B023B013D013C013D013D023B21
:1013E000013B023B013B013B023B033B033B033A16
:1013F000033B023B013B023A013C023A013C023B07
:101400000339033A033B033A0339023A033A023CF5
:10141000023C013C023A033A023B0339033A023BE5
:10142000013C023C013C023C023C013D013D023CCE
:10143000023B023B013C013B013C023C033B033AC3
:10144000033B033B033A033A033B023C033A033AB0
:10145000033B033B023C013C023B013D023B013CA0
:10146000023C013C013B013B023A023A0339033999
:101470000339033A0339033A033B033B023C023B83
:10148000033B033B023B013D013D013D013C013D6E
:10149000013D013C023C013C013D013D013C013D5F
:1014A000013D023C013C023A013C023B023A023A55
:1014B000013B013C023B023C013D013D023C013D40
:1014C000013C023B0339023A023B0339023A013B39
:1014D000013B013C013C013D023C033A033B033B21
:1014E000033A023C023C013D013D013C013D013D0E
:1014F000013D023C013D013C023A0339033A033A03
:10150000033B023C033A0339023B013D023B013DF0
:1015100000000708117F5E7F3A7F6E7F3A7F5E7F13
:10152000117F080849496B6B7F7F6B7F223E363EF7
:101530001C1C0808FC1311241FBECFEFDAE0DEBF2D
:10154000CDBF11E0A0E0B1E0E8EAF3E402C005900D
:101550000D92AC39B107D9F729E0ACE9B1E001C08F
:101560001D92A337B207E1F71AE0CBE9DAE004C035
:101570002197FE010E94B821CA39D107C9F70E94FC
:10158000C5140C94D2210C940000EFEDF1E0A0E022
:10159000B8E000800EBC8111012C1197A0FDFDCF99
:1015A0000192B9F70DB40895FC018091DE01882302
:1015B00011F13FB7F89482E08093E9002091F200A6
:1015C000822F90E01816190614F481E090E0882329
:1015D00039F0289844E64093DD014091F1004083C2
:1015E000222339F02091F200211103C02BE6209331
:1015F000E8003FBF08958FEF9FEF08952FB7F8944D
:1016000083E08093E9009091E800892F807295FF34
:1016100004C09091F20080E4891B2FBF089580914F
:10162000D50181110DC082E08093D10184E08093C7
:10163000D2011092D4011092D30181E08093D501A0
:1016400081ED91E00895FC010E94370B319728F05D
:1016500068517C4F8F4F9F4FF9CFAB01FC010E9427
:10166000370B641775078E079F07C8F30895ADEC15
:10167000B1E02FB7F8947D918D919C9166B52FBF05
:10168000A89B05C06F3F18F47F5F8F4F9F4F22E0EC
:10169000660F771F881F991F2A95D1F708954091EB
:1016A0009E0150919F0120919C0130919D01421714
:1016B0005307B4F49091E8009570E1F39091E8003D
:1016C00092FD19C08093F10080919E0190919F013D
:1016D00001968F739927892B19F48EEF8093E80078
:1016E00080919E0190919F01019690939F0180931C
:1016F0009E0181E0089580E00895DF92EF92FF92CD
:101700000F931F93CF93DF93D82E8A01EB017B01B8
:10171000E40EF51ECE15DF0559F0D7FE12C0FE010E
:1017200084910E944F0B21968111F4CF0FEF1FEF90
:10173000C801DF91CF911F910F91FF90EF90DF9043
:1017400008958881EECF0F931F93CF93DF931F925D
:10175000CDB7DEB782E0898342E450E062EE75E007
:1017600080E80E947D0B0E940F0BDC0112960D9108
:101770001C910115110589F0D801ED91FC910280B1
:10178000F381E02DBE016F5F7F4FC801099597FD82
:1017900004C0F80100851185ECCF89810F90DF919D
:1017A000CF911F910F910895615030F02091F10079
:1017B000FC0120830196F8CF289884E68093DD0110
:1017C0000895AF92BF92CF92DF92EF92FF920F9364
:1017D0001F93CF93DF936C017B018B01040F151FC7
:1017E000EB015E01AE18BF08C017D10759F069912F
:1017F000D601ED91FC910190F081E02DC601099593
:10180000892B79F7C501DF91CF911F910F91FF903F
:10181000EF90DF90CF90BF90AF9008958F929F92FE
:10182000AF92BF92CF92DF92EF92FF920F931F93EE
:10183000CF93DF936C017B018A0180910B01882398
:1018400009F45AC08091DE01882309F455C08091C3
:10185000A20180FF05C08091E00082608093E000DB
:10186000E801B12C8AEFA82E93E0892E2AE3922E6C
:10187000209711F4BB20C9F10E94FE0A811108C013
:10188000AA94AA20C9F181E090E00E94230BF0CF36
:101890008C171D0611F00CF08C2F9FB7F8948092D6
:1018A000E9002091E80025FD02C09FBFE1CF282F6D
:1018B00030E0C21BD30BF701815020F041914093DF
:1018C000F100FACFE20EF31EBB2021F09092E80067
:1018D000B12CEBCF8091E80085FDE7CF9092E80036
:1018E000BB24B394209709F3F3CF5D9884E68093EB
:1018F000A101101611063CF081E090E0F6019383FF
:10190000828310E000E0C801DF91CF911F910F9119
:10191000FF90EF90DF90CF90BF90AF909F908F900F
:101920000895CF93DF931F92CDB7DEB76983DC01B3
:10193000ED91FC910280F381E02D41E050E0BE0189
:101940006F5F7F4F09950F90DF91CF91089583E0EE
:101950008093E9008091F200882319F08AE3809354
:10196000E80008950E94FE0A90E00895CF93DF9367
:101970001F92CDB7DEB7FC018485958597FD08C021
:101980002FEF3FEF358724870F90DF91CF91089598
:10199000CE0101960E94D40A019719F4898190E042
:1019A000F3CF8FEF9FEFF0CF0F931F93CF93DF9382
:1019B0001F92CDB7DEB78C01FC018485958597FF1A
:1019C0000BC0CE0101960E94D40A019771F489815F
:1019D00090E0F80195878487F801848595850F90BC
:1019E000DF91CF911F910F9108958FEF9FEFF1CF6E
:1019F000FC018485958597FD0BC09FB7F89482E024
:101A00008093E9008091F2009FBF90E001960895D5
:101A10009FB7F89482E08093E9008091F2009FBF25
:101A200090E008954F925F926F927F928F929F9273
:101A3000AF92BF92CF92DF92EF92FF920F931F93DC
:101A4000CF93DF934C015901FC2DC02FD0E0CE0184
:101A5000880D991D181619060CF06CC020E8821626
:101A600091040CF067C09B012E0D311D1216130658
:101A70000CF060C0603471050CF05CC0411551057C
:101A800009F458C0E62FE770FE2EDB0177FD1796AC
:101A900033E0B595A7953A95E1F73A2F77FF04C063
:101AA000FF2011F03FEF3A0F662777276819790971
:101AB00097FC02C070E060E0803891050CF44BC0E8
:101AC00090E89819961BA32F032E000CBB0B1A2F1E
:101AD00010953F3F0CF010E021E08E2D877009F447
:101AE00020E0E694E694E694E20EAE0DB11D19975F
:101AF0001CF028E0E22EE31AE11A310F20E832034D
:101B0000D0011124A80DB91DA60FB71F019F600DAC
:101B1000711D1124460F571F0F2D0F2C000C110B98
:101B2000F33009F41CC1C8F4F13009F4D0C0F2302C
:101B300009F47CC0DF91CF911F910F91FF90EF903E
:101B4000DF90CF90BF90AF909F908F907F906F90DD
:101B50005F904F900895902FB5CFFA3FB1F1232FAA
:101B60002E0DFB3F39F7321729F3BD0161527E4F2D
:101B7000D12CC12CC91608F0A4C0FA01EC0DFD1D32
:101B8000E491F0E04F01002E02C0880C991C0A94E9
:101B9000E2F737FD06C0FB018081E82CE0948E213E
:101BA0008083FF2061F0373054F45B01F0E8AF0E22
:101BB000B11CE92CE094F50180818E218083FFEF38
:101BC000CF1ADF0A6F5F7F4FD5CF232F2E0D32172D
:101BD00009F4B0CFBD0161527E4FD12CC12CC91682
:101BE00008F069C0FA01EC0DFD1DE491F0E04F0131
:101BF000002E02C0880C991C0A94E2F737FD04C03D
:101C0000FB01808188298083FF2051F0373044F424
:101C10005B01F0E8AF0EB11CF5018081892980835A
:101C2000FFEFCF1ADF0A6F5F7F4FD9CF6FEF70E002
:101C30000F2C02C0660F771F0A94E2F7609570952B
:101C4000772E232F2E0D321709F474CFFD01E152A8
:101C5000FE4F6F01B12CA12CA91638F5FA01EA0D3F
:101C6000FB1DE491F0E02F01002E02C0440C551C36
:101C70000A94E2F737FD05C0F601808186238429A6
:101C80008083FF2059F037304CF44601F0E88F0E86
:101C9000911CF4018081872185298083FFEFAF1A91
:101CA000BF0A8FEFC81AD80AD7CF3F5F4C0F5D1F0E
:101CB000A058BF4FC8CF3F5F4C0F5D1FA058BF4F0C
:101CC00086CF3F5F4C0F5D1FA058BF4F4CCF6A0DB2
:101CD0007B1D232F2E0D321709F42CCFFD01E1526D
:101CE000FE4F6F01B12CA12CA91688F5FB01EA0D5E
:101CF000FB1D8490912C002E02C0880C991C0A9424
:101D0000E2F780949094FA01EA0DFB1D6490712C27
:101D1000002E02C0660C771C0A94E2F737FD05C05E
:101D2000F6018081882186298083FF2049F03730A1
:101D30003CF4F601E058FF4F808189218729808398
:101D4000FFEFAF1ABF0A8FEFC81AD80ACDCF3F5F97
:101D50004C0F5D1F6C0F7D1FA058BF4FBCCFC92E0D
:101D6000D12CFA01E60FF71FA152BE4F00E810E098
:101D70000C191D09CC19DD09BE01660F771F41E062
:101D800050E06A010F2C01C0CC0C0A94EAF7592FDD
:101D90002E2D792ECF93DF93ED01EF96EF962296BD
:101DA0008590A590FF2059F08C9C4001AC9C50017F
:101DB00037302CF4E880B094EB20E928E992332303
:101DC0003AF0EC90A094EA20E828ED920C94E90E09
:101DD00011965A9529F72A9551F0572D33951124CC
:101DE000E60FF11DA00FB11DC00FD11DD9CFDF919E
:101DF000CF9111249FCECF92EF920F9341155105B1
:101E000061F0FA0104913196E4904E5F5F4F22E059
:101E1000C22E30E020E00E94120D0F91EF90CF9083
:101E20000895CF92EF920F934115510569F1FA0190
:101E300004913196E4904E5F5F4F2223F9F0A1E0C8
:101E4000B0E03E2D377011F4B0E0A0E0EE2DE69545
:101E5000E695E695EA0FFB2FF11D0E9FD0010F9F2F
:101E6000B00D112430E0220F331FA29FF001A39F79
:101E7000F00DB29FF00D11244E0F5F1F23E0C22E14
:101E800030E020E00E94120D0F91EF90CF90089566
:101E900090E00C94230B8FB18095807F669B8860C7
:101EA0001C9B8460089590E1282F81E061FD84E00F
:101EB00060FD880F62FD8295687F969FD001112496
:101EC000A20FA152BE4F0C90082A40FF08260C9288
:101ED00008958F929F92AF92BF92CF92DF92EF922E
:101EE000FF920F931F93CF93DF936D3089F0C090D3
:101EF000C201D090C3016A30D1F41092C101109296
:101F0000C00188E0C80ED11CD092C301C092C201AA
:101F100081E090E0DF91CF911F910F91FF90EF90C2
:101F2000DF90CF90BF90AF909F908F9008950091D9
:101F3000C0011091C101E5E06E9FE0011124CE5176
:101F4000DF4F5801F12CF5E0E12CFF1629F0CE010E
:101F50000196FE01E490EC01912C812CF0E8AF1683
:101F6000B10458F4B601680D791D6034710528F488
:101F70004E2D4170C5010E94530FE6948FEF881AD1
:101F8000980AE8E08E16910449F7F394FFEFAF1A30
:101F9000BF0A86E0F812D7CF0A5F1F4F1093C10126
:101FA0000093C001B5CF9091C401982329F490917A
:101FB000C501982381E009F480E00895CF93C82FEC
:101FC0000E944B0F982F9C2381E09C1380E0CF91BF
:101FD000089580E00C94C50A8F929F92AF92BF92B1
:101FE000CF92DF92EF92FF920F93CF93DF935B013B
:101FF000EC014C01840E911C6B01C20ED11CC81562
:10200000D905ECF47501B7FE02C0F12CE12CC60134
:1020100021E4C216D10414F080E490E0E816F90639
:1020200064F4C038D10528F4402FB701CE010E94D6
:10203000530F8FEFE81AF80AEACF2196E0CFDF912D
:10204000CF910F91FF90EF90DF90CF90BF90AF9026
:102050009F908F9008958A3040F5E82FF0E0ED5C76
:10206000FF4E0C94B82156103D10591040104310EB
:10207000461049104C104F10521086ED90E0089514
:102080008AEC90E0089584EC90E008958EEB90E067
:10209000089588EB90E0089582EB90E008958CEA33
:1020A00090E008958BE298E0089508958CED90E01B
:1020B000089580ED90E00895089590E080E00895FF
:1020C000FB0101900020E9F73197AF01461B570B48
:1020D000DC01ED91FC910280F381E02D09948F9257
:1020E0009F92AF92BF92EF92FF920F931F93CF9365
:1020F000DF93CDB7DEB7A1970FB6F894DEBF0FBE62
:10210000CDBF7C01FA01CB0119A2223008F42AE0EC
:102110008E010F5D1F4F822E912CB12CA12CBF017F
:10212000A50194010E947321F901CA016A300CF5DE
:10213000605DD8016E938D01232B242B252B79F71D
:1021400090E080E0109721F0BD01C7010E9460106F
:10215000A1960FB6F894DEBF0FBECDBFDF91CF9131
:102160001F910F91FF90EF90BF90AF909F908F9035
:102170000895695CDECFCF92DF92EF92FF92CF930A
:10218000DF936B017C016DE28FE699E00E94690F9D
:10219000EC0144275527BA014C195D096E097F09E6
:1021A0002AE08FE699E00E946F108C0F9D1FDF914F
:1021B000CF91FF90EF90DF90CF9008950F920FB6E0
:1021C0008F939F93EF93FF938091C8018D5F8D371D
:1021D00008F08D578093C801E9ECF1E080818E4FC3
:1021E000808391819F4F918382818F4F82838381EE
:1021F0008F4F8383EDECF1E080818F5F808381815D
:102200008F4F818382818F4F828383818F4F83831E
:102210008FB18F6066991C9B88278F3681F48091DF
:10222000C701981B963068F0E0E0F8E087E780830C
:10223000818388E180936000F0936000FFCF9093EA
:10224000C701FF91EF919F918F910FBE0F9018954D
:102250001F920F920FB60F9211248F939F9380912C
:10226000E1009091E100937F9093E10083FF0FC024
:102270001092E90091E09093EB001092EC0092E351
:102280009093ED001092DE0198E09093F00082FFB1
:1022900022C093E09093E9009091F200992319F005
:1022A0009AE39093E8009091A101992341F09091D5
:1022B000A10191509093A101911101C05D9A90915B
:1022C000DD01992341F09091DD0191509093DD0162
:1022D000911101C0289A84FF18C08091E2008E7E7F
:1022E00081608093E2008091E1008F7E8093E10025
:1022F0008091A2018E7E80618093A2019F918F9137
:102300000F900FBE0F901F90189580FFF7CF809110
:10231000E2008E7E80618093E2008091E1008E7EFB
:102320008093E1008091A2018E7E8160E5CF1F92B3
:102330000F920FB60F921124CF92DF92EF92FF927D
:102340000F931F932F933F934F935F936F937F93BD
:102350008F939F93AF93BF93EF93FF93CF93DF93AD
:10236000CDB7DEB76C97DEBFCDBF1092E90080918C
:10237000E80083FF25C068E0CE0145960E94D40B9B
:1023800082EF8093E8008D8987FF39C09091E80043
:1023900090FFFCCF982F907609F034C19E894F8929
:1023A000588D2F89F88C911131C0803861F580915A
:1023B000A3018093F1001092F1008EEF8093E8006A
:1023C0006C960FB6F894DEBF0FBECDBFDF91CF91F4
:1023D000FF91EF91BF91AF919F918F917F916F91FD
:1023E0005F914F913F912F911F910F91FF90EF902F
:1023F000DF90CF900F900FBE0F901F9018959EEF1B
:102400009093E800C7CF1092F100D5CF913059F4E6
:102410008111D3CF4130510581F68091A3018D7F89
:102420008093A301CACF933049F48111C6CF4130C4
:10243000510519F68091A3018260F2CF953041F4E5
:102440008091E80080FFFCCF20682093E300B5CFA7
:10245000963009F0A9C00B8D1C8D22E01092E90086
:1024600010929F0110929E01F2122EC010929D01B7
:1024700010929C010E94A30B1F8299E09983FA821B
:1024800091E09E8390EA98879AEF998720919E0128
:1024900030919F01275F3F4F3C832B838D831092A8
:1024A000E90010929F0110929E0110939D010093EC
:1024B0009C0149E050E0BE016F5F7F4F80E00E94C9
:1024C0007D0B0E94A30B79CF10939D0100939C017B
:1024D0000E940F0BDC0112960D911C910115110544
:1024E00009F451C1D801ED91FC910480F581E02DF2
:1024F000BE016B5E7F4FC8010995009709F03EC190
:10250000F80100851185EACFF3E0FF120EC08F8934
:10251000882309F440C0823061F440E867E086E433
:1025200096E00E94C913811148CF81E28093EB00AD
:1025300047CF813029F440E86BE08AE396E0F1CFA1
:10254000833099F70E940F0BDC011296ED90FC90FE
:102550008E010F5F1F4F6801E114F10479F0D7017C
:10256000ED91FC910680F781E02DB801C701099536
:10257000080F111DF701E084F184EECFD8011C9201
:10258000F60101900020E9F73197BF016C197D0930
:1025900040E0C601C6CF64E276E0FB01449150E022
:1025A00080E80E947D0B09CF973009F4BECF9830A8
:1025B00021F481E08093F10000CF993009F0FDCE45
:1025C000837009F0B2CFE4E6F1E081E031E096E318
:1025D0002191222371F08093E9003093EB00DF0119
:1025E00011972C912093EC009093ED008F5F873032
:1025F00079F78EE78093EA001092EA008F89809342
:10260000DE01DBCE8B8D9C8D1092E90010929F0134
:1026100010929E0190939D0180939C01898D811160
:1026200092C08E899D89913A49F4813209F07DCF1B
:1026300047E050E064E071E080E0B3CF913209F010
:1026400074CF833269F48F89988DB0E0A0E08093D5
:10265000000190930101A0930201B0930301ADCE5C
:10266000803269F48091E80082FFFCCF67E084E06B
:1026700091E00E94D40B8BEF8093E8009ECE8232D3
:1026800009F09BCE8F8980930B01EEEFFFE78591D8
:1026900094918B3F9C4D51F1E0E0F8E08091040172
:1026A00090910501A0910601B0910701803B9440F3
:1026B000A105B105F1F480910B0180FD1AC0EE3F38
:1026C0008AE0F80789F587E797E79183808380910F
:1026D00060008093A00188E19BE00FB6F894A89574
:1026E000809360000FBE9093600067CEEEEFFAE03B
:1026F000D5CF808191818737974709F05ECEA89525
:10270000809160008861809360008091A001809337
:102710006000EE3F2AE0F20789F08091FE0A909176
:10272000FF0A9183808349CE808191818737980702
:1027300051F29093FF0A8093FE0AC5CF1092FF0AD0
:102740001092FE0A3ACE0E940F0BDC0112960D91F8
:102750001C910115110509F4E8CED801ED91FC9109
:102760000190F081E02DBE016B5E7F4FC80109959D
:10277000811123CEF80100851185EBCF18161906BB
:102780000CF41BCED2CEF1E0FF12BECE68E276E0B2
:1027900004CFEF92FF920F931F93CF93DF93F82E06
:1027A000192FE62E042F81E0860F880F0E944F0B11
:1027B00083E00E944F0BCF2DD12FEC0EFD2EF11C8C
:1027C000CE15DF05B9F007FF13C0FE0184910E940A
:1027D0004F0B182F80E00E944F0B8123219681110F
:1027E000EFCFDF91CF911F910F91FF90EF90089560
:1027F0008881EDCF81E0F5CF0F931F93CF93109297
:10280000E2051092E10588EE93E0A0E0B0E080934D
:10281000E3059093E405A093E505B093E6058EE605
:1028200091E09093E0058093DF058FEF9FEF909309
:10283000EC058093EB058FE699E0109272091092F7
:10284000710920E831E03093700920936F0990936B
:1028500058098093570922E235E130935A092093B1
:1028600059092AE030E030935C0920935B092CE1A0
:1028700030E030935E0920935D0920EC31E0309325
:10288000600920935F091092610920E12093620999
:102890001092630990936509809364098AEE80938E
:1028A00066098093670910926A0910926B09109269
:1028B0006C0910926D0981E080936E09E7E4F8E0FD
:1028C000A7E5B9E068EC70E054E647E098E022E163
:1028D00035E1B183A08373836283548345839683F8
:1028E00030872783118612861386148615861686EE
:1028F00087877096C9E0E735FC0759F70FE619E0BE
:10290000109338060093370627E438E030933A06F0
:102910002093390620E231E030933C0620933B06B9
:1029200080933D0610923E0810923F08C2E0C0938B
:10293000400894E0909341088093420880934308B4
:102940001092440881E1809345089093460840E046
:1029500052E062E173E18EE396E00E941E21109343
:10296000300600932F0686E180933106C09332062D
:10297000109234061092330686E08093350610924A
:102980003606CF911F910F910895CDB7DEB76497AA
:10299000DEBFCDBF789483E084BD83E085BD81E058
:1029A00080936E00E1E8F0E083E08083E0E881E07E
:1029B0008083E1E983E08083E0E981E08083E1ECEA
:1029C00087E08083E3EC81E08083E0EC82E0808339
:1029D000E2EC81E08083EAE787E08083806880839F
:1029E0001092DE011092A3011092A2018091D700F3
:1029F00081608093D70080EA8093D80089B5806198
:102A000089BD89B5826089BD09B400FEFDCF81E032
:102A100090E00E94230B8091D8008F7C806180938E
:102A2000D8008091E000807F8093E0008091E100F9
:102A30008E7E8093E1008DE08093E200559A209A8B
:102A400081EC80937C0081EF85B987EE84B984E3C3
:102A50008BB984EF8AB9769A6E9880EF81BB10BAF1
:102A600080E58CBD81E08DBD85E00E94480F5F9AB6
:102A700085E00E94480F5C98EEEFF6E085918EBDF0
:102A800000000DB407FEFDCFEB30C1F75C9A81E882
:102A90008093640081E0809365000E94E90F80E8E4
:102AA0000E94DE0F8823A9F05C9885EA8EBD0000A5
:102AB0000DB407FEFDCF5C9A2E982F982D9880912B
:102AC000640080628093640081E083BF889513BEB8
:102AD000FCCF84E00E94DE0F8823B9F12D9884E8B2
:102AE0000E94DE0F8823A1F02D9A88EC0E94480FE7
:102AF0002F986FEF82E090E00E942F2184EF91E009
:102B00000E94230B2F9A84E80E94DE0F8111FBCFD5
:102B100084E10E94DE0F8823A1F02D9A88EC0E94A8
:102B2000480F2E9860E082E090E00E942F2184EF11
:102B300091E00E94230B2E9A84E10E94DE0F811106
:102B4000FBCF88EC0E94480FC4CF2D9A82E090E022
:102B50000E942721882309F471C03E9A3F9A81E0A0
:102B600090E00E942721082F0470D02E81FF0CC016
:102B700001112E9801EF1FEF80E40E94DE0F8823E1
:102B800009F45FC02E9A2F9A82E30E94480F0E9498
:102B90004B0F8111F9CF80E180931F018091640078
:102BA0008E7F8093640080917A00806480937A00A5
:102BB00080917A0086FDFCCF009178001091790019
:102BC0000E94370BAB01BC01C801B0E0A0E0DC0102
:102BD000992788278C019D01040F151F261F371F79
:102BE000C901B8012091640021602093640061153F
:102BF00071058105910511F00E94152183E08093F4
:102C000015018FEF9FEF9093EC058093EB0590916A
:102C1000C9018091A701192F181B812F1091A601BE
:102C2000112309F4A8C08093BF011092A60180E08F
:102C300090E0892B61F30E940000E9CF3E983F9815
:102C40008ECFDD2029F00430110511F42E9A2F9833
:102C500081E00E94C50A202F2770C22E980183E0D0
:102C6000359527958A95E1F7C9019695982F88277C
:102C70009795879581529E4F70E060E02E3F4FEF11
:102C8000340759F1DC01AC56BF4F7C0150E040E005
:102C9000FB01E25BF94F5F01F501E40FF51FE491E1
:102CA000F0E03F010C2C02C0660C771C0A94E2F79E
:102CB0002F3F320721F0F70194889628948ACC2080
:102CC00019F0EC91E729EC934F5F5F4F1196FFEFFE
:102CD000EF1AFF0A48355105F9F62F5F3F4F80582C
:102CE0009F4F685A7F4F603B710541F60E94E90F84
:102CF0008FE00E94480F0F5F1F4F0931110509F047
:102D00003BCFDD2011F02F9A2D9880E991E00E94B1
:102D1000230B2D9A81E090E00E94272180FF34CF81
:102D20008AE090E00E9427219FEF980F9E3F08F0D5
:102D30002BCF22E330E03093C1012093C00128E380
:102D400030E03093C3012093C2010AE010E0682F05
:102D50008FE699E00E94690F0F5F1F4FC8010E9424
:102D600027210031110599F70E94E90F88EE93E0C1
:102D70000E94230B09CF00911F01801748F48F5F39
:102D8000801708F054CF81E083BF889513BE4FCFE2
:102D900081E08093A6019093A701E4EAF1E08081AD
:102DA00091810196808391838091C5018093C401B4
:102DB0000E944B0F8093C501EFEDF1E011111FEF61
:102DC0008FEF11931193119311938150D0F71092BB
:102DD000C3011092C2011092C1011092C001109162
:102DE000C601113009F496C138F0173011F40C9473
:102DF00064200E94E90F1BCF8091360681113DC1EE
:102E00006091320670E08091310646EF52E190E029
:102E10000E94FB0E6091320670E08091310690E0D6
:102E20004AED52E10E960E94FB0E6091320670E070
:102E30008091310690E04EEB52E14C960E94FB0EE1
:102E40006091320670E08091310690E04AE952E1EB
:102E50008A960E94FB0E6091320670E080913106E6
:102E600090E042E852E1CC960E94FB0E609132065F
:102E700070E08091310690E046EF52E1885B9F4F11
:102E80000E94FB0E6091320670E0615F7F4F80917F
:102E9000310690E046EF52E101960E94FB0E6091F0
:102EA000320670E0615F7F4F8091310690E046E628
:102EB00052E10F960E94FB0E6091320670E0615F56
:102EC0007F4F8091310690E04AE452E14D960E9496
:102ED000FB0E6091320670E0615F7F4F809131069A
:102EE00090E04EE252E18B960E94FB0E609132061A
:102EF00070E0615F7F4F8091310690E042E152E1E6
:102F0000C9960E94FB0E6091320670E0615F7F4FB0
:102F10008091310690E046EF51E1895B9F4F0E941E
:102F2000FB0E6091320670E0625E7F4F8091310649
:102F300090E046EF52E103960E94FB0E609132064C
:102F400070E0625E7F4F8091310690E042E152E195
:102F500041960E94FB0E6091320670E0625E7F4FE8
:102F60008091310690E042E852E14F960E94FB0EBC
:102F70006091320670E0625E7F4F8091310690E092
:102F80004EEB52E18B960E94FB0E6091320670E090
:102F9000625E7F4F8091310690E042E852E1C9962F
:102FA0000E94FB0E6091320670E0625E7F4F80915E
:102FB000310690E04EEB52E18B5B9F4F0E94FB0E7F
:102FC0006091350670E080913306909134060E943E
:102FD000A421CB0140E950E164E370E09195819533
:102FE00091090E94FB0E6091350670E080913306D6
:102FF000909134060E94A4219B0140E950E164E3D2
:1030000070E082EB90E0821B930B0E94FB0E80919C
:10301000360681111EC080913306909134060196C8
:1030200090933406809333062091350642EB249F1B
:10303000900111248217930724F010923406109205
:10304000330688E00E94D30F882319F081E0809333
:1030500036068091BF0154E6859FC0011124602F80
:1030600070E00E94A421AB01770F660B770B2AE07A
:103070008FE699E00E946F10BCCE813041F64CE49F
:1030800050E165E170E085E390E00E94FB0E20E0F6
:1030900046ED5EE070E060E090E080E00E94110F9D
:1030A00020E040E65DE06BE270E090E080E00E94AE
:1030B000110F20E04AEE5BE070E060E082E490E017
:1030C0000E94110F20E044E75AE06BE270E082E4D6
:1030D00090E00E94110F41E55AE066E070E08BE05D
:1030E00090E00E94FB0E45E35AE066E070E085E563
:1030F00090E00E94FB0E44E05AE063E370E085E05C
:1031000090E00E94FB0E43ED59E063E370E08BE436
:1031100090E07BCF8091B70181110CC00E94C62046
:103120002FE030E040E050E00E9441216093B60182
:103130001093B70180913D06882309F464C080E2B2
:103140000E94DE0F882399F186E0809341088091E8
:103150004008815080934008811155C0E7E3F6E0B4
:1031600025E338E0918597839285908732962E17D4
:103170003F07C1F790E020914508921730F19BE09E
:10318000209146088217B0F5E0913B06F0913C068D
:10319000899FE00DF11D11242781222331F0208128
:1031A000318121503109318320838F5FE9CF84E061
:1031B0000E94DE0F8111C8CF80E40E94DE0F8823B9
:1031C00011F081E0C2CF82E0C0CF60E1969FF001B4
:1031D00011242091390630913A06E20FF31F23851E
:1031E000222331F02281338121503109338322831C
:1031F0009F5FC1CF80913F088F5F80933F08809190
:1032000041088093400880913F0887FFC8C188E04B
:10321000EBE5F1E0DE01119601900D928A95E1F760
:1032200080913E088F5F80933E080CE317E0E8E052
:10323000CE2ED12CE12CF12CF3E0BF2EAA24A394A6
:10324000AFE39A2E0E94C620A70196010E94412159
:10325000A1E0B0E0AC0FBD1F6A0F7B1FFB018081B6
:1032600090914208890F809342080E94C620A701CE
:1032700096010E94412121E030E02C0F3D1F620F9A
:10328000731FDB018C9190914308890F8093430851
:103290009091420819160CF4C6C0A0924208181664
:1032A00044F0A092430880914208843014F0B09218
:1032B000420880914308843014F0B0924308909102
:1032C000420880914308890FB92DB81BF8019083FB
:1032D000B1830E5F1F4FF8E00E331F0709F0B2CF26
:1032E0000CE011E01A87098768E0862E912CA12C4A
:1032F000B12C78E0272E312C412C512C0E94C62075
:10330000D8017C9072016101C818D908EA08FB084D
:10331000A50194010E944121C60ED71EE81EF91E88
:10332000EC2DF0E0E45FFE4F8081D8018D938D019C
:103330007082B1E08B1A9108A108B108E1E08E1605
:103340009104A104B104D1F653E1E52E51E0F52E2C
:103350000CE011E0D8014D918D0150E070E060E08B
:103360002AE08FED95E00E946F1068E871E08FED24
:1033700095E00E946010E016F10661F76CE871E0DC
:103380008FED95E00E9460106AE871E08FED95E0A6
:103390000E9460106CE871E08FED95E00E94601073
:1033A0006AE871E08FED95E00E94601043E0642EC2
:1033B0004424439433243A9490914508209139064B
:1033C00030913A0680E0981709F46FC08901205FB8
:1033D0003F4FF80143854111A8C04581A985BA85B1
:1033E0008C91885F8295807F90E0FC01EE0FFF1F3B
:1033F000E95CF94F60E0712C30E4532EC52CD12CE0
:103400004617A9F05781751608F4752E7085A52FFB
:10341000A70FBB27BB1FAC15BD0514F4552E570EC7
:103420006F5F3296EBCF18160CF43DCF3ACFF80110
:10343000938382838681C81AD108F5E0CF1AD10818
:103440000D2C000CEE08FF08872C912C25E0820E35
:10345000911C092C000CAA08BB088C149D04AE0416
:10346000BF048CF4C818D908EA08FB0841F00E9490
:10347000C620A70196010E9441216B017C018C0CA2
:103480009D1CAE1CBF1CD80114968C9214971996E3
:103490007C9219971A965C921A971B964C921B97DE
:1034A0001C961C921C971F963C926A9409851A855B
:1034B0000F5F1F4F1A87098761107ECF80913E08EA
:1034C00080FD6BC000913B0610913C0630E020E08F
:1034D000D80117968C911797811194C013968C91EF
:1034E000245F3E4FD901EC91E85FE295E07FF0E088
:1034F000EE0FFF1FE95CF94F40E0712C90E4692E5C
:10350000C62CD12C841799F09781791608F4792E5E
:103510005085692F650F7727771F6C157D0514F48B
:10352000692E650E4F5F3296EBCF8F5F4CCF809147
:103530000F0190E00896A4E0880F991FAA95E1F783
:10354000D80111969C938E9314968C91C81AD10829
:103550000D2C000CEE08FF08872C912CB12CA12C0F
:103560008C149D04AE04BF048CF4C818D908EA0872
:10357000FB0841F00E94C620A70196010E9441214C
:103580006B017C018C0C9D1CAE1CBF1CF80182825F
:103590007582668281E08783108610923F0880E002
:1035A0004EED50E06EED7FEF91E0209145088217DF
:1035B00008F059C000E1809FF001112420913906E4
:1035C00030913A06E20FF31F2385222309F449C004
:1035D00022813381273F1FEF3107ECF49587148652
:1035E000248521111EC0258521112DC0A081B18106
:1035F000148116962D913C911217130608F49787A3
:1036000094870CC02F5F3F4F055F1F4F243031055B
:1036100009F05ECFC2CF2833310514F3248522236D
:1036200091F0A48121852A1708F0978726812A0F17
:103630003327331FB285B217130609F00CF47787CE
:1036400027852A0F24832585222359F026852F5F7D
:1036500026872A3034F05383428364831586138689
:1036600016868F5FA2CF80E09BE02EED30E06EEDFE
:10367000409146088417B0F4E0913B06F0913C0677
:10368000899FE00DF11D11244781442349F04081B9
:103690005181473F5F4F24F4318320836283178237
:1036A0008F5FE6CF80916A098823E1F080916609F7
:1036B00090916909913009F44AC20CF03DC28250E0
:1036C000992309F449C28091660987FD04C080915D
:1036D0006709843438F010926A098AEE809366098B
:1036E0008093670980916C09882309F438C280911E
:1036F0006D098F5F80936D09843154F082E491E00D
:1037000090935C0980935B0990935E0980935D09B7
:103710008FB7F8944091C9015091CA016091CB01D3
:103720007091CC018FBF8091180190911901A091E7
:103730001A01B0911B018A019B01081B190B2A0B6E
:103740003B0BD901C801843E9240A105B10598F018
:1037500080911E01882379F080911C0118161CF4B9
:10376000815080931C01409318015093190160937C
:103770001A0170931B0130916A098090A901909001
:10378000AA01A090AB01B090AC010091B1010A8BED
:103790001091B001198B0091AF010B8B6091AE01BC
:1037A0007090AD0140905B0950905C098201085F08
:1037B0001F4F1D870C8720905D0930905E098101A5
:1037C000085F1F4F1F870E8710913D061B87609073
:1037D0006E090091590910915A091A870987E090DA
:1037E0001E011091A801188BF09015010091C601DF
:1037F0000C8B07E418E08091660990E0D8011296DE
:10380000CD90DC901397AC014D5F5F4F4C155D057B
:103810000CF46AC015964C9115974C0D5D2D511DF9
:10382000481759070CF460C02091670914969C91C1
:103830001497291708F458C016968C911697890F7B
:103840009927991F2817190611F00CF04DC0E1E0D7
:103850001D96EC931D971C961C92FAEEF093660948
:10386000F093670929E1820E911CA11CB11CC501CE
:10387000B40120E137E240E050E00E9473212A8B3E
:10388000C501B40128EE33E040E050E00E9473210E
:10389000CA01B9012AE030E040E050E00E94732103
:1038A000698BC501B40124E630E040E050E00E949D
:1038B0007321CA01B9012AE030E040E050E00E94E3
:1038C00073216B8BC501B4012AE030E040E050E089
:1038D0000E947321762ECA01B9012AE030E040E04F
:1038E00050E00E94732130E04C855D854C155D05EC
:1038F000C8F1D80115968C911597C80ED11CC41427
:10390000D50480F114968C91149790E0EE85FF8594
:10391000E817F90738F116962C911697820F911D2A
:1039200082159305F8F01D968C911D9781111AC090
:1039300080916C09811116C0F1E0F0936C0921E0CF
:103940001D962C931D971C961C921F140CF086C17B
:10395000FA94612C1B86E12C41E0488B89E099E0C8
:103960009A878987005F1F4F47E559E04017510745
:1039700009F041CF30936A098092A9019092AA017F
:10398000A092AB01B092AC010A890093B1011989F0
:103990001093B0010B890093AF016093AE01709258
:1039A000AD011B8510933D0660926E0909851A854D
:1039B00010935A090093590918891093A801F0929D
:1039C00015010C890093C60140916C09A0E2B1E099
:1039D00027E531E0FD01808191810C851D85081767
:1039E0001907B0F05381850F911D8415950580F05E
:1039F000828190E00E851F850817190748F05481D1
:103A0000850F911D8215930518F08185882321F07B
:103A1000411102C0EE24E3943B962E173F07D9F6DE
:103A200090911D0180911C012D913C9111970C8565
:103A30001D850217130740F113965C911397250F0C
:103A4000311D2415350500F112962C91129730E0A6
:103A50000E851F8502171307B8F014965C91149712
:103A6000250F311D2215330578F019962C911997E1
:103A700021110AC019160CF401C18F5F8F320CF4AA
:103A8000F9C08EE2E12C9CE01B96EA17FB0761F679
:103A9000E0921E0190931D0180931C011816BCF04A
:103AA000411115C010923D0681E080936C0910927F
:103AB0006E0989E099E090935A0980935909109210
:103AC0001E011F140CF4DDC087E08093C6018091B5
:103AD0001401882309F4C4C1A7E3B6E090E080E0B4
:103AE0006FEF17965C91179718964C911897450FA2
:103AF000E52FE695E695E695FF24FA94FE0E5770BD
:103B00001FEFF11609F4C1C070E00F2D0F2C000C4F
:103B1000110B272F30E0021713070CF4B6C03695AF
:103B2000322F222737952795280F391F21523E4FD4
:103B3000F90160837F5FEDCF923069F08091670972
:103B40008250933009F0BFCD80936709BCCD80913E
:103B500067098E5FF9CF8E5F80936609B4CD80913F
:103B60006E09882309F4D4CD80E80E94DE0F8823F3
:103B700019F08CEF809363090E944B0F87FD08C0FA
:103B80000E944B0F84FD04C01092630910926109DA
:103B900080E10E94DE0F882319F084E0809363099E
:103BA0002091610980916309280F20936109409158
:103BB0006209642F042E000C770B80915F099091AD
:103BC0006009421794F5860F971F909360098093C0
:103BD0005F094093610980915F099091600997FDA9
:103BE0000F96F4E095958795FA95E1F790935E0925
:103BF00080935D0988E00E94DE0F882309F488CD58
:103C000080916A09811184CD80915B098B5F8093DB
:103C1000660980915D098D5F8093670981E08093DB
:103C20006A0982E08093690973CD022E000C330B80
:103C3000EE27FF27E61BF70B2E173F0744F4861BE2
:103C4000970B9093600980935F094195C2CF820FD3
:103C5000931F9093600980935F09BDCF612C1B86F1
:103C6000E12C97E09C8BA1E0A88BE9E0F9E0FA87D2
:103C7000E98778CE87FF06CF80E004CF9150E12C12
:103C800003CFFA94F092150122CF5523C9F0EF2DFE
:103C9000FF0CFF0B3196F695FE2FEE27F795E79573
:103CA000E80FF91FE152FE4F28E030E0251B3109F3
:103CB0000FEF10E002C0159507952A95E2F70083F3
:103CC000542F5695569556954770252F30E079011B
:103CD000F694FE2CEE24F794E794E80EF91E10E01B
:103CE00000E0752F700F783070F4F801F695FE2F14
:103CF000EE27F795E795EE0DFF1DE152FE4F60832D
:103D00000F5F1F4FEECF4423C1F0E8E0F0E0E41B6B
:103D1000F1090FEF10E002C015950795EA95E2F75B
:103D2000A8013695322F222737952795280F391F5E
:103D300021523E4F4095F9014083019612968F37EC
:103D4000910509F0CECE10E080914508181710F5C6
:103D500000E1109FF00111248091390690913A06FC
:103D6000E80FF91F8385882379F0648170E08281F0
:103D700093812585222351F0268527FD2F5F2595E8
:103D80004BE157E00E94110F1F5FDECF4781508546
:103D900020E0F8CF10E00BE0809146081817A8F457
:103DA000E0913B06F0913C06109FE00DF11D1124BF
:103DB0008781882341F0628170E04BE057E0808189
:103DC00091810E94FB0E1F5FE7CF86E490E0909305
:103DD000C1018093C0011092C3011092C2016DE82D
:103DE00071E080913706909138060E9460104091F2
:103DF0003E0850E070E060E02AE080913706909144
:103E000038060E946F1020916C0940915909509119
:103E10005A0960915D0970915E0980915B099091EA
:103E20005C09222309F4F6C020916D0927FD2D5F5E
:103E3000259525950E94110F60916709062E000CAB
:103E4000770B80916609082E000C990B2091680968
:103E500001E0222309F4E0C023E041E00E94EC0FDE
:103E600080911C0115E3181B163308F015E341EF90
:103E700057E070E060E090E080E00E94FB0E1730B9
:103E800008F417E0612F70E020E045EE57E090E085
:103E900080E00E94110F00E020E447E070E060E065
:103EA00089E790E00E94EC0F10E000E041E0B801EB
:103EB00089E790E00E94530F0F5F1F4F00341105F8
:103EC000A9F7109115014091A9015091AA016091A3
:103ED000AB017091AC014A30510561057105C8F024
:103EE00081E08093B201443651056105710588F087
:103EF0008093B301483E23E052076105710548F005
:103F00008093B401403157426105710510F08093F0
:103F1000B5018091AD010E942B10AC0168E370E007
:103F20008BE790E00E94FB0E8091B201882359F04C
:103F30008091AE010E942B10AC0160E370E08BE732
:103F400090E00E94FB0E8091B301882359F080918C
:103F5000AF010E942B10AC0168E270E08BE790E0AB
:103F60000E94FB0E8091B401882359F08091B0012A
:103F70000E942B10AC0160E270E08BE790E00E94A1
:103F8000FB0E8091B501882359F08091B1010E9408
:103F90002B10AC0168E170E08BE790E00E94FB0E13
:103FA00041E358E061E070E08BE790E00E94FB0E97
:103FB0004BE258E0193020F4812F0E942B10AC0105
:103FC00067E070E08BE790E00E94FB0E8091A80113
:103FD000882339F080911401882309F1815080935E
:103FE00014018AE090E09093C1018093C001109287
:103FF000C3011092C20140911501042E000C550B13
:10400000660B770B77FF33C8CB01BA010E94BB1058
:104010000C94F91620E00ECF21E043E01FCF009171
:10402000B6018BE190E09093C1018093C0018CE1D7
:1040300090E09093C3018093C201063191F587E02F
:104040008093C60188E00E94D30F811105C084E0EF
:104050000E94D30F882329F281E080933D061092BD
:104060006D0910926C0980936E0982E295E190933C
:104070005A09809359098AE090E090935C098093F3
:104080005B091092A80188E7809314010E94C62062
:104090002FE030E040E050E00E9441216093B60103
:1040A000A0CF4EE0049F80011124095C174FF80156
:1040B0006491662339F28FE699E00E94690F0F5FE1
:1040C0001F4F892BA1F7BECF61E971E08FE699E020
:1040D0000E94601088E00E94D30F811107C084E025
:1040E0000E94D30F882311F40C94F9161092C60184
:1040F0000C94F9168F929F92AF92BF92CF92DF925B
:10410000EF92FF92CF93DF93EC01688179818A81EE
:104110009B81611571058105910521F464E279EDBA
:104120008BE597E02DE133EF41E050E00E94412123
:1041300049015A019B01AC01A7EAB1E40E94602148
:104140006B017C01ACEEB4EFA50194010E946E21DD
:10415000C60ED71EE81EF91EF7FE06C081E0C81A7B
:10416000D108E10880E8F80AC882D982EA82FB8295
:10417000C701B6019F77DF91CF91FF90EF90DF905D
:10418000CF90BF90AF909F908F9008958F929F9205
:10419000AF92BF92CF92DF92EF92FF926091570160
:1041A000709158018091590190915A0161157105E2
:1041B0008105910521F464E279ED8BE597E02DE12D
:1041C00033EF41E050E00E94412149015A019B0137
:1041D000AC01A7EAB1E40E9460216B017C01ACEE66
:1041E000B4EFA50194010E946E21C60ED71EE81EF1
:1041F000F91EF7FE06C081E0C81AD108E10880E880
:10420000F80AC0925701D0925801E0925901F092F9
:104210005A01C701B6019F77FF90EF90DF90CF90D2
:10422000BF90AF909F908F900895609357017093C7
:1042300058018093590190935A010895FB01DC01C4
:1042400002C005900D9241505040D8F70895F99959
:10425000FECF92BD81BDF89A992780B50895262F8B
:10426000F999FECF92BD81BDF89A019700B402166C
:1042700039F01FBA20BD0FB6F894FA9AF99A0FBE1A
:104280000895052E97FB1EF400940E94582157FDB7
:1042900007D00E94732107FC03D04EF40C945821E0
:1042A00050954095309521953F4F4F4F5F4F089562
:1042B00090958095709561957F4F8F4F9F4F089592
:1042C0000E949521A59F900DB49F900DA49F800DF5
:1042D000911D11240895B7FF0C9460210E94602164
:1042E000821B930B0895A1E21A2EAA1BBB1BFD0192
:1042F0000DC0AA1FBB1FEE1FFF1FA217B307E407C5
:10430000F50720F0A21BB30BE40BF50B661F771F1C
:10431000881F991F1A9469F76095709580959095FC
:104320009B01AC01BD01CF010895A29FB001B39FD5
:10433000C001A39F700D811D1124911DB29F700DAE
:10434000811D1124911D089597FB072E16F40094EA
:1043500007D077FD09D00E94BE2107FC05D03EF4AE
:10436000909581959F4F0895709561957F4F089521
:10437000EE0FFF1F0590F491E02D0994AA1BBB1BC3
:1043800051E107C0AA1FBB1FA617B70710F0A61B55
:10439000B70B881F991F5A95A9F780959095BC0176
:0843A000CD010895F894FFCF50
:1043A800FFFFFFFF00E10000000000000001020322
:1043B800040706057803DEDE00000000320A01105B
:1043C800DE00DE0E08000000000000DE00DE0E0841
:1043D800000000000000DE00DE0E08000000000003
:1043E80000DE00DE0E08000000000000DE00DE0E29
:1043F8000800000000000001000000FFFFFF0000AF
:1044080001010100C1808100000000000000910C42
:104418000E0CB20CA70CF80CB60CD40C0000000063
:10442800690FE10B5D105C1020000D0A0043533A40
:0C4438000047616D65204F766572000042
:00000001FF
