:100000000C943D070C9465070C9465070C946507E8
:100010000C9465070C9465070C9465070C946507B0
:100020000C9465070C9465070C94E40D0C94530E26
:100030000C9465070C9465070C9465070C94650790
:100040000C9465070C9465070C9465070C94650780
:100050000C9465070C9465070C9465070C949A0D35
:100060000C9465070C9465070C9465070C94650760
:100070000C9465070C9465070C9465070C94650750
:100080000C9465070C9465070C9465070C94650740
:100090000C9465070C9465070C9465070C94650730
:1000A0000C9465070C9465070C94650704083649A1
:1000B000493604080161190704083E49493004081B
:1000C0004F494931040818167F1004082241493667
:1000D0000408625149460408427F400004083E413A
:1000E000413E00000000003E5B4F5B3E3E6B4F6BAD
:1000F0003E1C3E7C3E1C183C7E3C181C577D571C09
:100100001C5E7F5E1C00183C1800FFE7C3E7FF0081
:1001100018241800FFE7DBE7FF30483A060E2629CF
:10012000792926407F050507407F05253F5A3CE792
:100130003C5A7F3E1C1C08081C1C3E7F14227F2258
:10014000145F5F005F5F06097F017F006689956A23
:10015000606060606094A2FFA29408047E040810AE
:10016000207E201008082A1C08081C2A08081E10D7
:100170001010100C1E0C1E0C30383E3830060E3E8F
:100180000E06000000000000005F000000070007EE
:1001900000147F147F14242A7F2A12231308646218
:1001A00036495620500008070300001C2241000079
:1001B00041221C002A1C7F1C2A08083E08080080D7
:1001C000703000080808080800006060002010086F
:1001D00004023E5149453E00427F40007249494970
:1001E000462141494D331814127F102745454539A2
:1001F0003C4A4949314121110907364949493646A6
:100200004949291E00001400000040340000000885
:100210001422411414141414004122140802015928
:1002200009063E415D594E7C1211127C7F494949B5
:10023000363E414141227F4141413E7F494949414A
:100240007F090909013E414151737F0808087F0079
:10025000417F41002040413F017F081422417F40FF
:100260004040407F021C027F7F0408107F3E4141D6
:10027000413E7F090909063E4151215E7F09192946
:1002800046264949493203017F01033F4040403F30
:100290001F2040201F3F4038403F63140814630371
:1002A000047804036159494D43007F4141410204F0
:1002B000081020004141417F0402010204404040F7
:1002C0004040000307080020545478407F284444ED
:1002D000383844444428384444287F385454541807
:1002E00000087E090218A4A49C787F080404780002
:1002F000447D40002040403D007F102844000041E4
:100300007F40007C047804787C08040478384444F6
:100310004438FC1824241818242418FC7C080404ED
:1003200008485454542404043F44243C4040207C56
:100330001C2040201C3C4030403C44281028444CA9
:100340009090907C4464544C440008364100000076
:10035000770000004136080002010204023C262317
:10036000263C1EA1A161123A4040207A38545455CF
:10037000592155557941215454784121555478409B
:1003800020545579400C1E52721239555555593921
:100390005454545939555454580000457C41000276
:1003A000457D420001457C40F0292429F0F02825B4
:1003B00028F07C545545002054547C547C0A097F15
:1003C0004932494949323248484832324A4848302D
:1003D0003A4141217A3A42402078009DA0A07D39DF
:1003E000444444393D4040403D3C24FF2424487E61
:1003F0004943662B2FFC2F2BFF0929F620C0887E4E
:10040000090320545479410000447D413048484A52
:1004100032384040227A007A0A0A727D0D19317D05
:100420002629292F28262929292630484D402038D9
:100430000808080808080808382F10C8ACBA2F1098
:100440002834FA00007B000008142A142222142AFF
:1004500014089500220095AA005500AAAA55AA558D
:10046000AA000000FF00101010FF00141414FF0079
:100470001010FF00FF1010F010F0141414FC001402
:1004800014F700FF0000FF00FF1414F404FC141420
:1004900017101F10101F101F1414141F001010101D
:1004A000F0000000001F101010101F10101010F0AE
:1004B00010000000FF101010101010101010FF108E
:1004C000000000FF140000FF00FF00001F101700D5
:1004D00000FC04F414141710171414F404F40000AE
:1004E000FF00F714141414141414F700F714141460
:1004F000171410101F101F141414F4141010F010FF
:10050000F000001F101F0000001F14000000FC146A
:100510000000F010F01010FF10FF141414FF14105E
:1005200010101F00000000F010FFFFFFFFFFF0F0B1
:10053000F0F0F0FFFFFF0000000000FFFF0F0F0FC3
:100540000F0F38444438447C2A2A3E147E020206A7
:1005500006027E027E0263554941633844443C04EE
:10056000407E201E2006027E020299A5E7A5991C66
:100570002A492A1C4C7201724C304A4D4D30304889
:10058000784830BC625A463D3E494949007E0101E7
:10059000017E2A2A2A2A2A44445F444440514A447C
:1005A0004040444A51400000FF0103E080FF00004A
:1005B00008086B6B083612362436060F090F060042
:1005C0000018180000001010003040FF0101001F4B
:1005D00001011E00191D1712003C3C3C3C000000AC
:1005E0000000080B000202020000090400000102E2
:1005F0000200000524001001052401010104240269
:1006000006052406000107058103100040090401C6
:1006100000020A00000007050202400000070583EF
:10062000024000000403090412010002EF0201402D
:100630004123368000010102030141726475696E35
:100640006F204C4C430041726475626F7900F0F882
:100650009C8E8783878E9CF8F00000FEFF030303C7
:100660000303070EFCF80000FEFF03030303030768
:100670000EFCF80000FFFF00000000000000FFFF7C
:100680000000FEFF8383838383C7EE7C380000F87D
:10069000FC0E07030303070EFCF800003F7FE0C0D9
:1006A0008080C0E07F3FFFFF01010101010101FFE8
:1006B000FF0000FFFF0C0C0C0C1C3E77E3C1000098
:1006C0007FFFC0C0C0C0C0E0703F1F00001F3F7070
:1006D000E0C0C0C0E0703F1F00007FFFC1C1C1C1CA
:1006E000C1E3773E1C00001F3F70E0C0C0C0E07057
:1006F0003F1F000000000001FFFF01000000D5F0D7
:100700008D14A1C881CFD9F1AF20000E08FF8181DF
:1007100081FFFFFF818181FF7E3C180A10000000ED
:100720000000000000303030300000000000000009
:1007300000000000000000000000000000000000B9
:1007400000000000000000000000002020383850A9
:100750005060600000000000000000000000000089
:100760000000000000000000000000000000000089
:10077000003030C8C82020949468685050000000B1
:100780000000000000000000000000000000000069
:100790000000000000000020205454AAAA58582A43
:1007A0002AE0E09C9C2828000000000000000001D6
:1007B000010000010100000000000000001818A066
:1007C000A004044B4B80800A0A292910108C8C60ED
:1007D00060000001010000020202020000030300A9
:1007E000000000000005080F0F0F0F0F0F07070391
:1007F00003074080BE8A8A8280FF0000000000005C
:10080000FF000000000000FF000000000000FF00EB
:100810000000000000FF000000000000FF000000DA
:10082000000000FF017D55554501FF040826494998
:100830003E04081B04041B20204E6963652074726B
:1008400079212020002020546F6F20736C6F772156
:10085000202000204E696365206372617368212047
:10086000002020546F6F20656173792120200020C3
:1008700050696C6F74206661696C212000202042F1
:100880006164206D6F7665212020002020536F2049
:10089000636C6F736521202000202020204F6F7033
:1008A00073212020202000202020416C6D6F737464
:1008B00021202020002054727920686172646572C2
:1008C000212000204E6F7420656E6F7567682120AF
:1008D000004E696365206C616E64696E672100205B
:1008E000476F6F64206372617368212000202020AD
:1008F000416761696E3F21202020002020536F2036
:10090000717569636B212020000A1000000000004F
:100910000000003030303000000000000000000017
:1009200000000000000000000000000000000000C7
:100930000000000000000000002020383850506007
:100940006000000000000000000000000000000047
:100950000000000000000000000000000000003067
:1009600030C8C820209494686850500000000000EF
:100970000000000000000000000000000000000077
:10098000000000000020205454AAAA58582A2AE047
:10099000E09C9C28280000000000000000010100ED
:1009A00000010100000000000000001818A0A004D1
:1009B000044B4B80800A0A292910108C8C6060003F
:1009C0000001010000020202020000030300000017
:1009D000000000B210F898F8F8F8F8F8F8F8F8FC09
:1009E0009CBCFCF8F8F8F8F8B8F4F4F4FAFAFAF267
:1009F000FAF979797DFF3F7F7ABE3E3E1E1C0E0CD0
:100A00000C0E0E0C9C9CF8F8B838B8F8E8F8FCFC12
:100A1000D8D8D8F8F8D8F0F8F8F8F8F8B898F8F87E
:100A2000F8F8FCFCFADAFAFAF1FAFA7279F979FBD9
:100A3000FBFFFFFE7EFE7E7C7C3C18180828F8F841
:100A400038F878F8F8F8B0F0F0F0F0F8F0F8F8F8D6
:100A500070F8F8F0F0A0E0F0F0F0E8E8E8E8E8E896
:100A6000E4E4E4F2FAFCFCBCF8F8B8F0F0D8D8F80A
:100A7000F0F0E06070F070E0E0E0E0E0E0C0C0C006
:100A8000C0C0E0E0F0F0F80F0F0F0F0F07050000F7
:100A90000001030F0F0B0F0F0F07070701010206DD
:100AA000050B0F070F0F0F0F0E0F0F0F0F0F0F0D6F
:100AB0000D0D0D0F0D0F0F0F0F0E0E0E0E0E0F0E54
:100AC0000E070F0E0F0F0F0F0F0F0F0B0F0F0F0F44
:100AD0000F0F0F080C0D0F0D0F0F0F0F0F0F0F0F34
:100AE0000F0F0F0F0F0F0F0F0F0F0F0F0E0F0F0F17
:100AF0000F0F0F0F070F0F0F0F0F0F0F0F0E0F0F0F
:100B00000F0F0F0F0F0F0F0F07070303030303034D
:100B100001010101010101010103030303030707AF
:100B20000F0F07070F0F0F0F0F0F0F0F0F0F0F0FE5
:100B30000F0F0D0F0F0D0D0F0F0D10FF010101F91C
:100B4000090919F1010306FC3F2020203F000000A5
:100B50003F2020203F0D10FF010101794949790113
:100B60000173DE803F2020203E0202023E20202032
:100B70003F0D10FC060301392929292929E9090F0C
:100B80001F30202027252525252525243C0D10FF55
:100B9000010101FF000000FF010101FF03060C1825
:100BA0003326242633180C06030D10FE03010179A9
:100BB00049494979010103FE3F2020203E020202FB
:100BC0003E2020203F0B100F0909F9010101F9090E
:100BD000090F3C2424272020202724243C1110FF27
:100BE000010101F909F9010101F909F9010306FC03
:100BF0003F2020203F003F2020203F003F2020209A
:100C00003F0D10FC860301392929292929296FC0A4
:100C10003C25252525252525272020301F0D10FEC4
:100C2000030101F9090909F9010103FE1F30202020
:100C300027242424272020301F0D10FE030101F952
:100C4000090909392121233E1F302020272424248B
:100C5000272121311F00400040004000400040009B
:100C60004000400040004000400040004000400084
:100C70004000400040004000400040004000400074
:100C80004000400040004000400040004000400064
:100C90004000400040004000400040004000400054
:100CA0004000400040004000400040004000400044
:100CB0004000400040004000400040004000400034
:100CC0004000400040004000400040004015161524
:100CD00016151615161516151615161516151615BC
:100CE00016151615161516151615161516151615AC
:100CF0001615161516121C0F220C28092E06340381
:100D00003A013E013E013E013E023B0339023A02F6
:100D10003B033A023B033B023B013D013C013D01E9
:100D20003D023B013B023B013B013B023B033B03DA
:100D30003B033A033B023B013B023A013C023A01CE
:100D40003C023B0339033A033B033A0339023A03BB
:100D50003A023C023C013C023A033A023B033903AB
:100D60003A023B013C023C013C023C023C013D0199
:100D70003D023C023B023B013C013B013C023C0387
:100D80003B033A033B033B033A033A033B023C0376
:100D90003A033A033B033B023C013C023B013D0268
:100DA0003B013C023C013C013B013B023A023A035D
:100DB0003903390339033A0339033A033B033B024E
:100DC0003C023B033B033B023B013D013D013D0136
:100DD0003C013D013D013C023C013C013D013D0126
:100DE0003C013D013D023C013C023A013C023B0218
:100DF0003A023A013B013C023B023C013D013D020B
:100E00003C013D013C023B0339023A023B033902FB
:100E10003A013B013B013C013C013D023C033A03EA
:100E20003B033B033A023C023C013D013D013C01D6
:100E30003D013D013D023C013D013C023A033903C5
:100E40003A033A033B023C033A0339023B013D02B9
:100E50003B013D00000708117F5E7F3A7F6E7F3ABD
:100E60007F5E7F117F080849496B6B7F7F6B7F2214
:100E70003E363E1C1C080800B81011241FBECFEFE0
:100E8000DAE0DEBFCDBF11E0A0E0B1E0E8EEFBE3C9
:100E900002C005900D92A03AB107D9F729E0A0EA67
:100EA000B1E001C01D92AE36B207E1F717E0CDE325
:100EB000D7E004C02197FE010E94D81DCC33D10792
:100EC000C9F70E946A110C94F21D0C940000E2EE26
:100ED000F1E0A0E0B8E000800EBC8111012C119778
:100EE000A0FDFDCF0192B9F70DB40895FC018091EA
:100EF000E101882311F13FB7F89482E08093E90083
:100F00002091F200822F90E01816190614F481E067
:100F100090E0882339F0289844E64093E00140911E
:100F2000F1004083222339F02091F200211103C007
:100F30002BE62093E8003FBF08958FEF9FEF0895C1
:100F40002FB7F89483E08093E9009091E800892F0F
:100F5000807295FF04C09091F20080E4891B2FBF3E
:100F600008958091D80181110DC082E08093D40151
:100F700084E08093D5011092D7011092D60181E0D0
:100F80008093D80184ED91E00895FC010E94D90777
:100F9000319728F068517C4F8F4F9F4FF9CFAB01AD
:100FA000FC010E94D907641775078E079F07C8F3D5
:100FB0000895A0EDB1E02FB7F8947D918D919C91AB
:100FC00066B52FBFA89B05C06F3F18F47F5F8F4F9A
:100FD0009F4F22E0660F771F881F991F2A95D1F730
:100FE00008954091A2015091A3012091A001309158
:100FF000A10142175307B4F49091E8009570E1F312
:101000009091E80092FD19C08093F1008091A201B7
:101010009091A30101968F739927892B19F48EEF74
:101020008093E8008091A2019091A3010196909392
:10103000A3018093A20181E0089580E00895DF92EA
:10104000EF92FF920F931F93CF93DF93D82E8A01D5
:10105000EB017B01E40EF51ECE15DF0559F0D7FE3E
:1010600012C0FE0184910E94F10721968111F4CFF4
:101070000FEF1FEFC801DF91CF911F910F91FF90EC
:10108000EF90DF9008958881EECF0F931F93CF9359
:10109000DF931F92CDB7DEB782E0898342E450E050
:1010A00062EE75E080E80E941F080E94B107DC0133
:1010B00012960D911C910115110589F0D801ED9141
:1010C000FC910280F381E02DBE016F5F7F4FC8016C
:1010D000099597FD04C0F80100851185ECCF898141
:1010E0000F90DF91CF911F910F910895615030F0D3
:1010F0002091F100FC0120830196F8CF289884E626
:101100008093E0010895AF92BF92CF92DF92EF9269
:10111000FF920F931F93CF93DF936C017B018B01A1
:10112000040F151FEB015E01AE18BF08C017D107F1
:1011300059F06991D601ED91FC910190F081E02D7B
:10114000C6010995892B79F7C501DF91CF911F91D0
:101150000F91FF90EF90DF90CF90BF90AF900895E8
:101160008F929F92AF92BF92CF92DF92EF92FF92B7
:101170000F931F93CF93DF936C017B018A018091C2
:101180000B01882309F45AC08091E101882309F4F6
:1011900055C08091A60180FF05C08091E00082606B
:1011A0008093E000E801B12C8AEFA82E93E0892E0D
:1011B0002AE3922E209711F4BB20C9F10E94A007C8
:1011C000811108C0AA94AA20C9F181E090E00E9490
:1011D000C507F0CF8C171D0611F00CF08C2F9FB7B0
:1011E000F8948092E9002091E80025FD02C09FBF9D
:1011F000E1CF282F30E0C21BD30BF701815020F044
:1012000041914093F100FACFE20EF31EBB2021F092
:101210009092E800B12CEBCF8091E80085FDE7CFFC
:101220009092E800BB24B394209709F3F3CF5D9824
:1012300084E68093A501101611063CF081E090E051
:10124000F6019383828310E000E0C801DF91CF9123
:101250001F910F91FF90EF90DF90CF90BF90AF90D4
:101260009F908F900895CF93DF931F92CDB7DEB7F5
:101270006983DC01ED91FC910280F381E02D41E076
:1012800050E0BE016F5F7F4F09950F90DF91CF91C6
:10129000089583E08093E9008091F200882319F09B
:1012A0008AE38093E80008950E94A00790E00895E3
:1012B000CF93DF931F92CDB7DEB7FC018485958570
:1012C00097FD08C02FEF3FEF358724870F90DF9100
:1012D000CF910895CE0101960E947607019719F4E7
:1012E000898190E0F3CF8FEF9FEFF0CF0F931F93A3
:1012F000CF93DF931F92CDB7DEB78C01FC018485BD
:10130000958597FF0BC0CE0101960E947607019745
:1013100071F4898190E0F80195878487F8018485CC
:1013200095850F90DF91CF911F910F9108958FEFC9
:101330009FEFF1CFFC018485958597FD0BC09FB78A
:10134000F89482E08093E9008091F2009FBF90E0E2
:10135000019608959FB7F89482E08093E900809108
:10136000F2009FBF90E008954F925F926F927F923C
:101370008F929F92AF92BF92CF92DF92EF92FF92A5
:101380000F931F93CF93DF934C015901FC2DC02F76
:10139000D0E0CE01880D991D181619060CF06CC00E
:1013A00020E8821691040CF067C09B012E0D311DC0
:1013B000121613060CF060C0603471050CF05CC0AE
:1013C0004115510509F458C0E62FE770FE2EDB01E8
:1013D00077FD179633E0B595A7953A95E1F73A2F43
:1013E00077FF04C0FF2011F03FEF3A0F6627772701
:1013F0006819790997FC02C070E060E080389105B7
:101400000CF44BC090E89819961BA32F032E000CE8
:10141000BB0B1A2F10953F3F0CF010E021E08E2DF2
:10142000877009F420E0E694E694E694E20EAE0DAF
:10143000B11D19971CF028E0E22EE31AE11A310FD2
:1014400020E83203D0011124A80DB91DA60FB71F43
:10145000019F600D711D1124460F571F0F2D0F2C7A
:10146000000C110BF33009F41CC1C8F4F13009F47D
:10147000D0C0F23009F47CC0DF91CF911F910F9161
:10148000FF90EF90DF90CF90BF90AF909F908F90A4
:101490007F906F905F904F900895902FB5CFFA3F57
:1014A000B1F1232F2E0DFB3F39F7321729F3BD0180
:1014B0006E517E4FD12CC12CC91608F0A4C0FA0180
:1014C000EC0DFD1DE491F0E04F01002E02C0880CF0
:1014D000991C0A94E2F737FD06C0FB018081E82CD5
:1014E000E0948E218083FF2061F0373054F45B015B
:1014F000F0E8AF0EB11CE92CE094F50180818E215B
:101500008083FFEFCF1ADF0A6F5F7F4FD5CF232F86
:101510002E0D321709F4B0CFBD016E517E4FD12C84
:10152000C12CC91608F069C0FA01EC0DFD1DE4914B
:10153000F0E04F01002E02C0880C991C0A94E2F7DB
:1015400037FD04C0FB01808188298083FF2051F092
:10155000373044F45B01F0E8AF0EB11CF501808137
:1015600089298083FFEFCF1ADF0A6F5F7F4FD9CFC2
:101570006FEF70E00F2C02C0660F771F0A94E2F73E
:1015800060957095772E232F2E0D321709F474CFA6
:10159000FD01EE51FE4F6F01B12CA12CA91638F5BB
:1015A000FA01EA0DFB1DE491F0E02F01002E02C0CC
:1015B000440C551C0A94E2F737FD05C0F601808102
:1015C000862384298083FF2059F037304CF446016C
:1015D000F0E88F0E911CF40180818721852980839A
:1015E000FFEFAF1ABF0A8FEFC81AD80AD7CF3F5FF5
:1015F0004C0F5D1FA058BF4FC8CF3F5F4C0F5D1F02
:10160000A058BF4F86CF3F5F4C0F5D1FA058BF4F04
:101610004CCF6A0D7B1D232F2E0D321709F42CCFD2
:10162000FD01EE51FE4F6F01B12CA12CA91688F5DA
:10163000FB01EA0DFB1D8490912C002E02C0880C4A
:10164000991C0A94E2F780949094FA01EA0DFB1D2C
:101650006490712C002E02C0660C771C0A94E2F78D
:1016600037FD05C0F6018081882186298083FF200F
:1016700049F037303CF4F601E058FF4F8081892172
:1016800087298083FFEFAF1ABF0A8FEFC81AD80AE5
:10169000CDCF3F5F4C0F5D1F6C0F7D1FA058BF4F1C
:1016A000BCCFC92ED12CFA01E60FF71FAE51BE4FA9
:1016B00000E810E00C191D09CC19DD09BE01660F08
:1016C000771F41E050E06A010F2C01C0CC0C0A9456
:1016D000EAF7592F2E2D792ECF93DF93ED01EF9658
:1016E000EF9622968590A590FF2059F08C9C4001A2
:1016F000AC9C500137302CF4E880B094EB20E92802
:10170000E99233233AF0EC90A094EA20E828ED9295
:101710000C948B0B11965A9529F72A9551F0572D59
:1017200033951124E60FF11DA00FB11DC00FD11D7F
:10173000D9CFDF91CF9111249FCECF92EF920F930B
:101740004115510561F0FA0104913196E4904E5F24
:101750005F4F22E0C22E30E020E00E94B4090F91DA
:10176000EF90CF900895CF92EF920F9341155105CE
:1017700069F1FA0104913196E4904E5F5F4F2223A4
:10178000F9F0A1E0B0E03E2D377011F4B0E0A0E038
:10179000EE2DE695E695E695EA0FFB2FF11D0E9FDF
:1017A000D0010F9FB00D112430E0220F331FA29FF4
:1017B000F001A39FF00DB29FF00D11244E0F5F1F9B
:1017C00023E0C22E30E020E00E94B4090F91EF9098
:1017D000CF90089590E00C94C5078FB18095807FDD
:1017E000669B88601C9B8460089590E1282F81E0AF
:1017F00061FD84E060FD880F62FD8295687F969FA1
:10180000D0011124A20FAE51BE4F0C90082A40FF08
:1018100008260C9208958F929F92AF92BF92CF921A
:10182000DF92EF92FF920F931F93CF93DF936D3070
:1018300089F0C090C501D090C6016A30D1F41092F1
:10184000C4011092C30188E0C80ED11CD092C60119
:10185000C092C50181E090E0DF91CF911F910F917F
:10186000FF90EF90DF90CF90BF90AF909F908F90C0
:1018700008950091C3011091C401E5E06E9FE0015D
:101880001124CE51DF4F5801F12CF5E0E12CFF1669
:1018900029F0CE010196FE01E490EC01912C812CFF
:1018A000F0E8AF16B10458F4B601680D791D603444
:1018B000710528F44E2D4170C5010E94F50BE69488
:1018C0008FEF881A980AE8E08E16910449F7F3948E
:1018D000FFEFAF1ABF0A86E0F812D7CF0A5F1F4F9B
:1018E0001093C4010093C301B5CF9091C701982311
:1018F00029F49091C801982381E009F480E00895CB
:10190000CF93C82F0E94ED0B982F9C2381E09C134E
:1019100080E0CF91089580E00C9467078F929F92AA
:10192000AF92BF92CF92DF92EF92FF920F93CF933D
:10193000DF935B01EC014C01840E911C6B01C20E24
:10194000D11CC815D905ECF47501B7FE02C0F12C05
:10195000E12CC60121E4C216D10414F080E490E029
:10196000E816F90664F4C038D10528F4402FB70111
:10197000CE010E94F50B8FEFE81AF80AEACF219604
:10198000E0CFDF91CF910F91FF90EF90DF90CF905C
:10199000BF90AF909F908F9008958A3040F5E82FC8
:1019A000F0E0EB52F34F0C94D81DF80CDF0CFB0C5D
:1019B000E20CE50CE80CEB0CEE0CF10CF40C86EDF3
:1019C00090E008958AEC90E0089584EC90E008950A
:1019D0008EEB90E0089588EB90E0089582EB90E024
:1019E00008958CEA90E008958BE298E008950895B8
:1019F0008CED90E0089580ED90E00895089590E0DA
:101A000080E00895FB0101900020E9F73197AF01D4
:101A1000461B570BDC01ED91FC910280F381E02D18
:101A200009948F929F92AF92BF92EF92FF920F9381
:101A30001F93CF93DF93CDB7DEB7A1970FB6F8947E
:101A4000DEBF0FBECDBF7C01FA01CB0119A222304F
:101A500008F42AE08E010F5D1F4F822E912CB12CCD
:101A6000A12CBF01A50194010E94931DF901CA0197
:101A70006A300CF5605DD8016E938D01232B242B09
:101A8000252B79F790E080E0109721F0BD01C70188
:101A90000E94020DA1960FB6F894DEBF0FBECDBF17
:101AA000DF91CF911F910F91FF90EF90BF90AF907A
:101AB0009F908F900895695CDECF0F931F93CF9313
:101AC000DF93809164008E7F8093640080917A0020
:101AD000806480937A0080917A0086FDFCCFC0916B
:101AE0007800D09179000E94D907AB01BC01CE01EA
:101AF000B0E0A0E0DC01992788278C019D01040F4C
:101B0000151F261F371FC901B801209164002160ED
:101B100020936400611571058105910531F0DF9115
:101B2000CF911F910F910C94351DDF91CF911F9193
:101B30000F9108950F920FB68F939F93EF93FF939A
:101B40008091CB018D5F8D3708F08D578093CB014D
:101B5000ECECF1E080818E4F808391819F4F9183E7
:101B600082818F4F828383818F4F8383E0EDF1E009
:101B700080818F5F808381818F4F818382818F4FAE
:101B8000828383818F4F83838FB18F6066991C9B83
:101B900088278F3681F48091CA01981B963068F0AF
:101BA000E0E0F8E087E78083818388E1809360004C
:101BB000F0936000FFCF9093CA01FF91EF919F9146
:101BC0008F910FBE0F9018951F920F920FB60F9224
:101BD00011248F939F938091E1009091E100937F76
:101BE0009093E10083FF0FC01092E90091E0909381
:101BF000EB001092EC0092E39093ED001092E10163
:101C000098E09093F00082FF22C093E09093E90067
:101C10009091F200992319F09AE39093E800909143
:101C2000A501992341F09091A50191509093A501B0
:101C3000911101C05D9A9091E001992341F090913A
:101C4000E00191509093E001911101C0289A84FF26
:101C500018C08091E2008E7E81608093E2008091C6
:101C6000E1008F7E8093E1008091A6018E7E8061ED
:101C70008093A6019F918F910F900FBE0F901F90A0
:101C8000189580FFF7CF8091E2008E7E806180936F
:101C9000E2008091E1008E7E8093E1008091A601B8
:101CA0008E7E8160E5CF1F920F920FB60F921124A6
:101CB000CF92DF92EF92FF920F931F932F933F9358
:101CC0004F935F936F937F938F939F93AF93BF9344
:101CD000EF93FF93CF93DF93CDB7DEB76C97DEBF63
:101CE000CDBF1092E9008091E80083FF25C068E035
:101CF000CE0145960E94760882EF8093E8008D8998
:101D000087FF39C09091E80090FFFCCF982F907624
:101D100009F034C19E894F89588D2F89F88C911113
:101D200031C0803861F58091A7018093F100109255
:101D3000F1008EEF8093E8006C960FB6F894DEBF4A
:101D40000FBECDBFDF91CF91FF91EF91BF91AF91CA
:101D50009F918F917F916F915F914F913F912F91C3
:101D60001F910F91FF90EF90DF90CF900F900FBEDB
:101D70000F901F9018959EEF9093E800C7CF109298
:101D8000F100D5CF913059F48111D3CF41305105B5
:101D900081F68091A7018D7F8093A701CACF9330F0
:101DA00049F48111C6CF4130510519F68091A70140
:101DB0008260F2CF953041F48091E80080FFFCCF43
:101DC00020682093E300B5CF963009F0A9C00B8DB1
:101DD0001C8D22E01092E9001092A3011092A20142
:101DE000F2122EC01092A1011092A0010E9445088B
:101DF0001F8299E09983FA8291E09E8390EA988706
:101E00009AEF99872091A2013091A301275F3F4F5C
:101E10003C832B838D831092E9001092A3011092D2
:101E2000A2011093A1010093A00149E050E0BE017E
:101E30006F5F7F4F80E00E941F080E94450879CFA6
:101E40001093A1010093A0010E94B107DC0112963A
:101E50000D911C910115110509F451C1D801ED91A5
:101E6000FC910480F581E02DBE016B5E7F4FC801BF
:101E70000995009709F03EC1F80100851185EACF68
:101E8000F3E0FF120EC08F89882309F440C082302E
:101E900061F440E867E086E496E00E9485108111D5
:101EA00048CF81E28093EB0047CF813029F440E8AE
:101EB0006BE08AE396E0F1CF833099F70E94B10797
:101EC000DC011296ED90FC908E010F5F1F4F6801B0
:101ED000E114F10479F0D701ED91FC910680F781CE
:101EE000E02DB801C7010995080F111DF701E08425
:101EF000F184EECFD8011C92F60101900020E9F7A1
:101F00003197BF016C197D0940E0C601C6CF64E27C
:101F100076E0FB01449150E080E80E941F0809CF61
:101F2000973009F4BECF983021F481E08093F1001E
:101F300000CF993009F0FDCE837009F0B2CFE9E609
:101F4000F1E081E031E096E32191222371F080936A
:101F5000E9003093EB00DF0111972C912093EC0006
:101F60009093ED008F5F873079F78EE78093EA00DA
:101F70001092EA008F898093E101DBCE8B8D9C8DDE
:101F80001092E9001092A3011092A2019093A10176
:101F90008093A001898D811192C08E899D89913A8B
:101FA00049F4813209F07DCF47E050E064E071E010
:101FB00080E0B3CF913209F074CF833269F48F8916
:101FC000988DB0E0A0E08093000190930101A09370
:101FD0000201B0930301ADCE803269F48091E80034
:101FE00082FFFCCF67E084E091E00E9476088BEFEF
:101FF0008093E8009ECE823209F09BCE8F89809339
:102000000B01EEEFFFE7859194918B3F9C4D51F1D1
:10201000E0E0F8E08091040190910501A0910601B3
:10202000B0910701803B9440A105B105F1F4809186
:102030000B0180FD1AC0EE3F8AE0F80789F587E7BB
:1020400097E791838083809160008093A40188E169
:102050009BE00FB6F894A895809360000FBE909314
:10206000600067CEEEEFFAE0D5CF808191818737AF
:10207000974709F05ECEA8958091600088618093B3
:1020800060008091A40180936000EE3F2AE0F20797
:1020900089F08091FE0A9091FF0A9183808349CE56
:1020A000808191818737980751F29093FF0A80933E
:1020B000FE0AC5CF1092FF0A1092FE0A3ACE0E9485
:1020C000B107DC0112960D911C910115110509F45F
:1020D000E8CED801ED91FC910190F081E02DBE0198
:1020E0006B5E7F4FC8010995811123CEF8010085F1
:1020F0001185EBCF181619060CF41BCED2CEF1E0E9
:10210000FF12BECE68E276E004CFEF92FF920F930B
:102110001F93CF93DF93F82E192FE62E042F81E023
:10212000860F880F0E94F10783E00E94F107CF2DF0
:10213000D12FEC0EFD2EF11CCE15DF05B9F007FFF7
:1021400013C0FE0184910E94F107182F80E00E94C5
:10215000F107812321968111EFCFDF91CF911F915C
:102160000F91FF90EF9008958881EDCF81E0F5CF3A
:10217000CF931092E5051092E40588EE93E0A0E07D
:10218000B0E08093E6059093E705A093E805B0934F
:10219000E90583E791E09093E3058093E2058FEFF3
:1021A0009FEF9093EF058093EE058AE699E01092F9
:1021B0006D0910926C0925E831E030936B0920938A
:1021C0006A09909353098093520925E63EE03093C3
:1021D0005509209354092AE030E0309357092093A1
:1021E00056092CE130E0309359092093580920EC2E
:1021F00031E030935B0920935A0910925C0920E189
:1022000020935D0910925E099093600980935F09A5
:102210008AEE809361098093620910926509109299
:102220006609109267091092680981E08093690934
:10223000E2E4F8E0A2E5B9E068EC70E054E647E0DB
:1022400098E025E53EE0B183A083738362835483E5
:1022500045839683308727831186128613861486DA
:102260001586168687877096C9E0E235FC0759F710
:102270002AE639E0309333062093320622E438E030
:10228000309335062093340625E231E0309337064B
:1022900020933606809338061092390810923A0837
:1022A00092E090933B0894E090933C0880933D0823
:1022B00080933E0810923F0881E1809340089093FC
:1022C000410840E052E065E57CE089E396E0CF918B
:1022D0000C943E1DCDB7DEB76497DEBFCDBF7894BA
:1022E00083E084BD83E085BD81E080936E00E1E8FA
:1022F000F0E083E08083E0E881E08083E1E983E04F
:102300008083E0E981E08083E1EC87E08083E3EC97
:1023100081E08083E0EC82E08083E2EC81E08083F6
:10232000EAE787E08083806880831092E101109261
:10233000A7011092A6018091D70081608093D700F9
:1023400080EA8093D80089B5806189BD89B58260B3
:1023500089BD09B400FEFDCF81E090E00E94C50771
:102360008091D8008F7C80618093D8008091E000BC
:10237000807F8093E0008091E1008E7E8093E10079
:102380008DE08093E200559A209A81EC80937C0046
:1023900081EF85B987EE84B984E38BB984EF8AB97C
:1023A000769A6E9880EF81BB10BA80E58CBD81E093
:1023B0008DBD85E00E94EA0B5F9A85E00E94EA0BE2
:1023C0005C98EEEFF6E085918EBD00000DB407FE3F
:1023D000FDCFEB30C1F75C9A81E88093640081E027
:1023E000809365000E948B0C80E80E94800C8823FB
:1023F000A9F05C9885EA8EBD00000DB407FEFDCF04
:102400005C9A2E982F982D9880916400806280931A
:10241000640081E083BF889513BEFCCF84E00E94F6
:10242000800C8823B9F12D9884E80E94800C8823C1
:10243000A1F02D9A88EC0E94EA0B2F986FEF82E0B2
:1024400090E00E944F1D84EF91E00E94C5072F9AF3
:1024500084E80E94800C8111FBCF84E10E94800CF3
:102460008823A1F02D9A88EC0E94EA0B2E9860E058
:1024700082E090E00E944F1D84EF91E00E94C5072A
:102480002E9A84E10E94800C8111FBCF88EC0E947F
:10249000EA0BC4CF2D9A82E090E00E94471D88236A
:1024A000C9F13E9A3F9A81E090E00E94471D082FB3
:1024B0000470D02E81FF0BC001112E9801EF1FEF89
:1024C00080E40E94800C882341F12E9A2F9A82E3A7
:1024D0000E94EA0B0E94ED0B8111F9CF80E18093FD
:1024E0000C010E945D0D83E0809316018FEF9FEF3A
:1024F0009093EF058093EE051091AA01112309F442
:10250000A6C01092AA0180E090E0892BA9F30E9456
:102510000000F2CF3E983F98C6CFDD2029F004306E
:10252000110511F42E9A2F9881E00E946707202F41
:102530002770C22E980183E0359527958A95E1F79B
:10254000C9019695982F8827979587958E519E4F0C
:1025500070E060E02E3F4FEF340759F1DC01AC56DC
:10256000BF4F7C0150E040E0FB01E25BF94F5F01AF
:10257000F501E40FF51FE491F0E03F010C2C02C0DF
:10258000660C771C0A94E2F72F3F320721F0F7011F
:1025900094889628948ACC2019F0EC91E729EC9342
:1025A0004F5F5F4F1196FFEFEF1AFF0A4835510555
:1025B000F9F62F5F3F4F80589F4F685A7F4F603B1F
:1025C000710541F60E948B0C8FE00E94EA0B0F5FB1
:1025D0001F4F0931110509F073CFDD2011F02F9A3B
:1025E0002D9880E991E00E94C5072D9A81E090E046
:1025F0000E94471D80FF6BCF8AE090E00E94471D3C
:102600009FEF980F9E3F08F062CF22E330E03093B7
:10261000C4012093C30128E330E03093C601209326
:10262000C5010AE010E0682F8AE699E00E940B0CD1
:102630000F5F1F4FC8010E94471D0031110599F718
:102640000E948B0C88EE93E00E94C50740CF9091CA
:10265000CC018091AB01092F081B802F20910C0128
:10266000021748F48F5F821708F04DCF81E083BFD7
:10267000889513BE48CF81E08093AA019093AB0167
:10268000E8EAF1E0808191810196808391838091D5
:10269000C8018093C7010E94ED0B8093C801E2EE50
:1026A000F1E011111FEF8FEF11931193119311931B
:1026B0008150D0F71092C6011092C5011092C4014A
:1026C0001092C3011091C901113009F436C138F0DC
:1026D000173011F40C94841C0E948B0C14CF609161
:1026E000210170E08091200149E35CE090E00E94CC
:1026F0009D0B6091210170E08091200190E04DE1FF
:102700005CE00E960E949D0B6091210170E080912B
:10271000200190E041E05CE04C960E949D0B6091AE
:10272000210170E08091200190E04DED5BE08A9600
:102730000E949D0B6091210170E08091200190E04A
:1027400045EC5BE0CC960E949D0B6091210170E00E
:102750008091200190E049E35CE0885B9F4F0E94FC
:102760009D0B6091210170E0615F7F4F809120019E
:1027700090E049E35CE001960E949D0B609121018D
:1027800070E0615F7F4F8091200190E049EA5BE05B
:102790000F960E949D0B6091210170E0615F7F4F59
:1027A0008091200190E04DE85BE04D960E949D0BEA
:1027B0006091210170E0615F7F4F8091200190E086
:1027C00041E75BE08B960E949D0B6091210170E0D8
:1027D000615F7F4F8091200190E045E55BE0C99605
:1027E0000E949D0B6091210170E0615F7F4F80919D
:1027F000200190E049E35BE0895B9F4F0E949D0BC5
:102800006091210170E0625E7F4F8091200190E035
:1028100049E35CE003960E949D0B6091210170E00A
:10282000625E7F4F8091200190E045E55BE041963C
:102830000E949D0B6091210170E0625E7F4F80914C
:10284000200190E045EC5BE04F960E949D0B60916B
:10285000210170E0625E7F4F8091200190E041E0B5
:102860005CE08B960E949D0B6091210170E0625E9E
:102870007F4F8091200190E045EC5BE0C9960E947B
:102880009D0B6091210170E0625E7F4F809120017D
:1028900090E041E05CE08B5B9F4F0E949D0B60915C
:1028A000240170E080912201909123010E94C41DB7
:1028B000CB0143ED59E064E370E091958195910976
:1028C0000E949D0B6091240170E080912201909103
:1028D00023010E94C41D9B0143ED59E064E370E0B5
:1028E00082EB90E0821B930B0E949D0B8091220152
:1028F00090912301019690932301809322012091CE
:10290000240112EB219F900111248217930724F0D8
:10291000109223011092220188E00E94750C81110F
:1029200006C084E00E94750C882309F4D5CE0E946D
:102930005D0D81E08093C901CFCE8091BB018111F3
:102940000CC00E94E61C2FE030E040E050E00E9406
:10295000611D6093BA011093BB01809138068823F2
:1029600009F464C080E20E94800C882399F186E01B
:1029700080933C0880913B08815080933B088111F3
:1029800055C0E2E3F6E020E338E091859783928535
:10299000908732962E173F07C1F790E020914008AC
:1029A000921730F19BE0209141088217B0F5E09139
:1029B0003606F0913706899FE00DF11D112427811D
:1029C000222331F02081318121503109318320834C
:1029D0008F5FE9CF84E00E94800C8111C8CF80E432
:1029E0000E94800C882311F081E0C2CF82E0C0CF2A
:1029F00020E1929FF0011124209134063091350698
:102A0000E20FF31F2385222331F0228133812150ED
:102A10003109338322839F5FC1CF80913A088F5F52
:102A200080933A0880913C0880933B0880913A0853
:102A300087FFC4C188E0E0E6F1E0DE011196019075
:102A40000D928A95E1F7809139088F5F809339085C
:102A500007E317E0F8E0CF2ED12CE12CF12CA3E016
:102A6000BA2EAA24A394BFE39B2E0E94E61CA701C2
:102A700096010E94611D41E050E04C0F5D1F640F04
:102A8000751FDB018C9190913D08890F80933D0863
:102A90000E94E61CA70196010E94611DE1E0F0E0A2
:102AA000EC0FFD1F6E0F7F1FDB018C9190913E0894
:102AB000890F80933E0890913D0819160CF4C4C00C
:102AC000A0923D08181644F0A0923E0880913D085F
:102AD000843014F0B0923D0880913E08843014F0A8
:102AE000B0923E0890913D0880913E08890FB92D23
:102AF000B81BF8019083B1830E5F1F4FF8E00933D4
:102B00001F0709F0B2CF6DE0262E61E0362E81015D
:102B100078E0C72ED12CE12CF12CE8E04E2E512C80
:102B2000612C712C0E94E61CD801BC90A701960173
:102B30000E94611DA30192012C193D094E095F09F4
:102B4000620F731F841F951FE62FF0E0E35FFE4FB7
:102B50008081D8018D938D01B082B1E0CB1AD1086C
:102B6000E108F108E1E0CE16D104E104F104D1F668
:102B700054E1E52E51E0F52E0DE011E0D8014D9124
:102B80008D0150E070E060E02AE082EE95E00E9466
:102B9000110D6DE871E082EE95E00E94020DE016E5
:102BA000F10661F761E971E082EE95E00E94020DA5
:102BB0006FE871E082EE95E00E94020D61E971E03C
:102BC00082EE95E00E94020D6FE871E082EE95E0E2
:102BD0000E94020D43E0642E4424439490914008E7
:102BE000209134063091350680E0981709F46FC0C3
:102BF0008901205F3F4FF80143854111A5C0458100
:102C0000D1018C91885F8295807F90E0FC01EE0F6E
:102C1000FF1FEE5CF94F60E0712C30E4532EC52CA1
:102C2000D12C4617A9F05781751608F4752E7085BA
:102C3000A52FA70FBB27BB1FAC15BD0514F4552E40
:102C4000570E6F5F3296EBCF18160CF43FCF3CCF88
:102C5000F801938382838681C81AD108F5E0CF1AE0
:102C6000D1080D2C000CEE08FF08872C912C25E0D4
:102C7000820E911C092C000CAA08BB088C149D0420
:102C8000AE04BF048CF4C818D908EA08FB0841F068
:102C90000E94E61CA70196010E94611D6B017C0148
:102CA0008C0C9D1CAE1CBF1CD80114968C921497E2
:102CB00019967C9219971A965C921A971B964C92C9
:102CC0001B971C961C921C97EFEF1F96EC936A942F
:102CD000FFEF2F1A3F0A611081CF8091390880FDE4
:102CE0006BC0009136061091370630E020E0D80125
:102CF00017968C911797811194C013968C91235F2E
:102D00003E4FD901EC91E85FE295E07FF0E0EE0FF5
:102D1000FF1FEE5CF94F40E0712C90E4692EC62C49
:102D2000D12C841799F09781791608F4792E508563
:102D3000692F650F7727771F6C157D0514F4692EB1
:102D4000650E4F5F3296EBCF8F5F4FCF80911001B2
:102D500090E00896A4E0880F991FAA95E1F7D801A2
:102D600011969C938E9314968C91C81AD1080D2CB1
:102D7000000CEE08FF08872C912CB12CA12C8C1490
:102D80009D04AE04BF048CF4C818D908EA08FB08F7
:102D900041F00E94E61CA70196010E94611D6B0193
:102DA0007C018C0C9D1CAE1CBF1CF80182827582BC
:102DB000668281E08783108610923A0880E04EEDAB
:102DC00050E06EED7FEF91E020914008821708F00F
:102DD00059C000E1809FF001112420913406309108
:102DE0003506E20FF31F2385222309F449C022810F
:102DF0003381273F1FEF3107ECF495871486248534
:102E000021111EC0258521112DC0A081B181148101
:102E100016962D913C911217130608F49787948704
:102E20000CC02F5F3F4F055F1F4F2430310509F065
:102E30005ECFC2CF2833310514F32485222391F0CD
:102E4000A48121852A1708F0978726812A0F332726
:102E5000331FB285B217130609F00CF47787278564
:102E60002A0F24832585222359F026852F5F268764
:102E70002A3034F053834283648315861386168682
:102E80008F5FA2CF80E09BE02EED30E06EED4091B1
:102E900041088417B0F4E0913606F0913706899F17
:102EA000E00DF11D11244781442349F040815181F7
:102EB000473F5F4F24F431832083628317828F5F03
:102EC000E6CF809165098823E1F0809161099091B6
:102ED0006409913009F44AC20CF03DC28250992332
:102EE00009F449C28091610987FD04C0809162099B
:102EF000843438F0109265098AEE809361098093DA
:102F0000620980916709882309F438C280916809B1
:102F10008F5F80936809843154F082E491E090934C
:102F200057098093560990935909809358098FB790
:102F3000F8944091CC015091CD016091CE017091F7
:102F4000CF018FBF8091190190911A01A0911B01AF
:102F5000B0911C018A019B01081B190B2A0B3B0B2A
:102F6000D901C801843E9240A105B10598F0809135
:102F70001F01882379F080911D0118161CF48150DF
:102F800080931D014093190150931A0160931B0116
:102F900070931C01309165098090AD019090AE0155
:102FA000A090AF01B090B0010091B501098B1091D4
:102FB000B4011B8B0091B3010A8B6091B201709038
:102FC000B10140905609509057098201085F1F4F88
:102FD0001B870A8720905809309059098101085FA2
:102FE0001F4F1D870C87109138061987609069095B
:102FF0000091540910915509188B0F87E0901F011B
:103000001091AC011E87F09016010091C9010C8B44
:1030100002E418E08091610990E0D8011296CD9009
:10302000DC901397AC014D5F5F4F4C155D050CF4C0
:103030006AC015964C9115974C0D5D2D511D481782
:1030400059070CF460C02091620914969C91149762
:10305000291708F458C016968C911697890F99274E
:10306000991F2817190611F00CF04DC0E1E01D96CC
:10307000EC931D971C961C92FAEEF0936109F09365
:10308000620929E1820E911CA11CB11CC501B40189
:1030900020E137E240E050E00E94931D298BC501FA
:1030A000B40128EE33E040E050E00E94931DCA01D5
:1030B000B9012AE030E040E050E00E94931D6B8BA4
:1030C000C501B40124E630E040E050E00E94931DC9
:1030D000CA01B9012AE030E040E050E00E94931DAF
:1030E0006A8BC501B4012AE030E040E050E00E9464
:1030F000931D762ECA01B9012AE030E040E050E08D
:103100000E94931D30E04A855B854C155D05C8F132
:10311000D80115968C911597C80ED11CC414D504EE
:1031200080F114968C91149790E0EC85FD85E8175A
:10313000F90738F116962C911697820F911D82157A
:103140009305F8F01D968C911D9781111AC08091FE
:103150006709811116C0F1E0F093670921E01D961F
:103160002C931D971C961C921F140CF086C1FA9488
:10317000612C1986E12C41E04E8789E099E0988B1B
:103180008F87005F1F4F42E559E04017510709F054
:1031900041CF309365098092AD019092AE01A0922B
:1031A000AF01B092B00109890093B5011B8910935A
:1031B000B4010A890093B3016093B2017092B10126
:1031C000198510933806609269090F851889109344
:1031D0005509009354091E851093AC01F092160115
:1031E0000C890093C90140916709A5E2B1E02CE583
:1031F00031E0FD01808191810A851B85081719073F
:10320000B0F05381850F911D8415950580F0828162
:1032100090E00C851D850817190748F05481850F2B
:10322000911D8215930518F08185882321F04111A5
:1032300002C0EE24E3943B962E173F07D9F69091F7
:103240001E0180911D012D913C9111970A851B85CE
:103250000217130740F113965C911397250F311D48
:103260002415350500F112962C91129730E00C854B
:103270001D8502171307B8F014965C911497250F5B
:10328000311D2215330578F019962C9119972111CB
:103290000AC019160CF401C18F5F8F320CF4F9C00B
:1032A0008EE2E12C9CE01B96EA17FB0761F6E092A8
:1032B0001F0190931E0180931D011816BCF041114F
:1032C00015C01092380681E0809367091092690951
:1032D00089E099E0909355098093540910921F0159
:1032E0001F140CF4DDC087E08093C90180911501A3
:1032F000882309F4C4C1A2E3B6E090E080E06FEF58
:1033000017965C91179718964C911897450FE52FD3
:10331000E695E695E695FF24FA94FE0E57701FEFAA
:10332000F11609F4C1C070E00F2D0F2C000C110B29
:10333000272F30E0021713070CF4B6C03695322F52
:10334000222737952795280F391F2E513E4FF90117
:1033500060837F5FEDCF923069F080916209825087
:10336000933009F0BFCD80936209BCCD8091620992
:103370008E5FF9CF8E5F80936109B4CD809169092A
:10338000882309F4D4CD80E80E94800C882319F0AA
:103390008CEF80935E090E94ED0B87FD08C00E94B0
:1033A000ED0B84FD04C010925E0910925C0980E16F
:1033B0000E94800C882319F084E080935E0980913C
:1033C0005C0990915E09890F80935C0940915D09C9
:1033D000642F042E000C770B20915A0930915B0961
:1033E000481794F5260F371F30935B0920935A092D
:1033F00040935C0980915A0990915B0997FD0F9663
:10340000F4E095958795FA95E1F7909359098093A3
:10341000580988E00E94800C882309F488CD8091A7
:103420006509811184CD809156098B5F8093610974
:10343000809158098D5F8093620981E080936509CE
:1034400082E08093640973CD082E000C990BEE275F
:10345000FF27E61BF70B8E179F0744F4261B370B3D
:1034600030935B0920935A094195C2CF820F931F75
:1034700090935B0980935A09BDCF612C1986E12C8A
:1034800097E09C8BA1E0AE87E9E0F9E0F88BEF874D
:1034900078CE87FF06CF80E004CF9150E12C03CF98
:1034A000FA94F092160122CF5523C9F0EF2DFF0CAC
:1034B000FF0B3196F695FE2FEE27F795E795E80F6F
:1034C000F91FEE51FE4F28E030E0251B31090FEFC8
:1034D00010E002C0159507952A95E2F70083542F56
:1034E0005695569556954770252F30E07901F694FC
:1034F000FE2CEE24F794E794E80EF91E10E000E0AD
:10350000752F700F783070F4F801F695FE2FEE27C6
:10351000F795E795EE0DFF1DEE51FE4F60830F5FAF
:103520001F4FEECF4423C1F0E8E0F0E0E41BF109C7
:103530000FEF10E002C015950795EA95E2F7A80194
:103540003695322F222737952795280F391F2E5170
:103550003E4F4095F9014083019612968F379105B1
:1035600009F0CECE10E080914008181710F500E168
:10357000109FF00111248091340690913506E80FD8
:10358000F91F8385882379F0648170E082819381BB
:103590002585222351F0268527FD2F5F25954BE1B8
:1035A00057E00E94B30B1F5FDECF4781508520E0BC
:1035B000F8CF10E00BE0809141081817A8F4E091D3
:1035C0003606F0913706109FE00DF11D112487811A
:1035D000882341F0628170E04BE057E08081918167
:1035E0000E949D0B1F5FE7CF86E490E09093C4019B
:1035F0008093C3011092C6011092C50162E971E087
:1036000080913206909133060E94020D4091390854
:1036100050E070E060E02AE080913206909133063D
:103620000E94110D2091670940915409509155094C
:1036300060915809709159098091560990915709E4
:10364000222309F406C12091680927FD2D5F2595E5
:1036500025950E94B30B60916209062E000C770B32
:1036600080916109082E000C990B2091630901E0FB
:10367000222309F4F0C023E041E00E948E0C8091E7
:103680001D0115E3181B163308F015E341EF57E051
:1036900070E060E090E080E00E949D0B173008F43D
:1036A00017E0612F70E020E045EE57E090E080E009
:1036B0000E94B30B00E020E447E070E060E089E79F
:1036C00090E00E948E0C10E000E041E0B80189E734
:1036D00090E00E94F50B0F5F1F4F00341105A9F712
:1036E000109116014091AD015091AE016091AF0172
:1036F0007091B0014A30510561057105C8F081E053
:103700008093B601443651056105710588F08093B8
:10371000B701483E23E052076105710548F08093E8
:10372000B801403157426105710510F08093B9012D
:103730008091B1010E94CD0CAC0168E370E08BE791
:1037400090E00E949D0B8091B601882359F08091F2
:10375000B2010E94CD0CAC0160E370E08BE790E019
:103760000E949D0B8091B701882359F08091B3018D
:103770000E94CD0CAC0168E270E08BE790E00E9403
:103780009D0B8091B801882359F08091B4010E946B
:10379000CD0CAC0160E270E08BE790E00E949D0BE5
:1037A0008091B901882359F08091B5010E94CD0C18
:1037B000AC0168E170E08BE790E00E949D0B41E373
:1037C00058E061E070E08BE790E00E949D0B4BE2D7
:1037D00058E0193020F4812F0E94CD0CAC0167E035
:1037E00070E08BE790E00E949D0B8091AC018823F4
:1037F00039F080911501882389F18150809315015A
:103800008AE090E09093C4018093C3011092C601B6
:103810001092C501C09016010C2C000CDD08EE08BA
:10382000FF082AE0B701A601F7FE0DC06DE28AE6A7
:1038300099E00E940B0C44275527BA014C195D09E9
:103840006E097F092AE08AE699E00E94110D0C9426
:103850006C1320E0FECE21E043E00FCF0091BA01CF
:103860008BE190E09093C4018093C3018CE190E0E0
:103870009093C6018093C501063199F587E0809346
:10388000C90188E00E94750C811106C084E00E9485
:10389000750C882309F4B4CF81E080933806109228
:1038A0006809109267098093690985E69EE0909304
:1038B0005509809354098AE090E0909357098093CA
:1038C00056091092AC0188E7809315010E94E61C0E
:1038D0002FE030E040E050E00E94611D6093BA01AB
:1038E0008FCF4EE0049F80011124095C174FF8012F
:1038F0006491662331F28AE699E00E940B0C0F5F17
:103900001F4F892BA1F7BDCF66E971E08AE699E0E8
:103910000E94020D88E00E94750C811107C084E0AE
:103920000E94750C882311F40C946C131092C90139
:103930000C946C138F929F92AF92BF92CF92DF92B2
:10394000EF92FF92CF93DF93EC01688179818A81B6
:103950009B81611571058105910521F464E279ED82
:103960008BE597E02DE133EF41E050E00E94611DCF
:1039700049015A019B01AC01A7EAB1E40E94801DF4
:103980006B017C01ACEEB4EFA50194010E948E1D89
:10399000C60ED71EE81EF91EF7FE06C081E0C81A43
:1039A000D108E10880E8F80AC882D982EA82FB825D
:1039B000C701B6019F77DF91CF91FF90EF90DF9025
:1039C000CF90BF90AF909F908F9008958F929F92CD
:1039D000AF92BF92CF92DF92EF92FF9260915C0123
:1039E00070915D0180915E0190915F01611571059B
:1039F0008105910521F464E279ED8BE597E02DE1F5
:103A000033EF41E050E00E94611D49015A019B01E2
:103A1000AC01A7EAB1E40E94801D6B017C01ACEE11
:103A2000B4EFA50194010E948E1DC60ED71EE81E9C
:103A3000F91EF7FE06C081E0C81AD108E10880E847
:103A4000F80AC0925C01D0925D01E0925E01F092B2
:103A50005F01C701B6019F77FF90EF90DF90CF9095
:103A6000BF90AF909F908F90089560935C0170938A
:103A70005D0180935E0190935F010895FB01DC017D
:103A800002C005900D9241505040D8F70895F99921
:103A9000FECF92BD81BDF89A992780B50895262F53
:103AA000F999FECF92BD81BDF89A019700B4021634
:103AB00039F01FBA20BD0FB6F894FA9AF99A0FBEE2
:103AC0000895052E97FB1EF400940E94781D57FD63
:103AD00007D00E94931D07FC03D04EF40C94781D70
:103AE00050954095309521953F4F4F4F5F4F08952A
:103AF00090958095709561957F4F8F4F9F4F08955A
:103B00000E94B51DA59F900DB49F900DA49F800DA0
:103B1000911D11240895B7FF0C94801D0E94801DF3
:103B2000821B930B0895A1E21A2EAA1BBB1BFD0159
:103B30000DC0AA1FBB1FEE1FFF1FA217B307E4078C
:103B4000F50720F0A21BB30BE40BF50B661F771FE4
:103B5000881F991F1A9469F76095709580959095C4
:103B60009B01AC01BD01CF010895A29FB001B39F9D
:103B7000C001A39F700D811D1124911DB29F700D76
:103B8000811D1124911D089597FB072E16F40094B2
:103B900007D077FD09D00E94DE1D07FC05D03EF45A
:103BA000909581959F4F0895709561957F4F0895E9
:103BB000EE0FFF1F0590F491E02D0994AA1BBB1B8B
:103BC00051E107C0AA1FBB1FA617B70710F0A61B1D
:103BD000B70B881F991F5A95A9F780959095BC013E
:083BE000CD010895F894FFCF18
:103BE800FFFFFFFF00E100000000000010000102DD
:103BF80003040706057803DEDE00000000320A0130
:103C08001602000006DE00DE0E08000000000000BC
:103C1800DE00DE0E08000000000000DE00DE0E08F8
:103C2800000000000000DE00DE0E080000000000BA
:103C380000DE00DE0E0800000000000001000000A9
:103C4800FFFFFF000001010100C1808100000000AA
:103C58000000003309B008540949099A095809763F
:103C680009000000000B0C8308FF0CFE0C20000D5F
:103C78000A0043533A0047616D65204F766572002C
:00000001FF
